:10000000E0C00000FBC00000F9C00000F7C0000025
:10001000F5C000000C945C11F1C000000C944B1171
:10002000EDC00000EBC00000E9C00000E7C0000028
:10003000E5C00000E3C00000E1C00000DFC0000038
:10004000DDC00000DBC00000D9C00000D7C0000048
:100050000C940111D3C00000D1C00000CFC000003B
:10006000CDC00000CBC00000C9C00000C7C0000068
:10007000C5C00000C3C00000C1C00000313633322B
:100080002E323032332D31322D30332B38000001F7
:10009000050414101115000000000000000000000D
:1000A0000000000000000000000000000000000050
:1000B000000000000002020202020202020202022A
:1000C0000202020202020202000000000000000020
:1000D0000000000000000000000000000000000020
:1000E0000000000000000000000000000000000010
:1000F00000000000000000000000000000000002FE
:1001000002020202020202020202020202020202CF
:1001100002020202020202020202020202020202BF
:1001200002020202020202020202020202030405A9
:100130000608090B0E1013171A1F23292F363D45E9
:100140004E5964707D8C9BADBFD4EA383E444A5210
:1001500059616A737D88939FACBAC8D7E8F90E0FCE
:10016000111213141617191A1C1E20222426282BCC
:100170002D303336393C3F42464A4D51565A5F6323
:10018000686D72787E838A90969DA4ABB3BBC3CB17
:10019000D4DDE6EFF9393B3D404245484A4D5053E6
:1001A000565A5D6064676B6F73777B7F84888D912F
:1001B000969BA0A6ABB0B6BCC2C8CED5DBE2E9F038
:1001C000F7FF11241FBECFEFCDBFDFE3DEBF18E383
:1001D000A0E0B8E3E2E0FAE202C005900D92A83395
:1001E000B107D9F728E3A8E3B8E301C01D92AF3CFB
:1001F000B207E1F70E946C110C94D01401CFF8946F
:1002000098ED94BF809361008091630080FDFCCFE6
:1002100078940895E0E0F6E08285816082878085A9
:10022000816080870895ECE9F8E320E030E0908178
:10023000992339F02F5F3F4F339620313105B9F7BD
:100240000BC0F901EE0FFF1F2E0F3F1FF901E456FF
:10025000F74C80836183728308950F931F93CF932C
:10026000DF93D0919C38DD2351F100919D3810919E
:100270009E38C0917938C150C7FD0DC0EC2FEE0FEC
:10028000FF0BE658F74C0190F081E02DB8018D2F5F
:1002900009958111F0CFECE9F8E3838180838481B3
:1002A000958181839283339688E3E93CF807A9F727
:1002B0001092C9381092CA381092CB38D2CFDF9141
:1002C000CF911F910F910895BC018091CE38ABCF93
:1002D0001092CE381092CC381092CD3881E08093B5
:1002E000693808950F931F93CF93C82F0CEC18E033
:1002F000CC2349F085E083DFC8010197F1F781E065
:100300007EDFC150F5CFCF911F910F910895E0E0AE
:10031000F6E083E88083838180628383A0EAB0E093
:100320008C918F7880618C9382E08683818383E4D3
:10033000828310929838109299386CCF8AB183FBDF
:10034000882780F991E08927809372380895E09199
:100350000638F09107383196FB70F460E093063868
:10036000F093073880916C388B5A80936C38E49105
:1003700080916C388E0F0895FF920F931F93CF9347
:10038000DF9300D01F92CDB7DEB72091A4A93091A2
:10039000A5A94091A6A929833A834B838E010F5FBB
:1003A0001F4F20E030E0682F70E0E1E0F0E098E0DF
:1003B000F92ED8019D918D01A901440F551FDB0134
:1003C00002C0B595A7954A95E2F7AD01437081F05B
:1003D0004130C9F4A92FB0E0AF0102C0440F551F4E
:1003E0009A95E2F740932204A05DBB4FFC9215C0A2
:1003F000AF0102C0440F551F9A95E2F740932104C4
:10040000409326040AC0DF0102C0AA0FBB1F9A95C1
:10041000E2F7A0932104A09325042F5F3F4F2330E0
:10042000310539F62396CDBFDEBFDF91CF911F9105
:100430000F91FF900895811182E09ECF81118AE093
:100440009BCF811188E098CF811188E295CF8111EF
:1004500080E292CF811182E28FCF81118AE28CCF2C
:1004600081E0089590E0FC01E45DFE4F2491FC01E1
:10047000EA56FF4F84914091A00090E0477050E011
:1004800084179507C1F48091A106821720F480910A
:10049000A1068F5F07C08091A106281728F48091DC
:1004A000A10681508093A1069091A10681E02917B1
:1004B00019F080E0089581E00895CF93DF93CDB7E0
:1004C000DEB72697CDBFDEBF90910C3820918A38D9
:1004D00030918B38215A3A4009F492E0843019F473
:1004E000609318381FC06623E9F0823019F427E9B9
:1004F000261B622F26E0E7EAF9EADE011196019059
:100500000D922A95E1F79E012F5F3F4F280F311D75
:10051000280F311DF90132970190F081E02DE90F8C
:10052000F11D60832696CDBFDEBFDF91CF91089588
:10053000BF92CF92DF92EF92FF920F931F93CF93D0
:10054000DF93EC0140910C3890911738992311F00A
:10055000E2E001C0E42FF0E0E45FF74C2281209359
:100560000938858180930838E92FF0E0E45FF74C83
:100570003185622F70E0442349F0313039F49B011A
:10058000280F311DC9019595879538C0C617D70723
:10059000A4F1682F70E06C177D0784F1411102C04F
:1005A0008C2F2CC0821B032F10E001501109E82E64
:1005B000F12CC701B8010E948914609366386695D2
:1005C000E62FF0E0822FC12CD12CB12CB316B1F064
:1005D000C601B8010E947514822F860FCE0CDF1C55
:1005E000AE01481B510957FF03C051954195510970
:1005F000E417F5071CF4B394E9CF822FDF91CF9174
:100600001F910F91FF90EF90DF90CF90BF900895D2
:10061000ECE0F8E3868580930A388389808B8093A9
:100620007038089580916238882351F090916F3826
:10063000909365388093613810925F3810926038DB
:1006400008950F931F93CF9390918E38992341F083
:100650002BEA290F2F3110F09C3110F480E098C064
:10066000E82FEF7020916338211123C0C82FC29565
:10067000CF702091323888E0289F900111246217B2
:100680007307C0F480916838482F50E04217530731
:100690008CF4882379F021E080916E388F3008F453
:1006A00020E081E0C23009F080E0822BC1E0C80F79
:1006B00036C0C2E0E73088F1E730A9F400913D3858
:1006C00010E00F5F1F4F43DE65E00E946914980140
:1006D000290F311DC90166E070E00E9489148093E2
:1006E0003D38FC013AC0E830D1F48091713888235C
:1006F00011F02FE001C023E030E062237323672B69
:1007000051F480913D3890E0019666E070E00E94DF
:10071000891480933D38E0913D38F0E01EC080910F
:100720007138882381F080E0E82FF0E0E054F6454E
:100730002081921710F08E5FF7CF3197E081F0E0C3
:10074000E257FF4F0CC0CB019695879563E070E0B0
:100750000E947514FC01EE0FFF1FE157FF4FE4915B
:10076000C33071F480913C3890E0019663E170E011
:100770000E94751480933C38DC01A355B645CC919A
:10078000CC2321F0C13019F0EE0F01C0E0E08E2F34
:10079000CF911F910F91F0CD81E00895823019F42F
:1007A000609332380895611160932D38089566235F
:1007B00089F0813061F480918C3890912F38891BB9
:1007C000681B60932F3882E080930B3803C0635E10
:1007D00060932E3880912E38873418F086E4809309
:1007E0002E380895609333380895E82FF0E0E45FE1
:1007F000F74C67A308957FEF780F40911D38509113
:100800001E38662359F021E030E002C0220F331F6A
:100810007A95E2F7CA01822B932B0AC081E090E01F
:1008200002C0880F991F7A95E2F78095842395235B
:1008300080931D3890931E380895CF93DF938CE0FA
:1008400098E380936A3890936B38F894C0E0D0E0D6
:10085000E0916A38F0916B38EC0FFD1F60812196B2
:10086000CE010E94B314CB32D10591F765EA80E046
:1008700090E00E94B3147894DF91CF910895109284
:100880009A388091100690916C38890F80936C385B
:1008900080918F38882309F448C110928F38909145
:1008A000983880917138882349F0809100068E7FB6
:1008B0008093000610929B3810929838911162C074
:1008C00080910B38882329F0809194389091953845
:1008D0001AC08091713820919038309191388823D6
:1008E000B9F0809194389091953853E0969587951A
:1008F0005A95E1F7820F931F63E0369527956A9525
:10090000E1F7821B930B809390389093913801C04C
:10091000C90160912D386750262F220F6AE571E0DA
:100920000E947514620F60938E3880915638882328
:1009300011F081500BC08BEA860F8F3110F06C31B3
:1009400038F460E070E084E06EDC85E08093563837
:10095000809171388111E0C08091A0008F78806112
:100960008093A0008EE18093060682E080930106CA
:1009700083E48093020681E080939838109299383E
:1009800049DCCAC0913009F0C7C080910B38882378
:1009900041F0809196389091973880939238909357
:1009A00093382091201180912111A0919238B0911B
:1009B000933830E48302A019B109112430E00E9479
:1009C0009C14DC01CB01905EAF4FBF4F892F9A2F53
:1009D000AB2FBB2720912F38FC0136E0F695E79529
:1009E0003A95E1F7022E000C330BA9014351514017
:1009F0004E0F5F1F40938C3850938D38BC0145E0FB
:100A0000769567954A95E1F780910B3881112AC058
:100A100080914538E82FF0E0EE0FFF1FEA5BF74CBE
:100A200040815181DB01A41BB50BAD016083718353
:100A30008F5F87708093453880912E3890E08D5E6F
:100A40009E4F821B930B880F991F9B01281B390B0C
:100A5000C9019D01220F331F220F331F820F931FE5
:100A600023E00EC0E6E4F8E36193719388E3E63592
:100A7000F807D1F7CDCF009709F00196215029F062
:100A800018161906C4F70197F9CF18161906E4F4D9
:100A900057FD39C02091443812160CF1880F991F68
:100AA000BC016350710977FF02C06F5F7F4F75957E
:100AB00067951616170614F061E070E088E1861B52
:100AC0008093443885E026C08C3FAFEF9A07DCF472
:100AD00057FF19C02091443827FF05C02450281B18
:100AE0002093443818C024EE281B209344382091CA
:100AF0008E38263780F06CEF7FEF681B790B759589
:100B0000679586E007C080918E38853720F060E0D9
:100B100070E087E088DBFBDB80910B38882329F0CD
:100B200080910B38815080930B380895CF93C82F54
:100B300080917138811101C01FDCC1111EC010925B
:100B4000A1068091A000887F8093A000809104047A
:100B50008F7D809304048091240484608093240416
:100B600081E0C0DB809124048B7F809324048091FA
:100B700004048F7E809304040EC0E091703884E0FA
:100B8000E89FF0011124EE51F6450190F081E02D2F
:100B90008FEF8C0F099580916F38C81380936E3852
:100BA000C0936F38C0936D38CD3210F485E005C026
:100BB000CD3211F483E001C081E0CF9120CBCF93FF
:100BC000C0916F3889E18C0F873908F080E0AEDF83
:100BD00082E088DB8C2FCF91A9CFCF93C0916F3863
:100BE00080E0A4DF83E07EDB8C2FCF919FCF8093CA
:100BF000673890916F38981718F4282F291B02C076
:100C0000292F281B30915938311106C030912138D5
:100C1000332369F0223058F080935A3884E080936F
:100C2000583881E08093593890935B3808957ECF8F
:100C3000CF93DF9390917038981759F0C82FD091C7
:100C40006F3880E073DFC09370388D2FDF91CF91C4
:100C50006DCFDF91CF91089590916F38911109C0B8
:100C6000833338F49091240494609093240491E0A9
:100C700001C090E020910404206120930404282FF7
:100C800030E0F901E45DFE4F4491F901EA56FF4F6F
:100C90002491823320F080910404806203C080910B
:100CA00004048F7D809304044093A106E091A0008A
:100CB000E87FE22BE093A000992339F081E012DB7A
:100CC000809124048B7F809324040895813019F44B
:100CD00010921A380895823019F460931B380895E1
:100CE000833019F4609319380895843019F46093AF
:100CF0000D380895853011F4609321380895CF930D
:100D0000C0911738C1114FC0883039F41092623841
:100D100010925F381092603847C0813B81F4809117
:100D200062388150833008F03EC083E0809362389F
:100D30008093613810925F381092603834C0853BE0
:100D4000B1F4CB016EE370E00E947514892B61F55C
:100D5000809162388A3F40F58B5F80936238809340
:100D6000613810925F381092603829DF1DC08130E1
:100D7000D1F480915F3890916038019688382EE0E8
:100D8000920728F480935F38909360380DC01092DA
:100D90005F381092603880916238882329F0815042
:100DA0008093623801C0C1E08C2FCF910895FF92EB
:100DB0000F931F93CF93DF938C01EB01F42E80915F
:100DC0008A3890918B38892B31F0E0918A38F091F4
:100DD0008B3889E0099500938A3810938B38012B62
:100DE00039F0E0918A38F0918B38BE018F2D09954A
:100DF00081E080936938DF91CF911F910F91FF902F
:100E00000895CF93DF93E0917938EE2359F0E150C4
:100E1000E0937938F0E0EE0FFF1FE658F74CC08101
:100E2000D18102C0C0E0D0E0E0917938EE2341F0FA
:100E3000F0E0EE0FFF1FE858F74C8081918102C06F
:100E400080E090E04AE060E070E0B1DFCE01DF9149
:100E5000CF910895883029F41092573810923E3877
:100E600015C0813001F590913E38911107C0603274
:100E7000710570F180933E382BDA2AC0913089F4E5
:100E80006B3B710528F082E080933E3880E01FC004
:100E900061157105E9F06270862F880F880F8E5EEC
:100EA00016C0AFDF15C0813811F0813E89F491E0A2
:100EB00090933E38813E21F480915738865F03C07D
:100EC000809157388F5F8093573802DA8BE42EDE9B
:100ED00080E008959C0190917938983088F4E92F4A
:100EE000F0E0EE0FFF1FE658F74C208331839F5F41
:100EF0009093793848E0C9015ADF80917938089594
:100F00008FEF08950F931F93CF93DF93EC018B0125
:100F100078DFB801CE01DF91CF911F910F91DACF29
:100F2000813C29F460E070E084E19CE006C0823CF2
:100F300039F460E070E083EC9AE0E4DF80E008954B
:100F400081E00895843011F580918A3890918B3832
:100F50002EE08C38920729F469E170E08BE098E08C
:100F600013C08B50984061F490916F38923040F0EC
:100F7000892F869596959695890F39DE80E008959C
:100F800060E070E084E19CE0BDDFF8CF81E008958F
:100F9000813C29F460E070E084E19CE006C0823C82
:100FA00031F460E070E080E997E0ACDF16C0813B8F
:100FB00049F4CB016EE370E00E947514892B69F44B
:100FC000FEDD0BC0813E59F4CB016EE370E00E9460
:100FD00075146F5F60932C3830DC80E0089581E0F9
:100FE0000895813C29F460E070E084E19CE006C053
:100FF000823C31F460E070E088EC97E083DF07C06A
:10100000873B39F460E070E08DEA9AE063DF80E0CE
:10101000089581E00895BF92CF92DF92EF92FF9200
:101020000F931F93CF93DF93182FEB0180911C3800
:1010300080937038D0900938F090083880910C383F
:10104000882319F0B090663802C0BB24B394C090D6
:101050000D38809117388111C0901838CC2051F08C
:1010600031E0C31621F080910A388F1518F0F6E9A7
:10107000EF2E01C0EF2C00916238BE01812F3FDEC0
:1010800020916238222339F001110CC080916F3811
:101090008093653807C0002329F060E070E084E1A8
:1010A0009CE036C0812F8D7F8830D9F410925E3855
:1010B0001A3019F4C0910A38D0E08D2D90E08C17C9
:1010C0009D0738F48F2D90E0C817D90710F4C0930E
:1010D0000A38CE012DDA8BDD81E08093053800E0FF
:1010E000BAC1113CD1F2123C59F480916F388E157F
:1010F00010F48E2D02C080910A3879DD93DAEFCF9B
:10110000143C41F480E012DD60E070E086E29BE098
:10111000F9DEE5CF8FE4810F823008F061C0809165
:101120000C38882341F0CE0168E170E00E9475140C
:10113000892B31F0D4CF6091143870E0CE01F6CF16
:10114000009159380111CBCF80916F38209761F40D
:10115000123B11F48FEF05C08F15E0F7D81648F158
:1011600081E08093053825C02091143830E066E393
:1011700071E0269FA001279F500D369F500D11242E
:101180004C175D0710F48F1528F76CE672E0269F68
:10119000A001279F500D369F500D11244C175D075D
:1011A00040F4D81630F00BDD60E070E086E29BE0A2
:1011B000A9DEC0916F38209105383B2D2303C00173
:1011C00011248C0F911DB4D980930A38C81719F0D7
:1011D000F81201C002DD80910A3809DD23DA3BC133
:1011E0008FE1810F823020F480910538819575CF91
:1011F000113009F084C0A99711F410930538222307
:1012000071F1C0916538C29F90011124E09161385D
:10121000F0E0C901BF010E948914462FC9018C1B4F
:101220009109BF010E948914242F261B80915F38E9
:10123000909160386EE370E00E947514269FC001A3
:10124000279F900D11246CE370E00E947514461BDB
:10125000642F09F461E060936D3860936738C09142
:101260006D3820916F388C2F90E0821B910960912E
:101270004138709142386F5F7F4F6093413870936F
:101280004238009709F42BCF97FF05C0233830F080
:1012900040E450E005C040E052E002C040E051E0D0
:1012A0005695479597FD0196959587950097C1F7B7
:1012B0004617570708F013CFC21710F4CFEF03C03B
:1012C0002C1710F4C1E0C20FE091703884E0E89F61
:1012D000F0011124EE51F6450280F381E02D8FEFED
:1012E0008C0F0995882331F0D0916D388C2F1EDC3E
:1012F000D0936D381092413810924238F0CE1530AC
:10130000A1F480916F38833308F4E9CE90E08C1B10
:101310009D0B8233910534F0873991056CF186E994
:1013200090E02AC082E390E027C01630B9F4909193
:101330006F3880916738981708F0D1CEC90FD11D4A
:1013400090E08C179D0734F0C233D10524F4C2E33A
:10135000D0E001C0EC01C0936D38C1CE173079F4F4
:1013600090916D3880916F38891710F48F5F04C0A9
:10137000981708F0B4CE815080936D38B0CE133CEE
:1013800019F0163C41F517C060911D3870911E3858
:1013900080E090E020E0AB01082E02C05695479512
:1013A0000A94E2F74170240F01968830910599F76D
:1013B000223008F04FC081E090910C38911180E00C
:1013C00080930C383ADA09DC80916F3890E0B0D81D
:1013D00080930A3892CE0091173801113BC0133B1D
:1013E00049F4CD2B09F07BCECC2011F086E9E82E14
:1013F0008E2D04C0133E21F480910A38F8DB2BC0F7
:10140000153C61F480916F3880930A3880E08EDB60
:1014100060E070E088E390E175DD1DC0173B29F4C2
:1014200060E070E08DE99AE013C01A3C59F48091B5
:101430006F3880931A388091703880931F38FDD9A7
:10144000BEDB09C01A3B31F460E070E085EA9AE047
:1014500041DD01C001E0802FDF91CF911F910F91FD
:10146000FF90EF90DF90CF90BF9008950F931F9360
:10147000CF938B01C42F883091F480917038809382
:10148000403810923F3880E051DB809172388111F2
:101490004FC080913F388F5F80933F3833C0982F83
:1014A000907F903B21F580913F384817E8F08150BC
:1014B000883040F490916438992321F090917038ED
:1014C0008913B6DBC8016DE570E00E9475140697BC
:1014D00049F480913F388F5F80933F38C81740F1BF
:1014E00088E303C082E101C080E020DB21C0903EA0
:1014F00079F480913F388823A1F0481790F08091CB
:10150000403896DB60E070E08AE297E0E3DC10C0F0
:101510008A3049F46091573880913F38F901099534
:101520008CD96FDC05C0893019F48091403880DB9C
:1015300080E0CF911F910F9108952DE532E043E0B7
:1015400095CF2DE532E044E091CF26E636E045E048
:101550008DCF2EEC33E042E089CF27ED33E042E03F
:1015600085CF22EF33E041E081CF25EF33E043E048
:101570007DCF91E0909364382BEF33E048E076DF45
:10158000109264380895CF93C0911738C11123C0C9
:10159000813C29F460E070E084E19CE006C0823C7C
:1015A00031F460E070E081EF97E0ACDC15C0833C83
:1015B00051F48091203890E00196877099278093AC
:1015C00020383BD909C0873B31F460E070E089EAFC
:1015D0009AE080DC01C0C1E08C2FCF910895CF93B9
:1015E000833C21F54091703860911D3870911E3810
:1015F000842F98E0282F30E02F5F3F4F277033274C
:10160000822FFB0102C0F695E7952A95E2F7E0FFED
:101610000AC04817B9F00CDB8091703880931C38F1
:101620000CD9C0E010C0915029F7F3CFC091173802
:10163000C11108C0893B31F460E070E089EB9AE0A9
:1016400049DC01C0C1E08C2FCF9108950F931F9307
:10165000CF93DF93C82F8B01873B19F480E066DAC4
:1016600081C080798039B1F420910E3890910F3883
:101670008C2F8F70813021F4822F921748F407C08D
:1016800080911A38811104C0822F291708F4892FFC
:101690004DDA0FC0803811F480E048DAC83049F4E0
:1016A0001092683860E070E0809131380E94210328
:1016B00059C0C13039F40931110508F49AC0C093FA
:1016C00071381BC0C330F9F4809168388F3F19F02E
:1016D0008F5F8093683880911A38882371F0409129
:1016E0001B3822EC31E0429FC001439F900D112432
:1016F0000817190710F00E940803B80180913138CB
:101700000E94210376C0C33C31F459DA60E070E0F6
:1017100084E19CE014C0C43C21F460910A3870E07C
:101720000CC0C43B31F459DA1092CE3861E070E05D
:1017300004C0C53C31F466E970E08BE098E0E2DB80
:1017400058C0C33B79F4C8016EE370E00E94751481
:10175000892B41F460E070E083ECDF91CF911F9121
:101760000F913DCFD0911738D11145C0C73CB1F48E
:1017700080913138982F92959F709F5F937040E1D0
:10178000949F900111248F70822B8093313860E0F8
:1017900070E00E94210351D812DA2EC0C73BD9F461
:1017A00081E080936338C8018F739927892B69F48E
:1017B00090913138892F8F708F5F292F207F6BE0B8
:1017C0000E946914922B90933138B801809131387E
:1017D0000E94210311C0C73E21F4109263382DD816
:1017E0000BC0CA3B41F460E070E081EB9AE072DB31
:1017F00003C0D0E001C0D1E08D2FDF91CF911F91C8
:101800000F91089590912138992369F080935A3867
:1018100088E08093583881E08093593880916F3800
:1018200080935B38089582C90F931F93CF938B01E8
:101830008830A1F480E0E6DF80915938082B1092BF
:10184000683880911C388093703810926238012B70
:1018500009F05FC081E0809371385BC0813059F43A
:101860006931710508F455C0C0915938C11151C092
:10187000809371380BC1833069F5809168388F3F50
:1018800019F08F5F8093683880911A38882371F03F
:1018900040911B3822EC31E0429FC001439F900DE4
:1018A00011240817190710F00E940803B80180914D
:1018B00030380E94210380913338882351F142EC63
:1018C00051E0849F9001859F300D1124201731072E
:1018D00000F553C0813B99F481E090E00E949802AA
:1018E00091DF80911938811114C080910C388111D9
:1018F00003C00831110568F061E070E02AC0813E44
:10190000D9F3813841F480910A3890E00E9498021E
:1019100079DFC0E0BBC0813C21F460910A3870E0FF
:1019200018C0823B81F41092683880910D389091F4
:101930001738911180911838811103C086E990E021
:10194000E5CF86E9E5CF823E59F0823C29F466E98D
:1019500070E08BE098E00CC0833921F41092593884
:1019600080E0D6CF833C31F460E070E083EC9AE015
:10197000C9DACFCF843C31F422D960E070E086E24E
:101980009BE0F6CF8D3B49F4F89491E088ED84BF5D
:10199000909300017894A895FFCF8F3C29F460E0E4
:1019A00070E08CEC93E0E4CFC09117388A3B81F46F
:1019B000672B71F4CC2331F002D9109217380E94B2
:1019C0001D04A7CF60E070E081EA9AE083DA5EC090
:1019D000C1115BC0833B29F460E070E08CE89EE0BD
:1019E00052C0873CB9F480913038982F92959F70FF
:1019F0009F5F937040E1949F900111248F70822B20
:101A00008093303860E070E00E9421030E941D0442
:101A1000D6D83CC0873BD1F481E080936338C801BD
:101A20008F739927892B61F490913038892F8F70AB
:101A30008F5F292F207F6BE04CD7922B909330380B
:101A4000B801809130380E94210320C0873E19F4EC
:101A50001092633806C08A3C39F4B1D881E0809393
:101A600017380E941D0412C0853C31F4A8D860E0EC
:101A700070E088E390E107C0863C39F4A0D860E0CC
:101A800070E080E890E13EDA01C0C1E08C2FCF9198
:101A90001F910F9108950F931F93CF931092743855
:101AA0008091CC389091CD389C012F5F3F4F882793
:101AB0009078822B932B8093CC389093CD38C09123
:101AC00072380E949E01C81731F1109271388093CC
:101AD00072389091CE38882359F0892F80699F7091
:101AE0009F3009F08F5F8093CE3880E090E00DC08A
:101AF000892F8F7E95FD02C0806801C0806C809325
:101B0000CE388091CC389091CD380E9464011092EB
:101B1000CC381092CD380091CC381091CD388091CE
:101B200071388823B1F0B80183E00E9413010E944C
:101B30002D010134110528F00F701127012B09F038
:101B400047C01092433881E080939B380E94870100
:101B500032C0C091CE388C2F807F803B19F460E07A
:101B600070E001C0B80181E00E941301C4FF13C0FE
:101B7000C5FF02C0C8010CC008311105E0F0109289
:101B8000CC381092CD38C062C093CE3880E090E05F
:101B90000E94640110C0CC2371F0C5FD0AC002315F
:101BA000110548F0C064C093CE3880E090E00E94F8
:101BB00064010E946801C0914338C11105C00E94B0
:101BC0000A0181E080938F38CF5FCF71C093433893
:101BD000CF911F910F91089580919A3881110E94A1
:101BE0003F0480917438811156CF0895EF92FF928F
:101BF0000F931F93CF93DF93EC0102E418E080E191
:101C0000E82E82E0F82E2097D9F080916938811172
:101C100019C080916F388D3228F485E00E94FF0052
:101C2000C70104C081E00E94FF00C8010197F1F7DD
:101C300081E00E94FF00D0DF0E942D012197E3CFB9
:101C400081E001C080E0DF91CF911F910F91FF9063
:101C5000EF9008950F931F93CF93DF93C82F88239E
:101C600011F006EA02C00AE0C1E0D091703810E03D
:101C7000809120380E94180689E10E949605D09331
:101C80007038C801B3DF809120380E94180680E0C8
:101C90000E949605D09370388AEF90E0A7DFC1507C
:101CA00039F78D2F0E9418068AE992E0DF91CF91D3
:101CB0001F910F919BCFCF93DF9364E60AD6282F15
:101CC000892F6AE006D6EC01222341F0822FC2DF81
:101CD0008C2FC0DF8D2FDF91CF91BCCFC111F8CFFA
:101CE000F9CFCF93DF93D82FC3E080910A380E94B9
:101CF000960588EC90E07ADFDD2319F080E991E029
:101D000075DF80E00E94960588EC90E06FDFC1509F
:101D100061F7DF91CF910895FF920F931F93CF93B7
:101D2000DF93D82F8B01C0915C3881E080935E38BF
:101D3000C43009F0EDC0F09062388D2F0E947F060C
:101D4000FF2051F080916238811106C060E070E0A0
:101D500084E19CE0D7D8DCC0D83021F481E08093C6
:101D60000338D8C0D23C19F410926238E6C0D13B97
:101D7000C1F490910238012B49F49F3510F08FEF98
:101D800003C0923018F481E08093033880910338C7
:101D9000890F11F481E04EC1803608F44BC18FE504
:101DA00049C1D13E31F48091033881958093033845
:101DB00015C1D23B61F481E08093033880910238F1
:101DC000823008F413C18150809302380FC1D130A2
:101DD00009F0B7C00932110511F4D093033890917E
:101DE0003B38892F880F97FD80952CE0829FC0019A
:101DF000112430913A38232F220F37FD20958091FE
:101E00000138289F90011124232F290F90913938F0
:101E1000892F880F97FD809590910038899FC00188
:101E20001124822F890F6091023870E0680F711DB4
:101E3000809162388130B9F480915F389091603838
:101E400025E0969587952A95E1F724E730E0A901EA
:101E5000481B590B469FC001479F900D569F900D00
:101E60001124B90142D5862F0E94960500FD08C0B5
:101E70000E94A701817090913B38890F80933B3875
:101E800090913A3880913838890F80933A380E947F
:101E9000A70165E21ED580913938980F90933938A3
:101EA0000E94A7018F7331F40E94A7016DE011D544
:101EB00090933838C0910138CC2339F00E94A701A3
:101EC0008F7319F4C150C09301380E94A70181118A
:101ED00008C00E94A70162E1FCD4909301381092DF
:101EE0003A38C0910038C33038F00E94A7018F7192
:101EF00019F4C150C09300380E94A7018F7709F0F0
:101F0000A5C00E94A7016AE0E4D4909300389EC067
:101F1000D83041F48091223880935C3881E08093FE
:101F200004388AC0D13C39F460E070E084E19CE080
:101F30000E94820781C0D23C31F48C2F90E0019640
:101F400017C0D13C89F3D33C71F4809170388F5F16
:101F500087700E941806EC2FF0E0E45FF74C809148
:101F60007038878B56C0D43C59F48C2F90E005967E
:101F700066E070E0CED48093223880935C3849C00C
:101F8000D13B51F5C23090F400FD56C0EC2FF0E08B
:101F9000E45FF74C858D90910438891B883020F0E0
:101FA0008F3F99F58EEF31C088E02FC0C53009F022
:101FB00043C090912B3880910438890F823010F4FF
:101FC00082E003C0893708F088E780932B3880913E
:101FD0002B380E94960530C0D13E31F480910438F0
:101FE00081958093043815C0D23B89F481E08093B9
:101FF0000438C23018F500FD1FC0EC2FF0E0E45F9C
:10200000F74C858D8F3FC1F08F5F858F15C0D23E15
:1020100019F40E941D0410C0D53C41F460E070E04A
:1020200088E390E10E94820780E0D3CFD13071F045
:1020300081E018C08093023880E014C0C530E1F719
:1020400080912B38833018F28150BFCF09321105AF
:1020500019F481E08093043880916C38080F009364
:102060006C38EACFDF91CF911F910F91FF900895C7
:102070000F931F93CF93DF93D82F8B01883031F4C8
:1020800080915E38882311F088E046DE8D2F8079BC
:10209000803961F481E080935D38C0915E38C11170
:1020A0000CC080910A380E94960524C0803839F40B
:1020B00010925D3880E00E949605C0E01BC0D130D0
:1020C000C1F4C0915D38CC2359F080915E388823EB
:1020D000A1F3B80181E0DF91CF911F910F911CCE48
:1020E00080E00E94BC010733114038F3D09371386F
:1020F00001C0C1E08C2FDF91CF911F910F91089506
:10210000FF920F931F93CF93DF93D82F8B01F09003
:102110000A388079803951F5ED2FEF70E43020F0E6
:1021200010925D38C0E036C091E090935D38F0E0E9
:10213000E45FF74C87A12FEF280F263948F48093EE
:102140000A3810925E3880911C38809370380CC029
:1021500090935E388739D0F090E08759910966E016
:1021600070E0D7D380935C38C0E00BC0803841F476
:1021700010925D3880E00E94960581E08093693876
:10218000C1E080915D38882329F001C0C0E0B8012A
:102190008D2F6EDFF0920A38D83021F4B80188E034
:1021A00055DA28C0D13039F480915D38811120C0D2
:1021B000B80181E004C0D33041F4B80183E0DF917D
:1021C000CF911F910F91FF9041CAD63C49F40E94D4
:1021D000DF0560E070E084E19CE00E94820708C0B7
:1021E000D73B41F460E070E085EB9AE00E946A071B
:1021F00080E001C08C2FDF91CF911F910F91FF9054
:1022000008951F920F920FB60F9211242F933F93B0
:102210008F939F93AF93BF93EF93FF9381E080934E
:102220000B0680919938882331F1E091983880919C
:1022300010069091110624E0880F991F2A95E1F766
:10224000F0E0EE0FFF1FDF01AC56B74C8D939C936F
:10225000E057F74C208131812817390710F42F5FA0
:102260003F4F8217930710F42150310920833183A7
:1022700081E080939A3881E080939938FF91EF91C3
:10228000BF91AF919F918F913F912F910F900FBE72
:102290000F901F9018951F920F920FB60F92112456
:1022A0008F9381E080935301809374388F910F90C6
:1022B0000FBE0F901F9018951F920F920FB60F929E
:1022C00011248F935B9A81E0809373388F910F90E4
:1022D0000FBE0F901F901895F89480914000877F53
:1022E0008093400088EDA89584BF90910001907F75
:1022F0009093000121E030E084BF2093610080E7EB
:1023000080B98CE384B988E0809310048093110431
:1023100080931304809317048093300480933104D6
:1023200080935004809351048093520489E08093F9
:1023300053048091A000887F8093A0008091A10029
:1023400081608093A10081E48093A0061092A10691
:102350008091530481608093530481E08093520103
:10236000809151018111FCCF81E4809350010E9442
:102370008701789481E00E94720160E070E082EA57
:1023800097E00E946A07109269380E94DF050E9458
:102390009E01811114C08CE098E380936A38909379
:1023A0006B38F89480E090E0D6D2853A09F044C0CA
:1023B00000916A3810916B38C1E0D0E034C0C0E0C1
:1023C0008C2F0E94960583E190E010DC8C2F86957F
:1023D0000E94960583E190E009DC0E949E0188231B
:1023E000B9F0CF5FC03461F760918C3880912F389D
:1023F000681B81E00E94D7030E941D04C6E98C2F50
:102400000E94960584E090E0F1DBC150C1F7C3CF94
:10241000CC2309F4C0CF8C2F0E9496058DE090E06C
:10242000E5DBC150F5CFCE0196D2F80181938F0143
:102430002196CC32D105B9F7789480911A38811160
:102440000E94080360E070E08FEE9AE00E946A0745
:1024500061E070E084E19CE00E946A079924939413
:1024600042E0242E51E4352E4424439467E0862E26
:102470007DE0572EE8EEAE2EE3E0BE2EF4E1CF2E47
:10248000FCE0DF2E0E942D01809177389091783802
:10249000009751F060917538709176380E948207EC
:1024A000109277381092783880917138882309F427
:1024B00064C080E00E949605909252018091510183
:1024C0008111FCCFF9E5F0935001809100068E7FD9
:1024D000809300060E949E018111FCCF0E9468013A
:1024E0008091530481608093530410929A38109223
:1024F00074381092733880917138882369F1809113
:102500009B38882329F080915000897F826004C025
:1025100080915000897F84608093500080915000AA
:102520008160809350008895809150008E7F8093C9
:1025300050008091733881111092713880919A38CF
:10254000882321F040928F380E943F048091743894
:10255000882389F2A0DACFCF20920B3880915304E0
:10256000887F809353040E9487019092520180914A
:1025700051018111FCCF309250012EDB109269384D
:1025800080918A3890918B3823E08C3C920719F522
:10259000CCE7D0E0FE0184918053803110F45ADB07
:1025A00011C010E0812F81708295880F807E0E947B
:1025B000960580E190E01ADB1F5F193199F78AE9EF
:1025C00092E014DB8CE291E011DB2196F0E0CD3853
:1025D000DF0701F7F7C02EE08C38920799F0E0E1B1
:1025E00088339E0729F0F0E180389F0709F0D2C0B8
:1025F00020915E38213009F0CDC020915D38222332
:1026000009F4C8C0C0915C38EC2FF0E0E45FF74CEF
:10261000878980937038C230D1F030F0C330B9F17F
:10262000C53009F49AC02ECFD58D86E90E94960553
:10263000C11103C081E090E003C08D2F869590E02A
:10264000D5DA81E00E9496058D2F90E02FC1D091C0
:102650000A38C0E0C11102C081E003C0C53019F4DE
:1026600085E00E9418068D2F0E94960581E290E079
:10267000BDDA81E00E94960582E490E0B7DACF5F90
:10268000CA3041F780911C3880937038FBCE0E948D
:10269000A7018F73E82EF12C0E94A701682D19D194
:1026A00001E010E0380102C0660C771C9A95E2F751
:1026B0000E94A70165E00DD1E80102C0CC0FDD1F2B
:1026C0009A95E2F76C0E7D1E0E94A70190E0B3017F
:1026D00020D1E301C80FD91FC739D10514F0C6E9CD
:1026E000D0E08C2F0E949605C70180DA8E0133E07E
:1026F000159507953A95E1F7011101C001E010E049
:10270000C70174DAC01BD10BD7FF02C0C0E0D0E014
:102710008C2F0E9496050E94A701837039F4C7018F
:1027200065DACE01959587950E949605C230D10550
:102730003CF70E94A701652DCCD0C1E0D0E002C0DB
:10274000CC0FDD1F9A95E2F70E94A70190E0BE0131
:10275000CCD0C80FD91F80E0A6C0C0912B38CC0FB9
:10276000C73908F0C6E9D4E08C2F0E94960585E0B1
:1027700090E03CDA80912B380E94960581E490E04D
:1027800035DAD15089F780ED92E030DA80E00E94AE
:10279000960578CE2AE0833C9207E9F488EE93E030
:1027A00025DA80918E388695869585DA90918E38D7
:1027B0009370892F880F9695890F7DDA809117384D
:1027C000882381F0C0927738D0927838109275388B
:1027D0001092763857CEE7E0813F9E0731F4809122
:1027E0008C3869DA88EE93E061C0F7E0883C9F0797
:1027F000C1F480917238811145CE80910A380E94CF
:10280000960584E690E0F2D980E00E94960520913A
:102810002C382A9DC0012B9D900D112484569109BE
:1028200045C08059974049F480E05BDA81E059DA8D
:1028300080E057DA80ED97E039C080912138882315
:10284000B9F180915938882399F120916F3890918E
:102850005A3829130AC0822F0E94960510925938BF
:1028600080915B3880936E380DCE6091583829176F
:1028700060F4892F821B2DD0811101C081E0820F6D
:102880000E9496058AE090E011C08EE1689FA00149
:10289000112460915B38691B70E0CA013AD0EB01EA
:1028A00021968FEF820F0E949605CE019FD9EACD27
:1028B00080915000897F809350008091500081600A
:1028C000809350008895809150008E7F80935000B7
:1028D000D9CD991B79E004C0991F961708F0961B73
:1028E000881F7A95C9F780950895AA1BBB1B51E1F3
:1028F00007C0AA1FBB1FA617B70710F0A61BB70B70
:10290000881F991F5A95A9F780959095BC01CD0114
:10291000089597FB072E16F4009406D077FD08D093
:10292000E4DF07FC05D03EF4909581959F4F089514
:10293000709561957F4F0895A29FB001B39FC0012C
:10294000A39F700D811D1124911DB29F700D811DDB
:102950001124911D089503D0808199270895FC01C9
:10296000E050FC4E0895262FFADF0080021611F089
:1029700004D0019701970895262FAF93BF93E0E00D
:10298000F0E1328131FDFDCFDC01A050BC4E2C9333
:102990003DE934BF23E020830196BF91AF910895B4
:0429A000F894FFCFD9
:1029A4000304050E38113814380201000000000039
:1029B40000000100000000000000000100002401EC
:1029C40028022C03300434053806400750007401F3
:1029D40084028C0394049C05A406B007FF072C060C
:1029E40032021B0230021E02300221023002240293
:0E29F4003002270230022A0230022D02300289
:102A02000A1218010101000482012C0200010101D5
:102A12001482827801070501000000000001000015
:102A220000010400000000000029433202073200C6
:082A320019390400781E980018
:00000001FF
