:10000000F8C012C12CCD10C10FC10EC10DC10CC161
:10001000D9CC0AC109C108C113CD06C105C130350B
:1000200032312E323032332D31322D30332B3800F5
:1000300000000000000000000000000000000000C0
:1000400000000000000000000000000000000000B0
:1000500000000000000000000000000000000000A0
:100060000000000000000000000000000000000090
:100070000000000000000000000000000000000080
:100080000000000000000000000000000000000070
:100090000000000000000000000000000000030657
:1000A0000A0D1115181C2125292E32373C42474CC8
:1000B00052585E656B727980878F979FA7B0B9C2DF
:1000C000CBD5DFE9F4FF00000000000000000000D5
:1000D0000000000000000000000000000000000020
:1000E0000000000000000000000000000000000010
:1000F0000000000000000000000000000000000000
:10010000000000000000000B0D10121417191C1F36
:100110002225282B2F32363A3E42464B50555A5F05
:10012000646A70767D838A9199A1A9B1B9C2CCD550
:10013000DFE9F4FFFFFFFFFFFFFFFFFFFFFFFFFF10
:10014000FFFFFFFFFFFFFFFFFFFFFFFFFFFFFFFFBF
:10015000FFFFFFFFFFFFFFFFFFFFFF0001010202A4
:10016000030304050506070809090A0E0F101112FA
:1001700013141516181A1C1E202225272A2D303379
:10018000363A3E41454A4E53585D62686E747B82F2
:10019000899199A1AAB3BCC6D0DBE7F3FFFFFFFFAB
:1001A000FFFFFFFFFFFFFFFFFFFFFFFFFFFFFFFF5F
:1001B000FFFFFFFFFFFFFFFFFFFFFFFFFFFFFFFF4F
:1001C000FFFFFFFFFFFFFFFFFFFFFFFFFFFFFFFF3F
:1001D000FFFFFFFFFFFFFFFFFFFFFFFFFFFFFFFF2F
:1001E000FFFFFFFFFFFFFFFFFFFFFFFFFFFFFFFF1F
:1001F000FF0011241FBECFE5D2E0DEBFCDBF10E06F
:10020000A0E6B0E0E0EAFFE102C005900D92AA3955
:10021000B107D9F721E0AAE9B0E001C01D92AA32E6
:10022000B207E1F72BDCBACEEBCE482F9B01E7EF0C
:10023000F0E080E090E05081552331F00196339654
:1002400080319105C1F709C063E070E049DEFC012F
:10025000E950FF4F40833283218308950F931F930A
:10026000CF93DF93D091F700DD2351F10091F80097
:100270001091F900C091D400C150C7FD0DC0EC2F02
:10028000EE0FFF0BEB52FF4F0190F081E02DB80114
:100290008D2F09958111F0CFE7EFF0E08381808306
:1002A0008481958192838183339681E0E432F807DB
:1002B000A9F7109224011092260110922501D2CFA5
:1002C000DF91CF911F910F910895BC018091290179
:1002D000ACCF10922901109228011092270181E0E1
:1002E0008093C600089590E822E048EA57E030E0A5
:1002F000815070F00FB6F89496BD26BD0FBEFA017E
:100300003197F1F70FB6F89496BD36BD0FBEF0CF1A
:1003100008958CE287B91092F3001092F4008FEEEA
:1003200086B9089586B383FB882780F991E08927F1
:100330008093CD000895E0916600F09167003196BA
:10034000FB70F460F0936700E09366008091C90051
:100350008B5A8093C900E4918091C9008E0F089553
:1003600090E0FC01E45AFE4F3491FC01EA53FF4F48
:100370002491FC01E05DFF4F849139BD28BD8BBD08
:10038000089590E0FC01E45AFE4F3491FC01EA53D9
:10039000FF4F2491FC01E05DFF4F949189B58111DD
:1003A00002C03F3F29F089B58F3F21F4311102C0CF
:1003B00039BD0CC089B5831718F489B58F5F05C0A6
:1003C00089B5381718F489B5815089BD88B5811170
:1003D00002C02F3F29F088B58F3F21F4211102C0C0
:1003E00028BD0CC088B5821718F488B58F5F05C08A
:1003F00088B5281718F488B5815088BD8BB5891742
:1004000018F48BB58F5F05C08BB5981718F48BB5B2
:1004100081508BBD89B5381306C088B5281303C039
:100420002BB581E0921380E00895CF93DF9300D045
:1004300000D000D0CDB7DEB790916C002091E500E0
:100440003091E6002855384009F492E0843019F4E0
:100450006093780021C06623F9F0823019F427E90F
:10046000261B622F26E0E4E8F0E0DE011196019001
:100470000D922A95E1F7E82FF0E03197EE0FFF1F7C
:1004800021E030E02C0F3D1FE20FF31F0190F081BF
:10049000E02DE90FF11D608326960FB6F894DEBFBC
:1004A0000FBECDBFDF91CF910895BF92CF92DF9263
:1004B000EF92FF920F931F93CF93DF93EC01409144
:1004C0006C0090917700992311F0E2E001C0E42FD5
:1004D000F0E0E459FF4F22812093690085818093E9
:1004E0006800E92FF0E0E459FF4F3185622F70E09A
:1004F000442349F0313039F49B01280F311DC901E3
:100500009595879536C0C617D70794F1682F70E088
:100510006C177D0774F1411102C08C2F2AC0821B19
:10052000032F10E001501109E82EF12CC701B8018A
:1005300008DD6093C3006695E62FF0E0822FC12CA2
:10054000D12CB12CB316A9F0C601B801E6DC822F7C
:10055000860FCE0CDF1CAE01481B510957FF03C0AC
:10056000519541955109E417F5071CF4B394EACF6E
:10057000822FDF91CF911F910F91FF90EF90DF902D
:10058000CF90BF9008958091C100882351F0909141
:10059000CB009093C2008093C0001092BF001092D5
:1005A000BE000895662389F0813061F48091E700F0
:1005B00090918100891B681B6093810082E0809389
:1005C0006B0003C0635E609380008091800087347D
:1005D00018F086E480938000089560938300089566
:1005E00081E00895CF93DF938CE690E09093C8006C
:1005F0008093C700F894C0E0D0E0E091C700F0918C
:10060000C800EC0FFD1F60812196CE01B5DCC8311A
:10061000D10599F765EA80E090E0AEDC7894DF914F
:10062000CF9108951092F50084B195B12091C90041
:100630008295869586958370990F990F890F820F01
:100640008093C9008091EA00882309F402C11092C6
:10065000EA008091F3009091CC00992329F037981B
:100660001092F6001092F300811139C080916B0056
:10067000882349F06091EF007091F0007093EC00D6
:100680006093EB0004C06091EB007091EC0096E089
:10069000769567959A95E1F780E090EB3EDC665F92
:1006A0006093E9008091B500882311F0815007C064
:1006B000643738F460E070E084E0B7DD85E0809373
:1006C000B5008091CC008111BBC08FEA87B981E071
:1006D0008093F3001092F4008FEE86B9B1C08130A0
:1006E00009F0AEC080916B00882341F08091F10049
:1006F0009091F2009093EE008093ED008091ED00D8
:100700009091EE00A0918100AC01F6E056954795DE
:10071000FA95E1F70A2E000CBB0B4A0F5B1F435101
:1007200051405093E8004093E7009C0185E03695E6
:1007300027958A95E1F780916B00811127C0809100
:10074000A400E82FF0E0EE0FFF1FEB55FF4F4081B4
:100750005181B901641B750B318320838F5F8770D2
:100760008093A400CB01880F991F880F991F409197
:10077000800050E04D5E5E4F4A1B5B0B440F551FDF
:10078000841B950B820F931F23E00EC0E5EAF0E077
:100790002193319380E0E53BF807D1F7D0CF009764
:1007A00009F00196215029F018161906C4F701978F
:1007B000F9CF18161906E4F477FD39C02091A3008B
:1007C00012160CF1880F991FBC016350710977FF55
:1007D00002C06F5F7F4F759567951616170614F068
:1007E00061E070E088E1861B8093A30085E026C06D
:1007F0008C3F2FEF9207DCF477FF19C02091A30004
:1008000027FF05C02450281B2093A30018C024EE06
:10081000281B2093A3002091E900263780F06CEF7D
:100820007FEF681B790B7595679586E007C080910F
:10083000E900853720F060E070E087E0F6DC69DDF4
:1008400080916B00882329F080916B008150809308
:100850006B000895882321F0813029F4BA9804C0F0
:10086000BA98C2980895BA9AC29A0895CF93C82F99
:100870008091CC00811101C0EDDFC11104C019BC11
:1008800018BC1BBC03C08FEF8C0F6ADDC093CB007C
:10089000C093CA00C83010F492E005C0C03110F413
:1008A00091E001C090E080E80FB6F89486BD96BD57
:1008B0000FBECF910895CF93C091CB0089E18C0FEB
:1008C000873908F080E0D2DF82E00DDD8C2FCF91F8
:1008D000CDCFCF93C091CB0080E0C8DF83E003DDB4
:1008E0008C2FCF91C3CF8093C4009091CB009817E9
:1008F00018F4282F291B02C0292F281B3091B8007B
:10090000311106C030917B00332369F0223058F05A
:100910008093B90084E08093B70081E08093B800B1
:100920009093BA000895A2CF813019F41092790003
:100930000895823019F460937A000895833019F491
:1009400060936D000895843011F460937B000895E6
:100950009091E900943710F480E011C0943828F4A5
:1009600066956170635086230AC0982F9F709330FC
:1009700030F06F70E62FF0E0E657FF4F80816ACFCE
:10098000CF93C0917700C1114DC0883039F41092D7
:10099000C1001092BF001092BE0045C0813B79F4A7
:1009A0008091C10081508330E8F583E08093C100DD
:1009B0008093C0001092BF001092BE0033C0853BF0
:1009C000A9F4CB016EE370E0A8DA892B61F5809180
:1009D000C1008A3F40F58B5F8093C1008093C000C7
:1009E0001092BF001092BE0066DF1DC08130D1F4AE
:1009F0008091BE009091BF00019688382EE092074A
:100A000028F49093BF008093BE000DC01092BF00E9
:100A10001092BE008091C100882329F081508093FC
:100A2000C10001C0C1E08C2FCF910895FF920F93B8
:100A30001F93CF93DF938C01EB01F42E8091E5009F
:100A40009091E600892B31F0E091E500F091E6000D
:100A500089E009951093E6000093E500012B39F039
:100A6000E091E500F091E600BE018F2D099581E04F
:100A70008093C600DF91CF911F910F91FF90089551
:100A8000CF93DF93E091D400EE2359F0E150E0934F
:100A9000D400F0E0EE0FFF1FEB52FF4FC081D18179
:100AA00002C0C0E0D0E0E091D400EE2341F0F0E0DD
:100AB000EE0FFF1FED52FF4F8081918102C080E059
:100AC00090E04AE060E070E0B1DFCE01DF91CF91CD
:100AD0000895883029F41092B60010929E0015C037
:100AE000813001F590919E00911107C0603271052F
:100AF00070F180939E00EDDB2AC0913089F46B3B4E
:100B0000710528F082E080939E0080E01FC061158F
:100B10007105E9F06270862F880F880F8E5E16C00F
:100B2000AFDF15C0813811F0813E89F491E09093D8
:100B30009E00813E21F48091B600865F03C08091C3
:100B4000B6008F5F8093B600C4DB8BE48FDE80E05D
:100B500008959C019091D400983088F4E92FF0E03A
:100B6000EE0FFF1FEB52FF4F318320839F5F909367
:100B7000D40048E0C9015ADF8091D40008958FEF76
:100B800008950F931F93CF93DF93EC018B0178DFD0
:100B9000B801CE01DF91CF911F910F91DACFCF93A2
:100BA000C0917700C1110FC0813C29F460E070E072
:100BB0008CE798E006C0823C31F460E070E08DE0A4
:100BC00096E0DFDF01C0C1E08C2FCF910895843023
:100BD00011F58091E5009091E6002AE081389207B6
:100BE00029F469E170E087E296E013C087529640ED
:100BF00061F49091CB00923040F0892F86959695C4
:100C00009695890F70DE80E0089560E070E08CE7D3
:100C100098E0B7DFF8CF81E00895813C29F460E0E7
:100C200070E08CE798E006C0823C31F460E070E050
:100C30008FEC95E0A6DF07C0873B39F460E070E0F9
:100C400080E698E086DF80E0089581E00895BF9215
:100C5000CF92DF92EF92FF920F931F93CF93DF9388
:100C6000182FEB01D0906900F090680080916C0023
:100C7000882319F0B090C30002C0BB24B394C09085
:100C80006D00809177008111C0907800CC2051F0E8
:100C900081E0C81621F080916A008F1518F0F6E9FE
:100CA000EF2E01C0EF2C0091C100BE01812F68DE44
:100CB0008091C100882339F001110CC09091CB00C4
:100CC0009093C20007C0002329F060E070E08CE739
:100CD00098E036C0912F9D7F9830D9F41092BD00D6
:100CE0001A3019F4C0916A00D0E08D2D90E08C1775
:100CF0009D0738F48F2D90E0C817D90710F4C093E2
:100D00006A00CE01D2DBEFDD81E08093650000E078
:100D10007CC1113CD1F2123C59F48091CB008E156C
:100D200010F48E2D02C080916A00DDDD2CDCEFCF47
:100D3000143C41F480E09ADD60E070E08DE49CE0DA
:100D400020DFE5CF9FE4910F923008F04CC08091F6
:100D50006C00882339F0CE0168E170E0DED8892B81
:100D600031F0D5CF6091740070E0CE01F7CF0091E3
:100D7000B8000111CCCF2091CB00209761F4123B39
:100D800011F48FEF05C02F15E0F7D216F8F081E0CF
:100D9000809365001BC0E0917400F0E0CF0166E332
:100DA00071E09ED88C179D0710F42F1550F7CF01D6
:100DB0006CE672E095D88C179D0740F4D21630F09F
:100DC0007ADD60E070E08DE49CE0DBDE8091650020
:100DD0006B2D70E0082E000C990B82D82091CB006F
:100DE000820F911DD4C09FE1910F923020F4809129
:100DF000650081958ACF113009F078C0A99711F468
:100E000010936500882349F10091C20010E090E042
:100E1000B80166D8EC01E091C000F0E0BF0191D8C4
:100E2000262FCE01801B910BBF018BD8322F361B92
:100E30008091BE009091BF006EE370E06ED8832F6A
:100E400090E04ED86CE370E068D8261B622F09F45E
:100E500061E06093CA006093C400D091CA008091A1
:100E6000CB002D2F30E0281B31096091A00070913C
:100E7000A1006F5F7F4F7093A1006093A0002115C8
:100E8000310509F444CF37FF05C0833830F040E422
:100E900050E005C040E052E002C040E051E056950D
:100EA000479537FF02C02F5F3F4F35952795211596
:100EB0003105A9F74617570708F029CFD81710F4BE
:100EC000CFEF03C08D1718F4C1E0C80F01C0CD2FBC
:100ED0008FEF8C0F56DA882321F08C2FC7DCD0934C
:100EE000CA001092A1001092A00011CF1530A1F4F9
:100EF0008091CB00833308F40ACF90E08C1B9D0BCC
:100F00008233910534F08739910564F186E990E0E8
:100F100029C082E390E026C01630B1F49091CB0056
:100F20008091C400981708F0F2CEC90FD11D90E04F
:100F30008C179D0734F0C233D10524F4C2E3D0E00E
:100F400001C0EC018C2F0EC0173079F49091CA00CB
:100F50008091CB00891710F48F5F04C0981708F0B8
:100F6000D6CE81508093CA00D2CE00917700011175
:100F70004BC0133C91F481E090916C00911180E0A2
:100F800080936C002FDBA5DC8091CB0090E08DDAA4
:100F900080936A00A8DCF7DA38C0133B49F4CD2B04
:100FA00009F0B5CECC2011F086E9E82E8E2D04C0D4
:100FB000133E21F480916A0096DC27C0153C61F451
:100FC0008091CB0080936A0080E050DC60E070E0AC
:100FD00088E09CE0D6DD19C0173B29F460E070E0A2
:100FE00084E598E00FC01A3C39F48091CB008093DF
:100FF0007900F8DA60DC09C01A3B31F460E070E097
:101000008CE598E0A6DD01C001E0802FDF91CF9153
:101010001F910F91FF90EF90DF90CF90BF900895B8
:10102000883071F410929F0080E020DC8091CD0028
:10103000811138C080919F008F5F80939F0022C0F4
:10104000982F907F903BB1F420919F00421778F049
:10105000CB016DE570E061D7069739F42F5F2093DF
:101060009F004217F8F088E303C082E101C080E0EE
:10107000FDDB18C0903E61F480919F00882389F0C9
:10108000481778F060E070E089E695E062DD0AC01C
:101090008A3041F46091B60080919F00F901099572
:1010A000A1DAEEDC80E0089525E132E043E0B8CF3C
:1010B00025E132E044E0B4CF24E934E044E0B0CFAD
:1010C00022ED32E042E0ACCF2DEE32E041E0A8CF9D
:1010D00081E0089590917B00992369F08093B90095
:1010E00088E08093B70081E08093B8008091CB00C6
:1010F0008093BA000895BACB0F931F93CF938B01BF
:10110000883079F480E0E6DF8091B800082B1092F7
:10111000C5001092C100012BE9F581E08093CC005D
:1011200039C0813051F469317105A0F1C091B80026
:10113000C11130C08093CC00C5C0833069F5809167
:10114000C5008F3F19F08F5F8093C5002091790013
:10115000222359F080917A0090E062EC71E0C0D6D1
:101160000817190710F020936A0080918200602F01
:101170008370EEDB80918300882361F090E062EC65
:1011800071E0AED68017910728F460E070E08DE43E
:101190009CE0F7DCC0E096C0813B71F481E090E018
:1011A00084D998DF80916C00811103C0083111054A
:1011B00088F361E070E02AC0813ED9F3813821F4E0
:1011C00080916A0090E015C0813C21F460916A0032
:1011D00070E01CC0823B89F41092C50080916D00C4
:1011E00090917700911180917800811104C086E977
:1011F00090E05BD905C086E903C0823E19F480E027
:1012000069DFC8CF823C29F466E970E087E296E0A6
:10121000C0CF833919F41092B800F1CF833C29F480
:1012200060E070E08FEC95E0B4CF843C11F443DBD8
:10123000ACCF8D3B31F4F89488ED81BD7894A895BE
:10124000FFCF8F3C29F460E070E088E698E0A1CF02
:10125000C09177008A3B79F4672B69F4CC2329F09D
:101260002ADB10927700BED995CF60E070E088E568
:1012700098E06FDC27C0C11124C0833B29F460E0F3
:1012800070E081E89AE01BC0873C51F490918200A5
:1012900081E0890F9C7F8370892B8093820006C038
:1012A0008A3C31F408DB81E0809377009BD90AC047
:1012B000853C39F400DB60E070E088E09CE061DCB4
:1012C00001C0C1E08C2FCF911F910F9108950F9312
:1012D0001F93CF931092CF00809127019091280106
:1012E0009C012F5F3F4F88279078822B932B909300
:1012F000280180932701C091CD0014D8C81729F187
:101300001092CC008093CD0090912901882359F050
:10131000892F80699F709F3009F08F5F809329012A
:1013200080E090E00DC0892F8F7E95FD02C080681F
:1013300001C0806C80932901809127019091280140
:10134000C4D7109228011092270100912701109113
:1013500028018091CC00882399F0B80183E065D7FB
:101360007DD70134110528F00F701127012B09F0EA
:1013700044C01092A20081E08093F600CAD72EC02C
:10138000C09129018C2F807F803B19F460E070E0D0
:1013900001C0B80181E049D7C4FF12C0C5FF02C037
:1013A000C8010CC008311105C8F010922801109234
:1013B0002701C062C093290180E090E086D70EC06B
:1013C000CC2361F0C5FD09C00231110538F0C064BD
:1013D000C093290180E090E078D77BD78091A2006C
:1013E000811105C08FEE86B981E08093EA0080917B
:1013F000A2008F5F8F718093A200CF911F910F91F8
:1014000008958091F50081110DD98091CF0081114F
:101410005ECF0895CF92DF92EF92FF920F931F93CA
:10142000CF93DF93EC0110E800E080E3E82E87E043
:10143000F82E9CECC92EDD24D394209709F18091DD
:10144000C60081111FC08091CB00883040F482E03B
:101450000FB6F89416BD86BD0FBEC60106C00FB606
:10146000F89416BD06BD0FBEC7010197F1F70FB680
:10147000F89416BD06BD0FBEC4DFF0D62197DDCFB0
:1014800081E001C080E0DF91CF911F910F91FF902B
:10149000EF90DF90CF900895CF93C82F882381F0ED
:1014A00089E1E4D986EA90E0B5DF80E0DFD98AEF10
:1014B00090E0B0DFC150A1F78AE992E0CF91AACFC6
:1014C00089E1D4D98AE090E0A5DF80E0CFD98AEF26
:1014D00090E0A0DFF1CFCF93DF9364E612D5282F01
:1014E000892F6AE00ED5EC01222341F0822FD4DF50
:1014F0008C2FD2DF8D2FDF91CF91CECFC111F8CFBE
:10150000F9CFFF920F931F93CF93DF93D82F8B01C7
:10151000C091BB0081E08093BD00C33009F0DBC007
:10152000F090C1008D2F2CDAFF2051F08091C10086
:10153000811106C060E070E08CE798E022DBCBC050
:10154000D83021F481E080936300C7C0D23C19F405
:101550001092C100D4C0D13BC1F490916200012B24
:1015600049F49E3610F08FEF03C0923018F481E0FA
:101570008093630080916300890F11F481E029C199
:101580008F3608F426C18EE624C1D13E31F4809115
:101590006300819580936300F2C0D23B61F481E0E7
:1015A0008093630080916200823008F4F0C0815023
:1015B00080936200ECC0D13009F0A5C0093211055A
:1015C00011F4D093630090919D00892F880F97FDAF
:1015D000809590E067E070E083D4292F80919C0093
:1015E000682F660F87FD60958091610070E090E044
:1015F00077D4290F80919B00682F660F87FD609537
:101600008091600070E090E06BD4920F6091620076
:1016100070E0690F711D8091C100813091F480915B
:10162000BE009091BF0025E0969587952A95E1F739
:1016300024E730E0A901481B590BCA0151D4B90174
:101640006CD4862F13D900FD07C075D68170909198
:101650009D00890F80939D0090919C0080919A003D
:10166000890F80939C0067D665E24BD480919B00E4
:10167000980F90939B005FD68F7329F45CD66DE032
:1016800040D490939A00C0916100CC2331F053D69E
:101690008F7319F4C150C09361004DD6811107C0FA
:1016A0004AD66BE02ED49093610010929C00C091BA
:1016B0006000C33030F03FD68F7119F4C150C09331
:1016C000600039D68F7709F088C035D666E019D426
:1016D0009093600082C0D83041F480917C00809368
:1016E000BB0081E08093640076C0D13C31F460E0BF
:1016F00070E08CE798E045DA6EC0D23C31F48C2F74
:1017000090E0019607C0D13C91F3D43C59F48C2F62
:1017100090E0049665E070E014D480937C008093A0
:10172000BB0048C0D13B49F5C23090F400FD53C026
:10173000EC2FF0E0E459FF4F818990916400891B00
:10174000883020F08F3F91F58EEF30C088E02EC0BA
:10175000C43009F040C090917F0080916400890FEF
:10176000823010F482E003C0893708F088E7809364
:101770007F0080917F007AD82EC0D13E31F48091D5
:10178000640081958093640015C0D23B89F481E0A8
:1017900080936400C23068F500FD1DC0EC2FF0E0BE
:1017A000E459FF4F81898F3FB1F08F5F818B13C068
:1017B000D23E11F417D70FC0D53C39F460E070E089
:1017C00088E09CE0DED980E0D6CFD13031F081E0F6
:1017D00019C08093620080E015C00932110519F428
:1017E00081E0809364008091C900080F0093C900D4
:1017F000F2CFC43081F780917F00833008F4B9CFF5
:101800008150B5CFDF91CF911F910F91FF90089537
:101810000F931F93CF93DF93D82F8B01883031F430
:101820008091BD00882311F088E06BDE8D2F8079D8
:10183000803959F481E08093BC00C091BD00C11192
:101840000AC080916A0012D822C0803831F4109208
:10185000BC0080E00BD8C0E01AC0D130B9F4C09110
:10186000BC00CC2359F08091BD008823A1F3B801BE
:1018700081E0DF91CF911F910F9143CE80E0EAD7B5
:101880000733114040F3D093CC0001C0C1E08C2F4E
:10189000DF91CF911F910F9108950F931F93CF93D5
:1018A000DF93C82F8B0180798039B1F420916E00CD
:1018B00090916F008C2F8F70813021F4822F9217BE
:1018C00048F407C080917900811104C0822F291744
:1018D00008F4892FCBD713C0803819F480E0C6D71D
:1018E00005C0C83019F41092C50046C0C13039F4A3
:1018F0000931110508F45DC0C093CC005AC0C33053
:10190000E9F48091C5008F3F19F08F5F8093C50087
:1019100020917900222359F080917A0090E062ECC6
:1019200071E0DED20817190710F020936A00809149
:101930008200602F869586950BD83BC0C33C31F45E
:10194000BAD760E070E08CE798E014C0C43C21F4A2
:1019500060916A0070E00CC0C43B31F4BAD71092B9
:10196000290161E070E004C0C53C31F466E970E033
:1019700087E296E006D91DC0D0917700D1111BC037
:10198000C73C79F490918200892F869586958F5F68
:101990008370880F880F9370890F8093820022D6FE
:1019A0000BC0CA3B41F460E070E084E698E0D1D817
:1019B00003C0D0E001C0D1E08D2FDF91CF911F9106
:1019C0000F9108951F920F920FB60F9211242F932B
:1019D0003F938F939F93AF93BF93EF93FF93809128
:1019E000F4008823E9F0E091F30024B135B1F0E090
:1019F000EE0FFF1FDF01A151BF4F2D933C93E55127
:101A0000FF4F808191818217930708F40196281770
:101A1000390708F401979183808381E08093F50072
:101A200081E08093F400FF91EF91BF91AF919F917E
:101A30008F913F912F910F900FBE0F901F9018958F
:101A40001F920F920FB60F9211248F9381E0809313
:101A5000CF008F910F900FBE0F901F9018951F927F
:101A60000F920FB60F9211248F9381E08093CE00D6
:101A70008F910F900FBE0F901F901895F89484B718
:101A8000877F84BF0FB6F894A89581B5886181BD22
:101A900011BC0FBE83E187BB81E083BF91EA9ABD91
:101AA00080BF80E68CBD8FEF8DBD88E088BB85BB95
:101AB0008BB780628BBFA89581B5886181BD80E4BA
:101AC00081BD27D4789481E00ED460E070E087EE89
:101AD00095E03FD81092C600EED624D4811113C0F1
:101AE0008CE690E09093C8008093C700F89480E063
:101AF00090E03AD2853AC1F50091C7001091C80034
:101B0000C1E0D0E028C0C0E08C2FB0D683E190E0E7
:101B100081DC8C2F8695AAD683E190E07BDC02D411
:101B2000882381F0CF5FC03479F765E181E03AD551
:101B300059D5C6E98C2F9AD684E090E06BDCC15071
:101B4000C9F7CECFCC2361F28C2F90D68DE090E0F8
:101B500061DCC150F7CFCE0107D2F80181938F012C
:101B60002196C931D105B9F7789480917900811116
:101B700080936A0060E070E080EF92E0EAD761E075
:101B800070E08CE798E0E5D743E4342E52E0452E30
:101B900060E4562E7724739477E0672ECC24C394A8
:101BA000D12CFCEF8F2EF3E09F2EACE7AA2EA8E0FD
:101BB000BA2E54D38091D2009091D300009749F06F
:101BC0006091D0007091D100DCD71092D3001092B8
:101BD000D2008091CC00882309F44BC080E046D627
:101BE000A89581B5886181BD31BC37989BD381119F
:101BF000FDCF6FD38BB780628BBF1092F500109230
:101C0000CF001092CE008091CC00882339F18091D2
:101C1000F600882321F085B7877E886003C085B7EA
:101C2000877E806185BF85B7806285BF889585B7CF
:101C30008F7D85BF8091CE0081111092CC00809164
:101C4000F500882329F070926B007092EA00EAD4C4
:101C50008091CF008823B9F23ADBD5CF40926B0058
:101C60008BB78F7D8BBF55D3A89581B5886181BD1A
:101C700051BCC7DB1092C6008091E5009091E60050
:101C8000F8E088369F0711F5CEE1D0E0FE0184919F
:101C90008053803110F400DC10C010E0812F81707F
:101CA0008295880F807EE2D580E190E0B3DB1F5FF4
:101CB0001931A1F78AE992E0ADDB8CE291E0AADB71
:101CC0002196F0E0CF32DF0709F7B9C02AE081386A
:101CD000920779F03CE08830930709F0A0C080912A
:101CE000BD00813009F0BDC08091BC00882309F49B
:101CF000B8C0C091BB00C23001F120F0C43009F47B
:101D000074C057CFEC2FF0E0E459FF4FD1898EE635
:101D1000ADD5C11109C0DA3220F4C4010197F1F741
:101D200007C081E090E003C08D2F869590E072DBC4
:101D300080E09CD58D2F90E0C6C0FDD28F73E82E39
:101D4000F12CF9D2662DDDD0E60102C0CC0FDD1FEB
:101D50009A95E2F7F0D265E0D4D0F60102C0EE0F1A
:101D6000FF1F9A95E2F7CE0FDF1FE5D290E0BE018C
:101D7000E8D0C80FD91FC739D10514F0C6E9D0E0A3
:101D80008C2F74D5C70146DB8E0133E0159507957E
:101D90003A95E1F7011101C001E010E0C7013ADB1B
:101DA000C01BD10BD7FF02C0C0E0D0E08C2F5ED5A6
:101DB000C2D2837031F4C7012DDBCE019595879592
:101DC00055D5C230D10554F7B6D26DE09AD0E601B0
:101DD00002C0CC0FDD1F9A95E2F7ADD290E0BE01B4
:101DE0009CD0C80FD91F80E06CC0C0917F00CC0F81
:101DF000C73908F0C6E9D4E08C2F38D585E090E0EB
:101E000009DB80917F0032D581E490E003DBD15083
:101E100099F780ED92E0FEDA80E028D5CACEF5E0B1
:101E20008F3C9F07A9F488EE93E0F4DA8091E900F3
:101E30008695869550DB80917700882379F0B09263
:101E4000D300A092D2001092D1001092D000B1CE57
:101E50008D50964031F48091E7003DDB88EE93E0B1
:101E600032C080917B00882381F18091B800882363
:101E700061F12091CB003091B900231305C0822F6E
:101E8000F5D41092B80095CE6091B700231758F49E
:101E9000832F821B36D0811101C081E0820FE6D4EE
:101EA0008AE090E010C0862F90E06EE170E018D0DC
:101EB0006091BA00631B70E044D0EB0121968FEF74
:101EC000820FD4D4CE01A6DA74CE85B7877E85BFC3
:101ED00085B7806285BF889585B78F7D85BF69CEC0
:101EE0000024552704C0080E591F880F991F00971A
:101EF00029F076956795B8F37105B9F7802D952F80
:101F00000895991B79E004C0991F961708F0961B55
:101F1000881F7A95C9F780950895AA1BBB1B51E1CC
:101F200007C0AA1FBB1FA617B70710F0A61BB70B49
:101F3000881F991F5A95A9F780959095BC01CD01EE
:101F4000089597FB072E16F4009406D077FD08D06D
:101F5000E4DF07FC05D03EF4909581959F4F0895EE
:101F6000709561957F4F0895E199FECF9FBB8EBB21
:101F7000E09A99278DB30895262FE199FECF9FBB54
:101F80008EBBE09A01970DB2021639F01CBA2DBB38
:101F90000FB6F894E29AE19A0FBE0895F894FFCF35
:101FA000060B180101010004820141020002010F29
:101FB0000F82826E010705010000000103294332F0
:101FC0002D000D006E007100740000010201000080
:0A1FD0000000000001000000000006
:00000001FF
