:10000000DCC00000F7C00000F5C000000C94F11047
:10001000F1C00000EFC00000EDC000000C94E01043
:100020000C940111E7C00000E5C00000E3C000002F
:10003000E1C00000DFC00000DDC00000DBC0000048
:10004000D9C00000D7C00000D5C00000D3C0000058
:100050000C949610CFC00000CDC00000CBC00000B3
:10006000C9C00000C7C00000C5C00000C3C0000078
:10007000C1C00000BFC00000BDC000003036323239
:100080002E323032332D31322D30332B38000400F4
:100090002300260029002D00320037003D004300D8
:1000A0004A0052005B0064006E00790085009200F7
:1000B000A000AF00C000D100E300F7000C01230155
:1000C0003A0154016E018B01A801C801E9010C023B
:1000D000300257027F02A902D602040334036703E9
:1000E0009C03D3030C0448048604C60409054F0589
:1000F0009705E20530068006D3062A078307DF0747
:100100003F08A10807097009DC094C0ABF0A360B31
:10011000B00B2E0CAF0C340DBE0D4B0EDB0E700F62
:100120000910A6104711ED1197124513F713AE14DD
:100130006A152A16EF16B91787185B19331A101BA0
:10014000F31BDA1CC71DB91EB11FAD20B021B822A8
:10015000C523D824F125102734285F298F2AC62BE0
:10016000032D462E8F2FDF3035329233F5345F3634
:10017000CF374739C53A4A3CD63D693F0441A5428D
:100180004E44FF45B64775493C4B0B4DE14EBF50C1
:10019000A4529254885686588C5A9A5CB15ED060AC
:1001A000F76227656067A169EB6B3E6E9A70FF721C
:1001B0006C75E377647AED7C807F11241FBECFEFEE
:1001C000CDBFDFE3DEBF18E3A0E0B8E3E8EFF9E27C
:1001D00002C005900D92A234B107D9F728E3A2E43A
:1001E000B8E301C01D92AA3CB207E1F70E94551185
:1001F0000C94E01405CFF89498ED94BF80936100BF
:100200008091630080FDFCCF78940895E0E0F6E0F3
:100210008285816082878085816080870895EFE88C
:10022000F8E320E030E09081992339F02F5F3F4FD1
:10023000339620313105B9F70BC0F901EE0FFF1FDE
:100240002E0F3F1FF901E157F74C808361837283C2
:1002500008950F931F93CF93DF93D0918F38DD23B1
:1002600051F10091903810919138C0916E38C15081
:10027000C7FD0DC0EC2FEE0FFF0BE159F74C0190BD
:10028000F081E02DB8018D2F09958111F0CFEFE8B5
:10029000F8E383818083848195818183928333967F
:1002A00088E3EC3BF807A9F71092BC381092BD38F0
:1002B0001092BE38D2CFDF91CF911F910F91089548
:1002C000BC018091C138ABCF1092C1381092BF38B9
:1002D0001092C03881E08093603808950F931F9387
:1002E000CF93C82F0CEC18E0CC2349F085E083DFD6
:1002F000C8010197F1F781E07EDFC150F5CFCF91C2
:100300001F910F910895E0E0F6E083E880838381F8
:1003100080628383A0EAB0E08C918F7880648C93B4
:100320008DE1868382E0818383E5828310928B381E
:1003300010928C386BCF82B185FB882780F991E0D1
:100340008927809367380895E0910738F09108383D
:100350003196FB70F460E0930738F0930838809191
:1003600063388B5A80936338E491809163388E0FA1
:100370000895882349F0813069F480E28093220453
:1003800088E080933504089580E28093210480936F
:100390002604089580E28093210480932504089523
:1003A000811182E0E6CF81E00895CF93C82F80913C
:1003B000663881110AC091E0C11101C090E081E06E
:1003C000CC3408F480E0890FD4DFC11117C010923B
:1003D0000A0A1092C8381092C9381092C438109284
:1003E000C53810923A0A10923B0A1092380A1092BD
:1003F000390A1092200A1092210A0EC0E0910C389E
:1004000085E0E89FF0011124E652F6450190F08165
:10041000E02D8FEF8C0F0995C0936538C093643839
:10042000C23010F485E001C081E0CF91E4CE20918C
:100430003A0A30913B0A232B49F44091380A5091F3
:10044000390A21E0452B19F420E001C021E0809316
:10045000C8389093C9386093C4387093C538880FF2
:10046000892F881F990B91958093C738992780937E
:100470003A0A90933B0A660F672F661F770B7195B8
:100480006093C33877276093380A7093390A81E004
:1004900080930A0A211104C01092200A1092210AA6
:1004A0000895E82FF0E0EE0FFF1FE257FF4F859110
:1004B000949160E070E0BBCFE82FF0E0EE0FFF1FFB
:1004C000E257FF4F6591749180E090E0B0CFE82F44
:1004D000F0E0EE0FFF1FE257FF4F85919491BC01B2
:1004E000A6CF4091C8385091C938352F369520E0B5
:1004F0004817590718F44F5F5F4F05C084179507D9
:1005000010F4415051092F5F321790F74093C838CB
:100510005093C9382091C4383091C538F32FF695DF
:10052000E0E02617370718F42F5F3F4F05C062172A
:10053000730710F421503109EF5FFE1790F72093F5
:10054000C4383093C5388417950721F481E0261705
:10055000370709F080E00895E82FF0E0EE0FFF1F65
:10056000E257FF4F8591949160E070E0BACFE82F99
:10057000F0E0EE0FFF1FE257FF4F6591749180E0AE
:1005800090E0AFCFE82FF0E0EE0FFF1FE257FF4FF4
:1005900085919491BC01A5CFCF93DF93CDB7DEB702
:1005A0002697CDBFDEBF90910E3820917F383091D5
:1005B0008038215A3A4009F492E0843019F460936B
:1005C0001A381FC06623E9F0823019F427E9261B88
:1005D000622F26E0E4ECF9EADE01119601900D921B
:1005E0002A95E1F79E012F5F3F4F280F311D280FFD
:1005F000311DF90132970190F081E02DE90FF11DD5
:1006000060832696CDBFDEBFDF91CF910895813004
:1006100011F460932F380895BF92CF92DF92EF923A
:10062000FF920F931F93CF93DF93EC0140910E380D
:1006300090911938992311F0E2E001C0E42FF0E025
:10064000E25FF74C228120930A3885818093093834
:10065000E92FF0E0E25FF74C3185622F70E0442330
:1006600049F0313039F49B01280F311DC9019595AE
:10067000879538C0C617D707A4F1682F70E06C17AC
:100680007D0784F1411102C08C2F2CC0821B032FE7
:1006900010E001501109E82EF12CC701B8010E94A9
:1006A0006D1460935E386695E62FF0E0822FC12CC2
:1006B000D12CB12CB316B1F0C601B8010E94591467
:1006C000822F860FCE0CDF1CAE01481B510957FF4D
:1006D00003C0519541955109E417F5071CF4B394F3
:1006E000E9CF822FDF91CF911F910F91FF90EF9073
:1006F000DF90CF90BF90089580911C3880930B3885
:100700008091213880931E3880930C38E3E2F8E31F
:100710008681819388E3E932F807D1F708958091C3
:100720005B38882351F09091653890935D388093C1
:100730005A3810925838109259380895CF93C09172
:10074000653889E18C0F873908F080E02EDE82E081
:10075000C5DD8C2FCF9129CECF93C091653880E035
:1007600024DE83E0BBDD8C2FCF911FCE81E0089586
:10077000611160933C38089560933E380895E82FE6
:10078000F0E0E25FF74C60AB08957FEF780F4091A7
:100790001F3850912038662359F021E030E002C024
:1007A000220F331F7A95E2F7CA01822B932B0AC0DE
:1007B00081E090E002C0880F991F7A95E2F780955A
:1007C0008423952380931F38909320380895909127
:1007D0006538981718F4282F291B02C0292F281BC9
:1007E00030915238311106C030913038332369F0DE
:1007F000223058F08093533884E08093513881E060
:1008000080935238909354380895CFCDCF93DF938F
:100810008EE098E38093613890936238F894C0E05A
:10082000D0E0E0916138F0916238EC0FFD1F6081FB
:100830002196CE010E94C314C433D10591F765EA15
:1008400080E090E00E94C3147894DF91CF910895E6
:10085000CF9310928D388091100690916338890F54
:100860008093633880918238882309F463C01092A2
:10087000823880916638882349F0809100068E7F07
:100880008093000610928E3810928B3880910D382C
:10089000882329F020918738309188381AC0209118
:1008A000663880918338909184382223B9F0209162
:1008B00087383091883843E0369527954A95E1F797
:1008C000280F391F53E0969587955A95E1F7281B15
:1008D000390B209383383093843801C09C01C09138
:1008E0003C38CC0F84E0369527958A95E1F740E0B7
:1008F00050E060E070EC83E090E00E9480142C0FE8
:100900002093813880914F38882311F0815007C09F
:10091000243738F460E070E084E081DC8AE0809382
:100920004F3880910D38882329F080910D388150FF
:1009300080930D38CF910895CF93DF9390910C3829
:10094000981759F0C82FD091653880E02EDDC093FC
:100950000C388D2FDF91CF9128CDDF91CF91089565
:10096000813019F410921C380895823019F4609384
:100970001D380895833019F460931B38089584302E
:1009800019F460930F380895853011F4609330386E
:10099000089590918138943710F480E011C0943814
:1009A00028F466956170635086230AC0982F9F7063
:1009B000933030F06F70E62FF0E0E653F64580811B
:1009C000D8CC883039F410925B3810925838109295
:1009D000593845C0813B81F480915B388150833028
:1009E00008F03FC083E080935B3880935A381092C0
:1009F00058381092593835C0853BB1F4CB016EE3BD
:100A000070E00E945914892B51F580915B388A3F20
:100A100030F58B5F80935B3880935A38109258384A
:100A2000109259388BDE1BC08130D9F48091583830
:100A300090915938019688382EE0920728F48093D7
:100A40005838909359380BC0109258381092593832
:100A500080915B38882319F0815080935B3880E067
:100A6000089581E00895FF920F931F93CF93DF9332
:100A70008C01EB01F42E80917F3890918038892B86
:100A800031F0E0917F38F091803889E0099500934A
:100A90007F3810938038012B39F0E0917F38F09146
:100AA0008038BE018F2D099581E080936038DF91F9
:100AB000CF911F910F91FF900895CF93DF93E09115
:100AC0006E38EE2359F0E150E0936E38F0E0EE0F0F
:100AD000FF1FE159F74CC081D18102C0C0E0D0E0D6
:100AE000E0916E38EE2341F0F0E0EE0FFF1FE35986
:100AF000F74C8081918102C080E090E04AE060E0A4
:100B000070E0B1DFCE01DF91CF910895CF93DF93F5
:100B1000EB01883029F4109250381092493815C0F2
:100B2000813029F590914938911107C060327105E3
:100B3000A8F180934938C8DB31C09130B1F46B3BE8
:100B4000710528F082E08093493880E026C0209724
:100B500029F180910C38823011F082E0EDDE8C2F8B
:100B60008270880F880F8E5E18C0A7DF17C081388B
:100B700011F0813E99F491E090934938813E21F43F
:100B800080915038865F03C0809150388F5F80938A
:100B900050389ADB82E0D0DE8BE407DC80E0DF9126
:100BA000CF9108959C0190916E38983088F4E92F88
:100BB000F0E0EE0FFF1FE159F74C208331839F5F78
:100BC00090936E3848E0C9014EDF80916E380895E9
:100BD0008FEF08950F931F93CF93DF93EC018B0159
:100BE0006CDFB801CE01DF91CF911F910F91DACF69
:100BF000813C29F460E070E086ED9AE006C0823C1A
:100C000039F460E070E08BE698E0E4DF80E008957E
:100C100081E00895843011F580917F38909180387B
:100C20002EE08D31920729F469E170E089E596E0C4
:100C300013C08955964061F490916538923040F028
:100C4000892F869596959695890FC1DD80E0089548
:100C500060E070E086ED9AE0BDDFF8CF81E00895B6
:100C6000813C29F460E070E086ED9AE006C0823CA9
:100C700031F460E070E088EF95E0ACDF16C0813BB6
:100C800049F4CB016EE370E00E945914892B69F49A
:100C900055DD0BC0813E59F4CB016EE370E00E943C
:100CA00059146F5F60933B38B1DD80E0089581E0B7
:100CB0000895BF92CF92DF92EF92FF920F931F930E
:100CC000CF93DF93C82F8B0180911E3880930C380F
:100CD000D0900A38F090093880910E38882319F0A6
:100CE000B0905E3802C0BB24B394C0900F3880919E
:100CF00019388111C0901A38CC2051F031E0C31658
:100D000021F080910B388F1518F0F6E9EF2E01C015
:100D1000EF2CD0915B38B8018C2F53DE20915B38DB
:100D2000222339F0D1110CC08091653880935D3851
:100D300007C0DD2329F060E070E086ED9AE036C060
:100D40008C2F8D7F8830D9F410925738CA3019F41F
:100D500000910B3810E08D2D90E08017910738F44A
:100D60008F2D90E00817190710F400930B38C80175
:100D700053DC2DDD81E080930638D0E0A1C1C13C79
:100D8000D1F2C23C59F4809165388E1510F48E2D45
:100D900002C080910B381BDDC2DCEFCFC43C41F4B4
:100DA00080E003DB60E070E089E799E013DFE5CFE6
:100DB0008FE48C0F823008F062C080910E38882357
:100DC00041F0C80168E170E00E945914892B31F0AC
:100DD000D4CF6091163870E0C801F6CFD091523868
:100DE000D111CBCF809165380115110561F4C23B5B
:100DF00011F48FEF05C08F15E0F7D81648F181E0A8
:100E00008093063825C02091163830E066E371E003
:100E1000269FA001279F500D369F500D112440178B
:100E2000510710F48F1528F76CE672E0269FA00199
:100E3000279F500D369F500D11244017510740F445
:100E4000D81630F07BDC60E070E089E799E0C2DE24
:100E5000C0916538209106383B2D2303C001112431
:100E60008C0F911DD9DB80930B38C81719F0F8123D
:100E700001C072DC80910B38AADC51DC21C18FE10A
:100E80008C0F823020F480910638819574CFC13068
:100E900009F083C00932110511F4C09306382223EA
:100EA00061F1C0915D38C29F90011124E0915A38E0
:100EB000F0E0C901BF010E946D14462FC9018C1BCF
:100EC0009109BF010E946D14242F261B8091583870
:100ED000909159386EE370E00E945914269FC0012A
:100EE000279F900D11246CE370E00E945914461B5B
:100EF000642F09F461E060936438C09164382091F4
:100F000065388C2F90E0821B910960914C3870916C
:100F10004D386F5F7F4F60934C3870934D3800971A
:100F200009F42BCF97FF05C0293730F040E450E09B
:100F300005C040E052E002C040E051E056954795C0
:100F400097FD0196959587950097C1F74617570726
:100F500008F013CFC21710F4CFEF03C02C1710F412
:100F6000C1E0C20FE0910C3885E0E89FF001112448
:100F7000E652F6450280F381E02D8FEF8C0F099544
:100F8000882331F0D09164388C2F0FDAD0936438F5
:100F900010924C3810924D38F0CEC33C19F0C63C3C
:100FA00041F517C060911F387091203880E090E0C3
:100FB00020E0AB01082E02C0569547950A94E2F74F
:100FC0004170240F01968630910599F7223008F080
:100FD00076C081E090910E38911180E080930E38B8
:100FE00015DCBADB8091653890E016DB80930B3816
:100FF000D2CED0911938D11162C08DE48C0F8230DD
:10100000B0F4C33B59F4E0910C3835E0E39FF001B4
:101010001124E652F6458481811151C0012B09F05B
:10102000ACCECC2011F086E9E82E8E2D13C08DE1D8
:101030008C0F823088F4C33E59F4E0910C3885E07F
:10104000E89FF0011124E652F6458481811137C0F2
:1010500080910B38BCDB34C0C53C61F480916538AD
:1010600080930B3880E0A1D960E070E08DEC9FE0C8
:10107000B1DD26C0C73B29F460E070E08DE99AE05D
:101080001CC0CA3CA1F48091653880931C388091C3
:101090000C3880932138E3E2F8E389E298E3219168
:1010A00025838E179F07D9F7B1DB48DB09C0CA3B00
:1010B00031F460E070E085EA9AE074DD01C0D1E0CF
:1010C0008D2FDF91CF911F910F91FF90EF90DF90C7
:1010D000CF90BF900895CF93C0911938C11125C00A
:1010E000813C29F460E070E086ED9AE006C0823C25
:1010F00031F460E070E080E396E06CDD17C0833C83
:1011000061F48091223890E0019666E070E00E94E0
:101110006D14809322387ADB09C0873B31F460E09C
:1011200070E08DEA9AE03EDD01C0C1E08C2FCF91E6
:101130000895EF92FF920F931F93CF93DF93E09167
:101140000C38833CE1F400911F38109120388E2F29
:1011500026E0C6E0D0E090E00196BE010E946D144A
:10116000A801082E02C0569547950A94E2F740FF61
:1011700003C0E81319C016C0215069F7FACFF0E098
:10118000E25FF74CC589833B09F086C061157105A4
:1011900029F481E08093483810924738809148388C
:1011A000811109C0C1E09DC0C7DB80910C388093DC
:1011B0001E382CDB95C02091053812161CF4CF3F49
:1011C00039F44FC0222309F44CC0CC2309F449C0A0
:1011D00040912F384423A1F0CB0168E170E00E94D8
:1011E0005914892B09F07CC0423008F447C0642FA1
:1011F00070E0615071098EEF90E00E946D1401C0A3
:1012000061E02603900111242C0F311D37FD38C0F9
:101210002F3F310509F0B4F5411102C0C22F33C090
:10122000E42EF12C81E0E81AF1088FEF90E0B7018D
:101230000E946D146695E62FF0E000E010E0C80112
:10124000B7010E945914C62FC901861B9109E817DE
:10125000F907CCF401501F4F802F8195841778F344
:1012600012C080914638C8130EC080914738811152
:1012700001C072DA81E08093473805C0CFE703C030
:10128000C0E001C0CFEFC0934638E0910C38F0E0E9
:10129000E25FF74CC58B13C0833EA9F41092483827
:1012A000C11102C081E005C0CF3F31F08091053807
:1012B00081958093053802C0C0930538A7DA8091E4
:1012C000653873D80DC0C0911938C1116BCF893BF7
:1012D00009F068CF60E070E089EB9AE063DC01C060
:1012E000C0E08C2FDF91CF911F910F91FF90EF9075
:1012F00008950F931F93CF93DF93C82F8B018079AD
:101300008039B1F420911038909111388C2F8F7062
:10131000813021F4822F921748F407C080911C3845
:10132000811104C0822F291708F4892F3ED813C0D9
:10133000803819F480E039D805C0C83019F410920B
:101340005F386AC0C13039F40931110508F470C042
:10135000C09366386DC0C330F9F480915F388F3F19
:1013600019F08F5F80935F3880911C38882369F073
:1013700040911D3822EC31E0429FC001439F900D07
:1013800011240817190708F0B7D980913D38602F4C
:1013900086958695FEDA4CC0C33C31F4CFD960E027
:1013A00070E086ED9AE014C0C43C21F460910B38E3
:1013B00070E00CC0C43B31F4CFD91092C13861E069
:1013C00070E004C0C53C31F466E970E089E596E060
:1013D00001DC2EC0C33B79F4C8016EE370E00E94CB
:1013E0005914892BC9F460E070E083ECDF91CF9150
:1013F0001F910F919ECEC73C79F490913D38892F73
:10140000869586958F5F8370880F880F9370890FFC
:1014100080933D38FBD90CC0D0911938D1110AC046
:10142000CA3B41F460E070E081EB9AE0BBDB03C0B3
:10143000D0E001C0D1E08D2FDF91CF911F910F91AE
:101440000895882331F080910C38681711F0862FA9
:1014500073CA08950F931F93CF938B01C42F8830C5
:1014600099F480910C3880934B3810924A3880E080
:101470000E94D5018091673881115AC080914A3805
:101480008F5F80934A383EC0982F907F903B79F5CC
:1014900060914A38461738F16150663018F48091EF
:1014A0005C38CFDFC8016DE570E00E9459140697E3
:1014B00089F480914A388F5F80934A38C81708F4BE
:1014C00037C081E090915C38911180E062E0B9DF33
:1014D00088E30AC081E090915C38911180E062E07D
:1014E000B0DF82E101C080E00E94D50121C0903EC2
:1014F00079F480914A388823A1F0481790F08091C0
:101500004B381ADA60E070E086E895E04BDB10C0FB
:101510008A3049F46091503880914A38F901099530
:1015200075D9CBDA05C0893019F480914B3804DACB
:1015300080E0CF911F910F9108952CEC32E043E0B1
:1015400089CF2CEC32E044E085CF20EB34E045E05D
:1015500081CF27E033E041E07DCF28EB33E041E06D
:1015600079CF2CEB33E041E075CF2FEB33E043E054
:1015700071CF91E090935C3825EC33E046E06ADF70
:1015800010925C38089590913038992369F08093D7
:10159000533888E08093513881E0809352388091AD
:1015A00065388093543808950C94D5010F931F9398
:1015B000CF938B018830A1F480E0E5DF8091523831
:1015C000082B10925F3880911E3880930C3810924F
:1015D0005B38012B09F05EC081E0809366385AC009
:1015E000813059F46931710508F454C0C091523802
:1015F000C11150C080936638E8C0833061F5809196
:101600005F388F3F19F08F5F80935F3880911C386F
:10161000882369F040911D3822EC31E0429FC001DF
:10162000439F900D11240817190708F065D8809181
:101630003D38602F8370ADD980913E38882351F1B9
:1016400042EC51E0849F9001859F300D11242017BA
:10165000310700F553C0813B99F481E090E00E948E
:101660000C0391DF80911B38811114C080910E38DA
:10167000811103C00831110568F061E070E02AC0F3
:10168000813ED9F3813841F480910B3890E00E947B
:101690000C0379DFC0E099C0813C21F460910B38E4
:1016A00070E018C0823B81F410925F3880910F384F
:1016B00090911938911180911A38811103C086E9EF
:1016C00090E0E5CF86E9E5CF823E59F0823C29F4EF
:1016D00066E970E089E596E00CC0833921F4109248
:1016E000523880E0D6CF833C31F460E070E08BE686
:1016F00098E070DACFCF843C31F420D860E070E01D
:1017000089E799E0F6CF8D3B49F4F89491E088EDB4
:1017100084BF909300017894A895FFCF8F3C29F463
:1017200060E070E086EB93E0E4CF8A3B79F4672BCE
:1017300009F5C0911938CC2321F000D8109219383E
:1017400017C060E070E081EA9AE03CC0833B29F476
:1017500060E070E08DE19EE0CCCF873C59F4909141
:101760003D3881E0890F9C7F8370892B80933D38C1
:101770004DD890CFC0911938C11126C08A3C39F498
:101780000E949E0381E08093193840D81EC0853C9A
:1017900039F40E949E0360E070E08DEC9FE008C089
:1017A000863C41F40E949E0360E070E085E190E198
:1017B00011DA0BC0893B41F4012B31F460E070E099
:1017C00089EA9AE0EFD901C0C1E08C2FCF911F9137
:1017D0000F9108958F929F92AF92BF92CF92DF9216
:1017E000FF920F931F93CF93DF938C01EB01E42FB4
:1017F000F0E0EE0FFF1FE257FF4FC590D490E0914D
:101800000C38E43079F42FEF429FC001112466E9CF
:1018100070E00E945914F62E8091273886FF06C08A
:10182000F09404C0F0E0E25FF74CF5884601A12C8B
:10183000B12C809165388130F9F09601AAE0B0E0D2
:101840000E94A2149B01AC0166E05695479537951E
:1018500027956A95D1F7AF2DAA0FF7FCA095B0E0B8
:101860000E94B1142FEF30E040E050E00E9480145D
:10187000820E931EA41EB51E81E8C8168FE7D806F7
:1018800008F1E0E8CE0EDE1E8AE08C9D90018D9D71
:10189000300D112446E0369527954A95E1F79F2DA6
:1018A000990FF7FC9095929FA001939F500D1124E2
:1018B000CA016FEF70E0FDD7660F771F861A970A8F
:1018C000A108B108F1E08F16FFEF9F06A104B10453
:1018D00020F0812C912C54019A94AF2DB0E0A501F9
:1018E00094010E94B11461587F4F8F4F9F4F2FEF8B
:1018F00030E040E050E00E948014B901C401821B36
:10190000930B2138EFE73E0738F020583F47820F0E
:10191000931F60E87FE70BC08138FFE79F0738F02F
:1019200020583F47B901680F791F80E89FE7F80109
:101930008083918368837983DF91CF911F910F9189
:10194000FF90DF90CF90BF90AF909F908F900895C1
:10195000CF93DF9300D000D0CDB7DEB7482FBE01C4
:101960006F5F7F4FCE01039635DF69817A818B816E
:101970009C810E9417022496CDBFDEBFDF91CF91DC
:101980000895E6CFCF93DF9300D000D0CDB7DEB778
:10199000482FBE016F5F7F4FCE0103961BDF698129
:1019A0007A818B819C810E9471022496CDBFDEBF1B
:1019B000DF91CF910895E6CF0F931F93CF931092AD
:1019C00069388091BF389091C0389C012F5F3F4F9C
:1019D00088279078822B932B8093BF389093C038C0
:1019E000C09167380E949B01C81731F11092663888
:1019F000809367389091C138882359F0892F806986
:101A00009F709F3009F08F5F8093C13880E090E035
:101A10000DC0892F8F7E95FD02C0806801C0806C4B
:101A20008093C1388091BF389091C0380E94600186
:101A30001092BF381092C0380091BF381091C03852
:101A4000809166388823B1F0B80183E00E940F01CD
:101A50000E9429010134110528F00F701127012B74
:101A600009F047C010924E3881E080938E380E9472
:101A7000830132C0C091C1388C2F807F803B19F424
:101A800060E070E001C0B80181E00E940F01C4FF76
:101A900013C0C5FF02C0C8010CC008311105E0F039
:101AA0001092BF381092C038C062C093C13880E035
:101AB00090E00E94600110C0CC2371F0C5FD0AC007
:101AC0000231110548F0C064C093C13880E090E055
:101AD0000E9460010E946401C0914E38C11105C08E
:101AE0000E94060181E080938238CF5FCF71C0935E
:101AF0004E38CF911F910F91089580918D388111AB
:101B00000E94280480916938811156CF0895EF9280
:101B1000FF920F931F93CF93DF93EC0104E118E042
:101B200085E0E82E82E0F82E2097D9F08091603889
:101B3000811119C080916538823028F485E00E94B7
:101B4000FB00C70104C081E00E94FB00C8010197AF
:101B5000F1F781E00E94FB00D0DF0E94290121976C
:101B6000E3CF81E001C080E0DF91CF911F910F9121
:101B7000FF90EF9008950F931F93CF93DF93C82F9B
:101B8000882311F006EA02C00AE0C1E0D0910C38C7
:101B900010E0809122380E949C0489E10E94D501C6
:101BA000D0930C38C801B3DF809122380E949C0486
:101BB00080E00E94D501D0930C388AEF90E0A7DF37
:101BC000C15039F78D2F0E949C048AE992E0DF9181
:101BD000CF911F910F919BCFCF93DF9364E65DD69A
:101BE000282F892F6AE059D6EC01222341F0822F59
:101BF000C2DF8C2FC0DF8D2FDF91CF91BCCFC11101
:101C0000F8CFF9CFCF93DF93D82FC3E080910B3873
:101C10000E94D50188EC90E07ADFDD2319F080E99D
:101C200091E075DF80E00E94D50188EC90E06FDFE5
:101C3000C15061F7DF91CF910895FF920F931F93E9
:101C4000CF93DF93D82F8B01C091553881E08093DB
:101C50005738C43009F0EEC0F0905B388D2F0E94E9
:101C6000E104FF2059F080915B38811107C060E0EA
:101C700070E086ED9AE00E94EA05DCC0D83021F4DD
:101C800081E080930338D8C0D23C19F410925B38BD
:101C9000E6C0D13BC1F490910238012B49F49F3545
:101CA00010F08FEF03C0923018F481E08093033876
:101CB00080910338890F11F481E051C1803608F416
:101CC0004EC18FE54CC1D13E31F4809103388195EE
:101CD0008093033818C1D23B61F481E080930338CC
:101CE00080910238823008F416C181508093023806
:101CF00012C1D13009F0B7C00932110511F4D093E7
:101D0000033890914538892F880F97FD80952CE0F6
:101D1000829FC001112430914438232F220F37FDB8
:101D2000209580910138289F90011124232F290F9D
:101D300090914338892F880F97FD809590910038B6
:101D4000899FC0011124822F890F6091023870E0B1
:101D5000680F711D80915B388130B9F480915838DB
:101D60009091593825E0969587952A95E1F724E7D3
:101D700030E0A901481B590B469FC001479F900DB9
:101D8000569F900D1124B90194D5862F0E94D5013C
:101D900000FD08C00E94A401817090914538890F10
:101DA000809345389091443880914238890F8093D0
:101DB00044380E94A40165E270D580914338980FA1
:101DC000909343380E94A4018F7331F40E94A401C0
:101DD0006DE063D590934238C0910138CC2339F03F
:101DE0000E94A4018F7319F4C150C09301380E945E
:101DF000A401811108C00E94A40162E14ED5909314
:101E0000013810924438C0910038C33038F00E9435
:101E1000A4018F7119F4C150C09300380E94A4012D
:101E20008F7709F0A8C00E94A4016AE036D590938C
:101E30000038A1C0D83041F48091313880935538B2
:101E400081E0809304388DC0D13C39F460E070E0CB
:101E500086ED9AE00E94EA0584C0D23C31F48C2FD2
:101E600090E001961AC0D13C89F3D33C89F480916B
:101E70000C3890E0019666E070E02FD50E949C043B
:101E8000EC2FF0E0E25FF74C80910C3884A356C051
:101E9000D43C59F48C2F90E0059666E070E01DD597
:101EA000809331388093553849C0D13B51F5C230C9
:101EB00090F400FD56C0EC2FF0E0E25FF74C82A5F5
:101EC00090910438891B883020F08F3F99F58EEF70
:101ED00031C088E02FC0C53009F043C090913A3836
:101EE00080910438890F823010F482E003C0893772
:101EF00008F088E780933A3880913A380E94D501FB
:101F000030C0D13E31F480910438819580930438FB
:101F100015C0D23B89F481E080930438C23018F5B3
:101F200000FD1FC0EC2FF0E0E25FF74C82A58F3F71
:101F3000C1F08F5F82A715C0D23E19F40E9406043B
:101F400010C0D53C41F460E070E08DEC9FE00E9451
:101F5000EA0580E0D3CFD13071F081E018C08093E2
:101F6000023880E014C0C530E1F780913A38833000
:101F700018F28150BFCF0932110519F481E0809326
:101F8000043880916338080F00936338EACFDF91FB
:101F9000CF911F910F91FF9008950F931F93CF93AF
:101FA000DF93D82F8B01883031F480915738882304
:101FB00011F088E042DE8D2F8079803961F481E074
:101FC00080935638C0915738C1110CC080910B389E
:101FD0000E94D50124C0803839F41092563880E030
:101FE0000E94D501C0E01BC0D130C1F4C091563869
:101FF000CC2359F0809157388823A1F3B80181E0B0
:10200000DF91CF911F910F9118CE80E00E94B9010E
:102010000733114038F3D093663801C0C1E08C2FEC
:10202000DF91CF911F910F910895FF920F931F930E
:10203000CF93DF93D82F8B01F0900B3880798039C4
:1020400051F5ED2FEF70E43020F010925638C0E0DB
:1020500036C091E090935638F0E0E25FF74C80A9EB
:102060002FEF280F263948F480930B3810925738F9
:1020700080911E3880930C380CC090935738873964
:10208000D0F090E08759910966E070E026D4809303
:102090005538C0E00BC0803841F41092563880E0CB
:1020A0000E94D50181E080936038C1E0809156386C
:1020B000882329F001C0C0E0B8018D2F6EDFF092B7
:1020C0000B38D83021F4B80188E013D928C0D130BA
:1020D00039F480915638811120C0B80181E004C0E4
:1020E000D33041F4B80183E0DF91CF911F910F917C
:1020F000FF90FFC8D63C49F40E949E0360E070E068
:1021000086ED9AE00E94EA0508C0D73B41F460E002
:1021100070E085EB9AE00E94D20580E001C08C2F30
:10212000DF91CF911F910F91FF9008951F920F9211
:102130000FB60F9211242F933F938F939F93AF93DA
:10214000BF93EF93FF9381E080930B0680918C38CF
:10215000882331F1E0918B3880911006909111061F
:1021600024E0880F991F2A95E1F7F0E0EE0FFF1F9A
:10217000DF01A957B74C8D939C93ED57F74C208105
:1021800031812817390710F42F5F3F4F82179307CB
:1021900010F4215031092083318381E080938D3800
:1021A00081E080938C38FF91EF91BF91AF919F9127
:1021B0008F913F912F910F900FBE0F901F90189508
:1021C0001F920F920FB60F9211248F9381E080938C
:1021D0005301809369388F910F900FBE0F901F901D
:1021E00018951F920F920FB60F9211248F931D9A7C
:1021F00081E0809368388F910F900FBE0F901F90F1
:1022000018951F920F920FB60F9211242F933F93A0
:102210008F939F93EF93FF938091C73890E0E0E016
:10222000FAE082AF93AF8091C33890E080AF91AF76
:102230002091C8383091C938922F9F778091C63845
:10224000890F220F232F221F330B3195982F991FAF
:102250009927991F290F2093C7388F778093C63805
:102260002091C4383091C538922F9F778091C23821
:10227000890F220F232F221F330B3195982F991F7F
:102280009927991F290F2093C3388F778093C238DD
:1022900081E08387FF91EF919F918F913F912F91E3
:1022A0000F900FBE0F901F901895F89480914000EA
:1022B000877F8093400088EDA89584BF90910001AE
:1022C000907F9093000121E030E084BF2093610073
:1022D00083E284B988E08093100480931104809392
:1022E0001204809313048093140499E090931504CE
:1022F00080931604809317048093320480933304F0
:10230000809334048093500480935104809352044A
:102310008093530487E38093010A91E09093000A2D
:102320002FEF30E02093360A3093370A8091120461
:102330008160809312049093520180915101811128
:10234000FCCF81E4809350010E948301789481E066
:102350000E946E0160E070E08AE096E00E94D20583
:10236000109260380E949E030E949B01811114C04C
:102370008EE098E38093613890936238F89480E01F
:1023800090E0F9D2853A09F03BC000916138109194
:102390006238C1E0D0E02BC0C0E08C2F0E94D50194
:1023A00083E190E0B4DB8C2F86950E94D50183E118
:1023B00090E0ADDB0E949B01882379F0CF5FC034B1
:1023C00061F70E940604C6E98C2F0E94D50184E0C3
:1023D00090E09DDBC150C1F7CBCFCC2349F28C2FCD
:1023E0000E94D5018DE090E092DBC150F6CFCE0186
:1023F000C2D2F80181938F012196C533D105B9F777
:10240000789480911C3881110E947C0360E070E018
:1024100089E998E00E94D20561E070E086ED9AE0DB
:102420000E94D2057724739441E4242E33243394FC
:102430005CEFA52E53E0B52E67E0462E75E0572ED3
:10244000EDE06E2EF8EE8F2EF3E09F2EA6EDCA2E55
:10245000AAE0DA2E0E94290180916C3890916D38A3
:10246000009751F060916A3870916B380E94EA05CC
:1024700010926C3810926D3880916638882309F478
:1024800065C080E00E94D501709252018091510197
:102490008111FCCFF9E5F0935001809100068E7F09
:1024A000809300060E949B018111FCCF0E94640171
:1024B0008091120481608093120410928D381092E2
:1024C00069381092683880916638882369F1809164
:1024D0008E38882329F080915000897F826004C063
:1024E00080915000897F84608093500080915000DB
:1024F0008160809350008895809150008E7F8093FA
:1025000050008091683881111092663880918D3822
:10251000882321F0309282380E9428048091693803
:10252000882389F249DACFCF22E020930D388091B9
:102530001204887F809312040E94830170925201DA
:10254000809151018111FCCF20925001D6DA109276
:10255000603880917F3890918038E3E0863B9E0719
:1025600019F5CCE7D0E0FE0184918053803110F45E
:1025700002DB11C010E0812F81708295880F807E70
:102580000E94D50180E190E0C2DA1F5F193199F70E
:102590008AE992E0BCDA8CE291E0B9DA2196F0E0C7
:1025A000CD38DF0701F7FDC02EE08D31920799F09D
:1025B000EFE08D3C9E0729F0F0E185319F0709F09F
:1025C000D8C020915738213009F0D3C02091563817
:1025D000222309F4CEC0C0915538EC2FF0E0E25F21
:1025E000F74C84A180930C38C23009F138F0C33025
:1025F00009F43DC0C53009F49FC02CCFD2A586E9AF
:102600000E94D501C11109C0DA3220F4C501019739
:10261000F1F707C081E090E003C08D2F869590E030
:1026200076DA80E00E94D5018D2F90E023C1D09111
:102630000B38C0E0C11102C080E003C0C53019F4FE
:1026400081E00E949C048D2F0E94D50181E290E0E0
:102650005EDA80E00E94D50182E490E058DACF5F34
:10266000CA3041F780911E3880930C38F3CE0E9417
:10267000A4018F73E82EF12C0E94A401642D0DD1CA
:10268000C1E0D0E08E0102C0000F111F9A95E2F761
:102690000E94A401652D01D102C0CC0FDD1F9A95C7
:1026A000E2F70C0F1D1F0E94A40190E0B80115D1A4
:1026B000E801C80FD91FC739D10514F0C6E9D0E029
:1026C0008C2F0E94D501C70122DA8E0133E01595C7
:1026D00007953A95E1F7011101C001E010E0C7014B
:1026E00016DAC01BD10BD7FF02C0C0E0D0E08C2FA0
:1026F0000E94D5010E94A401837039F4C70107DA52
:10270000CE01959587950E94D501C230D1053CF741
:102710000E94A401662DC1D0C1E0D0E002C0CC0F60
:10272000DD1F9A95E2F70E94A40190E0BE01C1D09E
:10273000C80FD91F80E09BC0C0913A38CC0FC73971
:1027400008F0C6E9D4E08C2F0E94D50185E090E026
:10275000DED980913A380E94D50181E490E0D7D942
:10276000D15089F780ED92E0D2D980E00E94D50166
:1027700071CE28E08B36920701F588EE93E0C7D939
:10278000809181388695869527DA9091813893706B
:10279000892F880F9695890F1FDA80911938882321
:1027A00049F0C0926C38D0926D3810926A3810920D
:1027B0006B3850CE88EE93E05DC0E6E080339E0734
:1027C000C1F480916738811145CE80910B380E9409
:1027D000D50184E690E09BD980E00E94D50120914C
:1027E0003B38289DC001299D900D112484569109E4
:1027F00041C0885F954049F480E004DA81E002DA64
:1028000080E000DA80ED97E035C080913038882391
:1028100099F180915238882379F12091653890910F
:102820005338291306C0822F0E94D50110925238C6
:1028300011CE60915138291760F4892F821B2DD059
:10284000811101C081E0820F0E94D5018AE090E0F1
:1028500011C08EE1689FA001112460915438691B5A
:1028600070E0CA013AD0EB0121968FEF820F0E94EF
:10287000D501CE014CD9EECD80915000897F809357
:102880005000809150008160809350008895809125
:1028900050008E7F80935000DDCD991B79E004C0FD
:1028A000991F961708F0961B881F7A95C9F780958F
:1028B0000895AA1BBB1B51E107C0AA1FBB1FA61787
:1028C000B70710F0A61BB70B881F991F5A95A9F7D9
:1028D00080959095BC01CD01089597FB072E16F4C5
:1028E000009406D077FD08D0E4DF07FC05D03EF465
:1028F000909581959F4F0895709561957F4F0895AC
:10290000A1E21A2EAA1BBB1BFD010DC0AA1FBB1FF3
:10291000EE1FFF1FA217B307E407F50720F0A21B65
:10292000B30BE40BF50B661F771F881F991F1A94D2
:1029300069F760957095809590959B01AC01BD01FC
:10294000CF010895A29FB001B39FC001A39F700D56
:10295000811D1124911DB29F700D811D1124911DA7
:102960000895F0DFA59F900DB49F900DA49F800D5A
:10297000911D1124089503D0808199270895FC01A9
:10298000E050FC4E0895262FFADF0080021611F069
:1029900004D0019701970895262FAF93BF93E0E0ED
:1029A000F0E1328131FDFDCFDC01A050BC4E2C9313
:1029B0003DE934BF23E020830196BF91AF91089594
:0429C000F894FFCFB9
:1029C400103813381638000102010000000000001E
:1029D4000100000000005102AC02005C02B70200DA
:1029E4006702C20200C10CDB0C01A80CC20C01D0AE
:0429F40001D301000A
:1029F8000A121801010101000496014B04020102A8
:102A080001010A96969601070501000000000418C6
:102A180000040200000080000000000080000000A8
:102A2800010402020204040429433202070D00785B
:022A38001E99E5
:00000001FF
