:10000000ADC0C7C008CDC5C0C4C0C3C0C2C0C1C098
:10001000B5CCBFC0BEC0BDC0EFCCBBC0BAC03034D1
:1000200032332E323032332D31322D30332B3800F3
:1000300000000000000000000000000000000000C0
:1000400000000000000000000000000000000000B0
:1000500000000000000000000000000000000000A0
:100060000000000000000000000000000000000090
:100070000000000000000000000000000000000080
:100080000000000103040507080A0B0D0E101213EF
:100090001517191B1D1F222426292B2E3033363904
:1000A0003C3F4245484C4F53575B5F63676B7074EE
:1000B000797E83888D92989EA3A9AFB6BCC3CAD11E
:1000C000D8DFE7EFF7FF010102020303040405058F
:1000D0000606070808090A0A0B0C0D0E0F1011126C
:1000E00013151617191A1B1D1F20222426282A2C27
:1000F0002E313336383B3E4144474A4E5155595DC7
:1001000061656A6E73787D82888D9399A0A6ADB47F
:10011000BBC3CAD2DBE3ECF5FFFFFFFFFFFFFFFF2E
:10012000FFFFFFFFFFFFFFFFFFFFFFFFFFFFFFFFDF
:10013000FFFFFFFFFFFFFFFFFFFFFFFFFFFFFFFFCF
:10014000FFFFFFFFFFFFFFFFFFFFFFFFFFFFFFFFBF
:10015000FFFFFFFFFFFFFFFFFFFFFF0011241FBE98
:10016000CFE5D2E0DEBFCDBF10E0A0E6B0E0E0E832
:10017000FFE102C005900D92AE39B107D9F721E039
:10018000AEE9B0E001C01D92AE32B207E1F752DC39
:10019000F5CE36CF482F9B01EBEFF0E080E090E00A
:1001A0005081552331F00196339680319105C1F786
:1001B00009C063E070E084DEFC01E550FF4F40833E
:1001C0003283218308950F931F93CF93DF93D091B0
:1001D000FB00DD2351F10091FC001091FD00C09166
:1001E000D800C150C7FD0DC0EC2FEE0FFF0BE7523A
:1001F000FF4F0190F081E02DB8018D2F09958111FD
:10020000F0CFEBEFF0E0838180838481958192834E
:100210008183339681E0E832F807A9F7109228012C
:1002200010922A0110922901D2CFDF91CF911F9114
:100230000F910895BC0180912D01ACCF10922D013A
:1002400010922C0110922B0181E08093CA00089536
:1002500090E822E048EA57E030E0815070F00FB6B5
:10026000F89496BD26BD0FBEFA013197F1F70FB68F
:10027000F89496BD36BD0FBEF0CF08958CE287B9D5
:100280001092F7001092F8008FEE86B9089586B3A9
:1002900083FB882780F991E089278093D100089516
:1002A000E0916600F09167003196FB70F460F09386
:1002B0006700E09366008091CD008B5A8093CD005B
:1002C000E4918091CD008E0F089590E0FC01EA53F7
:1002D000FF4F2491FC01E05DFF4F849129BD88BD53
:1002E000089590E0FC01EA53FF4F2491FC01E05D8A
:1002F000FF4F949189B5811102C02F3F29F089B534
:100300008F3F21F4211102C029BD0CC089B582178D
:1003100018F489B58F5F05C089B5281718F489B519
:10032000815089BD88B5891718F488B58F5F05C0DD
:1003300088B5981718F488B5815088BD89B52813F9
:1003400003C028B581E0921380E00895CF93DF9336
:1003500000D000D000D0CDB7DEB790916C002091D6
:10036000E9003091EA002353384009F492E08430E8
:1003700019F46093780021C06623F9F0823019F4F3
:1003800027E9261B622F26E0E7E8F0E0DE01119660
:1003900001900D922A95E1F7E82FF0E03197EE0FEA
:1003A000FF1F21E030E02C0F3D1FE20FF31F0190F3
:1003B000F081E02DE90FF11D608326960FB6F894C9
:1003C000DEBF0FBECDBFDF91CF910895BF92CF9218
:1003D000DF92EF92FF920F931F93CF93DF93EC0185
:1003E00040916C0090917700992311F0E2E001C0F8
:1003F000E42FF0E0E459FF4F2281209369008581CA
:1004000080936800E92FF0E0E459FF4F3185622FB7
:1004100070E0442349F0313039F49B01280F311D3D
:10042000C9019595879536C0C617D70794F1682FEF
:1004300070E06C177D0774F1411102C08C2F2AC047
:10044000821B032F10E001501109E82EF12CC70187
:10045000B80167DD6093C7006695E62FF0E0822F54
:10046000C12CD12CB12CB316A9F0C601B80145DDC1
:10047000822F860FCE0CDF1CAE01481B510957FF9F
:1004800003C0519541955109E417F5071CF4B39445
:10049000EACF822FDF91CF911F910F91FF90EF90C4
:1004A000DF90CF90BF9008958091C500882351F0D0
:1004B0009091CF009093C6008093C4001092C30027
:1004C0001092C2000895611160938200089566231E
:1004D00089F0813061F48091EB0090918400891B58
:1004E000681B6093840082E080936B0003C0635EAE
:1004F0006093830080918300873418F086E48093B2
:100500008300089560938600089581E00895CF9355
:10051000DF938CE690E09093CC008093CB00F8942E
:10052000C0E0D0E0E091CB00F091CC00EC0FFD1FDB
:1005300060812196CE0110DDCB31D10599F765EAB6
:1005400080E090E009DD7894DF91CF9108951092DA
:10055000F90084B195B12091CD008295869586955C
:100560008370990F990F890F820F8093CD0080912E
:10057000EE00882309F405C11092EE008091F70087
:100580009091D000992329F037981092FA00109298
:10059000F70081113CC080916B00882349F0609185
:1005A000F3007091F4007093F0006093EF0004C0CA
:1005B0006091EF007091F00020918200220F96E090
:1005C000769567959A95E1F780E090EB96DC620F5F
:1005D0006093ED008091B900882311F0815007C02D
:1005E000643738F460E070E084E0D4DD85E0809327
:1005F000B9008091D0008111BBC08FEA87B981E03A
:100600008093F7001092F8008FEE86B9B1C0813068
:1006100009F0AEC080916B00882341F08091F50015
:100620009091F6009093F2008093F1008091F10098
:100630009091F200A0918400AC01F6E056954795A8
:10064000FA95E1F70A2E000CBB0B4A0F5B1F4351D2
:1006500051405093EC004093EB009C0185E03695AF
:1006600027958A95E1F780916B00811127C08091D1
:10067000A800E82FF0E0EE0FFF1FE755FF4F408185
:100680005181B901641B750B318320838F5F8770A3
:100690008093A800CB01880F991F880F991F409164
:1006A000830050E04D5E5E4F4A1B5B0B440F551FAD
:1006B000841B950B820F931F23E00EC0E9EAF0E044
:1006C0002193319380E0E93BF807D1F7D0CF009731
:1006D00009F00196215029F018161906C4F7019760
:1006E000F9CF18161906E4F477FD39C02091A70058
:1006F00012160CF1880F991FBC016350710977FF26
:1007000002C06F5F7F4F759567951616170614F038
:1007100061E070E088E1861B8093A70085E026C039
:100720008C3F2FEF9207DCF477FF19C02091A700D0
:1007300027FF05C02450281B2093A70018C024EED3
:10074000281B2093A7002091ED00263780F06CEF46
:100750007FEF681B790B7595679586E007C08091E0
:10076000ED00853720F060E070E087E013DD86DD86
:1007700080916B00882329F080916B0081508093D9
:100780006B000895882331F0813049F4BA98C29AF9
:10079000BC9808C0BA98C298BC98C4980895BA9AF0
:1007A000C29ABC9AC49A0895CF93C82F8091D00062
:1007B000811101C0E7DFC11103C019BC18BC03C01F
:1007C0008FEF8C0F82DDC093CF00C093CE00C63078
:1007D00010F492E005C0CD3010F491E001C090E03B
:1007E00080E80FB6F89486BD96BD0FBECF910895F0
:1007F000CF93C091CF0089E18C0F873908F080E05A
:10080000D3DF82E025DD8C2FCF91CECFCF93C09167
:10081000CF0080E0C9DF83E01BDD8C2FCF91C4CFF8
:100820008093C8009091CF00981718F4282F291BA7
:1008300002C0292F281B3091BC00311106C0309115
:100840007C00332369F0223058F08093BD0084E0AF
:100850008093BB0081E08093BC009093BE0008951C
:10086000A3CF813019F410927A000895823019F4E0
:1008700060937B000895833019F4609379000895A4
:10088000843019F460936D000895853011F46093FD
:100890007C0008959091ED00943710F480E011C031
:1008A000943828F466956170635086230AC0982FA7
:1008B0009F70933030F06F70E62FF0E0E357FF4FFA
:1008C000808160CFCF93C0917700C1114DC0883037
:1008D00039F41092C5001092C3001092C20045C0B6
:1008E000813B79F48091C50081508330E8F583E045
:1008F0008093C5008093C4001092C3001092C20080
:1009000033C0853BA9F4CB016EE370E0F6DA892BA6
:1009100061F58091C5008A3F40F58B5F8093C500EB
:100920008093C4001092C3001092C20061DF1DC00A
:100930008130D1F48091C2009091C3000196883833
:100940002EE0920728F49093C3008093C2000DC05C
:100950001092C3001092C2008091C500882329F034
:1009600081508093C50001C0C1E08C2FCF910895C4
:10097000FF920F931F93CF93DF938C01EB01F42E23
:100980008091E9009091EA00892B31F0E091E90033
:10099000F091EA0089E009951093EA000093E900DC
:1009A000012B39F0E091E900F091EA00BE018F2DB2
:1009B000099581E08093CA00DF91CF911F910F913B
:1009C000FF900895CF93DF93E091D800EE2359F084
:1009D000E150E093D800F0E0EE0FFF1FE752FF4F29
:1009E000C081D18102C0C0E0D0E0E091D800EE2308
:1009F00041F0F0E0EE0FFF1FE952FF4F808191813F
:100A000002C080E090E04AE060E070E0B1DFCE013B
:100A1000DF91CF910895883029F41092BA00109296
:100A2000A20015C0813001F59091A200911107C07C
:100A30006032710570F18093A20000DC2AC0913011
:100A400089F46B3B710528F082E08093A20080E07E
:100A50001FC061157105E9F06270862F880F880F3D
:100A60008E5E16C0AFDF15C0813811F0813E89F46B
:100A700091E09093A200813E21F48091BA00865FBC
:100A800003C08091BA008F5F8093BA00D7DB8BE4FC
:100A90008BDE80E008959C019091D800983088F416
:100AA000E92FF0E0EE0FFF1FE752FF4F3183208365
:100AB0009F5F9093D80048E0C9015ADF8091D80029
:100AC00008958FEF08950F931F93CF93DF93EC0159
:100AD0008B0178DFB801CE01DF91CF911F910F918B
:100AE000DACF843011F58091E9009091EA002AE094
:100AF0008D35920729F469E170E088EF95E013C025
:100B0000885F954061F49091CF00923040F0892F3A
:100B1000869596959695890F83DE80E0089560E02E
:100B200070E08BE598E0CFDFF8CF81E00895813C5D
:100B300029F460E070E08BE598E006C0823C31F477
:100B400060E070E08EEB95E0BEDF14C0813B41F4C5
:100B5000CB016EE370E0D1D9892B61F449DE0AC084
:100B6000813E51F4CB016EE370E0C7D96F5F6093B3
:100B70008100CDDC80E0089581E00895CF93C0919D
:100B80007700C11117C0813C29F460E070E08BE56B
:100B900098E006C0823C31F460E070E08EED95E0B4
:100BA00092DF09C0873B31F460E070E08BE398E0AE
:100BB00072DF01C0C1E08C2FCF910895813C29F4F0
:100BC00060E070E08BE598E006C0823C31F460E0C4
:100BD00070E087E995E077DF07C0873B39F460E094
:100BE00070E08FE398E057DF80E0089581E008959A
:100BF000BF92CF92DF92EF92FF920F931F93CF930A
:100C0000DF93182FEB01D0906900F090680080917D
:100C10006C00882319F0B090C70002C0BB24B394C5
:100C2000C0906D00809177008111C0907800CC2039
:100C300051F081E0C81621F080916A008F1518F0FC
:100C4000F6E9EF2E01C0EF2C0091C500BE01812F07
:100C500039DE8091C500882339F001110CC09091D4
:100C6000CF009093C60007C0002329F060E070E039
:100C70008BE598E036C0912F9D7F9830D9F4109283
:100C8000C1001A3019F4C0916A00D0E08D2D90E0B7
:100C90008C179D0738F48F2D90E0C817D90710F4F2
:100CA000C0936A00CE0192DBBBDD81E080936500DA
:100CB00000E086C1113CD1F2123C59F48091CF0082
:100CC0008E1510F48E2D02C080916A00A9DDECDB38
:100CD000EFCF143C41F480E067DD60E070E089E232
:100CE0009CE0F1DEE5CF9FE4910F923008F056C012
:100CF00080916C00882339F0CE0168E170E0FDD866
:100D0000892B31F0D5CF6091740070E0CE01F7CF20
:100D10000091BC000111CCCF2091CF00209761F44D
:100D2000123B11F48FEF05C02F15E0F7D216F8F043
:100D300081E0809365001BC0E0917400F0E0CF017A
:100D400066E371E0BDD88C179D0710F42F1550F79E
:100D5000CF016CE672E0B4D88C179D0740F4D21630
:100D600030F046DD60E070E089E29CE0ACDEC091EE
:100D7000CF00809165006B2D70E0082E000C990B60
:100D80009FD88C0F911D22DB80936A00C81719F041
:100D9000F81201C03BDD80916A00D7C09FE1910F3E
:100DA000923020F480916500819580CF113009F058
:100DB00078C0A99711F410936500882349F1009138
:100DC000C60010E090E0B8017BD8EC01E091C400CF
:100DD000F0E0BF01A6D8262FCE01801B910BBF01EA
:100DE000A0D8322F361B8091C2009091C3006EE3D1
:100DF00070E083D8832F90E063D86CE370E07DD8F7
:100E0000261B622F09F461E06093CE006093C80056
:100E1000D091CE008091CF002D2F30E0281B3109DA
:100E20006091A4007091A5006F5F7F4F7093A50043
:100E30006093A4002115310509F43ACF37FF05C0AE
:100E4000883830F040E450E005C040E052E002C095
:100E500040E051E05695479537FF02C02F5F3F4F66
:100E60003595279521153105A9F74617570708F03D
:100E70001FCFD81710F4CFEF03C08D1718F4C1E0BF
:100E8000C80F01C0CD2F8FEF8C0F2BDA882321F0F4
:100E90008C2F8ADCD093CE001092A5001092A40073
:100EA00007CF1530A1F48091CF008D3308F400CF27
:100EB00090E08C1B9D0B8C33910534F087399105A4
:100EC00064F186E990E029C08CE390E026C01630FA
:100ED000B1F49091CF008091C800981708F0E8CE47
:100EE000C90FD11D90E08C179D0734F0CC33D1058C
:100EF00024F4CCE3D0E001C0EC018C2F0EC01730FD
:100F000079F49091CE008091CF00891710F48F5F13
:100F100004C0981708F0CCCE81508093CE00C8CE84
:100F20000091770001114BC0133C91F481E0909146
:100F30006C00911180E080936C00E9DA67DC8091AD
:100F4000CF0090E043DA80936A006ADCADDA38C003
:100F5000133B49F4CD2B09F0ABCECC2011F086E940
:100F6000E82E8E2D04C0133E21F480916A0058DCD7
:100F700027C0153C61F48091CF0080936A0080E027
:100F800013DC60E070E084EE9BE09DDD19C0173B50
:100F900029F460E070E08FE298E00FC01A3C39F469
:100FA0008091CF0080937A00B2DA22DC09C01A3B2C
:100FB00031F460E070E087E398E06DDD01C001E0AE
:100FC000802FDF91CF911F910F91FF90EF90DF90D5
:100FD000CF90BF900895883071F41092A30080E004
:100FE000E3DB8091D100811138C08091A3008F5F35
:100FF0008093A30022C0982F907F903BB1F4209162
:10100000A300421778F0CB016DE570E076D7069724
:1010100039F42F5F2093A3004217F8F088E303C050
:1010200082E101C080E0C0DB18C0903E61F4809195
:10103000A300882389F0481778F060E070E08BE027
:1010400095E029DD0AC08A3041F46091BA008091B0
:10105000A300F90109955BDAB5DC80E0089526EA82
:1010600031E043E0B8CF26EA31E044E0B4CF21E3F9
:1010700034E045E0B0CF23E632E041E0ACCF27E6F4
:1010800032E042E0A8CF22E832E041E0A4CF81E0A4
:10109000089590917C00992369F08093BD0088E0C9
:1010A0008093BB0081E08093BC008091CF0080934F
:1010B000BE00089579CB0F931F93CF938B01883097
:1010C00081F480E0E6DF8091BC00082B1092C9001B
:1010D0001092C500012B09F057C081E08093D00029
:1010E00053C0813059F46931710508F44DC0C09185
:1010F000BC00C11149C08093D000C0C0833039F515
:101100008091C9008F3F19F08F5F8093C9002091B3
:101110007A00222359F080917B0090E062EC71E02C
:10112000CFD60817190710F020936A008091850028
:10113000602F8370AFDB80918600882329F190E0D7
:1011400062EC71E0BDD680179107F0F451C0813B8D
:1011500091F481E090E03AD99CDF8091790081118F
:1011600013C080916C00811103C00831110560F03B
:1011700061E070E029C0813ED9F3813839F4809173
:101180006A0090E023D985DFC0E078C0813C21F47B
:1011900060916A0070E018C0823B81F41092C9002F
:1011A00080916D009091770091118091780081116C
:1011B00003C086E990E0E6CF86E9E5CF823E59F0AC
:1011C000823C29F466E970E088EF95E00CC0833931
:1011D00021F41092BC0080E0D6CF833C31F460E073
:1011E00070E08EEB95E06FDCCFCF843C31F400DB18
:1011F00060E070E089E29CE0F6CF8F3C29F460E08B
:1012000070E087E498E0EFCFC09177008A3B79F4F3
:10121000672B69F4CC2329F0EBDA1092770077D9A9
:10122000B3CF60E070E083E398E035DC27C0C11104
:1012300024C0833B29F460E070E08DE59AE01BC098
:10124000873C51F49091850081E0890F9C7F8370E9
:10125000892B8093850006C08A3C31F4C9DA81E08D
:101260008093770054D90AC0853C39F4C1DA60E034
:1012700070E084EE9BE027DC01C0C1E08C2FCF91B1
:101280001F910F9108950F931F93CF931092D30046
:1012900080912B0190912C019C012F5F3F4F88275B
:1012A0009078822B932B90932C0180932B01C091EB
:1012B000D100EDD7C81729F11092D0008093D1004A
:1012C00090912D01882359F0892F80699F709F305C
:1012D00009F08F5F80932D0180E090E00DC0892F91
:1012E0008F7E95FD02C0806801C0806C80932D01C7
:1012F00080912B0190912C019DD710922C0110927E
:101300002B0100912B0110912C018091D00088239A
:1013100099F0B80183E03ED756D70134110528F083
:101320000F701127012B09F044C01092A60081E034
:101330008093FA00A3D72EC0C0912D018C2F807FFF
:10134000803B19F460E070E001C0B80181E022D771
:10135000C4FF12C0C5FF02C0C8010CC0083111058E
:10136000C8F010922C0110922B01C062C0932D0185
:1013700080E090E05FD70EC0CC2361F0C5FD09C0CE
:101380000231110538F0C064C0932D0180E090E077
:1013900051D754D78091A600811105C08FEE86B930
:1013A00081E08093EE008091A6008F5F8F71809323
:1013B000A600CF911F910F9108958091F90081119E
:1013C000C6D88091D30081115ECF0895CF92DF926D
:1013D000EF92FF920F931F93CF93DF93EC0110E8EE
:1013E00000E080E3E82E87E0F82E9CECC92EDD2497
:1013F000D394209709F18091CA0081111FC0809178
:10140000CF00863040F482E00FB6F89416BD86BD5A
:101410000FBEC60106C00FB6F89416BD06BD0FBEBE
:10142000C7010197F1F70FB6F89416BD06BD0FBEC0
:10143000C4DFC9D62197DDCF81E001C080E0DF9114
:10144000CF911F910F91FF90EF90DF90CF90089573
:10145000CF93C82F882381F089E1A6D986EA90E04E
:10146000B5DF80E0A1D98AEF90E0B0DFC150A1F7ED
:101470008AE992E0CF91AACF89E196D98AE090E0FB
:10148000A5DF80E091D98AEF90E0A0DFF1CFCF9384
:10149000DF9364E626D5282F892F6AE022D5EC0158
:1014A000222341F0822FD4DF8C2FD2DF8D2FDF91CA
:1014B000CF91CECFC111F8CFF9CFFF920F931F93E9
:1014C000CF93DF93D82F8B01C091BF0081E0809331
:1014D000C100C33009F0DBC0F090C5008D2FF2D9F8
:1014E000FF2051F08091C500811106C060E070E0DE
:1014F0008BE598E0E8DACBC0D83021F481E0809326
:101500006300C7C0D23C19F41092C500D4C0D13BCF
:10151000C1F490916200012B49F49E3610F08FEFD8
:1015200003C0923018F481E08093630080916300DF
:10153000890F11F481E029C18F3608F426C18EE6A7
:1015400024C1D13E31F48091630081958093630082
:10155000F2C0D23B61F481E080936300809162002D
:10156000823008F4F0C0815080936200ECC0D1302A
:1015700009F0A5C00932110511F4D09363009091D0
:10158000A100892F880F97FD809590E067E070E0BB
:1015900097D4292F8091A000682F660F87FD609552
:1015A0008091610070E090E08BD4290F80919F00C2
:1015B000682F660F87FD60958091600070E090E075
:1015C0007FD4920F6091620070E0690F711D80916D
:1015D000C500813091F48091C2009091C30025E054
:1015E000969587952A95E1F724E730E0A901481BF5
:1015F000590BCA0165D4B90180D4862FD5D800FD16
:1016000007C04ED681709091A100890F8093A100F0
:101610009091A00080919E00890F8093A00040D6F9
:1016200065E25FD480919F00980F90939F0038D619
:101630008F7329F435D66DE054D490939E00C091F9
:101640006100CC2331F02CD68F7319F4C150C093B4
:10165000610026D6811107C023D66BE042D4909357
:1016600061001092A000C0916000C33030F018D625
:101670008F7119F4C150C093600012D68F7709F0B2
:1016800088C00ED666E02DD49093600082C0D8301A
:1016900041F480917D008093BF0081E080936400DD
:1016A00076C0D13C31F460E070E08BE598E00BDA75
:1016B0006EC0D23C31F48C2F90E0019607C0D13C33
:1016C00091F3D43C59F48C2F90E0049665E070E0DF
:1016D00028D480937D008093BF0048C0D13B49F55A
:1016E000C23090F400FD53C0EC2FF0E0E459FF4FFE
:1016F000828990916400891B883020F08F3F91F59A
:101700008EEF30C088E02EC0C43009F040C0909108
:10171000800080916400890F823010F482E003C061
:10172000893708F088E780938000809180003CD85A
:101730002EC0D13E31F48091640081958093640085
:1017400015C0D23B89F481E080936400C23068F513
:1017500000FD1DC0EC2FF0E0E459FF4F82898F3F60
:10176000B1F08F5F828B13C0D23E11F4D0D60FC080
:10177000D53C39F460E070E084EE9BE0A4D980E0D1
:10178000D6CFD13031F081E019C08093620080E083
:1017900015C00932110519F481E08093640080912D
:1017A000CD00080F0093CD00F2CFC43081F78091B7
:1017B0008000833008F4B9CF8150B5CFDF91CF914D
:1017C0001F910F91FF9008950F931F93CF93DF9375
:1017D000D82F8B01883031F48091C100882311F01B
:1017E00088E06BDE8D2F8079803959F481E0809319
:1017F000C000C091C100C1110AC080916A00D4D755
:1018000022C0803831F41092C00080E0CDD7C0E013
:101810001AC0D130B9F4C091C000CC2359F08091E6
:10182000C1008823A1F3B80181E0DF91CF911F911E
:101830000F9143CE80E0A6D70733114040F3D093F9
:10184000D00001C0C1E08C2FDF91CF911F910F918B
:1018500008950F931F93CF93DF93C82F8B01807947
:101860008039B1F420916E0090916F008C2F8F70B1
:10187000813021F4822F921748F407C080917A00BA
:10188000811104C0822F291708F4892F8DD713C026
:10189000803819F480E088D705C0C83019F4109258
:1018A000C90046C0C13039F40931110508F45DC0E2
:1018B000C093D0005AC0C330E9F48091C9008F3F73
:1018C00019F08F5F8093C90020917A00222359F08C
:1018D00080917B0090E062EC71E0F2D2081719076A
:1018E00010F020936A0080918500602F8695869580
:1018F000D1D73BC0C33C31F47BD760E070E08BE5CF
:1019000098E014C0C43C21F460916A0070E00CC0FF
:10191000C43B31F47BD710922D0161E070E004C02C
:10192000C53C31F466E970E088EF95E0CCD81DC085
:10193000D0917700D1111BC0C73C79F490918500FC
:10194000892F869586958F5F8370880F880F937097
:10195000890F80938500DBD50BC0CA3B41F460E062
:1019600070E083E498E097D803C0D0E001C0D1E0F4
:101970008D2FDF91CF911F910F9108951F920F929C
:101980000FB60F9211242F933F938F939F93AF9392
:10199000BF93EF93FF938091F8008823E9F0E091E3
:1019A000F70024B135B1F0E0EE0FFF1FDF01AD50BD
:1019B000BF4F2D933C93E151FF4F8081918182175E
:1019C000930708F401962817390708F401979183C3
:1019D000808381E08093F90081E08093F800FF919B
:1019E000EF91BF91AF919F918F913F912F910F9068
:1019F0000FBE0F901F9018951F920F920FB60F9267
:101A000011248F9381E08093D3008F910F900FBEAC
:101A10000F901F9018951F920F920FB60F921124DE
:101A20008F9381E08093D2008F910F900FBE0F9023
:101A30001F901895F89484B7877F84BF0FB6F894E9
:101A4000A89581B5886181BD11BC0FBE83E087BBBD
:101A500081E083BF81EA8ABD88E088BB85BB8BB704
:101A600080628BBFA89581B5886181BD80E481BD0E
:101A700005D4789481E0ECD360E070E081E795E0F4
:101A80000AD81092CA00B4D602D4811113C08CE6D1
:101A900090E09093CC008093CB00F89480E090E0AD
:101AA00053D2853AC1F50091CB001091CC00C1E032
:101AB000D0E028C0C0E08C2F77D683E190E086DCB0
:101AC0008C2F869571D683E190E080DCE0D388236B
:101AD00081F0CF5FC03479F765E181E0F8D417D5A4
:101AE000C6E98C2F61D684E090E070DCC150C9F764
:101AF000CECFCC2361F28C2F57D68DE090E066DC00
:101B0000C150F7CFCE0120D2F80181938F012196E9
:101B1000CC31D105B9F7789480917A008111809306
:101B20006A0060E070E085E892E0B5D761E070E0BF
:101B30008BE598E0B0D743E4342E52E0452E60E4C4
:101B4000562E7724739477E0672ECC24C394D12C3F
:101B5000FCEF8F2EF3E09F2EABE5AA2EA8E0BA2E65
:101B600032D38091D6009091D700009749F06091D0
:101B7000D4007091D500A7D71092D7001092D6004C
:101B80008091D000882309F44BC080E00DD6A89541
:101B900081B5886181BD31BC379879D38111FDCF82
:101BA0004DD38BB780628BBF1092F9001092D30097
:101BB0001092D2008091D000882339F18091FA00F0
:101BC000882321F085B7877E886003C085B7877E2C
:101BD000806185BF85B7806285BF889585B78F7D19
:101BE00085BF8091D20081111092D0008091F900C0
:101BF000882329F070926B007092EE00A8D4809137
:101C0000D3008823B9F23FDBD5CF40926B008BB76E
:101C10008F7D8BBF33D3A89581B5886181BD51BCC1
:101C2000CCDB1092CA008091E9009091EA00F8E0C4
:101C300087349F0711F5CEE1D0E0FE0184918053F7
:101C4000803110F405DC10C010E0812F8170829586
:101C5000880F807EA9D580E190E0B8DB1F5F193145
:101C6000A1F78AE992E0B2DB8CE291E0AFDB21964A
:101C7000F0E0CF32DF0709F7B9C02AE08D359207CF
:101C800079F03BE0843E930709F0A0C08091C10049
:101C9000813009F0D6C08091C000882309F4D1C0FA
:101CA000C091BF00C23001F120F0C43009F474C00B
:101CB00057CFEC2FF0E0E459FF4FD28986E974D575
:101CC000C11109C0DA3220F4C4010197F1F707C04D
:101CD00081E090E003C08D2F869590E077DB80E077
:101CE00063D58D2F90E0DFC0DBD28F73E82EF12C0F
:101CF000D7D2662DF6D0E60102C0CC0FDD1F9A9533
:101D0000E2F7CED265E0EDD0F60102C0EE0FFF1F84
:101D10009A95E2F7CE0FDF1FC3D290E0BE0101D14A
:101D2000C80FD91FC739D10514F0C6E9D0E08C2FF0
:101D30003BD5C7014BDB8E0133E0159507953A95EE
:101D4000E1F7011101C001E010E0C7013FDBC01B5A
:101D5000D10BD7FF02C0C0E0D0E08C2F25D5A0D298
:101D6000837031F4C70132DBCE01959587951CD580
:101D7000C230D10554F794D26DE0B3D0E60102C071
:101D8000CC0FDD1F9A95E2F78BD290E0BE01B5D063
:101D9000C80FD91F80E085C0C0918000CC0FC73923
:101DA00008F0C6E9D4E08C2FFFD485E090E00EDB8C
:101DB00080918000F9D481E490E008DBD15099F75C
:101DC00080ED92E003DB80E0EFD4CACEF5E08E3BFD
:101DD0009F07A9F488EE93E0F9DA8091ED008695EB
:101DE000869555DB80917700882381F0B092D700EB
:101DF000A092D6001092D5001092D400B1CE25E06A
:101E00008E3D920731F48091EB0041DB88EE93E048
:101E10004AC087599540A9F48091D1008111A0CE84
:101E200080916A00C1D484E690E0D0DA80E0BCD42E
:101E30008091810090E068EE73E042D08456910971
:101E400032C080917C00882381F18091BC0088237E
:101E500061F12091CF003091BD00231305C0822F86
:101E6000A3D41092BC007CCE6091BB00231758F421
:101E7000832F821B36D0811101C081E0820F94D460
:101E80008AE090E010C0862F90E06EE170E018D0FC
:101E90006091BE00631B70E044D0EB0121968FEF90
:101EA000820F82D4CE0192DA5BCE85B7877E85BF62
:101EB00085B7806285BF889585B78F7D85BF50CEF9
:101EC0000024552704C0080E591F880F991F00973A
:101ED00029F076956795B8F37105B9F7802D952FA0
:101EE0000895991B79E004C0991F961708F0961B76
:101EF000881F7A95C9F780950895AA1BBB1B51E1ED
:101F000007C0AA1FBB1FA617B70710F0A61BB70B69
:101F1000881F991F5A95A9F780959095BC01CD010E
:101F2000089597FB072E16F4009406D077FD08D08D
:101F3000E4DF07FC05D03EF4909581959F4F08950E
:101F4000709561957F4F0895E199FECF9FBB8EBB41
:101F5000E09A99278DB30895262FE199FECF9FBB74
:101F60008EBBE09A01970DB2021639F01CBA2DBB58
:101F70000FB6F894E29AE19A0FBE0895F894FFCF55
:101F8000060B180101010004780153020002010A46
:101F90000A78786C0107050100000000010329435D
:101FA0003202072D000D006E007100740000010266
:0E1FB000010000000000000100000000000021
:00000001FF
