:10000000ADC0C7C00DCDC5C0C4C0C3C0C2C0C1C093
:10001000BACCBFC0BEC0BDC0F4CCBBC0BAC03031CA
:1000200032322E323032332D31322D30332B3800F4
:1000300000000000000000000000000000000000C0
:1000400000000000000000000000000000000000B0
:1000500000000000000000000000000000000000A0
:100060000000000000000000000000000000000090
:100070000000010304050708090B0C0E0F111314EF
:100080001618191B1D1F21232527292B2D3032342B
:1000900037393B3E404346484B4E5154575A5D60BA
:1000A0006366696D7073777A7E8185898D90949887
:1000B0009CA0A5A9ADB1B6BABFC3C8CDD1D6DBE06F
:1000C000E5EAEFF4FAFF0101020203030404050666
:1000D0000708090A0C0D0E0F11131416181A1D1F0C
:1000E0002224272A2D3033373B3E42464B4F54596A
:1000F0005D63686E73797F868C939AA1A8B0B8C04F
:10010000C8D1D9E2ECF5FFFFFFFFFFFFFFFFFFFFC4
:10011000FFFFFFFFFFFFFFFFFFFFFFFFFFFFFFFFEF
:10012000FFFFFFFFFFFFFFFFFFFFFFFFFFFFFFFFDF
:10013000FFFFFFFFFFFFFFFFFFFFFFFFFFFFFFFFCF
:10014000FFFFFFFFFFFFFFFFFFFFFFFFFFFFFFFFBF
:10015000FFFFFFFFFFFFFFFFFFFFFF0011241FBE98
:10016000CFE5D2E0DEBFCDBF10E0A0E6B0E0E2E92F
:10017000FFE102C005900D92A039B107D9F721E047
:10018000A0E9B0E001C01D92A032B207E1F757DC50
:10019000FECE36CF482F9B01EDEEF0E080E090E000
:1001A0005081552331F00196339680319105C1F786
:1001B00009C063E070E08DDEFC01E351FF4F408336
:1001C0003283218308950F931F93CF93DF93D091B0
:1001D000ED00DD2351F10091EE001091EF00C09190
:1001E000CA00C150C7FD0DC0EC2FEE0FFF0BE55349
:1001F000FF4F0190F081E02DB8018D2F09958111FD
:10020000F0CFEDEEF0E0838180838481958192834D
:100210008183339681E0EA31F807A9F710921A0139
:1002200010921C0110921B01D2CFDF91CF911F9130
:100230000F910895BC0180911F01ACCF10921F0156
:1002400010921E0110921D0181E08093BC00089560
:1002500090E822E048EA57E030E0815070F00FB6B5
:10026000F89496BD26BD0FBEFA013197F1F70FB68F
:10027000F89496BD36BD0FBEF0CF08958CE287B9D5
:100280001092E9001092EA008FEE86B9089586B3C5
:1002900083FB882780F991E089278093C300089524
:1002A000E0916600F09167003196FB70F460F09386
:1002B0006700E09366008091BF008B5A8093BF0077
:1002C000E4918091BF008E0F0895CF93C82F8111C4
:1002D00003C019BC18BC03C08FEF8C0F15D0C0939E
:1002E000C100C093C000C63010F492E005C0CF300A
:1002F00010F491E001C090E080E80FB6F89486BD5C
:1003000096BD0FBECF91089590E0FC01EA53FF4FD8
:100310002491FC01E05DFF4F849129BD88BD0895C3
:1003200090E0FC01EA53FF4F2491FC01E05DFF4F98
:10033000949189B5811102C02F3F29F089B58F3F73
:1003400021F4211102C029BD0CC089B5821718F40F
:1003500089B58F5F05C089B5281718F489B5815014
:1003600089BD88B5891718F488B58F5F05C088B531
:10037000981718F488B5815088BD89B5281303C033
:1003800028B581E0921380E00895CF93DF9300D0E9
:1003900000D000D0CDB7DEB790916C002091DB008B
:1003A0003091DC002056384009F492E0843019F492
:1003B0006093780021C06623F9F0823019F427E9B0
:1003C000261B622F26E0E9E8F0E0DE01119601909D
:1003D0000D922A95E1F7E82FF0E03197EE0FFF1F1D
:1003E00021E030E02C0F3D1FE20FF31F0190F08160
:1003F000E02DE90FF11D608326960FB6F894DEBF5D
:100400000FBECDBFDF91CF910895BF92CF92DF9203
:10041000EF92FF920F931F93CF93DF93EC014091E4
:100420006C0090917700992311F0E2E001C0E42F75
:10043000F0E0E459FF4F2281209369008581809389
:100440006800E92FF0E0E459FF4F3185622F70E03A
:10045000442349F0313039F49B01280F311DC90183
:100460009595879536C0C617D70794F1682F70E029
:100470006C177D0774F1411102C08C2F2AC0821BBA
:10048000032F10E001501109E82EF12CC701B8012B
:1004900051DD6093B9006695E62FF0E0822FC12C04
:1004A000D12CB12CB316A9F0C601B8012FDD822FD3
:1004B000860FCE0CDF1CAE01481B510957FF03C04D
:1004C000519541955109E417F5071CF4B394EACF0F
:1004D000822FDF91CF911F910F91FF90EF90DF90CE
:1004E000CF90BF9008958091B700882351F09091EC
:1004F000C1009093B8008093B6001092B50010929E
:10050000B4000895CF93C091C10089E18C0F873961
:1005100008F080E0DADE82E09BDE8C2FCF91D5CE32
:10052000CF93C091C10080E0D0DE83E091DE8C2FBC
:10053000CF91CBCE6111609382000895662389F03C
:10054000813061F48091DD0090918400891B681BEB
:100550006093840082E080936B0003C0635E6093CD
:10056000830080918300873418F086E480938300B1
:100570000895609385000895E82FF0E0E459FF4F57
:10058000618F089581E008958093BA009091C10031
:10059000981718F4282F291B02C0292F281B3091E7
:1005A000AE00311106C030917C00332369F0223057
:1005B00058F08093AF0084E08093AD0081E0809399
:1005C000AE009093B000089580CECF93DF938CE679
:1005D00090E09093BE008093BD00F894C0E0D0E01E
:1005E000E091BD00F091BE00EC0FFD1F60812196EF
:1005F000CE01BBDCCD31D10599F765EA80E090E012
:10060000B4DC7894DF91CF9108951092EB0084B11F
:1006100095B12091BF008295869586958370990F3C
:10062000990F890F820F8093BF008091E00088238B
:1006300009F4FDC01092E0008091E90081113DC0F5
:1006400080916B00882349F06091E5007091E6008D
:100650007093E2006093E10004C06091E10070914A
:10066000E20020918200220F245096E07695679553
:100670009A95E1F780E090EB49DC260F2093DF00AC
:100680008091AB00882311F0815007C0243738F4E3
:1006900060E070E084E07EDD85E08093AB008091D7
:1006A000C2008111BBC08FEA87B981E08093E90065
:1006B0001092EA008FEE86B9B1C0813009F0AEC069
:1006C00080916B00882341F08091E7009091E800D1
:1006D0009093E4008093E3008091E3009091E40024
:1006E000A0918400AC01F6E056954795FA95E1F7A4
:1006F0000A2E000CBB0B4A0F5B1F43515140509315
:10070000DE004093DD009C0185E0369527958A95B3
:10071000E1F780916B00811127C080919A00E82F4A
:10072000F0E0EE0FFF1FE556FF4F40815181B90108
:10073000641B750B318320838F5F877080939A00D1
:10074000CB01880F991F880F991F4091830050E0BB
:100750004D5E5E4F4A1B5B0B440F551F841B950B70
:10076000820F931F23E00EC0EBE9F0E02193319359
:1007700080E0EB3AF807D1F7D0CF009709F0019667
:10078000215029F018161906C4F70197F9CF181649
:100790001906E4F477FD39C02091990012160CF186
:1007A000880F991FBC016350710977FF02C06F5F0A
:1007B0007F4F759567951616170614F061E070E087
:1007C00088E1861B8093990085E026C08C3F2FEF3F
:1007D0009207DCF477FF19C02091990027FF05C02C
:1007E0002450281B2093990018C024EE281B209326
:1007F00099002091DF00263780F06CEF7FEF681BB7
:10080000790B7595679586E007C08091DF00853785
:1008100020F060E070E087E0BDDC30DD80916B00AF
:10082000882329F080916B00815080936B0008959C
:10083000813019F410927A000895823019F460938F
:100840007B000895833019F4609379000895843013
:1008500019F460936D000895853011F460937C0065
:100860000895883039F41092B7001092B5001092B4
:10087000B40043C0813B79F48091B700815083304C
:10088000F0F583E08093B7008093B6001092B50036
:100890001092B40034C0853BA9F4CB016EE370E044
:1008A00035DB892B51F58091B7008A3F30F58B5F9E
:1008B0008093B7008093B6001092B5001092B400F8
:1008C00021DE1BC08130D9F48091B4009091B50035
:1008D000019688382EE0920728F49093B500809313
:1008E000B4000BC01092B5001092B4008091B70014
:1008F000882319F081508093B70080E0089581E04B
:100900000895FF920F931F93CF93DF938C01EB0118
:10091000F42E8091DB009091DC00892B31F0E09186
:10092000DB00F091DC0089E009951093DC00009376
:10093000DB00012B39F0E091DB00F091DC00BE011F
:100940008F2D099581E08093BC00DF91CF911F919D
:100950000F91FF900895CF93DF93E091CA00EE23AB
:1009600059F0E150E093CA00F0E0EE0FFF1FE553AD
:10097000FF4FC081D18102C0C0E0D0E0E091CA0049
:10098000EE2341F0F0E0EE0FFF1FE753FF4F8081B1
:10099000918102C080E090E04AE060E070E0B1DF69
:1009A000CE01DF91CF910895883029F41092AC00E8
:1009B0001092940015C0813001F59091940091112E
:1009C00007C06032710570F18093940037DC2AC053
:1009D000913089F46B3B710528F082E0809394009C
:1009E00080E01FC061157105E9F06270862F880FE5
:1009F000880F8E5E16C0AFDF15C0813811F0813EC2
:100A000089F491E090939400813E21F48091AC00B0
:100A1000865F03C08091AC008F5F8093AC000EDCDA
:100A20008BE453DC80E008959C019091CA009830DB
:100A300088F4E92FF0E0EE0FFF1FE553FF4F3183FD
:100A400020839F5F9093CA0048E0C9015ADF8091DC
:100A5000CA0008958FEF08950F931F93CF93DF93EC
:100A6000EC018B0178DFB801CE01DF91CF911F91AE
:100A70000F91DACF843011F58091DB009091DC008A
:100A80002AE08038920729F469E170E085E296E077
:100A900013C08552964061F49091C100923040F0AD
:100AA000892F869596959695890F6EDD80E008953D
:100AB00060E070E08CE898E0CFDFF8CF81E0089547
:100AC000813C29F460E070E08CE898E006C0823C4C
:100AD00031F460E070E087E895E0BEDF14C0813B50
:100AE00041F4CB016EE370E011DA892B61F40ADD89
:100AF0000AC0813E51F4CB016EE370E007DA6F5F0C
:100B00006093810062DD80E0089581E00895CF93D5
:100B1000C0917700C11117C0813C29F460E070E0FA
:100B20008CE898E006C0823C31F460E070E087EA2F
:100B300095E092DF09C0873B31F460E070E088E621
:100B400098E072DF01C0C1E08C2FCF910895813C05
:100B500029F460E070E08CE898E006C0823C31F453
:100B600060E070E080E695E077DF07C0873B39F40E
:100B700060E070E08CE698E057DF80E0089581E067
:100B800008950F931F93CF93DF93D82F8B01807914
:100B90008039B1F420916E0090916F008D2F8F708D
:100BA000813021F4822F921748F407C080917A0097
:100BB000811104C0822F291708F4892F86DB12C007
:100BC000803819F480E081DB05C0D83019F4109228
:100BD000BB0026C0D13031F40931110568F1D09342
:100BE000C2002AC0D33C31F48DDC60E070E08CE8B8
:100BF00098E014C0D43C21F460916A0070E00CC00D
:100C0000D43B31F48DDC10921F0161E070E004C030
:100C1000D53C31F466E970E085E296E01DDF0CC05A
:100C2000C0917700C1110AC0DA3B41F460E070E086
:100C300080E798E0F9DE03C0C0E001C0C1E08C2F7E
:100C4000DF91CF911F910F910895BF92CF92DF92C4
:100C5000EF92FF920F931F93CF93DF93182FEB0127
:100C6000D0906900F090680080916C00882319F0A2
:100C7000B090B90002C0BB24B394C0906D008091C5
:100C800077008111C0907800CC2051F081E0C81627
:100C900021F080916A008F1518F0F6E9EF2E01C05F
:100CA000EF2C0091B700BE01812FDBDD8091B700F2
:100CB000882339F001110CC09091C1009093B800C5
:100CC00007C0002329F060E070E08CE898E036C0AF
:100CD000912F9D7F9830D9F41092B3001A3019F4F7
:100CE000C0916A00D0E08D2D90E08C179D0738F4FC
:100CF0008F2D90E0C817D90710F4C0936A00CE0179
:100D000084DB42DC81E08093650000E086C1113C19
:100D1000D1F2123C59F48091C1008E1510F48E2D41
:100D200002C080916A0030DCDEDBEFCF143C41F47E
:100D300080E0CBDA60E070E081EC95E08DDEE5CF1D
:100D40009FE4910F923008F058C080916C00882386
:100D500039F0CE0168E170E0D9D8892B31F0D5CFD8
:100D60006091740070E0CE01F7CF0091AE000111E8
:100D7000CCCF2091C100209761F4123B11F48FEF8A
:100D800005C02F15E0F7D216F8F081E080936500DA
:100D90001BC0E0917400F0E0CF0166E371E099D8E8
:100DA0008C179D0710F42F1550F7CF016CE672E0F9
:100DB00090D88C179D0740F4D21630F0A3DB60E08A
:100DC00070E081EC95E048DEC091C1008091650043
:100DD0006B2D70E0082E000C990B7BD88C0F911DA9
:100DE00014DB80936A00C81719F0F81201C098DB71
:100DF00080916A00C9DB77DB10C19FE1910F9230CF
:100E000020F48091650081957ECF113009F078C083
:100E1000A99711F410936500882349F10091B80057
:100E200010E090E0B80155D8EC01E091B600F0E098
:100E3000BF0180D8262FCE01801B910BBF017AD82D
:100E4000322F361B8091B4009091B5006EE370E0B4
:100E50005DD8832F90E03DD86CE370E057D8261B17
:100E6000622F09F461E06093C0006093BA00D091F2
:100E7000C0008091C1002D2F30E0281B3109609106
:100E80009600709197006F5F7F4F7093970060930B
:100E900096002115310509F438CF37FF05C0813997
:100EA00030F040E450E005C040E052E002C040E0D5
:100EB00051E05695479537FF02C02F5F3F4F35955C
:100EC000279521153105A9F74617570708F01DCFBB
:100ED000D81710F4CFEF03C08D1718F4C1E0C80F76
:100EE00001C0CD2F8FEF8C0F1BDA882321F08C2FC0
:100EF000ECD9D093C000109297001092960005CFC5
:100F00001530A1F48091C100833308F4FECE90E047
:100F10008C1B9D0B8233910534F08739910564F168
:100F200086E990E029C082E390E026C01630B1F453
:100F30009091C1008091BA00981708F0E6CEC90FD1
:100F4000D11D90E08C179D0734F0C233D10524F4F5
:100F5000C2E3D0E001C0EC018C2F0EC0173079F451
:100F60009091C0008091C100891710F48F5F04C078
:100F7000981708F0CACE81508093C000C6CE133CAB
:100F800081F481E090916C00911180E080936C007D
:100F90001CDBC6DA8091C10090E037DA80936A00EA
:100FA000C2CE00917700011137C0133B49F4CD2B1D
:100FB00009F0ABCECC2011F086E9E82E8E2D04C0CE
:100FC000133E21F480916A00DFDA27C0153C61F4FA
:100FD0008091C10080936A0080E077D960E070E082
:100FE00087E09CE039DD19C0173B29F460E070E030
:100FF0008CE598E00FC01A3C39F48091C1008093D1
:101000007A00E3DA7FDA09C01A3B31F460E070E07D
:1010100084E698E009DD01C001E0802FDF91CF91E7
:101020001F910F91FF90EF90DF90CF90BF900895A8
:10103000883071F41092950080E047D98091C30008
:10104000811138C0809195008F5F8093950022C0F8
:10105000982F907F903BB1F420919500421778F043
:10106000CB016DE570E052D7069739F42F5F2093DE
:1010700095004217F8F088E303C082E101C080E0E8
:1010800024D918C0903E61F480919500882389F09E
:10109000481778F060E070E084ED94E0C5DC0AC0A9
:1010A0008A3041F46091AC0080919500F901099576
:1010B0008CDA51DC80E0089525EC31E043E0B8CFD4
:1010C00025EC31E044E0B4CF28E134E045E0B0CF96
:1010D0002AE932E041E0ACCF2EE932E042E0A8CF8D
:1010E00029EB32E041E0A4CF2CEB32E043E0A0CF8B
:1010F00081E0089590917C00992369F08093AF007E
:1011000088E08093AD0081E08093AE008091C100C3
:101110008093B0000895D9C8CF93DF93EB01883056
:1011200081F480E0E7DF8091AE00C82B1092BB0015
:101130001092B700CD2B09F051C081E08093C2001E
:101140004DC0813059F46931710508F447C0C09130
:10115000AE00C11143C08093C200C0C0833011F5FE
:101160008091BB008F3F19F08F5F8093BB0020916F
:101170007A00222359F080917B0090E062EC71E0CC
:10118000A8D6C817D90710F020936A00809185006F
:10119000882321F190E062EC71E09BD68C179D07CB
:1011A000E8F450C0813B89F481E090E02ED9A2DFC1
:1011B00080917900811112C080916C00811102C070
:1011C000689760F061E070E029C0813ED9F3813812
:1011D00039F480916A0090E018D98CDFC0E07EC0BD
:1011E000813C21F460916A0070E018C0823B81F478
:1011F0001092BB0080916D009091770091118091C9
:101200007800811103C086E990E0E6CF86E9E5CF5A
:10121000823E59F0823C29F466E970E085E296E06E
:101220000CC0833921F41092AE0080E0D6CF833C0D
:1012300031F460E070E087E895E00EDCCFCF843CCD
:1012400031F460D960E070E081EC95E0F6CF8D3B41
:1012500031F4F89488ED81BD7894A895FFCF8F3C48
:1012600029F460E070E088E798E0E7CF8A3B89F4F2
:10127000CD2BB1F4C0917700CC2329F043D9109243
:101280007700A3D9ABCF60E070E080E698E0CCDBDC
:1012900025C0833B29F460E070E080E89AE0CDCF80
:1012A000C0917700C11119C08A3C31F42BD981E07B
:1012B000809377008AD912C0853C31F423D960E04D
:1012C00070E087E09CE007C0863C39F41BD960E001
:1012D00070E08AE49CE0C0DB01C0C1E08C2FDF91AC
:1012E000CF9108950F931F93CF931092C5008091D3
:1012F0001D0190911E019C012F5F3F4F8827907820
:10130000822B932B90931E0180931D01C091C300EB
:10131000BED7C81729F11092C2008093C3009091E4
:101320001F01882359F0892F80699F709F3009F031
:101330008F5F80931F0180E090E00DC0892F8F7E2A
:1013400095FD02C0806801C0806C80931F01809170
:101350001D0190911E016ED710921E0110921D0169
:1013600000911D0110911E018091C200882339F067
:10137000B80183E00FD7CF911F910F9124C7C0917F
:101380001F018C2F807F803B19F460E070E001C06A
:10139000B80181E0FFD6C4FF12C0C5FF02C0C8017A
:1013A0000CC008311105C8F010921E0110921D01E9
:1013B000C062C0931F0180E090E03CD70EC0CC23F8
:1013C00061F0C5FD09C00231110538F0C064C09359
:1013D0001F0180E090E02ED731D7809198008111D5
:1013E00005C08FEE86B981E08093E000809198007F
:1013F0008F5F8F7180939800CF911F910F91089507
:101400008091EB00811101D98091C50081116ACFD3
:101410000895CF92DF92EF92FF920F931F93CF9395
:10142000DF93EC0110E800E080E3E82E87E0F82E7F
:101430009CECC92EDD24D394209709F18091BC0047
:1014400081111FC08091C100863040F482E00FB648
:10145000F89416BD86BD0FBEC60106C00FB6F8943F
:1014600016BD06BD0FBEC7010197F1F70FB6F89480
:1014700016BD06BD0FBEC4DFA6D62197DDCF81E025
:1014800001C080E0DF91CF911F910F91FF90EF900D
:10149000DF90CF900895CF93C82F882381F089E102
:1014A00014D786EA90E0B5DF80E00FD78AEF90E0AE
:1014B000B0DFC150A1F78AE992E0CF91AACF89E1CC
:1014C00004D78AE090E0A5DF80E0FFD68AEF90E0C5
:1014D000A0DFF1CFCF93DF9364E60CD5282F892FBF
:1014E0006AE008D5EC01222341F0822FD4DF8C2F53
:1014F000D2DF8D2FDF91CF91CECFC111F8CFF9CFB1
:10150000FF920F931F93CF93DF93D82F8B01C0913E
:10151000B10081E08093B300C33009F0DBC0F090EC
:10152000B7008D2F9ED9FF2051F08091B700811117
:1015300006C060E070E08CE898E08EDACBC0D8306E
:1015400021F481E080936300C7C0D23C19F410926B
:10155000B700D4C0D13BC1F490916200012B49F493
:101560009E3610F08FEF03C0923018F481E0809324
:10157000630080916300890F11F481E029C18F36E7
:1015800008F426C18EE624C1D13E31F48091630077
:10159000819580936300F2C0D23B61F481E0809337
:1015A000630080916200823008F4F0C08150809323
:1015B0006200ECC0D13009F0A5C00932110511F468
:1015C000D093630090919300892F880F97FD8095A9
:1015D00090E067E070E07DD4292F80919200682F21
:1015E000660F87FD60958091610070E090E071D496
:1015F000290F80919100682F660F87FD609580917B
:10160000600070E090E065D4920F6091620070E03D
:10161000690F711D8091B700813091F48091B40001
:101620009091B50025E0969587952A95E1F724E7F6
:1016300030E0A901481B590BCA014BD4B90166D44B
:10164000862F43D600FD07C02BD681709091930062
:10165000890F809393009091920080919000890F60
:10166000809392001DD665E245D480919100980F39
:101670009093910015D68F7329F412D66DE03AD469
:1016800090939000C0916100CC2331F009D68F7304
:1016900019F4C150C093610003D6811107C000D670
:1016A0006BE028D49093610010929200C09160008A
:1016B000C33030F0F5D58F7119F4C150C09360007C
:1016C000EFD58F7709F088C0EBD566E013D49093FF
:1016D000600082C0D83041F480917D008093B100D9
:1016E00081E08093640076C0D13C31F460E070E02A
:1016F0008CE898E0B1D96EC0D23C31F48C2F90E0E8
:10170000019607C0D13C91F3D43C59F48C2F90E062
:10171000049665E070E00ED480937D008093B10064
:1017200048C0D13B49F5C23090F400FD53C0EC2FC6
:10173000F0E0E459FF4F828990916400891B883062
:1017400020F08F3F91F58EEF30C088E02EC0C4307E
:1017500009F040C09091800080916400890F823030
:1017600010F482E003C0893708F088E78093800096
:1017700080918000AAD52EC0D13E31F480916400C2
:1017800081958093640015C0D23B89F481E08093F9
:101790006400C23068F500FD1DC0EC2FF0E0E45994
:1017A000FF4F82898F3FB1F08F5F828B13C0D23E93
:1017B00011F40BD70FC0D53C39F460E070E087E03E
:1017C0009CE04AD980E0D6CFD13031F081E019C019
:1017D0008093620080E015C00932110519F481E0A0
:1017E000809364008091BF00080F0093BF00F2CF88
:1017F000C43081F780918000833008F4B9CF8150E4
:10180000B5CFDF91CF911F910F91FF9008950F9366
:101810001F93CF93DF93D82F8B01883031F48091C1
:10182000B300882311F088E06BDE8D2F807980393A
:1018300059F481E08093B200C091B300C1110AC095
:1018400080916A0042D520C0803831F41092B200F5
:1018500080E03BD5C0E018C0D130A9F4C091B200FF
:10186000CC2359F08091B3008823A1F3B80181E023
:10187000DF91CF911F910F9143CE0733114050F369
:10188000D093C20001C0C1E08C2FDF91CF911F9196
:101890000F910895FF920F931F93CF93DF93D82F4B
:1018A0008B01F0906A008079803931F5ED2FEF706F
:1018B000E43020F01092B200C0E031C091E090938B
:1018C000B200F0E0E459FF4F818D2FEF280F263949
:1018D00028F480936A001092B3000CC09093B30078
:1018E0008739C8F090E08759910965E070E022D30C
:1018F0008093B100C0E00AC0803839F41092B20081
:1019000080E0E3D481E08093BC00C1E08091B2002C
:10191000882329F001C0C0E0B8018D2F78DFF09254
:101920006A00D83021F4B80188E02BD925C0D13025
:1019300039F48091B20081111DC0B80181E004C06A
:10194000D33041F4B80183E0DF91CF911F910F9123
:10195000FF9017C9D63C39F4D5D560E070E08CE82B
:1019600098E07AD807C0D73B39F460E070E084E7AC
:1019700098E05AD880E001C08C2FDF91CF911F9161
:101980000F91FF9008951F920F920FB60F9211249E
:101990002F933F938F939F93AF93BF93EF93FF93B7
:1019A0008091EA008823E9F0E091E90024B135B1A3
:1019B000F0E0EE0FFF1FDF01AB51BF4F2D933C93C3
:1019C000EF51FF4F808191818217930708F40196B0
:1019D0002817390708F401979183808381E0809369
:1019E000EB0081E08093EA00FF91EF91BF91AF910E
:1019F0009F918F913F912F910F900FBE0F901F904D
:101A000018951F920F920FB60F9211248F9381E0B9
:101A10008093C5008F910F900FBE0F901F90189567
:101A20001F920F920FB60F9211248F9381E0809333
:101A3000C4008F910F900FBE0F901F901895F894CF
:101A400084B7877F84BF0FB6F894A89581B5886165
:101A500081BD11BC0FBE83E087BB81E083BF81EAFB
:101A60008ABD88E088BB85BB8BB780628BBFA89599
:101A700081B5886181BD80E481BD00D4789481E026
:101A8000E7D360E070E08AE395E0CED71092BC0027
:101A900039D5FDD3811113C08CE690E09093BE0040
:101AA0008093BD00F89480E090E057D2853AC1F56C
:101AB0000091BD001091BE00C1E0D0E028C0C0E0A0
:101AC0008C2F03D483E190E0A4DC8C2F8695FDD38A
:101AD00083E190E09EDCDBD3882381F0CF5FC034CC
:101AE00079F765E181E02AD570D5C6E98C2FEDD371
:101AF00084E090E08EDCC150C9F7CECFCC2361F2F8
:101B00008C2FE3D38DE090E084DCC150F7CFCE0181
:101B100024D2F80181938F012196CE31D105B9F7F6
:101B2000789480917A00811180936A0060E070E07F
:101B300082EC92E079D761E070E08CE898E074D7AD
:101B400043E4342E52E0452E60E4562E77247394FD
:101B500077E0672ECC24C394D12CFCEF8F2EF3E0DA
:101B60009F2EACE8AA2EA8E0BA2E2DD38091C800F3
:101B70009091C900009749F06091C6007091C7002C
:101B80006BD71092C9001092C8008091C2008823C0
:101B900009F44BC080E099D3A89581B5886181BDD7
:101BA00031BC379874D38111FDCF48D38BB7806295
:101BB0008BBF1092EB001092C5001092C400809170
:101BC000C200882339F18091EC00882321F085B789
:101BD000877E886003C085B7877E806185BF85B7B3
:101BE000806285BF889585B78F7D85BF8091C40051
:101BF00081111092C2008091EB00882329F070922D
:101C00006B007092E00001D58091C5008823B9F285
:101C100069DBD5CF40926B008BB78F7D8BBF2ED306
:101C2000A89581B5886181BD51BCEADB1092BC00EA
:101C30008091DB009091DC00F8E088379F0711F578
:101C4000CEE1D0E0FE0184918053803110F423DC9A
:101C500010C010E0812F81708295880F807E35D36F
:101C600080E190E0D6DB1F5F1931A1F78AE992E0AD
:101C7000D0DB8CE291E0CDDB2196F0E0CF32DF07C4
:101C800009F7BDC02AE08038920799F03CE0873020
:101C9000930729F0ECE08A349E0709F0A0C0209158
:101CA000B300213009F09BC02091B200222309F437
:101CB00096C0C091B100C23001F120F0C43009F4E7
:101CC00074C053CFEC2FF0E0E459FF4FD28986E97E
:101CD000FCD2C11109C0DA3220F4C4010197F1F736
:101CE00007C081E090E003C08D2F869590E091DBE6
:101CF00080E0EBD28D2F90E0DFC0D2D28F73E82E40
:101D0000F12CCED2662DF6D0E60102C0CC0FDD1F3D
:101D10009A95E2F7C5D265E0EDD0960102C0220F98
:101D2000331F9A95E2F7C20FD31FBAD290E0BE01DB
:101D300001D1C80FD91FC739D10514F0C6E9D0E0C9
:101D40008C2FC3D2C70165DB8E0133E01595079553
:101D50003A95E1F7011101C001E010E0C70159DB3C
:101D6000C01BD10BD7FF02C0C0E0D0E08C2FADD29A
:101D700097D2837031F4C7014CDBCE0195958795DE
:101D8000A4D2C230D10554F78BD26DE0B3D0E601B6
:101D900002C0CC0FDD1F9A95E2F782D290E0BE011F
:101DA000B5D0C80FD91F80E085C0C0918000CC0F8E
:101DB000C73908F0C6E9D4E08C2F87D285E090E0DF
:101DC00028DB8091800081D281E490E022DBD15039
:101DD00099F780ED92E01DDB80E077D2C6CE35E04A
:101DE00087389307A9F488EE93E013DB8091DF0036
:101DF000869586956FDB80917700882381F0B0927D
:101E0000C900A092C8001092C7001092C600ADCEC3
:101E1000E5E0873A9E0731F48091DD005BDB88EED8
:101E200093E04AC080569540A9F48091C300811187
:101E30009CCE80916A0049D284E690E0EADA80E0A4
:101E400044D28091810090E068EE73E042D08456E5
:101E5000910932C080917C00882381F18091AE008D
:101E6000882361F12091C1003091AF00231305C098
:101E7000822F2BD21092AE0078CE6091AD00231746
:101E800058F4832F821B36D0811101C081E0820F6C
:101E90001CD28AE090E010C0862F90E06EE170E0E6
:101EA00018D06091B000631B70E044D0EB01219624
:101EB0008FEF820F0AD2CE01ACDA57CE85B7877E7C
:101EC00085BF85B7806285BF889585B78F7D85BFC3
:101ED0004CCE0024552704C0080E591F880F991FA7
:101EE000009729F076956795B8F37105B9F7802DBD
:101EF000952F0895991B79E004C0991F961708F053
:101F0000961B881F7A95C9F780950895AA1BBB1B5D
:101F100051E107C0AA1FBB1FA617B70710F0A61BE9
:101F2000B70B881F991F5A95A9F780959095BC010A
:101F3000CD01089597FB072E16F4009406D077FD87
:101F400008D0E4DF07FC05D03EF4909581959F4FC3
:101F50000895709561957F4F0895E199FECF9FBBDD
:101F60008EBBE09A99278DB30895262FE199FECF75
:101F70009FBB8EBBE09A01970DB2021639F01CBAD6
:101F80002DBB0FB6F894E29AE19A0FBE0895F8942B
:021F9000FFCF81
:101F9200060B180101010004780141020001010A47
:101FA2000A7878780107050100000000010329433F
:101FB2003202072D0000781E986E00710074000036
:00000001FF
