:1000000025C1000040C100003EC100000C945D11FC
:100010003AC100000C944E1136C1000034C10000FA
:1000200032C1000030C100002EC100002CC1000010
:100030002AC1000028C100000C94101124C1000046
:1000400022C1000020C100001EC100001CC1000030
:100050001AC1000018C1000016C1000014C1000040
:1000600012C1000010C100000EC100000CC1000050
:10007000303231322E323032332D31322D30332B7B
:1000800038000001050414101115FF3FFF3F7430C4
:10009000CC1FC62C6C39212B9332E3351F372C37FC
:1000A0007A364935C033F7316A340832013361306A
:1000B0008C304630B12FE02EE22DC32C8B2B962BAB
:1000C000292AD4295029BD270E27482671253725EE
:1000D0003E243F23C522BA2126211820751FC91EA0
:1000E000BF1D101D5D1C611BB01A001A16193418B3
:1000F0008F17BB16EF152B1546146D13C312DB11AA
:1001000022115310730FA10EDD0D0C0D490C7C0B49
:10011000A90AD10908093D086F07A106D3050605FC
:100120002E0467039602CB01FF00FF00FF00FF00D3
:10013000FF00FF00FF00FF00FF00FF00FF00FF00C7
:10014000FF00FF00FF00FF00FF00FF00FF00FF00B7
:10015000FF00FF00FF00FF00FF00FF00FF00FF00A7
:10016000FF00FF00FF00FF00FF00FF00FF00FF0097
:10017000FF00FF00FF00FF00FF00FF00FF00FF0087
:10018000FF00FF00FF00FF00FF00FF00FF00FF0077
:10019000FF00FF00FF00FF00FF00FF00FF00FF0067
:1001A000FF00FF00FF00FF00FF00FF00FF00FF0057
:1001B000FF00FF00FF000001010102030304050628
:1001C0000708090A0B0D0E1011131517191B1D1F17
:1001D0002224272A2C2F3235393C3F43464A4D51A1
:1001E00055585C6063676B6E7175787B7E80828525
:1001F000868889898989888785827E7A756F686013
:10020000574C4134261617191A1B1C1D1E2021227B
:10021000242527282A2B2D2F31333537393B3D3FD5
:10022000424446494C4E5154575A5D6063676A6E6A
:100230007175797D8185898E92979BA0A5AAAFB5AE
:10024000BAC0C5CBD1D7DEE4EAF1F8FF11241FBE56
:10025000CFEFD4E0DEBFCDBF11E0A0E0B1E0E2EF30
:10026000F8E202C005900D92A638B107D9F722E056
:10027000A6E8B1E001C01D92AD31B207E1F70E94DE
:100280006C110C947714BCCEF89498ED9FBD83BF8D
:1002900078940895482F9B01EAEEF1E080E090E029
:1002A0005081552331F00196339680319105C1F785
:1002B0000AC063E070E00E941914FC01E651FE4F91
:1002C00040833283218308950F931F93CF93DF934D
:1002D000D091EA01DD2351F10091EB011091EC0185
:1002E000C091C701C150C7FD0DC0EC2FEE0FFF0B31
:1002F000E853FE4F0190F081E02DB8018D2F099554
:100300008111F0CFEAEEF1E08381808384819581D1
:1003100092838183339682E0E731F807A9F7109240
:1003200017021092190210921802D2CFDF91CF91CA
:100330001F910F910895BC0180911C02ABCF1092C8
:100340001C0210921B0210921A0281E08093B701E6
:1003500008950F931F93CF93C82F08EA17E0CC237B
:1003600049F082E091DFC8010197F1F780E08CDF6E
:10037000C150F5CFCF911F910F91089586E884B9B0
:10038000E1E6F0E080818260808388E082B91092AB
:10039000E6011092E7018FEE83B908958BB182FBDD
:1003A000882780F991E089278093C0010895E09122
:1003B0000601F09107013196FB70F460F09307019C
:1003C000E09306018091BA018B5A8093BA01E491BF
:1003D0008091BA018E0F08950F931F93CF93DF93EF
:1003E00000D01F92CDB7DEB720913801309139018E
:1003F00040913A0129833A834B83FE01319640E0D4
:1004000050E090E061E070E0B1919A01220F331F5B
:100410008C0102C0159507952A95E2F79801237083
:1004200061F02130D1F4A0B39B0101C0220FBA9535
:10043000EAF7322F30953A2318C0A0B39B0101C0D0
:10044000220FBA95EAF720953A2F322330BB32B308
:10045000322332BB31B323230EC0A0B39B0101C0B2
:10046000220FBA95EAF73A2F322B30BB32B3322B38
:1004700032BB31B3232B21BB4F5F5F4F433051055C
:1004800019F60F900F900F90DF91CF911F910F9160
:100490000895811182E0A0CF81118AE09DCF811162
:1004A00088E09ACF811188E297CF811180E294CFC2
:1004B000811182E291CF81118AE28ECF81E008958D
:1004C000689A90E0FC01EA54FE4FE4912E2F30E050
:1004D000FC01EE0FFF1FE657FF4F459154913093FB
:1004E0006D0020936C0010926B0010926A00809156
:1004F000BD019A0120523109882339F060916E00C4
:1005000070916F0026173707B8F350936900409336
:100510006800811104C010926F0010926E0008955F
:10052000E82FF0E0EA54FE4FE491F0E080916C0097
:1005300090916D008E179F0730F480916C00909120
:100540006D0001960CC080916C0090916D00E817D1
:10055000F90748F480916C0090916D000197909399
:100560006D0080936C0020916C0030916D0081E0F3
:10057000E217F30709F080E00895CF93DF9300D0EE
:1005800000D000D0CDB7DEB790910C012091D801FA
:100590003091D9012A5B3A4009F492E0843019F491
:1005A0006093180121C06623F9F0823019F427E91D
:1005B000261B622F26E0EBE3F1E0DE0111960190AD
:1005C0000D922A95E1F7E82FF0E03197EE0FFF1F2B
:1005D00021E030E02C0F3D1FE20FF31F0190F0816E
:1005E000E02DE90FF11D608326960FB6F894DEBF6B
:1005F0000FBECDBFDF91CF910895813011F460938C
:1006000037010895BF92CF92DF92EF92FF920F933E
:100610001F93CF93DF93EC0140910C019091170150
:10062000992311F0E2E001C0E42FF0E0E45FFE4F17
:10063000228120930901858180930801E92FF0E050
:10064000E45FFE4F3185622F70E0442349F0313082
:1006500039F49B01280F311DC9019595879538C044
:10066000C617D707A4F1682F70E06C177D0784F1D7
:10067000411102C08C2F2CC0821B032F10E00150AF
:100680001109E82EF12CC701B8010E944A146093A9
:10069000B4016695E62FF0E0822FC12CD12CB12C4D
:1006A000B316B1F0C601B8010E943614822F860F2E
:1006B000CE0CDF1CAE01481B510957FF03C05195FA
:1006C00041955109E417F5071CF4B394E9CF822F43
:1006D000DF91CF911F910F91FF90EF90DF90CF901E
:1006E000BF900895ECE0F1E0868580930A0183894C
:1006F000808B8093BE0108958091B001882351F0D2
:100700009091BD019093B3018093AF011092AE011F
:100710001092AD01089581E00895823019F460933C
:1007200032010895611160932D010895662389F0C7
:10073000813061F48091DA0190912F01891B681B4F
:1007400060932F0182E080930B0103C0635E60938E
:100750002E0180912E01873418F086E480932E01BB
:100760000895609333010895E82FF0E0E45FFE4FB1
:1007700067A308957FEF780F40911D0150911E01EE
:10078000662359F021E030E002C0220F331F7A9532
:10079000E2F7CA01822B932B0AC081E090E002C0ED
:1007A000880F991F7A95E2F780958423952390937B
:1007B0001E0180931D010895CF93DF938CE091E09B
:1007C0009093B9018093B801F894C0E0D0E0E09133
:1007D000B801F091B901EC0FFD1F60812196CE01A7
:1007E0000E946514CC32D10591F765EA80E090E073
:1007F0000E9465147894DF91CF9108951092E801DA
:1008000080B191B12091BA018295869586958370C9
:10081000990F990F890F820F8093BA018091DD01A2
:10082000882309F41AC11092DD018091E6019091AC
:10083000BF01992329F01F981092E9011092E60157
:10084000811151C080910B01882329F08091E20130
:100850009091E3011AC08091BF012091DE01309197
:10086000DF018823B9F08091E2019091E30143E038
:10087000969587954A95E1F7820F931F53E0369539
:1008800027955A95E1F7821B930B9093DF01809394
:10089000DE0101C0C90120912D012750220F60E621
:1008A00071E00E943614260F2093DC018091A40190
:1008B000882311F0815007C0243738F460E070E0DD
:1008C00084E0E8DC85E08093A4018091BF01811180
:1008D000BBC08EE884B981E08093E6011092E70105
:1008E0008FEE83B9B1C0813009F0AEC080910B01A9
:1008F000882341F08091E4019091E5019093E1011A
:100900008093E0018091E0019091E10160912F01DD
:100910009C01A6E036952795AA95E1F7062E000CD6
:10092000770B260F371F2E5031403093DB01209379
:10093000DA01B5E096958795BA95E1F720910B011C
:10094000211128C020919301E22FF0E0EE0FFF1F4C
:10095000EC56FE4F40815181DC01A41BB50BAD016B
:10096000918380832F5F2770209393019D01220F35
:10097000331F220F331F820F931F20912E0130E06F
:10098000261B370B225F3E4F220F331F821B930B18
:1009900023E00EC0E4E9F1E081939193B1E0E43A01
:1009A000FB07D1F7CFCF009709F00196215029F02E
:1009B00018161906C4F70197F9CF18161906E4F4AA
:1009C00057FD39C02091920112160CF1880F991F22
:1009D000BC016350710977FF02C06F5F7F4F75954F
:1009E00067951616170614F061E070E088E1861B23
:1009F0008093920185E026C08C3F2FEF9207DCF4B4
:100A000057FF19C02091920127FF05C02450281BD1
:100A10002093920118C024EE281B2093920120916C
:100A2000DC01263780F06CEF7FEF681B790B759542
:100A3000679586E007C08091DC01853720F060E093
:100A400070E087E027DC9ADC80910B01882329F095
:100A500080910B01815080930B010895882321F030
:100A6000813031F4829805C0829892988A980895CE
:100A7000829A929A8A9A0895CF93C82F8091BD0145
:100A8000811109C0CC2339F080913701C81718F4BF
:100A9000F3DF82E05EDC8091BF0181110BC09CDC42
:100AA00091E0C11101C090E081E0C33308F480E01F
:100AB000890FD4DFC1110EC010926D0010926C002E
:100AC00010926B0010926A0010926F0010926E00EC
:100AD00068980FC0E091BE01F0E0EE0FFF1FEE0F2F
:100AE000FF1FEA59FE4F0190F081E02D8FEF8C0F30
:100AF00009958091BD01C8138093BC01C093BD01CD
:100B0000C093BB01C43010F482E005C0CC3010F4B7
:100B100081E001C080E0CF91B7CBCF93C091BD0100
:100B200082E38C0F873908F080E0A6DF83E011DCD8
:100B30008C2FCF91A1CFCF93C091BD0180E09CDFDE
:100B400083E007DC8C2FCF9197CF8093B5019091F4
:100B5000BD01981718F4282F291B02C0292F281B24
:100B60003091A701311106C030912101332369F082
:100B7000223058F08093A80184E08093A60181E0A0
:100B80008093A7019093A901089576CF0F931F93A7
:100B9000CF939091DC012FEF290F233720F480E0D1
:100BA0001BDC80E09EC0E82FEF702091B101211185
:100BB00025C0C82FC295CF702091320130E043E0AC
:100BC000220F331F4A95E1F762177307C0F4809133
:100BD000B601482F50E0421753078CF4882379F070
:100BE00021E08091BC018F3008F420E081E0C23028
:100BF00009F080E0822BC1E0C80F36C0C2E0E730C8
:100C000088F1E730A9F400918B0110E00F5F1F4FCE
:100C1000CEDB65E00E942A149801290F311DC9011D
:100C200066E070E00E944A1480938B01FC013AC098
:100C3000E830D1F48091BF01882311F02FE001C08A
:100C400023E030E062237323672B51F480918B0102
:100C500090E0019666E070E00E944A1480938B0158
:100C6000E0918B01F0E01EC08091BF01882381F0EC
:100C700080E0E82FF0E0EC5AFE4F2081921710F050
:100C80008E5FF7CF3197E081F0E0EE57FF4F0CC059
:100C9000CB019695879563E070E00E943614FC01C5
:100CA000EE0FFF1FED57FF4FE491C33071F48091B9
:100CB0008A0190E0019663E170E00E94361480930F
:100CC0008A01DC01AF5BBE4FCC91CC2329F0C1304F
:100CD00029F0EE0FC2E002C0C0E0E0E08E2F7CDB26
:100CE0008C2FCF911F910F91B9CECF93DF9390911D
:100CF000BE01981759F0C82FD091BD0180E0BCDE2D
:100D0000C093BE018D2FDF91CF91B6CEDF91CF91F1
:100D10000895813019F410921A010895823019F45F
:100D200060931B010895833019F4609319010895AD
:100D3000843019F460930D010895853011F46093A7
:100D400021010895883039F41092B0011092AE015B
:100D50001092AD0145C0813B81F48091B00181507A
:100D6000833008F03FC083E08093B0018093AF01EF
:100D70001092AE011092AD0135C0853BB1F4CB01AC
:100D80006EE370E00E943614892B51F58091B0011A
:100D90008A3F30F58B5F8093B0018093AF01109252
:100DA000AE011092AD01B9DE1BC08130D9F4809143
:100DB000AD019091AE01019688382EE0920728F49B
:100DC0009093AE018093AD010BC01092AE011092D2
:100DD000AD018091B001882319F081508093B0015A
:100DE00080E0089581E00895FF920F931F93CF93C1
:100DF000DF938C01EB01F42E8091D8019091D90101
:100E0000892B31F0E091D801F091D90189E0099561
:100E10001093D9010093D801012B39F0E091D8014A
:100E2000F091D901BE018F2D099581E08093B70122
:100E3000DF91CF911F910F91FF900895CF93DF9392
:100E4000E091C701EE2359F0E150E093C701F0E0D3
:100E5000EE0FFF1FE853FE4FC081D18102C0C0E0FA
:100E6000D0E0E091C701EE2341F0F0E0EE0FFF1F6C
:100E7000EA53FE4F8081918102C080E090E04AE019
:100E800060E070E0B1DFCE01DF91CF91089588304E
:100E900029F41092A50110928C0115C0813001F542
:100EA00090918C01911107C06032710570F18093AF
:100EB0008C0145DA2AC0913089F46B3B710528F02A
:100EC00082E080938C0180E01FC061157105E9F01C
:100ED0006270862F880F880F8E5E16C0AFDF15C038
:100EE000813811F0813E89F491E090938C01813E2C
:100EF00021F48091A501865F03C08091A5018F5FD9
:100F00008093A5011CDA8BE4B7DD80E008959C0195
:100F10009091C701983088F4E92FF0E0EE0FFF1FA1
:100F2000E853FE4F318320839F5F9093C70148E0D1
:100F3000C9015ADF8091C70108958FEF08950F937B
:100F40001F93CF93DF93EC018B0178DFB801CE01C3
:100F5000DF91CF911F910F91DACF813C29F460E0AE
:100F600070E088E29CE006C0823C39F460E070E00A
:100F700080EE9AE0E4DF80E0089581E00895843017
:100F800011F58091D8019091D9012EE08F39920707
:100F900029F469E170E088E298E013C08852984033
:100FA00061F49091BD01923040F0892F869596951D
:100FB0009695890FCADD80E0089560E070E088E2D0
:100FC0009CE0BDDFF8CF81E00895813C29F460E02A
:100FD00070E088E29CE006C0823C31F460E070E0A2
:100FE0008DEA97E0ACDF16C0813B49F4CB016EE39C
:100FF00070E00E943614892B69F48FDD0BC0813EAE
:1010000059F4CB016EE370E00E9436146F5F609379
:101010002C01D2DB80E0089581E00895813C29F421
:1010200060E070E088E29CE006C0823C31F460E061
:1010300070E085EE97E083DF07C0873B39F460E01E
:1010400070E08AEC9AE063DF80E0089581E0089523
:10105000BF92CF92DF92EF92FF920F931F93CF93A5
:10106000DF93182FEB0180911C018093BE01D0907B
:101070000901F090080180910C01882319F0B090CB
:10108000B40102C0BB24B394C0900D01809117013C
:101090008111C0901801CC2051F081E0C81621F0D8
:1010A00080910A018F1518F0F6E9EF2E01C0EF2CA0
:1010B0000091B001BE01812F45DE8091B0018823EF
:1010C00039F001110CC09091BD019093B30107C09C
:1010D000002329F060E070E088E29CE036C0912FA8
:1010E0009D7F9830D9F41092AC011A3019F4C09158
:1010F0000A01D0E08D2D90E08C179D0738F48F2DDC
:1011000090E0C817D90710F4C0930A01CE017ADA2B
:101110001CDD81E08093050100E0B6C1113CD1F2F5
:10112000123C59F48091BD018E1510F48E2D02C031
:1011300080910A010ADDE0DAEFCF143C41F480E04F
:101140009BDC60E070E083E49BE0F9DEE5CF9FE4A8
:10115000910F923008F05CC080910C01882341F01F
:10116000CE0168E170E00E943614892B31F0D4CFB3
:101170006091140170E0CE01F6CF0091A70101113A
:10118000CBCF2091BD01209761F4123B11F48FEF7A
:1011900005C02F15E0F7D21608F181E08093050114
:1011A0001DC0E0911401F0E0CF0166E371E00E9400
:1011B00019148C179D0710F42F1548F7CF016CE612
:1011C00072E00E9419148C179D0740F4D21630F07B
:1011D000A4DC60E070E083E49BE0B1DEC091BD017F
:1011E000809105016B2D70E0082E000C990B0E9478
:1011F00019148C0F911D06DA80930A01C81719F093
:10120000F81201C098DC80910A019FDC75DA3CC1BC
:101210009FE1910F923020F48091050181957ACF62
:10122000113009F086C0A99711F4109305018823A5
:1012300079F10091B30110E090E0B8010E94191417
:10124000EC01E091AF01F0E0BF010E944A14262FAB
:10125000CE01801B910BBF010E944A14322F361B16
:101260008091AD019091AE016EE370E00E94361462
:10127000832F90E00E9419146CE370E00E943614F2
:10128000261B622F09F461E06093BB016093B501F6
:10129000C091BB012091BD018C2F90E0821B910970
:1012A00060918F01709190016F5F7F4F70939001FB
:1012B00060938F01009709F42FCF97FF05C02D3859
:1012C00030F040E450E005C040E052E002C040E0B1
:1012D00051E05695479597FD01969595879500970E
:1012E000C1F74617570708F017CFC21710F4CFEF12
:1012F00003C02C1710F4C1E0C20FE091BE01F0E072
:10130000EE0FFF1FEE0FFF1FEA59FE4F0280F38121
:10131000E02D8FEF8C0F0995882331F0D091BB0120
:101320008C2FAADBD093BB011092900110928F01F9
:10133000F3CE1530A1F48091BD01813508F4ECCED7
:1013400090E08C1B9D0B8035910534F08739910519
:1013500064F186E990E029C080E590E026C016306F
:10136000B1F49091BD018091B501981708F0D4CEE9
:10137000C90FD11D90E08C179D0734F0C035D10501
:1013800024F4C0E5D0E001C0EC018C2F0EC0173072
:1013900079F49091BB018091BD01891710F48F5FA2
:1013A00004C0981708F0B8CE81508093BB01B4CE2A
:1013B000133C19F0163C41F517C060911D01709166
:1013C0001E0180E090E020E0AB01082E02C056959F
:1013D00047950A94E2F74170240F019688309105F1
:1013E00099F7223008F04FC081E090910C019111E3
:1013F00080E080930C01E0D99EDB8091BD0190E0FC
:1014000001D980930A0196CE0091170101113BC0CA
:10141000133B49F4CD2B09F07FCECC2011F086E9A7
:10142000E82E8E2D04C0133E21F480910A018DDB3D
:101430002BC0153C61F48091BD0180930A0180E0CE
:101440001BDB60E070E084E490E179DD1DC0173BB8
:1014500029F460E070E086EB9AE013C01A3C59F47E
:101460008091BD0180931A018091BE0180931F017C
:10147000A3D953DB09C01A3B31F460E070E08EEB76
:101480009AE045DD01C001E0802FDF91CF911F91EF
:101490000F91FF90EF90DF90CF90BF9008950F9342
:1014A0001F93CF938B01C42F883091F48091BE019C
:1014B00080938E0110928D0180E0DEDA8091C00170
:1014C00081114FC080918D018F5F80938D0133C05A
:1014D000982F907F903B21F580918D014817E8F07F
:1014E0008150883040F49091B201992321F090917D
:1014F000BE018913FADBC8016DE570E00E94361465
:10150000069749F480918D018F5F80938D01C817F4
:1015100040F188E303C082E101C080E0ADDA21C080
:10152000903E79F480918D018823A1F0481790F0C6
:1015300080918E01DADB60E070E087E497E0E7DC21
:1015400010C08A3049F46091A50180918D01F901A4
:10155000099532D973DC05C0893019F480918E0168
:10156000C4DB80E0CF911F910F9108952DEB32E005
:1015700043E095CF2DEB32E044E091CF29E836E00F
:1015800045E08DCF2DEF32E041E089CF2DE833E00B
:1015900042E085CF26E933E042E081CF21EB33E022
:1015A00041E07DCF24EB33E043E079CF91E09093AD
:1015B000B2012AEB33E048E072DF1092B2010895E5
:1015C000CF93C0911701C11123C0813C29F460E081
:1015D00070E088E29CE006C0823C31F460E070E09C
:1015E0008EE098E0ACDC15C0833C51F48091200182
:1015F00090E001968770992780932001DDD809C07B
:10160000873B31F460E070E086EC9AE080DC01C05A
:10161000C1E08C2FCF910895CF93833C21F5409169
:10162000BE0160911D0170911E01842F98E0282F4A
:1016300030E02F5F3F4F27703327822FFB0102C01E
:10164000F695E7952A95E2F7E0FF0AC04817B9F04A
:101650004CDB8091BE0180931C01AED8C0E010C06D
:10166000915029F7F3CFC0911701C11108C0893BF0
:1016700031F460E070E086ED9AE049DC01C0C1E041
:101680008C2FCF9108950F931F93CF93DF93C82F83
:101690008B01873BC9F480E0EFD981E08093B101F1
:1016A000C8018F739927892B09F09FC09091310150
:1016B000892F8F708F5F292F207F6BE00E942A1463
:1016C000922B9093310191C080798039B1F42091AF
:1016D0000E0190910F018C2F8F70813021F4822F99
:1016E000921748F407C080911A01811104C0822F1B
:1016F000291708F4892FC0D90EC0803811F480E072
:10170000BBD9C83041F41092B60160E070E080911E
:1017100031013CDA76C0C13039F40931110508F4E1
:101720007CC0C093BF0161C0C330D1F48091B601C9
:101730008F3F19F08F5F8093B60180911A01882343
:1017400009F453C080911B0190E062EC71E00E94AB
:1017500019140817190708F448C00E94720345C0FD
:10176000C33C31F4DAD960E070E088E29CE014C058
:10177000C43C21F460910A0170E00CC0C43B31F418
:10178000DAD910921C0261E070E004C0C53C31F46B
:1017900066E970E088E298E0D2DB3FC0C33B79F4B1
:1017A000C8016EE370E00E943614892B51F560E0A9
:1017B00070E083ECDF91CF911F910F912DCFC73C4B
:1017C000C9F490913101892F82958F708F5F83705A
:1017D0008295807F9F70892B8093310160E070E05B
:1017E000D5D90E94DC0399D918C0B8018091310184
:1017F000CDD913C0C73E29F41092B1010E94DC0379
:101800000CC0D0911701D1110AC0CA3B41F460E06D
:1018100070E08EEC9AE07BDB03C0D0E001C0D1E049
:101820008D2FDF91CF911F910F91089590912101FC
:10183000992369F08093A80188E08093A60181E054
:101840008093A7018091BD018093A901089514C9D7
:101850000F931F93CF938B018830A1F480E0E6DFD4
:101860008091A701082B1092B60180911C018093F2
:10187000BE011092B001012B09F058C081E08093A5
:10188000BF0154C0813059F46931710508F44EC06C
:10189000C091A701C1114AC08093BF010BC1833021
:1018A00031F58091B6018F3F19F08F5F8093B601BB
:1018B00080911A01882359F080911B0190E062EC1D
:1018C00071E0B7D70817190710F00E947203B8012A
:1018D000809130015BD980913301882339F190E008
:1018E00062EC71E0A6D78017910700F553C0813BE9
:1018F00099F481E090E00E94020398DF8091190141
:10190000811114C080910C01811103C008311105AF
:1019100068F061E070E02AC0813ED9F3813841F47B
:1019200080910A0190E00E94020380DFC0E0C2C003
:10193000813C21F460910A0170E018C0823B81F47F
:101940001092B60180910D01909117019111809133
:101950001801811103C086E990E0E5CF86E9E5CF63
:10196000823E59F0823C29F466E970E088E298E012
:101970000CC0833921F41092A70180E0D6CF833CBC
:1019800031F460E070E080EE9AE0D9DACFCF843CA9
:1019900031F4C3D860E070E083E49BE0F6CF8D3B88
:1019A00041F4F89488ED8FBD88E880BF7894A895BD
:1019B000FFCF8F3C29F460E070E08BE893E0E5CF47
:1019C0008A3B81F4672B09F04CC0C0911701CC23EE
:1019D00021F0A3D81092170141C060E070E08AEBBB
:1019E0009AE065C0833B29F460E070E08FE99EE0F7
:1019F000CCCF873CA1F490913001892F82958F70D4
:101A00008F5F83708295807F9F70892B80933001D8
:101A100060E070E0BBD80E94DC037FD887CF873BB3
:101A2000C9F481E08093B101CB018F739927892B91
:101A300061F490913001892F8F708F5F292F207F63
:101A40006BE008D7922B90933001B8018091300160
:101A50009DD86CCF873E29F41092B1010E94DC031F
:101A600065CFC0911701C11124C08A3C39F455D803
:101A700081E0809317010E94DC031CC0853C31F497
:101A80004CD860E070E084E490E107C0863C39F413
:101A900044D860E070E08FE890E151DA0BC0893BF8
:101AA00041F4012B31F460E070E082EC9AE02FDA2F
:101AB00001C0C1E08C2FCF911F910F9108950F931A
:101AC0001F93CF931092C20180911A0290911B0232
:101AD0009C012F5F3F4F88279078822B932B909308
:101AE0001B0280931A02C091C0010E94CE01C81748
:101AF00031F11092BF018093C00190911C028823A4
:101B000059F0892F80699F709F3009F08F5F809313
:101B10001C0280E090E00DC0892F8F7E95FD02C0F1
:101B2000806801C0806C80931C0280911A029091A1
:101B30001B020E949B0110921B0210921A0200913C
:101B40001A0210911B028091BF018823B1F0B801E5
:101B500083E00E944A010E9464010134110528F0CB
:101B60000F701127012B09F049C01092910181E0FB
:101B70008093E9010E94BE0132C0C0911C028C2FEB
:101B8000807F803B19F460E070E001C0B80181E023
:101B90000E944A01C4FF13C0C5FF02C0C8010CC0A7
:101BA00008311105E0F010921B0210921A02C06277
:101BB000C0931C0280E090E00E949B0110C0CC23E7
:101BC00071F0C5FD0AC00231110548F0C064C09330
:101BD0001C0280E090E00E949B010E949F01809186
:101BE0009101811105C08FEE83B981E08093DD0101
:101BF000809191018F5F8F7180939101CF911F919F
:101C00000F9108958091E80181110E94FE03809157
:101C1000C201811154CF0895EF92FF920F931F9349
:101C2000CF93DF93EC0100E317E08CECE82EFF2468
:101C3000F3942097D9F08091B701811119C0809158
:101C4000BD01843028F482E00E944401C70104C031
:101C500080E00E944401C8010197F1F780E00E94F2
:101C60004401D0DF0E9464012197E3CF81E001C0ED
:101C700080E0DF91CF911F910F91FF90EF90089539
:101C80000F931F93CF93DF93C82F882311F006EA99
:101C900002C00CE0C1E0D091BE0110E080912001B3
:101CA00024D882E30E943C05D093BE01C801B4DF72
:101CB000809120011AD880E00E943C05D093BE019B
:101CC0008AEF90E0A9DFC15049F78D2F0ED88AE93D
:101CD00092E0DF91CF911F910F919ECFCF93DF9331
:101CE00064E6B8D5282F892F6AE0B4D5EC01222309
:101CF00041F0822FC5DF8C2FC3DF8D2FDF91CF9175
:101D0000BFCFC111F8CFF9CFCF93DF93D82FC3E066
:101D100080910A010E943C0588EC90E07DDFDD2384
:101D200019F080E991E078DF80E00E943C0588ECC2
:101D300090E072DFC15061F7DF91CF910895FF927B
:101D40000F931F93CF93DF93D82F8B01C091AA01DC
:101D500081E08093AC01C43009F0E6C0F090B0019E
:101D60008D2F0E94A206FF2051F08091B0018111B9
:101D700006C060E070E088E29CE0E1D8D5C0D830D1
:101D800021F481E080930301D1C0D23C19F4109278
:101D9000B001DFC0D13BC1F490910201012B49F4A5
:101DA000963610F08FEF03C0923018F481E08093E4
:101DB000030180910301890F11F481E047C1873647
:101DC00008F444C186E642C1D13E31F4809103015A
:101DD0008195809303010EC1D23B61F481E0809331
:101DE000030180910201823008F40CC1815080937C
:101DF000020108C1D13009F0B0C00932110511F457
:101E0000D093030190918901892F880F97FD8095C8
:101E100090E069E070E00DD5292F80918801682F4E
:101E2000660F87FD60958091010170E090E001D51B
:101E3000290F80918701682F660F87FD609580913B
:101E4000000170E090E0F5D4920F6091020170E023
:101E5000690F711D8091B001813091F48091AD01C5
:101E60009091AE0125E0969587952A95E1F724E7B4
:101E700030E0A901481B590BCA01DBD4B901F6D4E3
:101E8000862F0E943C0500FD08C00E94D70181708A
:101E900090918901890F80938901909188018091A7
:101EA0008601890F809388010E94D70165E2D2D410
:101EB00080918701980F909387010E94D7018F73BB
:101EC00031F40E94D7016DE0C5D490938601C09192
:101ED0000101CC2339F00E94D7018F7319F4C1504E
:101EE000C09301010E94D701811108C00E94D7014F
:101EF0006EE0B0D49093010110928801C09100016E
:101F0000C33038F00E94D7018F7119F4C150C093CB
:101F100000010E94D7018F7709F0A4C00E94D70169
:101F20008770809300019EC0D83041F480912201D7
:101F30008093AA0181E0809304018AC0D13C39F4E6
:101F400060E070E088E29CE00E949F0781C0D23C84
:101F500031F48C2F90E0019617C0D13C89F3D33C2B
:101F600071F48091BE018F5F87700E947506EC2F1F
:101F7000F0E0E45FFE4F8091BE01878B56C0D43CF9
:101F800059F48C2F90E0059666E070E083D480933E
:101F900022018093AA0149C0D13B51F5C23090F48F
:101FA00000FD56C0EC2FF0E0E45FFE4F858D909170
:101FB0000401891B883020F08F3F99F58EEF31C0E6
:101FC00088E02FC0C53009F043C090912B0180916B
:101FD0000401890F823010F482E003C0893708F0D1
:101FE00088E780932B0180912B010E943C0530C033
:101FF000D13E31F48091040181958093040115C094
:10200000D23B89F481E080930401C23018F500FDD1
:102010001FC0EC2FF0E0E45FFE4F858D8F3FC1F0D5
:102020008F5F858F15C0D23E19F40E94DC0310C06B
:10203000D53C41F460E070E084E490E10E949F07A9
:1020400080E0D3CFD13071F081E018C080930201DD
:1020500080E014C0C530E1F780912B01833018F285
:102060008150BFCF0932110519F481E0809304013A
:102070008091BA01080F0093BA01EACFDF91CF91A6
:102080001F910F91FF9008950F931F93CF93DF93AC
:10209000D82F8B01883031F48091AC01882311F066
:1020A00088E04DDE8D2F8079803961F481E0809366
:1020B000AB01C091AC01C1110CC080910A010E941A
:1020C0003C0527C0803839F41092AB0180E00E94B3
:1020D0003C05C0E01EC0D130D9F4C091AB01CC2387
:1020E00059F08091AC018823A1F3B80181E0DF9120
:1020F000CF911F910F9123CE80E00E94EC0180E0F0
:102100000E942E050733114020F3D093BF0101C078
:10211000C1E08C2FDF91CF911F910F910895FF9215
:102120000F931F93CF93DF93D82F8B01F0900A0169
:102130008079803951F5ED2FEF70E43020F0109266
:10214000AB01C0E036C091E09093AB01F0E0E45FFA
:10215000FE4F87A12FEF280F263948F480930A01FC
:102160001092AC0180911C018093BE010CC0909331
:10217000AC018739D0F090E08759910966E070E0B2
:1021800089D38093AA01C0E00BC0803841F410923B
:10219000AB0180E00E943C0581E08093B701C1E083
:1021A0008091AB01882329F001C0C0E0B8018D2FD8
:1021B0006BDFF0920A01D83021F4B80188E063DACD
:1021C00028C0D13039F48091AB01811120C0B80111
:1021D00081E004C0D33041F4B80183E0DF91CF91B6
:1021E0001F910F91FF904FCAD63C49F40E948D0574
:1021F00060E070E088E29CE00E949F0708C0D73B47
:1022000041F460E070E082ED9AE00E94870780E090
:1022100001C08C2FDF91CF911F910F91FF900895F6
:102220001F920F920FB60F9211242F933F938F930B
:102230009F93AF93BF93EF93FF938091E701882320
:10224000E9F0E091E60120B131B1F0E0EE0FFF1FBF
:10225000DF01AE51BE4F2D933C93E252FE4F808181
:1022600091818217930708F401962817390708F41B
:1022700001979183808381E08093E80181E08093DE
:10228000E701FF91EF91BF91AF919F918F913F91A6
:102290002F910F900FBE0F901F9018951F920F92C5
:1022A0000FB60F9211248F9381E08093C2018F911A
:1022B0000F900FBE0F901F9018951F920F920FB6A0
:1022C0000F9211248F9381E08093C1018F910F9021
:1022D0000FBE0F901F901895F89485B7877F85BF24
:1022E00088ED90E00FB6F894A8958FBD90B7977FD2
:1022F00090BF0FBE89E08CB98CE780BB82EA8093E7
:10230000720081E1809371008FEF90E090936900FB
:102310008093680084E08EB988BD8CB780618CBFE3
:10232000A89580E480BF0E94BE01789481E00E945D
:10233000A90160E070E08FEB97E00E9487071092A0
:10234000B7010E948D050E94CE01811114C08CE05E
:1023500091E09093B9018093B801F89480E090E007
:10236000ACD2853A09F040C00091B8011091B90192
:10237000C1E0D0E030C0C0E08C2F0E943C0583E17A
:1023800090E04ADC8C2F86950E943C0583E190E02A
:1023900043DC0E94CE01882399F0CF5FC03461F7FF
:1023A00065E181E00E9496030E94DC03C6E98C2F60
:1023B0000E943C0584E090E02FDCC150C1F7C7CFFC
:1023C000CC2309F4C4CF8C2F0E943C058DE090E013
:1023D00023DCC150F5CFCE0170D2F80181938F017B
:1023E0002196CD32D105B9F7789480911A018111E7
:1023F0000E94720360E070E08CE09BE00E9487071F
:1024000061E070E088E29CE00E94870743E4442E8C
:1024100052E0552E60E4962E8824839477E0772E40
:10242000CC24C394D12CFDE06F2EA8E2AA2EACE000
:10243000BA2E0E9464018091C5019091C601009757
:1024400051F06091C3017091C4010E949F071092E6
:10245000C6011092C5018091BF01882309F448C0CC
:1024600080E00E943C05A89540BE1F980E94CE01C6
:102470008111FCCF0E949F018CB780618CBF1092AC
:10248000E8011092C2011092C1018091BF0188231E
:1024900031F18091E901882321F086B78F7980623C
:1024A00003C086B78F79806486BF86B7806186BF98
:1024B000889586B78F7E86BF8091C1018111109269
:1024C000BF018091E801882321F08092DD010E9404
:1024D000FE038091C2018823C1F2F1DAD6CF509277
:1024E0000B018CB78F7E8CBF0E94BE01A89590BE59
:1024F00089DB1092B7018091D8019091D901F3E066
:102500008B389F0719F5C0E7D0E0FE018491805316
:10251000803110F4B5DB11C010E0812F81708295FD
:10252000880F807E0E943C0580E190E075DB1F5F94
:10253000193199F78AE992E06FDB8CE291E06CDB6C
:102540002196F0E0C138DF0701F7F3C02EE08F39A4
:10255000920799F030E18434930729F0E0E18F3855
:102560009E0709F0CEC02091AC01213009F0C9C00E
:102570002091AB01222309F4C4C0C091AA01EC2F21
:10258000F0E0E45FFE4F87898093BE01C230D1F056
:1025900030F0C330B9F1C53009F496C04ACFD58DBB
:1025A00086E90E943C05C11103C082E090E003C0AF
:1025B0008D2F869590E030DB80E00E943C058D2FCA
:1025C00090E02AC1D0910A01C0E0C11102C081E0AF
:1025D00003C0C53019F485E00E9475068D2F0E9456
:1025E0003C0581E290E018DB80E00E943C0582E43B
:1025F00090E012DBCF5FCA3041F780911C018093DD
:10260000BE0117CF0E94D7018F73E82EF12C0E94D4
:10261000D701672D1FD1E60102C0CC0FDD1F9A95AF
:10262000E2F70E94D70165E015D1960102C0220FA2
:10263000331F9A95E2F7C20FD31F0E94D70190E093
:10264000BE0128D1C80FD91FC739D10514F0C6E97A
:10265000D0E08C2F0E943C05C701DEDA8E0133E00A
:10266000159507953A95E1F7011101C001E010E0D9
:10267000C701D2DAC01BD10BD7FF02C0C0E0D0E047
:102680008C2F0E943C050E94D701837039F4C7014A
:10269000C3DACE01959587950E943C05C230D105DD
:1026A0003CF70E94D701662DD5D0E60102C0CC0FC1
:1026B000DD1F9A95E2F70E94D70190E0BE01D6D0C7
:1026C000C80FD91F80E0A5C0C0912B01CC0FC7391E
:1026D00008F0C6E9D4E08C2F0E943C0585E090E02C
:1026E0009BDA80912B010E943C0581E490E094DA12
:1026F000D15089F780ED92E08FDA80E00E943C05AE
:1027000098CE3AE0803E9307E9F488EE93E084DACD
:102710008091DC0186958695E1DA9091DC019370D9
:10272000892F880F9695890FD9DA80911701882310
:1027300081F0B092C601A092C5011092C40110921E
:10274000C30177CEE8E08E309E0731F48091DA0144
:10275000C5DA88EE93E060C0F7E0853E9F07B9F4E4
:102760008091C001811165CE80910A010E943C05D3
:1027700084E690E051DA80E00E943C0580912C01D3
:1027800090E068EE73E055D08456910945C08D5AAB
:10279000974049F480E0B8DA81E0B6DA80E0B4DA54
:1027A00080ED97E039C0809121018823B9F18091B3
:1027B000A701882399F12091BD013091A80123132D
:1027C0000AC0822F0E943C051092A7018091A901A6
:1027D0008093BC012ECE6091A601231760F4832F55
:1027E000821B38D0811101C081E0820F0E943C051C
:1027F0008AE090E011C0862F90E06EE170E019D081
:102800006091A901631B70E045D0EB0121968FEF29
:10281000820F0E943C05CE01FFD90BCE86B78F797F
:1028200086BF86B7806186BF889586B78F7E86BF54
:1028300000CE0024552704C0080E591F880F991F89
:10284000009729F076956795B8F37105B9F7802D53
:10285000952F0895991B79E004C0991F961708F0E9
:10286000961B881F7A95C9F780950895AA1BBB1BF4
:1028700051E107C0AA1FBB1FA617B70710F0A61B80
:10288000B70B881F991F5A95A9F780959095BC01A1
:10289000CD01089597FB072E16F4009406D077FD1E
:1028A00008D0E4DF07FC05D03EF4909581959F4F5A
:1028B0000895709561957F4F0895E199FECF1FBAF5
:1028C0008EBBE09A99278DB30895262FE199FECF0C
:1028D0001FBA8EBBE09A81500DB2021639F01CBAB5
:1028E0002DBB0FB6F894E29AE19A0FBE0895F894C2
:0228F000FFCF18
:1028F200080E180101010004820B320200010B0BC9
:102902000B82828201070501000000000001000025
:1029120000010400000000000029433202072D00DC
:1029220018390400781E98190504030E01110114C8
:102932000102010000000000000001000000000090
:10294200000000010000740184028C0394049C05C1
:10295200A406B007FF076002900249025E024C0221
:102962005E024F025E0252025E0255025E0258028F
:062972005E025B025E0242
:00000001FF
