:10000000F8C012C1FACC10C10FC10EC10DC10CC194
:10001000A7CC0AC109C108C1E1CC06C105C1303471
:1000200031332E323032332D31322D30332B3800F4
:1000300000000000000000000000000000000000C0
:1000400000000000000000000000000000000000B0
:1000500000000000000000000000000000000000A0
:100060000000000000000000000000000000000090
:100070000000000000000000000000000000000080
:100080000000000000000000000000000000000070
:100090000000000000000000000000000000000060
:1000A0000000000000000000060B11171D242A317B
:1000B000383F474E565E666F778089939CA6B0BBEB
:1000C000C5D0DBE7F3FF00000000000000000000E7
:1000D0000000000000000000000000000000000020
:1000E0000000000000000000000000000000000010
:1000F0000000000000000000000000000000000000
:1001000000000000000000090B0D0E10121416185C
:100110001A1C1E212326292B2E3134373B3E424503
:10012000494D5155595E62676C71767C81878D931C
:1001300099A0A6ADB4BCC3CBD3DBE4EDF6FFFFFFC3
:10014000FFFFFFFFFFFFFFFFFFFFFFFFFFFFFFFFBF
:10015000FFFFFFFFFFFFFFFFFFFFFF0001010203A3
:100160000304040506070708090A0B0C10111213F3
:10017000141516181A1C1E202325282A2D30333753
:100180003A3E41454A4E53575C62676D73798086AB
:100190008E959DA5ADB6BFC9D3DDE8F3FFFFFFFF88
:1001A000FFFFFFFFFFFFFFFFFFFFFFFFFFFFFFFF5F
:1001B000FFFFFFFFFFFFFFFFFFFFFFFFFFFFFFFF4F
:1001C000FFFFFFFFFFFFFFFFFFFFFFFFFFFFFFFF3F
:1001D000FFFFFFFFFFFFFFFFFFFFFFFFFFFFFFFF2F
:1001E000FFFFFFFFFFFFFFFFFFFFFFFFFFFFFFFF1F
:1001F000FF0011241FBECFE5D2E0DEBFCDBF10E06F
:10020000A0E6B0E0E2E5FFE102C005900D92AE3954
:10021000B107D9F721E0AEE9B0E001C01D92AC32E0
:10022000B207E1F7F9DB93CEEBCE482F9B01E9EF64
:10023000F0E080E090E05081552331F00196339654
:1002400080319105C1F709C063E070E022DEFC0156
:10025000E750FF4F40833283218308950F931F930C
:10026000CF93DF93D091F900DD2351F10091FA0093
:100270001091FB00C091D600C150C7FD0DC0EC2FFE
:10028000EE0FFF0BE952FF4F0190F081E02DB80116
:100290008D2F09958111F0CFE9EFF0E08381808304
:1002A0008481958192838183339681E0E632F807D9
:1002B000A9F7109226011092280110922701D2CF9F
:1002C000DF91CF911F910F910895BC0180912B0177
:1002D000ACCF10922B0110922A011092290181E0DB
:1002E0008093C800089590E822E048EA57E030E0A3
:1002F000815070F00FB6F89496BD26BD0FBEFA017E
:100300003197F1F70FB6F89496BD36BD0FBEF0CF1A
:1003100008958CE287B91092F5001092F6008FEEE6
:1003200086B9089586B383FB882780F991E08927F1
:100330008093CF000895E0916600F09167003196B8
:10034000FB70F460F0936700E09366008091CB004F
:100350008B5A8093CB00E4918091CB008E0F08954F
:1003600090E0FC01E45AFE4F3491FC01EA53FF4F48
:100370002491FC01E05DFF4F849139BD28BD8BBD08
:10038000089590E0FC01E45AFE4F3491FC01EA53D9
:10039000FF4F2491FC01E05DFF4F949189B58111DD
:1003A00002C03F3F29F089B58F3F21F4311102C0CF
:1003B00039BD0CC089B5831718F489B58F5F05C0A6
:1003C00089B5381718F489B5815089BD88B5811170
:1003D00002C02F3F29F088B58F3F21F4211102C0C0
:1003E00028BD0CC088B5821718F488B58F5F05C08A
:1003F00088B5281718F488B5815088BD8BB5891742
:1004000018F48BB58F5F05C08BB5981718F48BB5B2
:1004100081508BBD89B5381306C088B5281303C039
:100420002BB581E0921380E00895CF93DF9300D045
:1004300000D000D0CDB7DEB790916C002091E700DE
:100440003091E8002158384009F492E0843019F4E2
:100450006093780021C06623F9F0823019F427E90F
:10046000261B622F26E0E7E8F0E0DE0111960190FE
:100470000D922A95E1F7E82FF0E03197EE0FFF1F7C
:1004800021E030E02C0F3D1FE20FF31F0190F081BF
:10049000E02DE90FF11D608326960FB6F894DEBFBC
:1004A0000FBECDBFDF91CF910895BF92CF92DF9263
:1004B000EF92FF920F931F93CF93DF93EC01409144
:1004C0006C0090917700992311F0E2E001C0E42FD5
:1004D000F0E0E459FF4F22812093690085818093E9
:1004E0006800E92FF0E0E459FF4F3185622F70E09A
:1004F000442349F0313039F49B01280F311DC901E3
:100500009595879536C0C617D70794F1682F70E088
:100510006C177D0774F1411102C08C2F2AC0821B19
:10052000032F10E001501109E82EF12CC701B8018A
:10053000E1DC6093C5006695E62FF0E0822FC12CC8
:10054000D12CB12CB316A9F0C601B801BFDC822FA3
:10055000860FCE0CDF1CAE01481B510957FF03C0AC
:10056000519541955109E417F5071CF4B394EACF6E
:10057000822FDF91CF911F910F91FF90EF90DF902D
:10058000CF90BF9008958091C300882351F090913F
:10059000CD009093C4008093C2001092C1001092CD
:1005A000C00008956111609382000895662389F068
:1005B000813061F48091E90090918400891B681B6F
:1005C0006093840082E080936B0003C0635E60935D
:1005D000830080918300873418F086E48093830041
:1005E000089560938600089581E00895CF93DF9386
:1005F0008CE690E09093CA008093C900F894C0E024
:10060000D0E0E091C900F091CA00EC0FFD1F6081BD
:100610002196CE018ADCCB31D10599F765EA80E0DD
:1006200090E083DC7894DF91CF9108951092F700E9
:1006300084B195B12091CB00829586958695837083
:10064000990F990F890F820F8093CB008091EC0056
:10065000882309F405C11092EC008091F500909177
:10066000CE00992329F037981092F8001092F500E7
:1006700081113CC080916B00882349F06091F100AA
:100680007091F2007093EE006093ED0004C06091F1
:10069000ED007091EE0020918200220F96E0769599
:1006A00067959A95E1F780E090EB10DC620F60931C
:1006B000EB008091B900882311F0815007C06437A6
:1006C00038F460E070E084E0B0DD85E08093B9004C
:1006D0008091CE008111BBC08FEA87B981E0809301
:1006E000F5001092F6008FEE86B9B1C0813009F0A6
:1006F000AEC080916B00882341F08091F30090910F
:10070000F4009093F0008093EF008091EF009091BF
:10071000F000A0918400AC01F6E056954795FA955B
:10072000E1F70A2E000CBB0B4A0F5B1F43515140EF
:100730005093EA004093E9009C0185E036952795A7
:100740008A95E1F780916B00811127C08091A80004
:10075000E82FF0E0EE0FFF1FE755FF4F408151817A
:10076000B901641B750B318320838F5F8770809381
:10077000A800CB01880F991F880F991F4091830013
:1007800050E04D5E5E4F4A1B5B0B440F551F841BB0
:10079000950B820F931F23E00EC0E9EAF0E021934E
:1007A000319380E0E93BF807D1F7D0CF009709F00B
:1007B0000196215029F018161906C4F70197F9CFB0
:1007C00018161906E4F477FD39C02091A700121617
:1007D0000CF1880F991FBC016350710977FF02C0AB
:1007E0006F5F7F4F759567951616170614F061E0D9
:1007F00070E088E1861B8093A70085E026C08C3FCF
:100800002FEF9207DCF477FF19C02091A70027FF94
:1008100005C02450281B2093A70018C024EE281BD5
:100820002093A7002091EB00263780F06CEF7FEF3C
:10083000681B790B7595679586E007C08091EB0082
:10084000853720F060E070E087E0EFDC62DD8091CA
:100850006B00882329F080916B00815080936B009E
:100860000895882321F0813029F4BA9804C0BA98F9
:10087000C2980895BA9AC29A0895CF93C82F8091CA
:10088000CE00811101C0EDDFC11104C019BC18BC3C
:100890001BBC03C08FEF8C0F63DDC093CD00C093F2
:1008A000CC00C63010F492E005C0C13110F491E0E4
:1008B00001C090E080E80FB6F89486BD96BD0FBEEB
:1008C000CF910895CF93C091CD0089E18C0F8739E6
:1008D00008F080E0D2DF82E006DD8C2FCF91CDCF13
:1008E000CF93C091CD0080E0C8DF83E0FCDC8C2F8B
:1008F000CF91C3CF8093C6009091CD00981718F484
:10090000282F291B02C0292F281B3091BC00311130
:1009100006C030917C00332369F0223058F0809378
:10092000BD0084E08093BB0081E08093BC00909385
:10093000BE000895A2CF813019F410927A00089574
:10094000823019F460937B000895833019F460932A
:1009500079000895843019F460936D00089585300E
:1009600011F460937C0008959091EB00943710F49B
:1009700080E011C0943828F4669561706350862336
:100980000AC0982F9F70933030F06F70E62FF0E020
:10099000E357FF4F808165CFCF93C0917700C1119E
:1009A0004DC0883039F41092C3001092C1001092EB
:1009B000C00045C0813B79F48091C30081508330F1
:1009C000E8F583E08093C3008093C2001092C100D9
:1009D0001092C00033C0853BA9F4CB016EE370E0F8
:1009E00075DA892B61F58091C3008A3F40F58B5FF2
:1009F0008093C3008093C2001092C1001092C00087
:100A000061DF1DC08130D1F48091C0009091C100A0
:100A1000019688382EE0920728F49093C1008093C5
:100A2000C0000DC01092C1001092C0008091C300A0
:100A3000882329F081508093C30001C0C1E08C2F2E
:100A4000CF910895FF920F931F93CF93DF938C0163
:100A5000EB01F42E8091E7009091E800892B31F0B2
:100A6000E091E700F091E80089E009951093E80033
:100A70000093E700012B39F0E091E700F091E800E6
:100A8000BE018F2D099581E08093C800DF91CF9141
:100A90001F910F91FF900895CF93DF93E091D600BF
:100AA000EE2359F0E150E093D600F0E0EE0FFF1F87
:100AB000E952FF4FC081D18102C0C0E0D0E0E09197
:100AC000D600EE2341F0F0E0EE0FFF1FEB52FF4F98
:100AD0008081918102C080E090E04AE060E070E0B7
:100AE000B1DFCE01DF91CF910895883029F41092C3
:100AF000BA001092A20015C0813001F59091A200B9
:100B0000911107C06032710570F18093A200E1DBA2
:100B10002AC0913089F46B3B710528F082E0809304
:100B2000A20080E01FC061157105E9F06270862F98
:100B3000880F880F8E5E16C0AFDF15C0813811F0A8
:100B4000813E89F491E09093A200813E21F480914E
:100B5000BA00865F03C08091BA008F5F8093BA00AD
:100B6000B8DB8BE48ADE80E008959C019091D6008A
:100B7000983088F4E92FF0E0EE0FFF1FE952FF4FA5
:100B8000318320839F5F9093D60048E0C9015ADFEC
:100B90008091D60008958FEF08950F931F93CF9300
:100BA000DF93EC018B0178DFB801CE01DF91CF91AB
:100BB0001F910F91DACF843011F58091E700909169
:100BC000E8002AE0833A920729F469E170E082E6BE
:100BD00096E013C08256964061F49091CD00923019
:100BE00040F0892F869596959695890F83DE80E053
:100BF000089560E070E089EA98E0CFDFF8CF81E007
:100C00000895813C29F460E070E089EA98E006C02C
:100C1000823C31F460E070E088E296E0BEDF14C010
:100C2000813B41F4CB016EE370E050D9892B61F434
:100C300049DE0AC0813E51F4CB016EE370E046D933
:100C40006F5F60938100D2DC80E0089581E00895B9
:100C5000CF93C0917700C11117C0813C29F460E0A7
:100C600070E089EA98E006C0823C31F460E070E010
:100C700088E496E092DF09C0873B31F460E070E0E1
:100C800089E898E072DF01C0C1E08C2FCF91089510
:100C9000813C29F460E070E089EA98E006C0823C7B
:100CA00031F460E070E081E096E077DF07C0873BD9
:100CB00039F460E070E08DE898E057DF80E0089557
:100CC00081E00895BF92CF92DF92EF92FF920F934F
:100CD0001F93CF93DF93182FEB01D0906900F09012
:100CE000680080916C00882319F0B090C50002C0A4
:100CF000BB24B394C0906D00809177008111C090A7
:100D00007800CC2051F081E0C81621F080916A0073
:100D10008F1518F0F6E9EF2E01C0EF2C0091C300FB
:100D2000BE01812F39DE8091C300882339F0011183
:100D30000CC09091CD009093C40007C0002329F00F
:100D400060E070E089EA98E032C0183029F01A308B
:100D5000B9F4C0916A00D0E08D2D90E08C179D070A
:100D600038F48F2D90E0C817D90710F4C0936A00AB
:100D7000CE019BDBBFDD81E08093650000E06EC1AA
:100D8000113CF1F2123C59F48091CD008E1510F413
:100D90008E2D02C080916A00ADDDF5DBEFCF143CF3
:100DA00041F480E06ADD60E070E08BE19CE0F5DE1C
:100DB000E5CF9FE4910F923008F04CC080916C0019
:100DC000882339F0CE0168E170E080D8892B31F0BA
:100DD000D5CF6091740070E0CE01F7CF0091BC00D8
:100DE0000111CCCF2091CD00209761F4123B11F47A
:100DF0008FEF05C02F15E0F7D216F8F081E0809351
:100E000065001BC0E0917400F0E0CF0166E371E083
:100E100040D88C179D0710F42F1550F7CF016CE6C2
:100E200072E037D88C179D0740F4D21630F04ADDB7
:100E300060E070E08BE19CE0B0DE809165006B2D9E
:100E400070E0082E000C990B24D82091CD00820F61
:100E5000911DD4C09FE1910F923020F480916500E4
:100E600081958ACF113009F078C0A99711F41093B9
:100E70006500882349F10091C40010E090E0B801BA
:100E800008D8EC01E091C200F0E0BF0133D8262F72
:100E9000CE01801B910BBF012DD8322F361B8091C4
:100EA000C0009091C1006EE370E010D8832F90E0F5
:100EB000F0D76CE370E00AD8261B622F09F461E0DA
:100EC0006093CC006093C600D091CC008091CD009F
:100ED0002D2F30E0281B31096091A4007091A500EE
:100EE0006F5F7F4F7093A5006093A40021153105BB
:100EF00009F444CF37FF05C0833830F040E450E0B8
:100F000005C040E052E002C040E051E056954795F0
:100F100037FF02C02F5F3F4F3595279521153105CB
:100F2000A9F74617570708F029CFD81710F4CFEFC5
:100F300003C08D1718F4C1E0C80F01C0CD2F8FEF8B
:100F40008C0F1FDA882321F08C2F97DCD093CC00F4
:100F50001092A5001092A40011CF1530A1F4809139
:100F6000CD00833308F40ACF90E08C1B9D0B8233B5
:100F7000910534F08739910564F186E990E029C044
:100F800082E390E026C01630B1F49091CD008091BC
:100F9000C600981708F0F2CEC90FD11D90E08C174B
:100FA0009D0734F0C233D10524F4C2E3D0E001C080
:100FB000EC018C2F0EC0173079F49091CC00809109
:100FC000CD00891710F48F5F04C0981708F0D6CEB3
:100FD00081508093CC00D2CE0091770001113DC0AA
:100FE000133C91F481E090916C00911180E080932A
:100FF0006C00FCDA75DC8091CD0090E056DA8093CD
:101000006A0078DCC0DA2AC0133B49F4CD2B09F022
:10101000B5CECC2011F086E9E82E8E2D04C0133E0B
:1010200021F480916A0066DC19C0173B29F460E066
:1010300070E08DE798E00FC01A3C39F48091CD0044
:1010400080937A00D3DA3EDC09C01A3B31F460E0C9
:1010500070E085E898E089DD01C001E0802FDF9134
:10106000CF911F910F91FF90EF90DF90CF90BF90A5
:101070000895883071F41092A30080E0FEDB809127
:10108000CF00811138C08091A3008F5F8093A300AF
:1010900022C0982F907F903BB1F42091A30042177B
:1010A00078F0CB016DE570E011D7069739F42F5F2A
:1010B0002093A3004217F8F088E303C082E101C047
:1010C00080E0DBDB18C0903E61F48091A3008823B0
:1010D00089F0481778F060E070E085E795E045DD3D
:1010E0000AC08A3041F46091BA008091A300F901EE
:1010F00009957CDAD1DC80E0089525E132E043E017
:10110000B8CF25E132E044E0B4CF2BE934E045E04C
:10111000B0CF22ED32E041E0ACCF26ED32E042E04C
:10112000A8CF21EF32E041E0A4CF81E00895909173
:101130007C00992369F08093BD0088E08093BB0018
:1011400081E08093BC008091CD008093BE00089523
:1011500094CB0F931F93CF938B01883081F480E061
:10116000E6DF8091BC00082B1092C7001092C300EC
:10117000012B09F057C081E08093CE0053C081302D
:1011800059F46931710508F44DC0C091BC00C1111A
:1011900049C08093CE00B8C0833039F58091C70034
:1011A0008F3F19F08F5F8093C70020917A00222330
:1011B00059F080917B0090E062EC71E06AD60817EC
:1011C000190710F020936A0080918500602F8370CA
:1011D000CBDB80918600882329F190E062EC71E0FE
:1011E00058D680179107F0F451C0813B91F481E00B
:1011F00090E05BD99CDF80917900811113C08091D0
:101200006C00811103C00831110560F061E070E0ED
:1012100029C0813ED9F3813839F480916A0090E089
:1012200044D985DFC0E070C0813C21F460916A0040
:1012300070E018C0823B81F41092C70080916D006D
:1012400090917700911180917800811103C086E917
:1012500090E0E6CF86E9E5CF823E59F0823C29F462
:1012600066E970E082E696E00CC0833921F41092C2
:10127000BC0080E0D6CF833C31F460E070E088E2CF
:1012800096E08BDCCFCF843C31F41CDB60E070E077
:101290008BE19CE0F6CF8F3C29F460E070E085E9BB
:1012A00098E0EFCFC09177008A3B79F4672B69F41F
:1012B000CC2329F007DB1092770098D9B3CF60E0F8
:1012C00070E081E898E051DC1FC0C1111CC0833B75
:1012D00031F460E070E083EA9AE05FDC15C0873C9F
:1012E00051F49091850081E0890F9C7F8370892B58
:1012F0008093850006C08A3C31F4E4DA81E0809373
:10130000770074D901C0C1E08C2FCF911F910F914C
:1013100008950F931F93CF931092D10080912901CC
:1013200090912A019C012F5F3F4F88279078822B54
:10133000932B90932A0180932901C091CF00F2D77B
:10134000C81729F11092CE008093CF0090912B0105
:10135000882359F0892F80699F709F3009F08F5F33
:1013600080932B0180E090E00DC0892F8F7E95FD4A
:1013700002C0806801C0806C80932B01809129019C
:1013800090912A01A2D710922A011092290100916E
:10139000290110912A018091CE00882399F0B8018B
:1013A00083E043D75BD70134110528F00F70112774
:1013B000012B09F044C01092A60081E08093F80050
:1013C000A8D72EC0C0912B018C2F807F803B19F4B1
:1013D00060E070E001C0B80181E027D7C4FF12C00F
:1013E000C5FF02C0C8010CC008311105C8F0109239
:1013F0002A0110922901C062C0932B0180E090E085
:1014000064D70EC0CC2361F0C5FD09C002311105BF
:1014100038F0C064C0932B0180E090E056D759D7D4
:101420008091A600811105C08FEE86B981E080937E
:10143000EC008091A6008F5F8F718093A600CF9102
:101440001F910F9108958091F7008111EFD880913D
:10145000D10081115ECF0895CF92DF92EF92FF927B
:101460000F931F93CF93DF93EC0110E800E080E32C
:10147000E82E87E0F82E9CECC92EDD24D39420972B
:1014800009F18091C80081111FC08091CD00863084
:1014900040F482E00FB6F89416BD86BD0FBEC601BB
:1014A00006C00FB6F89416BD06BD0FBEC701019762
:1014B000F1F70FB6F89416BD06BD0FBEC4DFCED649
:1014C0002197DDCF81E001C080E0DF91CF911F91B6
:1014D0000F91FF90EF90DF90CF900895CF93C82F9A
:1014E000882381F089E1C9D986EA90E0B5DF80E000
:1014F000C4D98AEF90E0B0DFC150A1F78AE992E049
:10150000CF91AACF89E1B9D98AE090E0A5DF80E048
:10151000B4D98AEF90E0A0DFF1CFCF93DF9364E6F8
:10152000C9D4282F892F6AE0C5D4EC01222341F0C9
:10153000822FD4DF8C2FD2DF8D2FDF91CF91CECFB2
:10154000C111F8CFF9CFFF920F931F93CF93DF9381
:10155000D82F8B01C091BF00C33009F0DAC0F090E2
:10156000C3001ADAFF2051F08091C300811106C038
:1015700060E070E089EA98E010DBCBC0D83021F45D
:1015800081E080936300C7C0D23C19F41092C3007D
:10159000D4C0D13BC1F490916200012B49F49E3636
:1015A00010F08FEF03C0923018F481E08093630055
:1015B00080916300890F11F481E034C18F3608F403
:1015C00031C18EE62FC1D13E31F480916300819507
:1015D00080936300EDC0D23B61F481E080936300AF
:1015E00080916200823008F4EBC0815080936200E9
:1015F000E7C0D13009F0A5C00932110511F4D0932C
:1016000063009091A100892F880F97FD809590E04D
:1016100067E070E03ED4292F8091A000682F660F0C
:1016200087FD60958091610070E090E032D4290FD1
:1016300080919F00682F660F87FD60958091600004
:1016400070E090E026D4920F6091620070E0690F24
:10165000711D8091C300813091F48091C000909100
:10166000C10025E0969587952A95E1F724E730E0BB
:10167000A901481B590BCA010CD4B90127D4862FE4
:10168000FCD800FD07C057D681709091A100890F4A
:101690008093A1009091A00080919E00890F80937B
:1016A000A00049D665E206D480919F00980F9093E0
:1016B0009F0041D68F7329F43ED66DE0FBD3909303
:1016C0009E00C0916100CC2331F035D68F7319F4A0
:1016D000C150C09361002FD6811107C02CD66BE09A
:1016E000E9D3909361001092A000C0916000C330D4
:1016F00030F021D68F7119F4C150C09360001BD611
:101700008F7709F083C017D666E0D4D3909360003A
:101710007DC0D83041F480917D008093BF0081E08E
:101720008093640081C0D13C31F460E070E089EACC
:1017300098E033DA79C0D23C31F48C2F90E00196F6
:1017400007C0D13C91F3D43C59F48C2F90E004961F
:1017500065E070E0CFD380937D008093BF0050C0E0
:10176000D13B21F5C23090F400FD5EC0EC2FF0E0DB
:10177000E459FF4F828990916400891B883020F0E2
:101780008F3F69F58EEF2BC088E029C0C43009F087
:101790004BC09091800080916400890F823010F4DA
:1017A00082E026C0893720F188E722C0D13E31F49B
:1017B0008091640081958093640022C0D23BF1F453
:1017C00081E080936400C23060F400FD2DC0EC2FF6
:1017D000F0E0E459FF4F82898F3F31F18F5F828BB8
:1017E00023C0C43009F580918000833018F0815007
:1017F000809380008091800040D816C0D23E11F4C2
:10180000F5D612C0D13011F081E00FC009321105B8
:1018100019F481E0809364008091CB00080F00935D
:10182000CB0002C08093620080E0DF91CF911F91D6
:101830000F91FF9008950F931F93CF93DF93C82FBD
:101840008B0180798039B1F420916E0090916F0006
:101850008C2F8F70813021F4822F921748F407C0AB
:1018600080917A00811104C0822F291708F4892FF2
:1018700004D813C0803819F480E0FFD705C0C83001
:1018800019F41092C70046C0C13039F4093111056E
:1018900008F45DC0C093CE005AC0C330E9F4809113
:1018A000C7008F3F19F08F5F8093C70020917A00A7
:1018B000222359F080917B0090E062EC71E0E9D244
:1018C0000817190710F020936A0080918500602F97
:1018D0008695869549D83BC0C33C31F4F3D760E088
:1018E00070E089EA98E014C0C43C21F460916A0079
:1018F00070E00CC0C43B31F4F3D710922B0161E0CF
:1019000070E004C0C53C31F466E970E082E696E020
:1019100044D91DC0D0917700D1111BC0C73C79F4C8
:1019200090918500892F869586958F5F8370880FAB
:10193000880F9370890F8093850058D60BC0CA3BDF
:1019400041F460E070E081E998E00FD903C0D0E095
:1019500001C0D1E08D2FDF91CF911F910F9108959C
:101960001F920F920FB60F9211242F933F938F93D4
:101970009F93AF93BF93EF93FF938091F6008823DB
:10198000E9F0E091F50024B135B1F0E0EE0FFF1F72
:10199000DF01AF50BF4F2D933C93E351FF4F808148
:1019A00091818217930708F401962817390708F4E4
:1019B00001979183808381E08093F70081E0809399
:1019C000F600FF91EF91BF91AF919F918F913F9161
:1019D0002F910F900FBE0F901F9018951F920F928E
:1019E0000FB60F9211248F9381E08093D1008F91D5
:1019F0000F900FBE0F901F9018951F920F920FB669
:101A00000F9211248F9381E08093D0008F910F90DB
:101A10000FBE0F901F901895F89484B7877F84BFEE
:101A20000FB6F894A89581B5886181BD11BC0FBE31
:101A300083E187BB81E083BF91EA9ABD80BF80E6E6
:101A40008CBD8FEF8DBD88E088BB85BB8BB7806276
:101A50008BBFA89581B5886181BD80E481BD59D4D3
:101A6000789481E040D460E070E08BED95E07DD823
:101A70001092C80027D756D4811113C08CE690E08D
:101A80009093CA008093C900F89480E090E045D21A
:101A9000853AC1F50091C9001091CA00C1E0D0E0BB
:101AA00028C0C0E08C2FE9D683E190E0D5DC8C2FF4
:101AB0008695E3D683E190E0CFDC34D4882381F0AF
:101AC000CF5FC03479F765E181E070D58FD5C6E985
:101AD0008C2FD3D684E090E0BFDCC150C9F7CECFC5
:101AE000CC2361F28C2FC9D68DE090E0B5DCC150DB
:101AF000F7CFCE0112D2F80181938F012196CC311C
:101B0000D105B9F7789480917A00811180936A00A9
:101B100060E070E084EF92E028D861E070E089EA4C
:101B200098E023D843E4342E52E0452E60E4562E4C
:101B30007724739479EAA72E78E0B72EE7E06E2E2B
:101B4000CC24C394D12CACEF8A2EA3E09A2E86D35A
:101B50008091D4009091D500009749F06091D20017
:101B60007091D3001AD81092D5001092D4008091B1
:101B7000CE00882309F44BC080E07FD6A89581B5BC
:101B8000886181BD31BC3798CDD38111FDCFA1D300
:101B90008BB780628BBF1092F7001092D100109229
:101BA000D0008091CE00882339F18091F8008823FD
:101BB00021F085B7877E886003C085B7877E806106
:101BC00085BF85B7806285BF889585B78F7D85BFC6
:101BD0008091D00081111092CE008091F70088236F
:101BE00029F070926B007092EC0020D58091D100AA
:101BF0008823B9F28EDBD5CF40926B008BB78F7DF7
:101C00008BBF87D3A89581B5886181BD51BC1BDC92
:101C10001092C8008091E7009091E800F8E08539C3
:101C20009F0711F5CEE1D0E0FE0184918053803111
:101C300010F454DC10C010E0812F81708295880F61
:101C4000807E1BD680E190E007DC1F5F1931A1F791
:101C50008AE992E001DC8CE291E0FEDB2196F0E083
:101C6000CF32DF0709F7ABC02AE0833A920709F0C9
:101C700096C0C091BF00C23001F120F0C43009F419
:101C800074C065CFEC2FF0E0E459FF4FD28988E7AC
:101C9000F4D5C11109C0DA3220F4C4010197F1F77B
:101CA00007C081E090E003C08D2F869590E0D4DBE3
:101CB00080E0E3D58D2F90E0DFC03DD38F73E82E19
:101CC000F12C39D3662DF6D0E60102C0CC0FDD1F12
:101CD0009A95E2F730D365E0EDD0F60102C0EE0F41
:101CE000FF1F9A95E2F7CE0FDF1F25D390E0BE01CC
:101CF00001D1C80FD91FC739D10514F0C6E9D0E00A
:101D00008C2FBBD5C701A8DB8E0133E01595079555
:101D10003A95E1F7011101C001E010E0C7019CDB39
:101D2000C01BD10BD7FF02C0C0E0D0E08C2FA5D5DF
:101D300002D3837031F4C7018FDBCE01959587956F
:101D40009CD5C230D10554F7F6D26DE0B3D0E60190
:101D500002C0CC0FDD1F9A95E2F7EDD290E0BE01F4
:101D6000B5D0C80FD91F80E085C0C0918000CC0FCE
:101D7000C73908F0C6E9D4E08C2F7FD585E090E024
:101D80006BDB8091800079D581E490E065DBD150F8
:101D900099F780ED92E060DB80E06FD5D8CEF6E079
:101DA00088329F07A9F488EE93E056DB8091EB0020
:101DB00086958695B2DB80917700882381F0B0927A
:101DC000D500A092D4001092D3001092D200BFCEC2
:101DD00026E08834920731F48091E9009EDB88EE9A
:101DE00093E04AC081509640A9F48091CF008111C0
:101DF000AECE80916A0041D584E690E02DDB80E094
:101E00003CD58091810090E068EE73E042D084562A
:101E1000910932C080917C00882381F18091BC00BF
:101E2000882361F12091CD003091BD00231305C0BE
:101E3000822F23D51092BC008ACE6091BB0023175D
:101E400058F4832F821B36D0811101C081E0820FAC
:101E500014D58AE090E010C0862F90E06EE170E02B
:101E600018D06091BE00631B70E044D0EB01219656
:101E70008FEF820F02D5CE01EFDA69CE85B7877E6C
:101E800085BF85B7806285BF889585B78F7D85BF03
:101E90005ECE0024552704C0080E591F880F991FD5
:101EA000009729F076956795B8F37105B9F7802DFD
:101EB000952F0895991B79E004C0991F961708F093
:101EC000961B881F7A95C9F780950895AA1BBB1B9E
:101ED00051E107C0AA1FBB1FA617B70710F0A61B2A
:101EE000B70B881F991F5A95A9F780959095BC014B
:101EF000CD01089597FB072E16F4009406D077FDC8
:101F000008D0E4DF07FC05D03EF4909581959F4F03
:101F10000895709561957F4F0895E199FECF9FBB1D
:101F20008EBBE09A99278DB30895262FE199FECFB5
:101F30009FBB8EBBE09A01970DB2021639F01CBA16
:101F40002DBB0FB6F894E29AE19A0FBE0895F8946B
:021F5000FFCFC1
:101F5200060B180101010004780141020002010A86
:101F62000A7878780107050100000000010329437F
:101F72003202072D000D006E007100740000010294
:0E1F820001000000000000010000000000004F
:00000001FF
