:1000000072C100008DC100008BC100000C94AC10C7
:1000100087C1000085C1000083C100000C949B10C3
:100020007FC100007DC100007BC1000079C10000DC
:1000300077C1000075C1000073C1000071C10000EC
:100040006FC100006DC100006BC1000069C10000FC
:100050000C94511065C1000063C1000061C1000033
:100060005FC100005DC100005BC1000059C100001C
:1000700057C1000055C1000053C100003036313473
:100080002E323032332D31322D30332B3800FF0FEA
:100090008D0A800C020ED609DA0A120BEB0A910ABD
:1000A0001B0A9709160A6C09C708D0082B080E0806
:1000B000730744070A07C90645060606C5058405F1
:1000C00043050405C6048A0451041A04E503B20377
:1000D000820355032A030003DA02B5029202710279
:1000E000520234021802F701E501CE01B701A20164
:1000F0008E0180016E016101540147013F0133010E
:100100002A0124011C01180111010D010A01070136
:100110000401020100010001FF00FF00FF00FF00D9
:10012000FF00FF00FF00FF00FF00FF00FF00FF00D7
:10013000FF00FF00FF00FF00FF00FF00FF00FF00C7
:10014000FF00FF00FF00FF00FF00FF00FF00FF00B7
:10015000FF00FF00FF00FF00FF00FF00FF00FF00A7
:10016000FF00FF00FF00FF00FF00FF00FF00FF0097
:10017000FF00FF00FF00FF00FF00FF00FF00FF0087
:10018000FF00FF00FF00FF00FF00FF00FF00FF0077
:10019000FF00FF00FF00FF00FF00FF00FF00FF0067
:1001A000FF00FF00FF00FF00FF00FF00FF00FF0057
:1001B000FF00FF00FF00FF00FF0000000000000044
:1001C000000000000000000000000000000000002F
:1001D000000000000000000000000000000000001F
:1001E000000000000000000000000000000000000F
:1001F00000000000000000000000000000000000FF
:100200000000000000010203040607080A0B0D0E9F
:100210001011131516181A1C1E20222527292C2E02
:10022000303336383B3E4144474A4D5154575B5E6C
:1002300062666A6E72767A7E82878B9094999EA3AC
:10024000A8ADB2B8BDC3C8CED4DAE0E6ECF2F8FF90
:1002500001010203030405060708090B0C0D0F102A
:10026000121315171A1B1C1E20222426282A2C2E96
:1002700030323436383A3C3E40424446474A4C4E8F
:10028000505255575A5D6064676B70747A7F858CE5
:10029000939AA3ABB6C0CBD7E4F1FFFFFFFFFFFFFC
:1002A000FFFFFFFFFFFFFFFFFFFFFFFFFFFFFFFF5E
:1002B000FFFFFFFFFFFFFFFFFFFFFFFFFFFFFFFF4E
:1002C000FFFFFFFFFFFFFFFFFFFFFFFFFFFFFFFF3E
:1002D000FFFFFFFFFFFFFFFFFFFFFFFFFFFFFFFF2E
:1002E000FFFFFFFFFF0011241FBECFEFCDBFDFE3F5
:1002F000DEBF18E3A0E0B8E3E0E7F8E202C0059053
:100300000D92A433B107D9F728E3A4E3B8E301C001
:100310001D92A73CB207E1F70E94BC100C94271471
:100320006FCEF89498ED94BF809361008091630044
:1003300080FDFCCF78940895E0E0F6E0828581604E
:1003400082878085816080870895E4E9F8E320E072
:1003500030E09081992339F02F5F3F4F3396203161
:100360003105B9F70BC0F901EE0FFF1F2E0F3F1F2C
:10037000F901EC56F74C80836183728308950F93E3
:100380001F93CF93DF93D0919438DD2351F10091E7
:10039000953810919638C0917138C150C7FD0DC085
:1003A000EC2FEE0FFF0BEE58F74C0190F081E02D93
:1003B000B8018D2F09958111F0CFE4E9F8E383812D
:1003C00080838481958181839283339688E3E13CA5
:1003D000F807A9F71092C1381092C2381092C338AA
:1003E000D2CFDF91CF911F910F910895BC018091E1
:1003F000C638ABCF1092C6381092C4381092C538A8
:1004000081E08093623808950F931F93CF93C82F94
:100410000CEC18E0CC2349F085E083DFC80101979C
:10042000F1F781E07EDFC150F5CFCF911F910F91A1
:100430000895E0E0F6E083E880838381806283832F
:10044000A0EAB0E08C918F7880648C938DE18683F4
:1004500082E0818383E582831092903810929138F4
:100460006BCF82B185FB882780F991E08927809343
:100470006A380895E0910638F09107383196FB709C
:10048000F460E0930638F0930738809165388B5A12
:1004900080936538E491809165388E0F08958823A4
:1004A00049F0813069F480E28093220488E08093EF
:1004B0003504089580E280932104809326040895F2
:1004C00080E280932104809325040895811182E0C5
:1004D000E6CF81E00895CF93C82F809169388111CC
:1004E0000AC091E0C11101C090E081E0C33308F47B
:1004F00080E0890FD4DFC1110DC010923A0A10922A
:100500003B0A1092380A1092390A1092200A10926F
:10051000210A0EC0E091683884E0E89FF0011124C0
:10052000E859F7450190F081E02D8FEF8C0F099588
:10053000C0936738C0936638C53010F485E005C0B5
:10054000C43110F483E001C081E0CF91EACE90E0A5
:10055000FC01E05BFD4FE4914E2F50E0FC01E654BE
:10056000FE4FE4912E2F30E0FC01EE0FFF1FE2570B
:10057000FF4F8591949140933A0A50933B0A209300
:10058000380A3093390A8093360A9093370A80915B
:100590006738811104C01092200A1092210A089530
:1005A00090E0FC01E05BFD4FE4912E2F30E0FC0178
:1005B000E654FE4FE491F0E080913A0A90913B0AB4
:1005C000892B19F42F3F310551F080913A0A90910F
:1005D0003B0A8F3F910541F42115310529F4209301
:1005E0003A0A30933B0A1DC080913A0A90913B0A27
:1005F0008217930730F480913A0A90913B0A019652
:100600000CC080913A0A90913B0A2817390748F4A8
:1006100080913A0A90913B0A019780933A0A90930D
:100620003B0A8091380A9091390A8E179F0730F45F
:100630008091380A9091390A01960CC08091380A4D
:100640009091390AE817F90748F48091380A909197
:10065000390A01978093380A9093390A80913A0AAF
:1006600090913B0A2817390741F42091380A3091BC
:10067000390A81E0E217F30709F080E00895CF938B
:10068000DF93CDB7DEB72697CDBFDEBF90910C3894
:10069000209182383091833824553A4009F492E011
:1006A000843019F4609318381FC06623E9F0823053
:1006B00019F427E9261B622F26E0E2E5F8EADE01BD
:1006C000119601900D922A95E1F79E012F5F3F4F01
:1006D000280F311D280F311DF90132970190F0814B
:1006E000E02DE90FF11D60832696CDBFDEBFDF91BF
:1006F000CF910895BF92CF92DF92EF92FF920F9326
:100700001F93CF93DF93EC0140910C3890911738F1
:10071000992311F0E2E001C0E42FF0E0E45FF74C30
:10072000228120930938858180930838E92FF0E0F1
:10073000E45FF74C3185622F70E0442349F031309B
:1007400039F49B01280F311DC9019595879538C053
:10075000C617D707A4F1682F70E06C177D0784F1E6
:10076000411102C08C2F2CC0821B032F10E00150BE
:100770001109E82EF12CC701B8010E94BE13609345
:100780005F386695E62FF0E0822FC12CD12CB12C7A
:10079000B316B1F0C601B8010E94AA13822F860FCA
:1007A000CE0CDF1CAE01481B510957FF03C0519509
:1007B00041955109E417F5071CF4B394E9CF822F52
:1007C000DF91CF911F910F91FF90EF90DF90CF902D
:1007D000BF900895ECE0F8E3868580930A3883891A
:1007E000808B80936838089580915C38882351F01D
:1007F0009091673890935E3880935B3810925938A7
:1008000010925A380895CF93C091673889E18C0FC0
:10081000873908F080E05FDE82E0F6DD8C2FCF9133
:100820005ACECF93C091673880E055DE83E0ECDD8F
:100830008C2FCF9150CE81E00895611160932C38B8
:100840000895662389F0813061F480918438909115
:100850002E38891B681B60932E3882E080930B38FA
:1008600003C0635E60932D3880912D38873418F073
:1008700086E480932D380895609330380895E82FEA
:10088000F0E0E45FF74C64A308957FEF780F4091A8
:100890001D3850911E38662359F021E030E002C027
:1008A000220F331F7A95E2F7CA01822B932B0AC0DD
:1008B00081E090E002C0880F991F7A95E2F7809559
:1008C0008423952380931D3890931E380895809338
:1008D000603890916738981718F4282F291B02C0A8
:1008E000292F281B30915338311106C030912138FF
:1008F000332369F0223058F08093543884E0809399
:10090000523881E080935338909355380895E3CD61
:10091000CF93DF938CE098E38093633890936438AF
:10092000F894C0E0D0E0E0916338F0916438EC0FC7
:10093000FD1F60812196CE010E940A14C832D105A4
:1009400091F765EA80E090E00E940A147894DF91C4
:10095000CF910895CF931092923880911006909184
:100960006538890F8093653880918738882309F42A
:100970004CC11092873890919038809169388823C3
:1009800049F0809100068E7F809300061092933884
:1009900010929038911166C080910B38882329F00D
:1009A00020918C3830918D381AC02091693880910F
:1009B0008838909189382223B9F020918C38309171
:1009C0008D3863E0369527956A95E1F7280F391F32
:1009D00073E0969587957A95E1F7281B390B20935C
:1009E00088383093893801C09C01C0912C38CC0FD5
:1009F000C45054E0369527955A95E1F740E050E011
:100A000060E070EC83E090E00E94D113C20FC093CD
:100A1000863880915038882311F0815007C0C43740
:100A200038F460E070E084E090DC85E0809350383A
:100A3000809169388111E0C08091A0008F78806139
:100A40008093A0008EE18093060682E080930106E9
:100A500083E48093020681E080939038109291386D
:100A60006BDCCAC0913009F0C7C080910B38882375
:100A700041F080918E3890918F3880938A3890938E
:100A80008B382091201180912111A0918A38B0914A
:100A90008B3830E48302A019B109112430E00E94A0
:100AA000F313DC01CB01905EAF4FBF4F892F9A2F1C
:100AB000AB2FBB2720912E38FC0136E0F695E79549
:100AC0003A95E1F7022E000C330BA9014351514036
:100AD0004E0F5F1F4093843850938538BC0145E02A
:100AE000769567954A95E1F780910B3881112AC078
:100AF00080913F38E82FF0E0EE0FFF1FE05CF74CED
:100B000040815181DB01A41BB50BAD016083718372
:100B10008F5F877080933F3880912D3890E08D5E95
:100B20009E4F821B930B880F991F9B01281B390B2B
:100B3000C9019D01220F331F220F331F820F931F04
:100B400023E00EC0E0E4F8E36193719388E3E035BD
:100B5000F807D1F7CDCF009709F00196215029F081
:100B600018161906C4F70197F9CF18161906E4F4F8
:100B700057FD39C020913E3812160CF1880F991F8D
:100B8000BC016350710977FF02C06F5F7F4F75959D
:100B900067951616170614F061E070E088E1861B71
:100BA00080933E3885E026C08C3FAFEF9A07DCF497
:100BB00057FF19C020913E3827FF05C02450281B3D
:100BC00020933E3818C024EE281B20933E382091F5
:100BD0008638263780F06CEF7FEF681B790B7595B0
:100BE000679586E007C080918638853720F060E001
:100BF00070E087E0AADB1DDC80910B38882329F0A8
:100C000080910B38815080930B38CF910895CF930A
:100C1000DF9390916838981759F0C82FD0916738B2
:100C200080E059DCC09368388D2FDF91CF9153CC91
:100C3000DF91CF910895813019F410921A380895F8
:100C4000823019F460931B380895833019F460934F
:100C500019380895843019F460930D38089585305B
:100C600011F460932138089590918638943710F4E8
:100C700080E011C0943828F4669561706350862333
:100C80000AC0982F9F70933030F06F70E62FF0E01D
:100C9000E85AF745808103CC883039F410925C38EB
:100CA0001092593810925A3845C0813B81F4809196
:100CB0005C388150833008F03FC083E080935C381B
:100CC00080935B381092593810925A3835C0853B62
:100CD000B1F4CB016EE370E00E94AA13892B51F5A9
:100CE00080915C388A3F30F58B5F80935C388093CD
:100CF0005B381092593810925A3885DD1BC081300C
:100D0000D9F48091593890915A38019688382EE05C
:100D1000920728F48093593890935A380BC0109258
:100D2000593810925A3880915C38882319F08150D4
:100D300080935C3880E0089581E00895FF920F93DE
:100D40001F93CF93DF938C01EB01F42E80918238B7
:100D500090918338892B31F0E0918238F09183387B
:100D600089E009950093823810938338012B39F07C
:100D7000E0918238F0918338BE018F2D099581E092
:100D800080936238DF91CF911F910F91FF9008956A
:100D9000CF93DF93E0917138EE2359F0E150E09367
:100DA0007138F0E0EE0FFF1FEE58F74CC081D18193
:100DB00002C0C0E0D0E0E0917138EE2341F0F0E0F5
:100DC000EE0FFF1FE059F74C8081918102C080E057
:100DD00090E04AE060E070E0B1DFCE01DF91CF91BA
:100DE0000895883029F4109251381092383815C07F
:100DF000813001F590913838911107C0603271054A
:100E000070F180933838F6DA2AC0913089F46B3B60
:100E1000710528F082E08093383880E01FC06115AA
:100E20007105E9F06270862F880F880F8E5E16C0FC
:100E3000AFDF15C0813811F0813E89F491E09093C5
:100E40003838813E21F480915138865F03C080910B
:100E500051388F5F80935138CDDA8BE43CDB80E0F2
:100E600008959C0190917138983088F4E92FF0E052
:100E7000EE0FFF1FEE58F74C208331839F5F909356
:100E8000713848E0C9015ADF8091713808958FEFB9
:100E900008950F931F93CF93DF93EC018B0178DFBD
:100EA000B801CE01DF91CF911F910F91DACF813C34
:100EB00029F460E070E087E99BE006C0823C39F4E9
:100EC00060E070E086E79AE0E4DF80E0089581E08A
:100ED0000895843011F580918238909183382DE007
:100EE0008F3D920729F469E170E082ED97E013C02D
:100EF000825D974061F490916738923040F0892F7D
:100F0000869596959695890FE2DC80E0089560E0DD
:100F100070E087E99BE0BDDFF8CF81E00895813C78
:100F200029F460E070E087E99BE006C0823C31F480
:100F300060E070E087E597E0ACDF16C0813B49F4E4
:100F4000CB016EE370E00E94AA13892B69F45BDC8D
:100F50000BC0813E59F4CB016EE370E00E94AA13EE
:100F60006F5F60932B38D4DC80E0089581E00895B2
:100F7000813C29F460E070E087E99BE006C0823C98
:100F800031F460E070E08FE897E083DF07C0873BD3
:100F900039F460E070E080E69AE063DF80E0089575
:100FA00081E00895BF92CF92DF92EF92FF920F936C
:100FB0001F93CF93DF93182FEB0180911C38809300
:100FC0006838D0900938F090083880910C38882320
:100FD00019F0B0905F3802C0BB24B394C0900D38B4
:100FE000809117388111C0901838CC2051F041E021
:100FF000C41621F080910A388F1518F0F6E9EF2E0B
:1010000001C0EF2C00915C38BE01812F45DE20919C
:101010005C38222339F001110CC08091673880932D
:101020005E3807C0002329F060E070E087E99BE0AC
:1010300036C0812F8D7F8830D9F4109258381A30FD
:1010400019F4C0910A38D0E08D2D90E08C179D07DF
:1010500038F48F2D90E0C817D90710F4C0930A38E0
:10106000CE0148DB34DC81E08093053800E0A6C186
:10107000113CD1F2123C59F4809167388E1510F46E
:101080008E2D02C080910A3822DCAEDBEFCF143CFB
:1010900041F480E020DA60E070E08AED9AE0F9DE69
:1010A000E5CF8FE4810F823008F05AC080910C3870
:1010B000882341F0CE0168E170E00E94AA13892BD9
:1010C00031F0D4CF6091143870E0CE01F6CF0091AA
:1010D00053380111CBCF80916738209761F4123BD0
:1010E00011F48FEF05C08F15E0F7D81648F181E0B5
:1010F0008093053825C02091143830E066E371E014
:10110000269FA001279F500D369F500D11244C178C
:101110005D0710F48F1528F76CE672E0269FA0019A
:10112000279F500D369F500D11244C175D0740F43A
:10113000D81630F068DB60E070E08AED9AE0A9DE56
:1011400030910538209167384B2D3403C0011124AC
:10115000820F911DCFDA80930A38B9DB45DB2EC1AF
:101160008FE1810F823020F48091053881957CCF0A
:10117000113009F084C0A99711F410930538222387
:1011800071F1C0915E38C29F90011124E0915B38EB
:10119000F0E0C901BF010E94BE13462FC9018C1B9C
:1011A0009109BF010E94BE13242F261B809159383C
:1011B00090915A386EE370E00E94AA13269FC001F6
:1011C000279F900D11246CE370E00E94AA13461B28
:1011D000642F09F461E06093663860936038C091D1
:1011E0006638209167388C2F90E0821B91096091BE
:1011F0003B3870913C386F5F7F4F60933B38709302
:101200003C38009709F432CF97FF05C0233830F0FF
:1012100040E450E005C040E052E002C040E051E050
:101220005695479597FD0196959587950097C1F737
:101230004617570708F01ACFC21710F4CFEF03C0B4
:101240002C1710F4C1E0C20FE091683884E0E89FE9
:10125000F0011124E859F7450280F381E02D8FEF6A
:101260008C0F0995882331F0D09166388C2F33D9B3
:10127000D093663810923B3810923C38F7CE153038
:10128000A1F4809167388D3308F4F0CE90E08C1B88
:101290009D0B8C33910534F0873991056CF186E90B
:1012A00090E02AC08CE390E027C01630B9F490910A
:1012B000673880916038981708F0D8CEC90FD11DD3
:1012C00090E08C179D0734F0CC33D10524F4CCE3A7
:1012D000D0E001C0EC01C0936638C8CE173079F475
:1012E0009091663880916738891710F48F5F04C039
:1012F000981708F0BBCE815080936638B7CE133C68
:1013000019F0163CD9F40AC080911D3881FB992749
:1013100090F98170890F823009F44FC081E090917B
:101320000C38911180E080930C38F2DA7ADA8091EF
:10133000673890E0DFD980930A38A6CE009117383D
:1013400001113BC0133B49F4CD2B09F08FCECC20CB
:1013500011F086E9E82E8E2D04C0133E21F4809111
:101360000A38B5DA2BC0153C61F480916738809358
:101370000A3880E0B0D860E070E088E89FE089DD5E
:101380001DC0173B29F460E070E080E59AE013C0CF
:101390001A3C59F48091673880931A3880916838E4
:1013A00080931F38B5DA2FDA09C01A3B31F460E0B8
:1013B00070E088E59AE055DD01C001E0802FDF9103
:1013C000CF911F910F91FF90EF90DF90CF90BF9042
:1013D00008950F931F93CF938B01C42F883091F4FE
:1013E0008091683880933A381092393880E073D809
:1013F00080916A3881114FC0809139388F5F809316
:10140000393833C0982F907F903B21F5809139383F
:101410004817E8F08150823040F490915D3899236C
:1014200021F0909168388913F2DBC8016DE570E016
:101430000E94AA13069749F4809139388F5F8093F0
:101440003938C81740F188E303C082E101C080E069
:1014500042D821C0903E79F4809139388823A1F098
:10146000481790F080913A38D2DB60E070E081EF6D
:1014700096E0F7DC10C08A3049F4609151388091D1
:101480003938F901099544DA83DC05C0893019F44B
:1014900080913A38BCDB80E0CF911F910F91089585
:1014A0002FE333E043E095CF2FE333E044E091CFE7
:1014B0002BE136E045E08DCF2DE134E041E089CFEE
:1014C00021E234E042E085CF2CE334E041E081CFFB
:1014D0002FE334E043E07DCF91E090935D3825E445
:1014E00034E042E076DF10925D380895CF93C091EA
:1014F0001738C11123C0813C29F460E070E087E90E
:101500009BE006C0823C31F460E070E088EB97E03D
:10151000C0DC15C0833C51F48091203890E00196E6
:101520008170992780932038F3D909C0873B31F423
:1015300060E070E08CE59AE094DC01C0C1E08C2FA3
:10154000CF910895CF93833C29F5909168386091AD
:101550001D3870911E38892F40E0282F30E02F5F12
:101560003F4F21703327822FFB0102C0F695E7958C
:101570002A95E2F7E0FF0AC09817C1F048DB809196
:10158000683880931C38C4D9C0E011C04111F4CF31
:1015900041E0E3CFC0911738C11108C0893B31F455
:1015A00060E070E08CE69AE05CDC01C0C1E08C2F6A
:1015B000CF9108950F931F93CF93DF93C82F8B0183
:1015C00080798039B9F420910E3890910F388C2FA2
:1015D0008F70813021F4822F921748F407C08091D8
:1015E0001A38811104C0822F291708F4892F0E940C
:1015F0006B0214C0803821F480E00E946B0205C0A9
:10160000C83019F4109261386AC0C13039F4093118
:10161000110508F470C0C09369386DC0C330F9F487
:10162000809161388F3F19F08F5F8093613880918E
:101630001A38882369F040911B3822EC31E0429F30
:10164000C001439F900D11240817190708F0C2D854
:1016500080912F38602F8695869506DB4CC0C33C61
:1016600031F4D1D860E070E087E99BE014C0C43C5D
:1016700021F460910A3870E00CC0C43B31F4D1D839
:101680001092C63861E070E004C0C53C31F466E9F0
:1016900070E082ED97E0FDDB2EC0C33B79F4C8011A
:1016A0006EE370E00E94AA13892BC9F460E070E039
:1016B00083ECDF91CF911F910F9144CFC73C79F418
:1016C00090912F38892F869586958F5F8370880F2C
:1016D000880F9370890F80932F381AD90CC0D0913E
:1016E0001738D1110AC0CA3B41F460E070E084E6CB
:1016F0009AE0B7DB03C0D0E001C0D1E08D2FDF91CD
:10170000CF911F910F91089590912138992369F0FD
:101710008093543888E08093523881E08093533826
:10172000809167388093553808950C946B02CF935D
:10173000DF93EB018830A1F480E0E6DF809153383D
:10174000C82B1092613880911C38809368381092B1
:101750005C38CD2B09F05DC081E08093693859C0B9
:10176000813059F46931710508F453C0C091533880
:10177000C1114FC080936938E0C0833061F580911A
:1017800061388F3F19F08F5F8093613880911A38EC
:10179000882369F040911B3822EC31E0429FC00160
:1017A000439F900D1124C817D90708F013D88091D2
:1017B0002F386C2F837058DA80913038882349F1A4
:1017C00042EC51E0849F9001859F300D11242C172D
:1017D0003D07F8F453C0813B91F481E090E00E9412
:1017E0007A0392DF80911938811113C080910C38EF
:1017F000811102C0689768F061E070E02AC0813E04
:10180000D9F3813841F480910A3890E00E947A033C
:101810007BDFC0E092C0813C21F460910A3870E027
:1018200018C0823B81F41092613880910D389091FC
:101830001738911180911838811103C086E990E022
:10184000E5CF86E9E5CF823E59F0823C29F466E98E
:1018500070E082ED97E00CC0833921F41092533888
:1018600080E0D6CF833C31F460E070E086E79AE018
:1018700010DBCFCF843C39F40E94030460E070E0B9
:101880008AED9AE0F5CF8D3B49F4F89491E088ED2C
:1018900084BF909300017894A895FFCF8F3C29F4E2
:1018A00060E070E08BE194E0E3CF8A3B89F4CD2BDC
:1018B00019F5C0911738CC2329F00E940304109227
:1018C000173818C060E070E084E59AE0CADA35C0E5
:1018D000833B29F460E070E08FED9DE0C9CF873C49
:1018E00059F490912F3881E0890F9C7F8370892B68
:1018F00080932F380DD88DCFC0911738C1111CC0DF
:101900008A3C39F40E94030481E08093173800D8A0
:1019100014C0853C39F40E94030460E070E088E85C
:101920009FE008C0863C41F40E94030460E070E040
:1019300080ED9FE0AEDA01C0C1E08C2FDF91CF9146
:1019400008950F931F93CF9310926C388091C438F1
:101950009091C5389C012F5F3F4F88279078822B4C
:10196000932B8093C4389093C538C0916A380E94F5
:101970003102C81731F11092693880936A3890911A
:10198000C638882359F0892F80699F709F3009F0ED
:101990008F5F8093C63880E090E00DC0892F8F7EE6
:1019A00095FD02C0806801C0806C8093C63880912C
:1019B000C4389091C5380E94F6011092C438109234
:1019C000C5380091C4381091C53880916938882392
:1019D000B1F0B80183E00E94A5010E94BF0101346B
:1019E000110528F00F701127012B09F047C0109244
:1019F0003D3881E0809393380E94190232C0C09133
:101A0000C6388C2F807F803B19F460E070E001C005
:101A1000B80181E00E94A501C4FF13C0C5FF02C048
:101A2000C8010CC008311105E0F01092C4381092C2
:101A3000C538C062C093C63880E090E00E94F601CD
:101A400010C0CC2371F0C5FD0AC00231110548F069
:101A5000C064C093C63880E090E00E94F6010E9406
:101A6000FA01C0913D38C11105C00E949C0181E07E
:101A700080938738CF5FCF71C0933D38CF911F914E
:101A80000F9108958091923881110E94AA0480914B
:101A90006C38811156CF0895EF92FF920F931F93E8
:101AA000CF93DF93EC0102E418E080E1E82E82E0BE
:101AB000F82E2097D9F080916238811119C0809159
:101AC0006738853028F485E00E949101C70104C081
:101AD00081E00E949101C8010197F1F781E00E9425
:101AE0009101D0DF0E94BF012197E3CF81E001C0C7
:101AF00080E0DF91CF911F910F91FF90EF900895BB
:101B00000F931F93CF93DF93C82F882311F006EA1A
:101B100002C00AE0C1E0D091683810E0809120381E
:101B200076D889E10E946B02D0936838C801B4DF8F
:101B3000809120386CD880E00E946B02D093683886
:101B40008AEF90E0A9DFC15049F78D2F60D88AE96C
:101B500092E0DF91CF911F910F919ECFCF93DF93B2
:101B600064E6ECD5282F892F6AE0E8D5EC01222322
:101B700041F0822FC5DF8C2FC3DF8D2FDF91CF91F6
:101B8000BFCFC111F8CFF9CFCF93DF93D82FC3E0E8
:101B900080910A380E946B0288EC90E07DDFDD23A3
:101BA00019F080E991E078DF80E00E946B0288EC18
:101BB00090E072DFC15061F7DF91CF910895FF92FD
:101BC0000F931F93CF93DF93D82F8B01C09156387B
:101BD00081E080935838C33009F0EBC0F0905C3856
:101BE0008D2F5AD8FF2051F080915C38811106C0AA
:101BF00060E070E087E99BE04CD9DBC0D83021F48D
:101C000081E080930338D7C0D23C19F410925C383D
:101C1000E4C0D13BC1F490910238012B49F49636CF
:101C200010F08FEF03C0923018F481E080930338F6
:101C300080910338890F11F481E04CC1873608F494
:101C400049C186E647C1D13E31F480910338819580
:101C50008093033813C1D23B61F481E08093033851
:101C600080910238823008F411C18150809302388B
:101C70000DC1D13009F0B5C00932110511F4D0936E
:101C8000033890913738892F880F97FD809529E088
:101C9000829FC001112430913638232F220F37FD47
:101CA000209580910138289F90011124232F290F1E
:101CB00090913538892F880F97FD80959091003845
:101CC000899FC0011124822F890F6091023870E032
:101CD000680F711D80915C388130B9F4809159385A
:101CE00090915A3825E0969587952A95E1F724E753
:101CF00030E0A901481B590B469FC001479F900D3A
:101D0000569F900D1124B90125D5862F0E946B0294
:101D100000FD08C00E943A02817090913738890F07
:101D2000809337389091363880913438890F80937A
:101D300036380E943A0265E201D580913538980F15
:101D4000909335380E943A028F7331F40E943A0220
:101D50006DE0F4D490933438C0910138CC2339F03D
:101D60000E943A028F7319F4C150C09301380E9447
:101D70003A02811108C00E943A026EE0DFD49093CB
:101D8000013810923638C0910038C33038F00E94C4
:101D90003A028F7119F4C150C09300380E943A0280
:101DA0008F7709F0A3C00E943A02877080930038B1
:101DB0009DC0D83041F4809122388093563881E01C
:101DC0008093043889C0D13C31F460E070E087E949
:101DD0009BE05FD881C0D23C31F48C2F90E001961B
:101DE00017C0D13C91F3D33C71F4809168388F5F78
:101DF00081700E940706EC2FF0E0E45FF74C8091C1
:101E00006838878B56C0D43C59F48C2F90E00496E8
:101E100065E070E0B3D4809322388093563849C08F
:101E2000D13B51F5C23090F400FD56C0EC2FF0E0EC
:101E3000E45FF74C848D90910438891B883020F042
:101E40008F3F99F58EEF31C088E02FC0C43009F084
:101E500043C090912A3880910438890F823010F461
:101E600082E003C0893708F088E780932A388091A0
:101E70002A380E946B0230C0D13E31F48091043880
:101E800081958093043815C0D23B89F481E080931A
:101E90000438C23018F500FD1FC0EC2FF0E0E45FFD
:101EA000F74C848D8F3FC1F08F5F848F15C0D23E79
:101EB00019F40E94880410C0D53C41F460E070E041
:101EC00088E89FE00E94490780E0D3CFD13071F0CD
:101ED00081E018C08093023880E014C0C430E1F77C
:101EE00080912A38833018F28150BFCF0932110512
:101EF00019F481E08093043880916538080F0093CD
:101F00006538EACFDF91CF911F910F91FF9008952F
:101F10000F931F93CF93DF93D82F8B01883031F429
:101F200080915838882311F088E049DE8D2F807920
:101F3000803961F481E080935738C0915838C111DD
:101F40000CC080910A380E946B0224C0803839F49A
:101F50001092573880E00E946B02C0E01BC0D13065
:101F6000C1F4C0915738CC2359F080915838882358
:101F7000A1F3B80181E0DF91CF911F910F911FCEA6
:101F800080E00E944F020733114038F3D093693844
:101F900001C0C1E08C2FDF91CF911F910F91089567
:101FA000FF920F931F93CF93DF93D82F8B01F09065
:101FB0000A388079803951F5ED2FEF70E43020F048
:101FC00010925738C0E036C091E090935738F0E057
:101FD000E45FF74C84A12FEF280F263948F4809353
:101FE0000A381092583880911C38809368380CC099
:101FF000909358388739D0F090E08759910965E07F
:1020000070E0BCD380935638C0E00BC0803841F4F8
:102010001092573880E00E946B0281E08093623812
:10202000C1E080915738882329F001C0C0E0B80191
:102030008D2F6EDFF0920A38D83021F4B80188E095
:10204000B9DA28C0D13039F480915738811120C0D5
:10205000B80181E004C0D33041F4B80183E0DF91DE
:10206000CF911F910F91FF90A5CAD63C49F40E94D1
:10207000030460E070E087E99BE00E94490708C024
:10208000D73B41F460E070E088E69AE00E943107B7
:1020900080E001C08C2FDF91CF911F910F91FF90B5
:1020A00008951F920F920FB60F9211242F933F9312
:1020B0008F939F93AF93BF93EF93FF9381E08093B0
:1020C0000B0680919138882331F1E091903880910E
:1020D00010069091110624E0880F991F2A95E1F7C8
:1020E000F0E0EE0FFF1FDF01A457B74C8D939C93D8
:1020F000E857F74C208131812817390710F42F5FFA
:102100003F4F8217930710F4215031092083318308
:1021100081E08093923881E080939138FF91EF9134
:10212000BF91AF919F918F913F912F910F900FBED3
:102130000F901F9018951F920F920FB60F921124B7
:102140008F9381E08093530180936C388F910F902F
:102150000FBE0F901F9018951F920F920FB60F92FF
:1021600011248F931D9A81E080936B388F910F908B
:102170000FBE0F901F901895F89480914000877FB4
:102180008093400088EDA89584BF90910001907FD6
:102190009093000121E030E084BF2093610083E24E
:1021A00084B988E080931004809311048093120412
:1021B000809313048093140499E090931504809302
:1021C0001604809317048093320480933304809321
:1021D000340480935004809351048093520480937C
:1021E000530487E38093010A91E09093000A2FEF54
:1021F00030E02093360A3093370A809112048160D0
:102200008093120490935201809151018111FCCF6F
:1022100081E4809350010E941902789481E00E9429
:10222000040260E070E089E697E00E9431071092B6
:1022300062380E9403040E943102811114C08CE0B4
:1022400098E38093633890936438F89480E090E04A
:10225000D9D2853A09F044C00091633810916438AE
:10226000C1E0D0E034C0C0E08C2F0E946B0283E15B
:1022700090E012DC8C2F86950E946B0283E190E047
:102280000BDC0E9431028823B9F0CF5FC03461F7C4
:102290006091843880912E38681B81E00E9421046F
:1022A0000E948804C6E98C2F0E946B0284E090E0B3
:1022B000F3DBC150C1F7C3CFCC2309F4C0CF8C2FBF
:1022C0000E946B028DE090E0E7DBC150F5CFCE01BC
:1022D00099D2F80181938F012196C932D105B9F7BE
:1022E000789480911A3881110E94EA0360E070E0CE
:1022F00082EA9AE00E94310761E070E087E99BE0A2
:102300000E943107552453942224239447E0342E0D
:10231000CC24C394D12C65E0462E7CEF672E73E06D
:10232000772EE8EE8E2EE3E09E2EF7E9AF2EFBE04F
:10233000BF2E0E94BF0180916F3890917038009736
:1023400051F060916D3870916E380E94490710927B
:102350006F381092703880916938882309F466C00C
:1023600080E00E946B0250925201809151018111D4
:10237000FCCFF9E5F0935001809100068E7F8093A9
:1023800000060E9431028111FCCF0E94FA01809167
:1023900012048160809312041092923810926C386B
:1023A00010926B3880916938882369F18091933855
:1023B000882329F080915000897F826004C0809139
:1023C0005000897F8460809350008091500081602C
:1023D000809350008895809150008E7F80935000AC
:1023E00080916B38811110926938809192388823DE
:1023F00021F0209287380E94AA0480916C388823AB
:1024000089F29FDACFCF22E020930B38809112041B
:10241000887F809312040E94190250925201809189
:1024200051018111FCCF31E4309350012BDB10922C
:1024300062388091823890918338E4E08B319E0736
:1024400019F5CCE7D0E0FE0184918053803110F47F
:1024500057DB11C010E0812F81708295880F807E3C
:102460000E946B0280E190E017DB1F5F193199F742
:102470008AE992E011DB8CE291E00EDB2196F0E03C
:10248000CD38DF0701F7D7C02DE08F3D920799F0D7
:102490003FE08838930729F0EFE0803D9E0709F080
:1024A000B2C020915838213009F0ADC02091573882
:1024B000222309F4A8C0C0915638EC2FF0E0E45F65
:1024C000F74C878980936838C230F1F020F0C4302F
:1024D00009F47CC02ECFD48D86E90E946B02C11115
:1024E00009C0DA3220F4C3010197F1F707C081E097
:1024F00090E003C08D2F869590E0CEDA80E00E94B8
:102500006B028D2F90E007C10E943A028F73E82E74
:10251000F12C0E943A02632D11D1E60102C0CC0FCA
:10252000DD1F9A95E2F70E943A02642D07D19601C9
:1025300002C0220F331F9A95E2F7C20FD31F0E94E9
:102540003A0290E0BE011AD1C80FD91FC739D10590
:1025500014F0C6E9D0E08C2F0E946B02C7019CDA10
:102560008E0133E0159507953A95E1F7011101C009
:1025700001E010E0C70190DAC01BD10BD7FF02C009
:10258000C0E0D0E08C2F0E946B020E943A02837060
:1025900039F4C70181DACE01959587950E946B02C7
:1025A000C230D1053CF70E943A026DE0C7D0E60187
:1025B00002C0CC0FDD1F9A95E2F70E943A0290E02C
:1025C000BE01C8D0C80FD91F80E0A2C0C0912A3870
:1025D000CC0FC73908F0C6E9D4E08C2F0E946B02FB
:1025E00085E090E059DA80912A380E946B0281E4FC
:1025F00090E052DAD15089F780ED92E04DDA80E038
:102600000E946B0296CE3AE086379307E9F488EE93
:1026100093E042DA80918638869586959FDA90918C
:1026200086389370892F880F9695890F97DA809155
:102630001738882381F0A0926F38B09270381092CA
:102640006D3810926E3875CEE7E0883B9E0731F406
:102650008091843883DA88EE93E05DC0F7E08F38AC
:102660009F07C1F480916A38811163CE80910A3846
:102670000E946B0284E690E00FDA80E00E946B0219
:1026800020912B38289DC001299D900D112484563E
:10269000910941C08755974049F480E075DA81E09F
:1026A00073DA80E071DA80ED97E035C080912138EF
:1026B000882399F180915338882379F120916738E4
:1026C00090915438291306C0822F0E946B021092F9
:1026D00053382FCE60915238291760F4892F821B0E
:1026E0002DD0811101C081E0820F0E946B028AE02F
:1026F00090E011C03EE1639FA00111246091553824
:10270000691B70E0CA013AD0EB0121968FEF820F6E
:102710000E946B02CE01C0D90CCE80915000897FFF
:102720008093500080915000816080935000889584
:10273000809150008E7F80935000FBCD991B79E0F3
:1027400004C0991F961708F0961B881F7A95C9F741
:1027500080950895AA1BBB1B51E107C0AA1FBB1F90
:10276000A617B70710F0A61BB70B881F991F5A951D
:10277000A9F780959095BC01CD01089597FB072E90
:1027800016F4009406D077FD08D0E4DF07FC05D0EE
:102790003EF4909581959F4F0895709561957F4F78
:1027A0000895A1E21A2EAA1BBB1BFD010DC0AA1F92
:1027B000BB1FEE1FFF1FA217B307E407F50720F0AA
:1027C000A21BB30BE40BF50B661F771F881F991F25
:1027D0001A9469F760957095809590959B01AC016E
:1027E000BD01CF010895A29FB001B39FC001A39F77
:1027F000700D811D1124911DB29F700D811D11243A
:10280000911D089503D0808199270895FC01E0501F
:10281000FC4E0895262FFADF0080021611F004D036
:10282000019701970895262FAF93BF93E0E0F0E161
:10283000328131FDFDCFDC01A050BC4E2C933DE92F
:1028400034BF23E020830196BF91AF910895F8949F
:02285000FFCFB8
:102852000E38113814380001020100000000000097
:0E286200010000000000A702D0026602690219
:10287000080E180101010004960132020001011442
:10288000019682960107050100000000000100008A
:102890000101030000000000294332020732000D4D
:0428A00000781E9806
:00000001FF
