:1000000070C100008BC1000089C100000C949911DF
:1000100085C100000C948A1181C100007FC10000DD
:100020007DC100007BC1000079C1000077C10000E4
:1000300075C1000073C100000C944C116FC1000029
:100040006DC100006BC1000069C1000067C1000004
:1000500065C1000063C1000061C100005FC1000014
:100060005DC100005BC1000059C1000057C1000024
:10007000303235322E323032332D31322D30332B77
:1000800038000001050414101115FF3FFF3FE62D55
:100090006239DF2397302F3583363536F8342533F0
:1000A000F130EB33E130D431E131752EE32D352FD2
:1000B000CD2D412C342C632AD92916292A28202712
:1000C0000126D42452240B235A220B2141206B1FDA
:1000D000231E491D6B1C8C1B611A8A1974186A1720
:1000E000A6167D1597148E139612AD11AC10BE0F87
:1000F000BF0EB40DBF0CC20BC00AD509D008CE0785
:10010000E306E805E104E203ED02F101FF00FF0070
:10011000FF00FF00FF00FF00FF00FF00FF00FF00E7
:10012000FF00FF00FF00FF00FF00FF00FF00FF00D7
:10013000FF00FF00FF00FF00FF00FF00FF00FF00C7
:10014000FF00FF00FF00FF00FF00FF00FF00FF00B7
:10015000FF00FF00FF00FF00FF00FF00FF00FF00A7
:10016000FF00FF00FF00FF00FF00FF00FF00FF0097
:10017000FF00FF00FF00FF00FF00FF00FF00FF0087
:10018000FF00FF00FF00FF00FF00FF00FF00FF0077
:10019000FF00FF00FF00FF00FF00FF00FF00FF0067
:1001A000FF00FF00FF00FF00FF00FF00FF00FF0057
:1001B000FF00FF00FF000000000000000000000042
:1001C000000000000000000000000000000000002F
:1001D000000000000000000000000000000000001F
:1001E000000000000000000000000000000000000F
:1001F00000000000000000000000000000000000FF
:1002000000000000000000000000000000000000EE
:1002100000000000000000000000000000000000DE
:1002200000000000000000000000000000000000CE
:10023000000000000000000009141E29343F4B5745
:1002400063707D8A97A5B3C2D0E0EFFF0001010281
:1002500002030405060708090B0C0E1011131618EB
:100260001A1D1F2225282B2E3135383C3F43474A83
:100270004E5256595D606367696C6E707273747428
:100280007372706D6A655F5951473C3022131415C3
:100290001617181A1B1C1E1F2022242527292B2D58
:1002A0002F313335383A3D3F4245484B4E51545833
:1002B0005B5F63676B6F73777C81858A8F959A9F8D
:1002C000A5ABB1B7BDC4CBD2D9E0E7EFF7FFFFFFD5
:1002D000FFFFFFFFFFFFFFFFFFFFFFFFFFFFFFFF2E
:1002E000FF0011241FBECFEFD4E0DEBFCDBF11E071
:1002F000A0E0B1E0E2E5F9E202C005900D92A43879
:10030000B107D9F722E0A4E8B1E001C01D92A931FC
:10031000B207E1F70E94A8110C94A71471CEF894CB
:1003200098ED9FBD83BF78940895482F9B01E6EE1A
:10033000F1E080E090E05081552331F00196339652
:1003400080319105C1F70AC063E070E00E94491452
:10035000FC01EA51FE4F40833283218308950F93BD
:100360001F93CF93DF93D091E601DD2351F10091EC
:10037000E7011091E801C091C301C150C7FD0DC054
:10038000EC2FEE0FFF0BEC53FE4F0190F081E02DB0
:10039000B8018D2F09958111F0CFE6EEF1E0838150
:1003A00080838481958192838183339682E0E331D7
:1003B000F807A9F710921302109215021092140276
:1003C000D2CFDF91CF911F910F910895BC01809101
:1003D0001802ABCF10921802109217021092160258
:1003E00081E08093B30108950F931F93CF93C82F9B
:1003F00008EA17E0CC2349F082E091DFC8010197B9
:10040000F1F780E08CDFC150F5CFCF911F910F91B4
:10041000089586E884B9E1E6F0E080818260808317
:1004200088E082B91092E2011092E3018FEE83B965
:1004300008958BB182FB882780F991E0892780930A
:10044000BC010895E0910601F09107013196FB701F
:10045000F460F0930701E09306018091B6018B5A96
:100460008093B601E4918091B6018E0F08950F93A9
:100470001F93CF93DF9300D01F92CDB7DEB72091AB
:100480003601309137014091380129833A834B83FB
:10049000FE01319640E050E090E061E070E0B19103
:1004A0009A01220F331F8C0102C0159507952A95DA
:1004B000E2F79801237061F02130D1F4A0B39B01E1
:1004C00001C0220FBA95EAF7322F30953A2318C0AF
:1004D000A0B39B0101C0220FBA95EAF720953A2FED
:1004E000322330BB32B3322332BB31B323230EC0AD
:1004F000A0B39B0101C0220FBA95EAF73A2F322B25
:1005000030BB32B3322B32BB31B3232B21BB4F5F15
:100510005F4F4330510519F60F900F900F90DF9108
:10052000CF911F910F910895811182E0A0CF811189
:100530008AE09DCF811188E09ACF811188E297CF20
:10054000811180E294CF811182E291CF81118AE200
:100550008ECF81E00895689A90E0FC01E45BFD4F46
:10056000E4914E2F50E0FC01EA54FE4FE4912E2F0F
:1005700030E0FC01EE0FFF1FE657FF4F65917491CD
:1005800050936D0040936C0030936B0020936A0091
:100590008091B9019B0120523109882339F04091A3
:1005A0006E0050916F0024173507B8F370936900FF
:1005B00060936800811104C010926F0010926E0069
:1005C000089590E0FC01E45BFD4FE4912E2F30E0B4
:1005D000FC01EA54FE4FE491F0E080916C009091B0
:1005E0006D00892B19F42F3F310551F080916C007B
:1005F00090916D008F3F910541F42115310529F44B
:1006000030936D0020936C001DC080916C00909120
:100610006D008217930730F480916C0090916D000B
:1006200001960CC080916C0090916D0028173907DD
:1006300048F480916C0090916D00019790936D004B
:1006400080936C0080916A0090916B008E179F07D9
:1006500030F480916A0090916B0001960CC08091FB
:100660006A0090916B00E817F90748F480916A00DE
:1006700090916B00019790936B0080936A0080913A
:100680006C0090916D002817390741F420916A00A1
:1006900030916B0081E0E217F30709F080E00895E4
:1006A000CF93DF9300D000D000D0CDB7DEB79091CC
:1006B0000C012091D4013091D5012C503B4009F41C
:1006C00092E0843019F46093180121C06623F9F098
:1006D000823019F427E9261B622F26E0E9E3F1E0D6
:1006E000DE01119601900D922A95E1F7E82FF0E0D6
:1006F0003197EE0FFF1F21E030E02C0F3D1FE20F7E
:10070000F31F0190F081E02DE90FF11D6083269623
:100710000FB6F894DEBF0FBECDBFDF91CF91089525
:10072000BF92CF92DF92EF92FF920F931F93CF93DE
:10073000DF93EC0140910C0190911701992311F086
:10074000E2E001C0E42FF0E0E45FFE4F228120935D
:100750000901858180930801E92FF0E0E45FFE4FF5
:100760003185622F70E0442349F0313039F49B0128
:10077000280F311DC9019595879538C0C617D70731
:10078000A4F1682F70E06C177D0784F1411102C05D
:100790008C2F2CC0821B032F10E001501109E82E72
:1007A000F12CC701B8010E947A146093AF016695DD
:1007B000E62FF0E0822FC12CD12CB12CB316B1F072
:1007C000C601B8010E946614822F860FCE0CDF1C72
:1007D000AE01481B510957FF03C05195419551097E
:1007E000E417F5071CF4B394E9CF822FDF91CF9182
:1007F0001F910F91FF90EF90DF90CF90BF900895E1
:10080000ECE0F1E0868580930A018389808B8093F8
:10081000BA0108958091AD01882351F09091B901FA
:100820009093AE018093AC011092AB011092AA019B
:1008300008952091D80180E0E82FF0E0EE5AFE4FB5
:100840009081291710F08E5FF7CF3197E081F0E0AB
:10085000EE57FF4F849108950F931F93CF9390917C
:10086000D8019150933710F480E08DC0C82FE82F45
:10087000EF708091B201811124C0C295CF70809138
:10088000310190E043E0880F991F4A95E1F768171E
:100890007907C0F42091B101422F50E04817590761
:1008A0008CF4222379F091E08091B8018F3008F424
:1008B00090E081E0C23009F080E0C92FC82BCF5F03
:1008C00036C0C2E0E73088F1E730A9F40091890131
:1008D00010E00F5F1F4FB6DD65E00E945A149801CB
:1008E000290F311DC90166E070E00E947A148093DF
:1008F0008901FC012DC0E830D1F48091BB0188232F
:1009000011F08FE001C083E090E068237923672B2A
:1009100051F48091890190E0019666E070E00E94B8
:100920007A1480938901E0918901F0E011C08091EF
:10093000BB01882319F07DDFE82F0DC0CB01969510
:10094000879563E070E00E946614FC01EE0FFF1FC4
:10095000ED57FF4FE491C33071F48091880190E02E
:10096000019663E170E00E94661480938801DC01C7
:10097000A15CBE4FCC91CC2321F0C13019F0EE0F19
:1009800001C0E0E08E2FCF911F910F9170CDCF93DA
:10099000C82F8091BB018091BB0181110BC0CC237A
:1009A00031F047DFCB3008F0880F61DD13C080E005
:1009B0005EDD02C0C1110EC010926D0010926C007D
:1009C00010926B0010926A0010926F0010926E00ED
:1009D00068980FC0E091BA01F0E0EE0FFF1FEE0F34
:1009E000FF1FEC59FE4F0190F081E02D8FEF8C0F2F
:1009F00009958091B901C8138093B801C093B901DA
:100A0000C093B701C43010F482E005C0CC3010F4BC
:100A100081E001C080E0CF9182CCCF93C091B90139
:100A200089E18C0F873908F080E0B1DF82E0DCDCFF
:100A30008C2FCF91ACCFCF93C091B90180E0A7DFCD
:100A400083E0D2DC8C2FCF91A2CF81E00895823059
:100A500019F4609331010895611160932C01089598
:100A6000662389F0813061F48091D60190912E0146
:100A7000891B681B60932E0182E080930B0103C0E9
:100A8000635E60932D0180912D01873418F086E418
:100A900080932D010895609332010895E82FF0E0CE
:100AA000E45FFE4F66A308957FEF780F40911D012C
:100AB00050911E01662359F021E030E002C0220F60
:100AC000331F7A95E2F7CA01822B932B0AC081E08B
:100AD00090E002C0880F991F7A95E2F780958423F1
:100AE000952390931E0180931D0108958093B0017A
:100AF0009091B901981718F4282F291B02C0292FAB
:100B0000281B3091A401311106C0309121013323FB
:100B100069F0223058F08093A50184E08093A3010E
:100B200081E08093A4019093A601089530CFCF93E4
:100B3000DF938CE091E09093B5018093B401F89439
:100B4000C0E0D0E0E091B401F091B501EC0FFD1FE1
:100B500060812196CE010E949514CA32D10591F789
:100B600065EA80E090E00E9495147894DF91CF913F
:100B700008951092E40180B191B12091B60182955F
:100B8000869586958370990F990F890F820F8093B0
:100B9000B6018091D901882309F41AC11092D901B4
:100BA0008091E2019091BB01992329F01F98109246
:100BB000E5011092E201811151C080910B0188235F
:100BC00029F08091DE019091DF011AC08091BB0174
:100BD0002091DA013091DB018823B9F08091DE01A8
:100BE0009091DF0143E0969587954A95E1F7820F52
:100BF000931F53E0369527955A95E1F7821B930B87
:100C00009093DB018093DA0101C0C90120912C018E
:100C10002750220F60E671E00E946614260F209391
:100C2000D8018091A101882311F0815007C0243799
:100C300038F460E070E084E078DB85E08093A10127
:100C40008091BB018111BBC08EE884B981E08093A3
:100C5000E2011092E3018FEE83B9B1C0813009F057
:100C6000AEC080910B01882341F08091E00190910A
:100C7000E1019093DD018093DC018091DC01909192
:100C8000DD0160912E019C01A6E036952795AA957D
:100C9000E1F7062E000C770B260F371F2E50314040
:100CA0003093D7012093D601B5E096958795BA95F4
:100CB000E1F720910B01211128C020919001E22F32
:100CC000F0E0EE0FFF1FEF56FE4F40815181DC0137
:100CD000A41BB50BAD01918380832F5F27702093F8
:100CE00090019D01220F331F220F331F820F931F8C
:100CF00020912D0130E0261B370B225F3E4F220F43
:100D0000331F821B930B23E00EC0E1E9F1E08193D6
:100D10009193B1E0E13AFB07D1F7CFCF009709F00B
:100D20000196215029F018161906C4F70197F9CF3A
:100D300018161906E4F457FD39C020918F011216D8
:100D40000CF1880F991FBC016350710977FF02C035
:100D50006F5F7F4F759567951616170614F061E063
:100D600070E088E1861B80938F0185E026C08C3F70
:100D70002FEF9207DCF457FF19C020918F0127FF56
:100D800005C02450281B20938F0118C024EE281B77
:100D900020938F012091D801263780F06CEF7FEFF0
:100DA000681B790B7595679586E007C08091D8011F
:100DB000853720F060E070E087E0B7DA2ADB8091C9
:100DC0000B01882329F080910B01815080930B0146
:100DD0000895813019F410921A010895823019F49F
:100DE00060931B010895833019F4609319010895ED
:100DF000843019F460930D010895853011F46093E7
:100E000021010895CF93DF939091BA01981759F07B
:100E1000C82FD091B90180E0BADDC093BA018D2FFF
:100E2000DF91CF91B4CDDF91CF910895883039F41F
:100E30001092AD011092AB011092AA0145C0813B06
:100E400081F48091AD018150833008F03FC083E090
:100E50008093AD018093AC011092AB011092AA0176
:100E600035C0853BB1F4CB016EE370E00E9466149F
:100E7000892B51F58091AD018A3F30F58B5F8093CE
:100E8000AD018093AC011092AB011092AA01C5DDB7
:100E90001BC08130D9F48091AA019091AB010196D9
:100EA00088382EE0920728F49093AB018093AA0132
:100EB0000BC01092AB011092AA018091AD01882362
:100EC00019F081508093AD0180E0089581E008958C
:100ED000FF920F931F93CF93DF938C01EB01F42EBE
:100EE0008091D4019091D501892B31F0E091D4010A
:100EF000F091D50189E009951093D5010093D401B3
:100F0000012B39F0E091D401F091D501BE018F2D74
:100F1000099581E08093B301DF91CF911F910F91EB
:100F2000FF900895CF93DF93E091C301EE2359F032
:100F3000E150E093C301F0E0EE0FFF1FEC53FE4FD2
:100F4000C081D18102C0C0E0D0E0E091C301EE23B6
:100F500041F0F0E0EE0FFF1FEE53FE4F80819181D4
:100F600002C080E090E04AE060E070E0B1DFCE01D6
:100F7000DF91CF910895883029F41092A201109248
:100F80008A0115C0813001F590918A01911107C045
:100F90006032710570F180938A011CDA2AC09130A9
:100FA00089F46B3B710528F082E080938A0180E030
:100FB0001FC061157105E9F06270862F880F880FD8
:100FC0008E5E16C0AFDF15C0813811F0813E89F406
:100FD00091E090938A01813E21F48091A201865F85
:100FE00003C08091A2018F5F8093A201F3D98BE4AB
:100FF000CEDC80E008959C019091C301983088F484
:10100000E92FF0E0EE0FFF1FEC53FE4F31832083FA
:101010009F5F9093C30148E0C9015ADF8091C301EB
:1010200008958FEF08950F931F93CF93DF93EC01F3
:101030008B0178DFB801CE01DF91CF911F910F9125
:10104000DACF813C29F460E070E08FE69CE006C0D6
:10105000823C39F460E070E088E29BE0E4DF80E00D
:10106000089581E00895843011F58091D401909124
:10107000D5012EE0803E920729F469E170E08CE909
:1010800098E013C08C59984061F49091B901923066
:1010900040F0892F869596959695890F27DD80E0FB
:1010A000089560E070E08FE69CE0BDDFF8CF81E05E
:1010B0000895813C29F460E070E08FE69CE006C072
:1010C000823C31F460E070E081E298E0ACDF16C071
:1010D000813B49F4CB016EE370E00E946614892BDA
:1010E00069F49BDC0BC0813E59F4CB016EE370E0E8
:1010F0000E9466146F5F60932B0119DD80E00895F4
:1011000081E00895813C29F460E070E08FE69CE086
:1011100006C0823C31F460E070E089E598E083DF4E
:1011200007C0873B39F460E070E088E19BE063DF53
:1011300080E0089581E00895BF92CF92DF92EF9210
:10114000FF920F931F93CF93DF93182FEB018091A2
:101150001C018093BA01D0900901F09008018091A0
:101160000C01882319F0B090AF0102C0BB24B394E6
:10117000C0900D01809117018111C0901801CC2001
:1011800051F081E0C81621F080910A018F1518F006
:10119000F6E9EF2E01C0EF2C0091AD01BE01812FC9
:1011A00045DE8091AD01882339F001110CC090918A
:1011B000B9019093AE0107C0002329F060E070E010
:1011C0008FE69CE036C0912F9D7F9830D9F4109225
:1011D000A9011A3019F4C0910A01D0E08D2D90E0D8
:1011E0008C179D0738F48F2D90E0C817D90710F49D
:1011F000C0930A01CE0194DA79DC81E08093050185
:1012000000E0B6C1113CD1F2123C59F48091B90111
:101210008E1510F48E2D02C080910A0167DCFADA77
:10122000EFCF143C41F480E0B2DB60E070E08BE88B
:101230009BE0F9DEE5CF9FE4910F923008F05CC0AF
:1012400080910C01882341F0CE0168E170E00E949A
:101250006614892B31F0D4CF6091140170E0CE0177
:10126000F6CF0091A4010111CBCF2091B9012097B5
:1012700061F4123B11F48FEF05C02F15E0F7D21681
:1012800008F181E0809305011DC0E0911401F0E0B8
:10129000CF0166E371E00E9449148C179D0710F49A
:1012A0002F1548F7CF016CE672E00E9449148C17A5
:1012B0009D0740F4D21630F0B0DB60E070E08BE8C0
:1012C0009BE0B1DEC091B901809105016B2D70E00A
:1012D000082E000C990B0E9449148C0F911D20DAE6
:1012E00080930A01C81719F0F81201C0A4DB80919D
:1012F0000A01FCDB8FDA3CC19FE1910F923020F4B0
:101300008091050181957ACF113009F086C0A997A7
:1013100011F410930501882379F10091AE0110E0DA
:1013200090E0B8010E944914EC01E091AC01F0E0BA
:10133000BF010E947A14262FCE01801B910BBF01A2
:101340000E947A14322F361B8091AA019091AB0132
:101350006EE370E00E946614832F90E00E944914AF
:101360006CE370E00E946614261B622F09F461E0B2
:101370006093B7016093B001C091B7012091B901AA
:101380008C2F90E0821B910960918C0170918D01EE
:101390006F5F7F4F70938D0160938C01009709F40C
:1013A0002FCF97FF05C0233830F040E450E005C050
:1013B00040E052E002C040E051E05695479597FD6D
:1013C0000196959587950097C1F74617570708F03E
:1013D00017CFC21710F4CFEF03C02C1710F4C1E0E1
:1013E000C20FE091BA01F0E0EE0FFF1FEE0FFF1FFA
:1013F000EC59FE4F0280F381E02D8FEF8C0F0995A1
:10140000882331F0D091B7018C2FC1DAD093B70186
:1014100010928D0110928C01F3CE1530A1F48091C1
:10142000B901833408F4ECCE90E08C1B9D0B823420
:10143000910534F08739910564F186E990E029C07F
:1014400082E490E026C01630B1F49091B901809109
:10145000B001981708F0D4CEC90FD11D90E08C17B9
:101460009D0734F0C234D10524F4C2E4D0E001C0B9
:10147000EC018C2F0EC0173079F49091B701809158
:10148000B901891710F48F5F04C0981708F0B8CE1F
:1014900081508093B701B4CE133C19F0163C41F54E
:1014A00017C060911D0170911E0180E090E020E066
:1014B000AB01082E02C0569547950A94E2F7417099
:1014C000240F01968830910599F7223008F04FC01B
:1014D00081E090910C01911180E080930C0127DB59
:1014E000AADA8091B90190E01BD980930A0196CEC7
:1014F0000091170101113BC0133B49F4CD2B09F0BA
:101500007FCECC2011F086E9E82E8E2D04C0133E4C
:1015100021F480910A01EADA2BC0153C61F4809134
:10152000B90180930A0180E032DA60E070E083E87C
:1015300090E179DD1DC0173B29F460E070E088E0A0
:101540009BE013C01A3C59F48091B90180931A01B1
:101550008091BA0180931F01EADA5FDA09C01A3B71
:1015600031F460E070E080E19BE045DD01C001E026
:10157000802FDF91CF911F910F91FF90EF90DF901F
:10158000CF90BF900895883071F410928B0180E065
:10159000FED98091BC01811139C080918B018F5F90
:1015A00080938B0123C0982F907F903BB9F42091BA
:1015B0008B01421780F0CB016DE570E00E9466144C
:1015C000069739F42F5F20938B014217F8F088E3D8
:1015D00003C082E101C080E0DAD918C0903E61F416
:1015E00080918B01882389F0481778F060E070E0E3
:1015F0008BEB97E000DD0AC08A3041F46091A201D4
:1016000080918B01F901099592DA8CDC80E00895D4
:1016100020E533E043E0B7CF20E533E044E0B3CF4B
:1016200029EE36E045E0AFCF27E235E042E0ABCF30
:1016300020E335E042E0A7CF2BE435E041E0A3CF43
:101640002EE435E043E09FCF24E535E048E09BCF32
:10165000CF93C0911701C11123C0813C29F460E0F0
:1016600070E08FE69CE006C0823C31F460E070E000
:1016700082E898E0D8DC15C0833C51F480912001C9
:1016800090E00196877099278093200150DA09C075
:10169000873B31F460E070E084E19BE0ACDC01C0AA
:1016A000C1E08C2FCF910895CF93833C21F54091D9
:1016B000BA0160911D0170911E01842F98E0282FBE
:1016C00030E02F5F3F4F27703327822FFB0102C08E
:1016D000F695E7952A95E2F7E0FF0AC04817B9F0BA
:1016E00091DB8091BA0180931C0121DAC0E010C027
:1016F000915029F7F3CFC0911701C11108C0893B60
:1017000031F460E070E084E29BE075DC01C0C1E090
:101710008C2FCF9108950F931F93CF93DF93C82FF2
:101720008B01873BC9F480E032D981E08093B2011C
:10173000C8018F739927892B09F09EC090913001C1
:10174000892F8F708F5F292F207F6BE00E945A14A2
:10175000922B9093300190C080798039B1F4209120
:101760000E0190910F018C2F8F70813021F4822F08
:10177000921748F407C080911A01811104C0822F8A
:10178000291708F4892F03D90EC0803811F480E09E
:10179000FED8C83041F41092B10160E070E0809151
:1017A00030015AD875C0C13039F40931110508F437
:1017B0007BC0C093BB0160C0C330C9F48091B1014C
:1017C0008F3F19F08F5F8093B10180911A018823B8
:1017D00009F452C080911B0190E062EC71E00E941C
:1017E00049140817190708F447C00AD845C0C33C74
:1017F00031F413D960E070E08FE69CE014C0C43C83
:1018000021F460910A0170E00CC0C43B31F413D99B
:101810001092180261E070E004C0C53C31F466E942
:1018200070E08CE998E0FFDB3FC0C33B79F4C8016E
:101830006EE370E00E946614892B51F560E070E061
:1018400083ECDF91CF911F910F912ECFC73CD1F444
:1018500090913001892F82958F708F5F8370829570
:10186000807F9F70892B8093300160E070E00E9440
:101870002C045DD9D2D818C0B801809130010E94E3
:101880002C0412C0C73E21F41092B20150D90CC0F2
:10189000D0911701D1110AC0CA3B41F460E070E059
:1018A0008CE19BE0A8DB03C0D0E001C0D1E08D2F2C
:1018B000DF91CF911F910F9108959091210199236C
:1018C00069F08093A50188E08093A30181E0809373
:1018D000A4018091B9018093A601089558C8CF93BF
:1018E000DF93EB018830A1F480E0E7DF8091A40171
:1018F000C82B1092B10180911C018093BA01109203
:10190000AD01CD2B09F058C081E08093BB0154C0DC
:10191000813059F46931710508F44EC0C091A401B9
:10192000C1114AC08093BB0107C1833039F5809152
:10193000B1018F3F19F08F5F8093B10180911A013F
:10194000882359F080911B0190E062EC71E0A1D7EF
:10195000C817D90710F00E940004BE0180912F0122
:101960000E942C0480913201882331F190E062ECD6
:1019700071E08FD78C179D07F8F453C0813B91F429
:1019800081E090E00E94900398DF8091190181111D
:1019900013C080910C01811102C0689768F061E06A
:1019A00070E02AC0813ED9F3813841F480910A0168
:1019B00090E00E94900381DFC0E0BEC0813C21F432
:1019C00060910A0170E018C0823B81F41092B1016D
:1019D00080910D0190911701911180911801811151
:1019E00003C086E990E0E5CF86E9E5CF823E59F075
:1019F000823C29F466E970E08CE998E00CC08339F8
:101A000021F41092A40180E0D6CF833C31F460E051
:101A100070E088E29BE007DBCFCF843C39F40E9482
:101A20000D0560E070E08BE89BE0F5CF8D3B41F465
:101A3000F89488ED8FBD88E880BF7894A895FFCF93
:101A40008F3C29F460E070E085E295E0E4CF8A3BCA
:101A500091F4CD2B09F04FC0C0911701CC2329F090
:101A60000E940D051092170144C060E070E08CE008
:101A70009BE0C1DA61C0833B29F460E070E080EE56
:101A80009EE0C9CF873CA9F490912F01892F8295C0
:101A90008F708F5F83708295807F9F70892B80937A
:101AA0002F0160E070E00E942C0441D80E940D05D7
:101AB00083CF873BD1F481E08093B201CB018F7358
:101AC0009927892B61F490912F01892F8F708F5F57
:101AD000292F207F6BE0EED6922B90932F01BE0131
:101AE00080912F010E942C0467CF873E21F4109231
:101AF000B2011DD861CFC0911701C1111CC08A3C31
:101B000039F40E940D0581E08093170110D814C0AC
:101B1000853C39F40E940D0560E070E083E890E1B7
:101B200008C0863C41F40E940D0560E070E08BEC3B
:101B300090E179DA01C0C1E08C2FDF91CF91089557
:101B40000F931F93CF931092BE0180911602909134
:101B500017029C012F5F3F4F88279078822B932B91
:101B60009093170280931602C091BC010E94190243
:101B7000C81731F11092BB018093BC0190911802FB
:101B8000882359F0892F80699F709F3009F08F5FFB
:101B90008093180280E090E00DC0892F8F7E95FD24
:101BA00002C0806801C0806C809318028091160288
:101BB000909117020E94E6011092170210921602ED
:101BC00000911602109117028091BB018823B1F099
:101BD000B80183E00E9495010E94AF010134110514
:101BE00028F00F701127012B09F049C010928E01C7
:101BF00081E08093E5010E94090232C0C091180281
:101C00008C2F807F803B19F460E070E001C0B80148
:101C100081E00E949501C4FF13C0C5FF02C0C80146
:101C20000CC008311105E0F0109217021092160254
:101C3000C062C093180280E090E00E94E60110C0EC
:101C4000CC2371F0C5FD0AC00231110548F0C06413
:101C5000C093180280E090E00E94E6010E94EA0131
:101C600080918E01811105C08FEE83B981E0809350
:101C7000D90180918E018F5F8F7180938E01CF91FA
:101C80001F910F9108958091E40181110E94B9057F
:101C90008091BE01811154CF0895EF92FF920F936E
:101CA0001F93CF93DF93EC0100E317E08CECE82E59
:101CB000FF24F3942097D9F08091B301811119C0CA
:101CC0008091B901843028F482E00E948F01C7011D
:101CD00004C080E00E948F01C8010197F1F780E005
:101CE0000E948F01D0DF0E94AF012197E3CF81E0F6
:101CF00001C080E0DF91CF911F910F91FF90EF9095
:101D000008950F931F93CF93DF93C82F882311F06B
:101D100006EA02C00AE0C1E0D091BA0110E0809169
:101D2000200170D889E10E94C704D093BA01C8018C
:101D3000B4DF8091200166D880E00E94C704D09370
:101D4000BA018AEF90E0A9DFC15049F78D2F5AD828
:101D50008AE992E0DF91CF911F910F919ECFCF93AF
:101D6000DF9364E6A7D5282F892F6AE0A3D5EC017D
:101D7000222341F0822FC5DF8C2FC3DF8D2FDF910F
:101D8000CF91BFCFC111F8CFF9CFCF93DF93D82F29
:101D9000C3E080910A010E94C70488EC90E07DDFD7
:101DA000DD2319F080E991E078DF80E00E94C7042C
:101DB00088EC90E072DFC15061F7DF91CF91089518
:101DC000FF920F931F93CF93DF93D82F8B01C09176
:101DD000A70181E08093A901C33009F0E5C0F0902C
:101DE000AD018D2F23D8FF2051F08091AD018111DD
:101DF00006C060E070E08FE69CE015D9D5C0D83011
:101E000021F481E080930301D1C0D23C19F41092F7
:101E1000AD01DEC0D13BC1F490910201012B49F428
:101E2000963610F08FEF03C0923018F481E0809363
:101E3000030180910301890F11F481E046C18736C7
:101E400008F443C186E641C1D13E31F480910301DB
:101E50008195809303010DC1D23B61F481E08093B1
:101E6000030180910201823008F40BC181508093FC
:101E7000020107C1D13009F0AFC00932110511F4D8
:101E8000D093030190918701892F880F97FD80954A
:101E900090E069E070E0FDD4292F80918601682FE1
:101EA000660F87FD60958091010170E090E0F1D4AC
:101EB000290F80918501682F660F87FD60958091BD
:101EC000000170E090E0E5D4920F6091020170E0B3
:101ED000690F711D8091AD01813091F48091AA014B
:101EE0009091AB0125E0969587952A95E1F724E737
:101EF00030E0A901481B590BCA01CBD4B901E6D483
:101F0000862F0E94C70400FD08C00E942202817033
:101F100090918701890F809387019091860180912C
:101F20008401890F809386010E94220265E2C2D457
:101F300080918501980F909385010E9422028F73F2
:101F400031F40E9422026DE0B5D490938401C091D7
:101F50000101CC2339F00E9422028F7319F4C15081
:101F6000C09301010E942202811108C00E94220236
:101F70006EE0A0D49093010110928601C0910001FF
:101F8000C33038F00E9422028F7119F4C150C093FF
:101F900000010E9422028F7709F0A3C00E94220252
:101FA0008770809300019DC0D83041F48091220158
:101FB0008093A70181E08093040189C0D13C31F472
:101FC00060E070E08FE69CE02ED881C0D23C31F416
:101FD0008C2F90E0019617C0D13C91F3D33C71F463
:101FE0008091BA018F5F87700E940207EC2FF0E0AA
:101FF000E45FFE4F8091BA01878B56C0D43C59F400
:102000008C2F90E0049665E070E074D480932201F8
:102010008093A70149C0D13B51F5C23090F400FD37
:1020200056C0EC2FF0E0E45FFE4F848D90910401E8
:10203000891B883020F08F3F99F58EEF31C088E002
:102040002FC0C43009F043C090912A01809104014F
:10205000890F823010F482E003C0893708F088E7E6
:1020600080932A0180912A010E94C70430C0D13E8A
:1020700031F48091040181958093040115C0D23B15
:1020800089F481E080930401C23018F500FD1FC07F
:10209000EC2FF0E0E45FFE4F848D8F3FC1F08F5F47
:1020A000848F15C0D23E19F40E94970510C0D53C0C
:1020B00041F460E070E083E890E10E94130880E062
:1020C000D3CFD13071F081E018C08093020180E05D
:1020D00014C0C430E1F780912A01833018F2815096
:1020E000BFCF0932110519F481E08093040180917A
:1020F000B601080F0093B601EACFDF91CF911F918F
:102100000F91FF9008950F931F93CF93DF93D82FD4
:102110008B01883031F48091A901882311F088E087
:102120004FDE8D2F8079803961F481E08093A801A2
:10213000C091A901C1110CC080910A010E94C7047D
:1021400024C0803839F41092A80180E00E94C704AE
:10215000C0E01BC0D130C1F4C091A801CC2359F01C
:102160008091A9018823A1F3B80181E0DF91CF918B
:102170001F910F9125CE80E00E9437020733114056
:1021800038F3D093BB0101C0C1E08C2FDF91CF9118
:102190001F910F910895FF920F931F93CF93DF9399
:1021A000D82F8B01F0900A018079803951F5ED2FFD
:1021B000EF70E43020F01092A801C0E036C091E04A
:1021C0009093A801F0E0E45FFE4F86A12FEF280F67
:1021D000263948F480930A011092A90180911C01CC
:1021E0008093BA010CC09093A9018739D0F090E098
:1021F0008759910965E070E07DD38093A701C0E025
:102200000BC0803841F41092A80180E00E94C704FE
:1022100081E08093B301C1E08091A801882329F077
:1022200001C0C0E0B8018D2F6EDFF0920A01D830F6
:1022300021F4B80188E06FDA28C0D13039F48091F8
:10224000A801811120C0B80181E004C0D33041F45D
:10225000B80183E0DF91CF911F910F91FF905BCA8E
:10226000D63C49F40E940D0560E070E08FE69CE0EA
:102270000E94130808C0D73B41F460E070E080E2A0
:102280009BE00E94FB0780E001C08C2FDF91CF9183
:102290001F910F91FF9008951F920F920FB60F920A
:1022A00011242F933F938F939F93AF93BF93EF93FB
:1022B000FF938091E3018823E9F0E091E20120B1EE
:1022C00031B1F0E0EE0FFF1FDF01A252BE4F2D93A0
:1022D0003C93E652FE4F808191818217930708F468
:1022E00001962817390708F401979183808381E0CC
:1022F0008093E40181E08093E301FF91EF91BF912E
:10230000AF919F918F913F912F910F900FBE0F90A2
:102310001F9018951F920F920FB60F9211248F9352
:1023200081E08093BE018F910F900FBE0F901F90A0
:1023300018951F920F920FB60F9211248F9381E080
:102340008093BD018F910F900FBE0F901F90189535
:10235000F89485B7877F85BF88ED90E00FB6F89435
:10236000A8958FBD90B7977F90BF0FBE89E08CB9BD
:1023700088E780BB82EA8093720081E180937100DC
:102380008FEF90E0909369008093680084E08EB9AD
:1023900088BD8CB780618CBFA89580E480BF0E9407
:1023A0000902789481E00E94F40160E070E083E328
:1023B00098E00E94FB071092B3010E940D050E9455
:1023C0001902811114C08CE091E09093B5018093C3
:1023D000B401F89480E090E0A0D2853A09F040C0C2
:1023E0000091B4011091B501C1E0D0E030C0C0E06F
:1023F0008C2F0E94C70483E190E04FDC8C2F8695E0
:102400000E94C70483E190E048DC0E9419028823FF
:1024100099F0CF5FC03461F765E181E00E9430053B
:102420000E949705C6E98C2F0E94C70484E090E0C3
:1024300034DCC150C1F7C7CFCC2309F4C4CF8C2FF3
:102440000E94C7048DE090E028DCC150F5CFCE019A
:1024500064D2F80181938F012196CB32D105B9F76F
:10246000789480911A0181110E94000460E070E06C
:1024700084E59BE00E94FB0761E070E08FE69CE052
:102480000E94FB0743E4342E52E0452E60E4562EB2
:102490007724739477E0672ECC24C394D12CFCEF7F
:1024A0008F2EF3E09F2EAFE6AA2EACE0BA2E0E944C
:1024B000AF018091C1019091C201009751F06091EC
:1024C000BF017091C0010E9413081092C2011092C6
:1024D000C1018091BB01882309F448C080E00E94BB
:1024E000C704A89530BE1F980E9419028111FCCF25
:1024F0000E94EA018CB780618CBF1092E4011092B7
:10250000BE011092BD018091BB01882331F1809101
:10251000E501882321F086B78F79806203C086B7F2
:102520008F79806486BF86B7806186BF889586B7BD
:102530008F7E86BF8091BD0181111092BB01809179
:10254000E401882321F07092D9010E94B90580919D
:10255000BE018823C1F2F4DAD6CF40920B018CB7CA
:102560008F7E8CBF0E940902A89550BE8CDB109212
:10257000B3018091D4019091D501F8E08C399F0787
:1025800051F4C091B9010E941904CB3008F0880FB2
:102590000E94370238C125E08532920719F5C0E75D
:1025A000D0E0FE0184918053803110F4AADB11C089
:1025B00010E0812F81708295880F807E0E94C70471
:1025C00080E190E06ADB1F5F193199F78AE992E0B8
:1025D00064DB8CE291E061DB2196F0E0C138DF073B
:1025E00001F7D7C02EE0803E920799F030E18338A2
:1025F000930729F0E0E18B3C9E0709F0B2C02091DF
:10260000A901213009F0ADC02091A801222309F4CD
:10261000A8C0C091A701EC2FF0E0E45FFE4F8789CE
:102620008093BA01C230F1F020F0C43009F47CC0CC
:102630003ECFD48D86E90E94C704C11109C0DA32A9
:1026400020F4C4010197F1F707C081E090E003C0D6
:102650008D2F869590E021DB80E00E94C7048D2FAE
:1026600090E00AC10E9422028F73E82EF12C0E9492
:102670002202662D1FD1E60102C0CC0FDD1F9A9504
:10268000E2F70E94220265E015D1960102C0220FF6
:10269000331F9A95E2F7C20FD31F0E94220290E0E7
:1026A000BE0128D1C80FD91FC739D10514F0C6E91A
:1026B000D0E08C2F0E94C704C701EFDA8E0133E00F
:1026C000159507953A95E1F7011101C001E010E079
:1026D000C701E3DAC01BD10BD7FF02C0C0E0D0E0D6
:1026E0008C2F0E94C7040E942202837039F4C70114
:1026F000D4DACE01959587950E94C704C230D105E2
:102700003CF70E9422026DE0D5D0E60102C0CC0F5A
:10271000DD1F9A95E2F70E94220290E0BE01D6D01A
:10272000C80FD91F80E0A5C0C0912A01CC0FC739BE
:1027300008F0C6E9D4E08C2F0E94C70485E090E041
:10274000ACDA80912A010E94C70481E490E0A5DA06
:10275000D15089F780ED92E0A0DA80E00E94C704B2
:10276000A6CE3BE088329307E9F488EE93E095DA51
:102770008091D80186958695F2DA9091D801937070
:10278000892F880F9695890FEADA8091170188239F
:1027900081F0B092C201A092C1011092C0011092CA
:1027A000BF0185CEE8E082389E0731F48091D601E2
:1027B000D6DA88EE93E060C0F8E089359F07B9F477
:1027C0008091BC01811173CE80910A010E94C704DF
:1027D00084E690E062DA80E00E94C70480912B01D9
:1027E00090E068EE73E055D08456910945C081525F
:1027F000984049F480E0C9DA81E0C7DA80E0C5DAC0
:1028000080ED97E039C0809121018823B9F1809152
:10281000A401882399F12091B9013091A5012313D6
:102820000AC0822F0E94C7041092A4018091A601C1
:102830008093B8013CCE6091A301231760F4832FED
:10284000821B38D0811101C081E0820F0E94C70431
:102850008AE090E011C0862F90E06EE170E019D020
:102860006091A601631B70E045D0EB0121968FEFCC
:10287000820F0E94C704CE0110DA19CE86B78F7975
:1028800086BF86B7806186BF889586B78F7E86BFF4
:102890000ECE0024552704C0080E591F880F991F1B
:1028A000009729F076956795B8F37105B9F7802DF3
:1028B000952F0895991B79E004C0991F961708F089
:1028C000961B881F7A95C9F780950895AA1BBB1B94
:1028D00051E107C0AA1FBB1FA617B70710F0A61B20
:1028E000B70B881F991F5A95A9F780959095BC0141
:1028F000CD01089597FB072E16F4009406D077FDBE
:1029000008D0E4DF07FC05D03EF4909581959F4FF9
:102910000895709561957F4F0895E199FECF1FBA94
:102920008EBBE09A99278DB30895262FE199FECFAB
:102930001FBA8EBBE09A81500DB2021639F01CBA54
:102940002DBB0FB6F894E29AE19A0FBE0895F89461
:02295000FFCFB7
:10295200080E180101010004820B320200010B0B68
:102962000B828278010705010000000000010000CF
:10297200000103000000000029433202073700185B
:10298200390400781E980504030E01110114010296
:102992000100000000000000010000000000000033
:1029A20000010000740184028C0394049C05A406B7
:1029B200B007FF07AB02E1029402A9029702A90243
:1029C2009A02A9029D02A902A002A902A302A902D7
:0429D200A602A902AE
:00000001FF
