:10000000DAC00000F5C000000C940A11F1C0000035
:10001000EFC000000C94FB10EBC00000E9C0000032
:10002000E7C000000C941911E3C00000E1C000001B
:10003000DFC00000DDC000000C94BD10D9C000007E
:10004000D7C00000D5C00000D3C00000D1C0000060
:10005000CFC00000CDC00000CBC00000C9C0000070
:10006000C7C00000C5C00000C3C00000C1C0000080
:10007000303237332E323032332D31322D30332B74
:1000800038000001050414101115000001000200E1
:100090000300040005000600070009000A000C0028
:1000A0000E0011001300160019001C00200024008F
:1000B00029002D00320038003E0045004C0054005D
:1000C0005C0065006E00790084008F009C00A90030
:1000D000B800C700D700E800FB000E01230139017A
:1000E0005001680182019E01BA01D901F9011B0288
:1000F0003E0264028B02B502E0020E033D03700370
:10010000A403DB03150451049004D10416055E0515
:10011000A905F70548069D06F5065107B10714081D
:100120007C08E7085709CB09440AC10A430BCA0BEC
:10013000560CE70C7E0D190EBB0E620F0F10C1108E
:100140007B113A120013CC13A0147A155C164517D4
:1001500035182D192D1A351B451C5E1D801EAA1F32
:10016000DD201A226023B02409266D27DB28532ABC
:10017000D72B652DFF2EA43054321134DA35AF372A
:100180009139803B7D3D863F9E41C343F7453948C9
:100190008A4AEB4C5A4FDA5169540957B9597A5C7B
:1001A0004D5F316227652F68496B776EB7710B75AC
:1001B0007378EF7B807F11241FBECFEFD4E0DEBFCA
:1001C000CDBF11E0A0E0B1E0E6EDF8E202C005909D
:1001D0000D92A638B107D9F722E0A6E8B1E001C038
:1001E0001D92A132B207E1F70E944A110C946914E2
:1001F00007CFF89498ED9FBD83BF78940895482F5A
:100200009B01EAEEF1E080E090E05081552331F06F
:100210000196339680319105C1F70AC063E070E022
:100220000E940B14FC01E651FE4F40833283218370
:1002300008950F931F93CF93DF93D091EA01DD23AD
:1002400051F10091EB011091EC01C091C701C15037
:10025000C7FD0DC0EC2FEE0FFF0BE853FE4F0190D2
:10026000F081E02DB8018D2F09958111F0CFEAEED4
:10027000F1E08381808384819581928381833396A9
:1002800082E0E731F807A9F71092170210921902DD
:1002900010921802D2CFDF91CF911F910F91089544
:1002A000BC0180911C02ABCF10921C0210921B0269
:1002B00010921A0281E08093B70108950F931F9363
:1002C000CF93C82F08EA17E0CC2349F082E091DFF2
:1002D000C8010197F1F780E08CDFC150F5CFCF91D5
:1002E0001F910F91089586E884B9E1E6F0E08081DE
:1002F0008260808388E082B91092E6011092E70163
:100300008FEE83B90895E0910601F09107013196CF
:10031000FB70F460F0930701E09306018091BA014D
:100320008B5A8093BA01E4918091BA018E0F08959F
:100330000F931F93CF93DF9300D01F92CDB7DEB7FB
:10034000209138013091390140913A0129833A8353
:100350004B83FE01319640E050E090E061E070E0B8
:10036000B1919A01220F331F8C0102C01595079598
:100370002A95E2F79801237061F02130D1F4A0B3FF
:100380009B0101C0220FBA95EAF7322F30953A232C
:1003900018C0A0B39B0101C0220FBA95EAF72095BF
:1003A0003A2F322330BB32B3322332BB31B3232353
:1003B0000EC0A0B39B0101C0220FBA95EAF73A2FF5
:1003C000322B30BB32B3322B32BB31B3232B21BBA8
:1003D0004F5F5F4F4330510519F60F900F900F900C
:1003E000DF91CF911F910F910895811182E0A0CFED
:1003F00081118AE09DCF811188E09ACF811188E236
:1004000097CF811180E294CF811182E291CF811147
:100410008AE28ECF81E00895E82FF0E08091BD015F
:1004200090E00197E817F90719F1EE0FFF1FE65763
:10043000FF4F859194919093200280931F02880F23
:10044000892F881F990B919580931E02992790936D
:100450006D0080936C008AB780688ABF8091BD016F
:10046000811104C010926F0010926E00689A489A31
:100470000895E82FF0E0EE0FFF1FE657FF4F45917C
:10048000549120911F0230912002932F969580E085
:100490002417350718F42F5F3F4F05C04217530745
:1004A00010F4215031098F5F981790F73093200294
:1004B00020931F0281E04217530709F080E008955E
:1004C000CF93DF9300D000D000D0CDB7DEB79091AE
:1004D0000C012091D8013091D90121563A4009F4FC
:1004E00092E0843019F46093180121C06623F9F07A
:1004F000823019F427E9261B622F26E0EBE3F1E0B6
:10050000DE01119601900D922A95E1F7E82FF0E0B7
:100510003197EE0FFF1F21E030E02C0F3D1FE20F5F
:10052000F31F0190F081E02DE90FF11D6083269605
:100530000FB6F894DEBF0FBECDBFDF91CF91089507
:10054000813011F4609337010895BF92CF92DF920A
:10055000EF92FF920F931F93CF93DF93EC014091A3
:100560000C0190911701992311F0E2E001C0E42FF2
:10057000F0E0E45FFE4F22812093090185818093A2
:100580000801E92FF0E0E45FFE4F3185622F70E053
:10059000442349F0313039F49B01280F311DC90142
:1005A0009595879538C0C617D707A4F1682F70E0D6
:1005B0006C177D0784F1411102C08C2F2CC0821B67
:1005C000032F10E001501109E82EF12CC701B801EA
:1005D0000E943C146093B4016695E62FF0E0822FF0
:1005E000C12CD12CB12CB316B1F0C601B8010E94B8
:1005F0002814822F860FCE0CDF1CAE01481B510938
:1006000057FF03C0519541955109E417F5071CF4B4
:10061000B394E9CF822FDF91CF911F910F91FF907B
:10062000EF90DF90CF90BF900895ECE0F1E08685E9
:1006300080930A018389808B8093BE010895809105
:10064000B001882351F09091BD019093B301809344
:10065000AF011092AE011092AD01089581E00895AE
:10066000823019F4609332010895611160932D0175
:100670000895662389F0813061F48091DA019091C8
:100680002F01891B681B60932F0182E080930B016F
:1006900003C0635E60932E0180912E01873418F0B1
:1006A00086E480932E010895609333010895E82F26
:1006B000F0E0E45FFE4F67A308957FEF780F40916D
:1006C0001D0150911E01662359F021E030E002C067
:1006D000220F331F7A95E2F7CA01822B932B0AC0AF
:1006E00081E090E002C0880F991F7A95E2F780952B
:1006F0008423952390931E0180931D010895CF9329
:10070000DF938CE091E09093B9018093B801F89465
:10071000C0E0D0E0E091B801F091B901EC0FFD1F0D
:1007200060812196CE010E945714CC32D10591F7F9
:1007300065EA80E090E00E9457147894DF91CF91B1
:1007400008951092E80180B191B12091BA0182958B
:10075000869586958370990F990F890F820F8093E4
:10076000BA018091DD01882309F41AC11092DD01DC
:100770008091E6019091BF01992329F01F98109272
:10078000E9011092E601811151C080910B0188238B
:1007900029F08091E2019091E3011AC08091BF019C
:1007A0002091DE013091DF018823B9F08091E201D0
:1007B0009091E30143E0969587954A95E1F7820F82
:1007C000931F53E0369527955A95E1F7821B930BBB
:1007D0009093DF018093DE0101C0C90120912D01BA
:1007E0002750220F60E671E00E942814260F209304
:1007F000DC018091A401882311F0815007C02437C7
:1008000038F460E070E084E0FADC85E08093A401D5
:100810008091BF018111BBC08EE884B981E08093D3
:10082000E6011092E7018FEE83B9B1C0813009F083
:10083000AEC080910B01882341F08091E40190913A
:10084000E5019093E1018093E0018091E0019091B6
:10085000E10160912F019C01A6E036952795AA95AC
:10086000E1F7062E000C770B260F371F2E50314074
:100870003093DB012093DA01B5E096958795BA9520
:10088000E1F720910B01211128C020919301E22F63
:10089000F0E0EE0FFF1FEC56FE4F40815181DC016E
:1008A000A41BB50BAD01918380832F5F277020932C
:1008B00093019D01220F331F220F331F820F931FBD
:1008C00020912E0130E0261B370B225F3E4F220F76
:1008D000331F821B930B23E00EC0E4E9F1E0819308
:1008E0009193B1E0E43AFB07D1F7CFCF009709F03D
:1008F0000196215029F018161906C4F70197F9CF6F
:1009000018161906E4F457FD39C020919201121609
:100910000CF1880F991FBC016350710977FF02C069
:100920006F5F7F4F759567951616170614F061E097
:1009300070E088E1861B8093920185E026C08C3FA1
:100940002FEF9207DCF457FF19C02091920127FF87
:1009500005C02450281B2093920118C024EE281BA8
:10096000209392012091DC01263780F06CEF7FEF1D
:10097000681B790B7595679586E007C08091DC014F
:10098000853720F060E070E087E039DCACDC8091F6
:100990000B01882329F080910B01815080930B017A
:1009A0000895882321F0813031F4829805C082981F
:1009B00092988A980895829A929A8A9A0895CF93E3
:1009C000C82F8091BD01811109C0CC2339F08091DD
:1009D0003701C81718F4F3DF82E070DC8091BF01A3
:1009E00081110BC0A5DC91E0C11101C090E081E054
:1009F000C73408F480E0890FD4DFC11112C08AB770
:100A00008F778ABF1092200210921F0210926D0001
:100A100010926C0010926F0010926E0068984898C7
:100A20000FC0E091BE01F0E0EE0FFF1FEE0FFF1FC1
:100A3000EA59FE4F0190F081E02D8FEF8C0F099560
:100A40008091BD01C8138093BC01C093BD01C093C8
:100A5000BB01C23010F482E005C0CF3F11F081E04D
:100A600001C080E0CF91C5CBCF93C091BD0182E39F
:100A70008C0F873908F080E0A2DF83E01FDC8C2F29
:100A8000CF919DCFCF93C091BD0180E098DF83E0EF
:100A900015DC8C2FCF9193CF8093B5019091BD0140
:100AA000981718F4282F291B02C0292F281B3091D2
:100AB000A701311106C030912101332369F02230A2
:100AC00058F08093A80184E08093A60181E0809390
:100AD000A7019093A901089572CF0F931F93CF930D
:100AE0009091DC012FEF290F233720F480E020DCE8
:100AF00080E09EC0E82FEF702091B101211125C048
:100B0000C82FC295CF702091320130E043E0220F10
:100B1000331F4A95E1F762177307C0F48091B6015D
:100B2000482F50E0421753078CF4882379F021E0D6
:100B30008091BC018F3008F420E081E0C23009F0E0
:100B400080E0822BC1E0C80F36C0C2E0E73088F1F8
:100B5000E730A9F400918B0110E00F5F1F4FD3DB4A
:100B600065E00E941C149801290F311DC90166E03F
:100B700070E00E943C1480938B01FC013AC0E83085
:100B8000D1F48091BF01882311F02FE001C023E050
:100B900030E062237323672B51F480918B0190E046
:100BA000019666E070E00E943C1480938B01E09116
:100BB0008B01F0E01EC08091BF01882381F080E0AE
:100BC000E82FF0E0EC5AFE4F2081921710F08E5F74
:100BD000F7CF3197E081F0E0EE57FF4F0CC0CB012B
:100BE0009695879563E070E00E942814FC01EE0F53
:100BF000FF1FED57FF4FE491C33071F480918A01DC
:100C000090E0019663E170E00E94281480938A01CD
:100C1000DC01AF5BBE4FCC91CC2329F0C13029F071
:100C2000EE0FC2E002C0C0E0E0E08E2F81DB8C2F2F
:100C3000CF911F910F91B5CECF93DF939091BE01CD
:100C4000981759F0C82FD091BD0180E0B8DEC0934D
:100C5000BE018D2FDF91CF91B2CEDF91CF9108955C
:100C6000813019F410921A010895823019F46093BA
:100C70001B010895833019F460931901089584309D
:100C800019F460930D010895853011F460932101EA
:100C90000895883039F41092B0011092AE0110928C
:100CA000AD0145C0813B81F48091B001815083301A
:100CB00008F03FC083E08093B0018093AF011092B1
:100CC000AE011092AD0135C0853BB1F4CB016EE3AE
:100CD00070E00E942814892B51F58091B0018A3F61
:100CE00030F58B5F8093B0018093AF011092AE011D
:100CF0001092AD01B9DE1BC08130D9F48091AD01F5
:100D00009091AE01019688382EE0920728F49093D6
:100D1000AE018093AD010BC01092AE011092AD01F7
:100D20008091B001882319F081508093B00180E058
:100D3000089581E00895FF920F931F93CF93DF935F
:100D40008C01EB01F42E8091D8019091D901892B6F
:100D500031F0E091D801F091D90189E00995109323
:100D6000D9010093D801012B39F0E091D801F0911D
:100D7000D901BE018F2D099581E08093B701DF91E4
:100D8000CF911F910F91FF900895CF93DF93E09142
:100D9000C701EE2359F0E150E093C701F0E0EE0FF8
:100DA000FF1FE853FE4FC081D18102C0C0E0D0E0F8
:100DB000E091C701EE2341F0F0E0EE0FFF1FEA5390
:100DC000FE4F8081918102C080E090E04AE060E0C7
:100DD00070E0B1DFCE01DF91CF910895883029F422
:100DE0001092A50110928C0115C0813001F59091EF
:100DF0008C01911107C06032710570F180938C01F4
:100E000053DA2AC0913089F46B3B710528F082E0F7
:100E100080938C0180E01FC061157105E9F062705C
:100E2000862F880F880F8E5E16C0AFDF15C0813801
:100E300011F0813E89F491E090938C01813E21F480
:100E40008091A501865F03C08091A5018F5F80938B
:100E5000A5012ADA8BE4B3DD80E008959C0190912E
:100E6000C701983088F4E92FF0E0EE0FFF1FE85338
:100E7000FE4F318320839F5F9093C70148E0C901F3
:100E80005ADF8091C70108958FEF08950F931F9344
:100E9000CF93DF93EC018B0178DFB801CE01DF91B6
:100EA000CF911F910F91DACF813C29F460E070E07F
:100EB0008FEC9BE006C0823C39F460E070E087E88C
:100EC0009AE0E4DF80E0089581E00895843011F530
:100ED0008091D8019091D9012EE08C34920729F4A9
:100EE00069E170E08FEC97E013C08F5C974061F48C
:100EF0009091BD01923040F0892F869596959695F8
:100F0000890FCADD80E0089560E070E08FEC9BE01F
:100F1000BDDFF8CF81E00895813C29F460E070E006
:100F20008FEC9BE006C0823C31F460E070E084E529
:100F300097E0ACDF16C0813B49F4CB016EE370E073
:100F40000E942814892B69F48FDD0BC0813E59F46F
:100F5000CB016EE370E00E9428146F5F60932C0158
:100F6000CEDB80E0089581E00895813C29F460E0C3
:100F700070E08FEC9BE006C0823C31F460E070E0F2
:100F80008CE897E083DF07C0873B39F460E070E0CE
:100F900081E79AE063DF80E0089581E00895BF92E1
:100FA000CF92DF92EF92FF920F931F93CF93DF9335
:100FB000182FEB0180911C018093BE01D090090194
:100FC000F090080180910C01882319F0B090B401D1
:100FD00002C0BB24B394C0900D0180911701811110
:100FE000C0901801CC2051F081E0C81621F080910A
:100FF0000A018F1518F0F6E9EF2E01C0EF2C0091D1
:10100000B001BE01812F45DE8091B001882339F007
:1010100001110CC09091BD019093B30107C0002352
:1010200029F060E070E08FEC9BE036C0912F9D7F4F
:101030009830D9F41092AC011A3019F4C0910A0119
:10104000D0E08D2D90E08C179D0738F48F2D90E027
:10105000C817D90710F4C0930A01CE0176DA1CDD57
:1010600081E08093050100E0B6C1113CD1F2123C51
:1010700059F48091BD018E1510F48E2D02C080911F
:101080000A010ADDDCDAEFCF143C41F480E097DCA2
:1010900060E070E08AEE9AE0F9DEE5CF9FE4910F20
:1010A000923008F05CC080910C01882341F0CE01A1
:1010B00068E170E00E942814892B31F0D4CF609150
:1010C000140170E0CE01F6CF0091A7010111CBCF42
:1010D0002091BD01209761F4123B11F48FEF05C000
:1010E0002F15E0F7D21608F181E0809305011DC0AD
:1010F000E0911401F0E0CF0166E371E00E940B146F
:101100008C179D0710F42F1548F7CF016CE672E09D
:101110000E940B148C179D0740F4D21630F0A4DC0B
:1011200060E070E08AEE9AE0B1DEC091BD0180918E
:1011300005016B2D70E0082E000C990B0E940B141A
:101140008C0F911D02DA80930A01C81719F0F8126A
:1011500001C098DC80910A019FDC71DA3CC19FE1FB
:10116000910F923020F48091050181957ACF113052
:1011700009F086C0A99711F410930501882379F12D
:101180000091B30110E090E0B8010E940B14EC0153
:10119000E091AF01F0E0BF010E943C14262FCE0188
:1011A000801B910BBF010E943C14322F361B809193
:1011B000AD019091AE016EE370E00E942814832F80
:1011C00090E00E940B146CE370E00E942814261B30
:1011D000622F09F461E06093BB016093B501C09197
:1011E000BB012091BD018C2F90E0821B9109609181
:1011F0008F01709190016F5F7F4F709390016093AA
:101200008F01009709F42FCF97FF05C0233830F0E6
:1012100040E450E005C040E052E002C040E051E050
:101220005695479597FD0196959587950097C1F737
:101230004617570708F017CFC21710F4CFEF03C0B7
:101240002C1710F4C1E0C20FE091BE01F0E0EE0FE8
:10125000FF1FEE0FFF1FEA59FE4F0280F381E02DC2
:101260008FEF8C0F0995882331F0D091BB018C2F23
:10127000A6DBD093BB011092900110928F01F3CEA8
:101280001530A1F48091BD01833308F4ECCE90E0D9
:101290008C1B9D0B8233910534F08739910564F1E5
:1012A00086E990E029C082E390E026C01630B1F4D0
:1012B0009091BD018091B501981708F0D4CEC90F67
:1012C000D11D90E08C179D0734F0C233D10524F472
:1012D000C2E3D0E001C0EC018C2F0EC0173079F4CE
:1012E0009091BB018091BD01891710F48F5F04C0FC
:1012F000981708F0B8CE81508093BB01B4CE133C50
:1013000019F0163C41F517C060911D0170911E0146
:1013100080E090E020E0AB01082E02C05695479592
:101320000A94E2F74170240F01968830910599F7ED
:10133000223008F04FC081E090910C01911180E0C3
:1013400080930C01DCD99EDB8091BD0190E0FDD83B
:1013500080930A0196CE0091170101113BC0133B07
:1013600049F4CD2B09F07FCECC2011F086E9E82E90
:101370008E2D04C0133E21F480910A018DDB2BC019
:10138000153C61F48091BD0180930A0180E017DB78
:1013900060E070E081EF9FE079DD1DC0173B29F42C
:1013A00060E070E08DE59AE013C01A3C59F480913A
:1013B000BD0180931A018091BE0180931F019FD9C6
:1013C00053DB09C01A3B31F460E070E085E69AE037
:1013D00045DD01C001E0802FDF91CF911F910F917A
:1013E000FF90EF90DF90CF90BF9008950F931F93E1
:1013F000CF938B01C42F883091F48091BE018093EC
:101400008E0110928D0180E0DADA8091C0018111A5
:101410004FC080918D018F5F80938D0133C0982FD5
:10142000907F903B21F580918D014817E8F0815025
:10143000883040F49091B201992321F09091BE013F
:101440008913FADBC8016DE570E00E942814069745
:1014500049F480918D018F5F80938D01C81740F111
:1014600088E303C082E101C080E0A9DA21C0903E98
:1014700079F480918D018823A1F0481790F0809134
:101480008E01DADB60E070E08EEE96E0E7DC10C003
:101490008A3049F46091A50180918D01F901099587
:1014A0002ED973DC05C0893019F480918E01C4DB1C
:1014B00080E0CF911F910F91089520E632E043E044
:1014C00095CF20E632E044E091CF20E336E045E0DE
:1014D0008DCF20EA32E041E089CF20E333E042E0E3
:1014E00085CF29E333E042E081CF24E533E041E0DA
:1014F0007DCF27E533E043E079CF91E09093B201CF
:101500002DE533E048E072DF1092B2010895CF93E9
:10151000C0911701C11123C0813C29F460E070E043
:101520008FEC9BE006C0823C31F460E070E085EB1C
:1015300097E0ACDC15C0833C51F48091200190E031
:1015400001968770992780932001D9D809C0873BDD
:1015500031F460E070E08DE69AE080DC01C0C1E02B
:101560008C2FCF910895CF93833C21F54091BE01FC
:1015700060911D0170911E01842F98E0282F30E0AA
:101580002F5F3F4F27703327822FFB0102C0F69554
:10159000E7952A95E2F7E0FF0AC04817B9F04CDB5F
:1015A0008091BE0180931C01AAD8C0E010C0915068
:1015B00029F7F3CFC0911701C11108C0893B31F45D
:1015C00060E070E08DE79AE049DC01C0C1E08C2F5B
:1015D000CF9108950F931F93CF93DF93C82F8B0163
:1015E000873BC9F480E0EBD981E08093B101C80169
:1015F0008F739927892B09F09FC090913101892F12
:101600008F708F5F292F207F6BE00E941C14922B1C
:101610009093310191C080798039B1F420910E010D
:1016200090910F018C2F8F70813021F4822F9217AF
:1016300048F407C080911A01811104C0822F291734
:1016400008F4892FBCD90EC0803811F480E0B7D9D6
:10165000C83041F41092B60160E070E08091310131
:101660003CDA76C0C13039F40931110508F47CC088
:10167000C093BF0161C0C330D1F48091B6018F3FE8
:1016800019F08F5F8093B60180911A01882309F4C5
:1016900053C080911B0190E062EC71E00E940B143A
:1016A0000817190708F448C00E94150345C0C33C39
:1016B00031F4DAD960E070E08FEC9BE014C0C43CF8
:1016C00021F460910A0170E00CC0C43B31F4DAD916
:1016D00010921C0261E070E004C0C53C31F466E980
:1016E00070E08FEC97E0D2DB3FC0C33B79F4C801D8
:1016F0006EE370E00E942814892B51F560E070E0E1
:1017000083ECDF91CF911F910F912DCFC73CC9F48E
:1017100090913101892F82958F708F5F83708295B0
:10172000807F9F70892B8093310160E070E0D5D974
:101730000E947F0399D918C0B80180913101CDD999
:1017400013C0C73E29F41092B1010E947F030CC060
:10175000D0911701D1110AC0CA3B41F460E070E09A
:1017600085E79AE07BDB03C0D0E001C0D1E08D2F9C
:10177000DF91CF911F910F910895909121019923AD
:1017800069F08093A80188E08093A60181E08093AE
:10179000A7018091BD018093A901089510C90F93FD
:1017A0001F93CF938B018830A1F480E0E6DF809116
:1017B000A701082B1092B60180911C018093BE01F5
:1017C0001092B001012B09F059C081E08093BF0154
:1017D00055C0813059F46931710508F44FC0C0918A
:1017E000A701C1114BC08093BF010CC1833039F5F3
:1017F0008091B6018F3F19F08F5F8093B601809181
:101800001A01882361F080911B0190E062EC71E085
:101810000E940B140817190710F00E941503B80155
:10182000809130015AD980913301882339F190E0B9
:1018300062EC71E0F0D78017910700F553C0813B4F
:1018400099F481E090E00E94A50297DF8091190150
:10185000811114C080910C01811103C00831110560
:1018600068F061E070E02AC0813ED9F3813841F42C
:1018700080910A0190E00E94A5027FDFC0E0C2C013
:10188000813C21F460910A0170E018C0823B81F430
:101890001092B60180910D019091170191118091E4
:1018A0001801811103C086E990E0E5CF86E9E5CF14
:1018B000823E59F0823C29F466E970E08FEC97E0B3
:1018C0000CC0833921F41092A70180E0D6CF833C6D
:1018D00031F460E070E087E89AE0D8DACFCF843C5A
:1018E00031F4C2D860E070E08AEE9AE0F6CF8D3B2A
:1018F00041F4F89488ED8FBD88E880BF7894A8956E
:10190000FFCF8F3C29F460E070E08EE293E0E5CFFA
:101910008A3B81F4672B09F04CC0C0911701CC239E
:1019200021F0A2D81092170141C060E070E081E67A
:101930009AE065C0833B29F460E070E08CE49EE0AF
:10194000CCCF873CA1F490913001892F82958F7084
:101950008F5F83708295807F9F70892B8093300189
:1019600060E070E0BAD80E947F037ED887CF873BC3
:10197000C9F481E08093B101CB018F739927892B42
:1019800061F490913001892F8F708F5F292F207F14
:101990006BE052D7922B90933001B80180913001C7
:1019A0009CD86CCF873E29F41092B1010E947F032E
:1019B00065CFC0911701C11124C08A3C39F454D8B5
:1019C00081E0809317010E947F031CC0853C31F4A5
:1019D0004BD860E070E081EF9FE007C0863C39F4AF
:1019E00043D860E070E08CE390E150DA0BC0893BB3
:1019F00041F4012B31F460E070E089E69AE02EDAE0
:101A000001C0C1E08C2FCF911F910F9108950F93CA
:101A10001F93CF931092C20180911A0290911B02E2
:101A20009C012F5F3F4F88279078822B932B9093B8
:101A30001B0280931A029091C0012FB1822F8095D2
:101A4000881F8827881F8093C001981729F110925A
:101A5000BF018093C00190911C02892F27FD0AC00D
:101A600080699F709F3009F08F5F80931C0280E037
:101A700090E00CC08F7E95FD02C0806801C0806C34
:101A800080931C0280911A0290911B020E945001C7
:101A900010921B0210921A0200911A0210911B025E
:101AA0008091BF018823B1F0B80183E00E94FF005C
:101AB0000E9419010134110528F00F701127012B24
:101AC00009F049C01092910181E08093E9010E94E0
:101AD000730132C0C0911C028C2F807F803B19F4AF
:101AE00060E070E001C0B80181E00E94FF00C4FF27
:101AF00013C0C5FF02C0C8010CC008311105E0F0D9
:101B000010921B0210921A02C062C0931C0280E065
:101B100090E00E94500110C0CC2371F0C5FD0AC0B6
:101B20000231110548F0C064C0931C0280E090E0CF
:101B30000E9450010E94540180919101811105C0C1
:101B40008FEE83B981E08093DD01809191018F5FF9
:101B50008F7180939101CF911F910F910895809182
:101B6000E80181110E94A1038091C20181114FCF30
:101B70000895EF92FF920F931F93CF93DF93EC01A1
:101B800008E017E082ECE82EFF24F3942097D9F0C8
:101B90008091B701811119C08091BD01823028F474
:101BA00082E00E94F900C70104C080E00E94F900B1
:101BB000C8010197F1F780E00E94F900D0DF0E9490
:101BC00019012197E3CF81E001C080E0DF91CF913F
:101BD0001F910F91FF90EF9008950F931F93CF9354
:101BE000DF93C82F882311F006EA02C00CE0C1E0A1
:101BF000D091BE0110E0809120011ED882E30E94A6
:101C0000DF04D093BE01C801B4DF8091200114D855
:101C100080E00E94DF04D093BE018AEF90E0A9DF4C
:101C2000C15049F78D2F08D88AE992E0DF91CF9112
:101C30001F910F919ECFCF93DF9364E6FDD5282FA0
:101C4000892F6AE0F9D5EC01222341F0822FC5DF0C
:101C50008C2FC3DF8D2FDF91CF91BFCFC111F8CF74
:101C6000F9CFCF93DF93D82FC3E080910A010E9470
:101C7000DF0488EC90E07DDFDD2319F080E991E05E
:101C800078DF80E00E94DF0488EC90E072DFC150D2
:101C900061F7DF91CF910895FF920F931F93CF9338
:101CA000DF93D82F8B01C091AA0181E08093AC0112
:101CB000C43009F0E6C0F090B0018D2F0E944906B3
:101CC000FF2051F08091B001811106C060E070E00A
:101CD0008FEC9BE0DBD8D5C0D83021F481E0809335
:101CE0000301D1C0D23C19F41092B001DFC0D13B46
:101CF000C1F490910201012B49F4963610F08FEF58
:101D000003C0923018F481E08093030180910301B5
:101D1000890F11F481E047C1873608F444C186E693
:101D200042C1D13E31F4809103018195809303013A
:101D30000EC1D23B61F481E08093030180910201E6
:101D4000823008F40CC181508093020108C1D13067
:101D500009F0B0C00932110511F4D093030190913C
:101D60008901892F880F97FD809590E069E070E0E8
:101D700052D5292F80918801682F660F87FD6095C5
:101D80008091010170E090E046D5290F8091870194
:101D9000682F660F87FD60958091000170E090E0EC
:101DA0003AD5920F6091020170E0690F711D809128
:101DB000B001813091F48091AD019091AE0125E0A8
:101DC000969587952A95E1F724E730E0A901481B0D
:101DD000590BCA0120D5B9013BD5862F0E94DF04DB
:101DE00000FD08C00E948301817090918901890FD4
:101DF000809389019091880180918601890F809359
:101E000088010E94830165E217D580918701980FB0
:101E1000909387010E9483018F7331F40E948301A4
:101E20006DE00AD590938601C0910101CC2339F071
:101E30000E9483018F7319F4C150C09301010E9465
:101E40008301811108C00E9483016EE0F5D4909354
:101E5000010110928801C0910001C33038F00E9446
:101E600083018F7119F4C150C09300010E94830156
:101E70008F7709F0A4C00E948301877080930001CE
:101E80009EC0D83041F4809122018093AA0181E064
:101E9000809304018AC0D13C39F460E070E08FEC9B
:101EA0009BE00E94460781C0D23C31F48C2F90E029
:101EB000019617C0D13C89F3D33C71F48091BE01E7
:101EC0008F5F87700E941C06EC2FF0E0E45FFE4FEE
:101ED0008091BE01878B56C0D43C59F48C2F90E082
:101EE000059666E070E0C8D4809322018093AA0131
:101EF00049C0D13B51F5C23090F400FD56C0EC2FE3
:101F0000F0E0E45FFE4F858D90910401891B8830DD
:101F100020F08F3F99F58EEF31C088E02FC0C5309B
:101F200009F043C090912B0180910401890F823008
:101F300010F482E003C0893708F088E780932B0112
:101F400080912B010E94DF0430C0D13E31F480919A
:101F5000040181958093040115C0D23B89F481E08E
:101F600080930401C23018F500FD1FC0EC2FF0E093
:101F7000E45FFE4F858D8F3FC1F08F5F858F15C069
:101F8000D23E19F40E947F0310C0D53C41F460E0BA
:101F900070E081EF9FE00E94460780E0D3CFD13010
:101FA00071F081E018C08093020180E014C0C53058
:101FB000E1F780912B01833018F28150BFCF0932B5
:101FC000110519F481E0809304018091BA01080F92
:101FD0000093BA01EACFDF91CF911F910F91FF904B
:101FE00008950F931F93CF93DF93D82F8B018830E1
:101FF00031F48091AC01882311F088E04DDE8D2F03
:102000008079803961F481E08093AB01C091AC01AB
:10201000C1110CC080910A010E94DF0427C08038E2
:1020200039F41092AB0180E00E94DF04C0E01EC0D2
:10203000D130D9F4C091AB01CC2359F08091AC01DF
:102040008823A1F3B80181E0DF91CF911F910F9117
:1020500023CE80E00E94980180E00E94D1040733E3
:10206000114020F3D093BF0101C0C1E08C2FDF915C
:10207000CF911F910F910895FF920F931F93CF93CC
:10208000DF93D82F8B01F0900A018079803951F5C8
:10209000ED2FEF70E43020F01092AB01C0E036C0BD
:1020A00091E09093AB01F0E0E45FFE4F87A12FEF4A
:1020B000280F263948F480930A011092AC018091D0
:1020C0001C018093BE010CC09093AC018739D0F005
:1020D00090E08759910966E070E0CED38093AA0121
:1020E000C0E00BC0803841F41092AB0180E00E9448
:1020F000DF0481E08093B701C1E08091AB018823C8
:1021000029F001C0C0E0B8018D2F6BDFF0920A0109
:10211000D83021F4B80188E05DDA28C0D13039F434
:102120008091AB01811120C0B80181E004C0D3309F
:1021300041F4B80183E0DF91CF911F910F91FF909F
:1021400049CAD63C49F40E94340560E070E08FEC47
:102150009BE00E94460708C0D73B41F460E070E076
:1021600089E79AE00E942E0780E001C08C2FDF9162
:10217000CF911F910F91FF9008951F920F920FB66C
:102180000F9211242F933F938F939F93AF93BF93FD
:10219000EF93FF938091E7018823E9F0E091E60156
:1021A00020B131B1F0E0EE0FFF1FDF01AE51BE4FA5
:1021B0002D933C93E252FE4F8081918182179307C9
:1021C00008F401962817390708F401979183808352
:1021D00081E08093E80181E08093E701FF91EF9136
:1021E000BF91AF919F918F913F912F910F900FBE13
:1021F0000F901F9018951F920F920FB60F921124F7
:102200008F9381E08093C2018F910F900FBE0F904A
:102210001F9018951F920F920FB60F9211248F9353
:1022200081E08093C1018F910F900FBE0F901F909E
:1022300018951F920F920FB60F9211242F933F9370
:102240008F939F9380911E0290E090936D008093F6
:102250006C0020911F0230912002922F9F77809175
:102260001D02890F220F232F221F330B3195982F28
:10227000991F9927991F290F20931E028F7780930A
:102280001D029F918F913F912F910F900FBE0F9044
:102290001F901895F89485B7877F85BF88ED90E0EB
:1022A0000FB6F894A8958FBD90B7977F90BF0FBEDB
:1022B00081E088B989E08CB98CE380BB82EA8093A5
:1022C000720081E1809371008FEF90E0909369003C
:1022D0008093680080E882BB87BD8CB788608CBF24
:1022E000A89580E480BF0E947301789481E00E94E9
:1022F0005E0160E070E086E697E00E942E07109293
:10230000B7010E9434059FB1892F8095881F8827C7
:10231000881F8093C00197FF14C08CE091E09093D8
:10232000B9018093B801F89480E090E0B8D2853A82
:1023300009F046C00091B8011091B901C1E0D0E0A8
:1023400036C0C0E08C2F0E94DF0483E190E011DCF6
:102350008C2F86950E94DF0483E190E00ADC9FB118
:10236000892F8095881F8827881F8093C00197FD3B
:1023700013C0CF5FC03431F765E181E00E943903BB
:102380000E947F03C6E98C2F0E94DF0484E090E066
:10239000F0DBC150C1F7C1CFCC2309F4BECF8C2FE5
:1023A0000E94DF048DE090E0E4DBC150F5CFCE0168
:1023B00076D2F80181938F012196CD32D105B9F7FC
:1023C000789480911A0181110E94150360E070E0F9
:1023D00083EB9AE00E942E0761E070E08FEC9BE0B7
:1023E0000E942E0743E4442E52E0552E60E4962EC0
:1023F0008824839477E0772ECC24C394D12CFDE0FD
:102400006F2EAFECAA2EABE0BA2E0E94190180917C
:10241000C5019091C601009751F06091C301709180
:10242000C4010E9446071092C6011092C501809116
:10243000BF01882309F44EC080E00E94DF04A89504
:1024400040BE1F989FB1892F8095881F8827881FBD
:102450008093C00197FFF6CF0E9454018CB788602B
:102460008CBF1092E8011092C2011092C1018091BC
:10247000BF01882331F18091E901882321F086B7DB
:102480008F79806203C086B78F79806486BF86B7F4
:10249000806186BF889586B78F7E86BF8091C10197
:1024A00081111092BF018091E801882321F0809270
:1024B000DD010E94A1038091C2018823C1F2A7DA45
:1024C000D6CF50920B018CB7877F8CBF0E947301CF
:1024D000A89590BE44DB1092B7018091D8019091ED
:1024E000D901F3E08E329F0719F5C0E7D0E0FE0175
:1024F00084918053803110F470DB11C010E0812F83
:1025000081708295880F807E0E94DF0480E190E0D8
:1025100030DB1F5F193199F78AE992E02ADB8CE200
:1025200091E027DB2196F0E0C138DF0701F7F3C027
:102530002EE08C34920799F03FE0813F930729F019
:10254000E0E18C339E0709F0CEC02091AC01213030
:1025500009F0C9C02091AB01222309F4C4C0C09185
:10256000AA01EC2FF0E0E45FFE4F87898093BE0163
:10257000C230D1F030F0C330B9F1C53009F496C0A3
:1025800044CFD58D86E90E94DF04C11103C083E0EA
:1025900090E003C08D2F869590E0EBDA80E00E94FA
:1025A000DF048D2F90E02AC1D0910A01C0E0C11153
:1025B00002C081E003C0C53019F485E00E941C060A
:1025C0008D2F0E94DF0481E290E0D3DA80E00E9448
:1025D000DF0482E490E0CDDACF5FCA3041F780912A
:1025E0001C018093BE0111CF0E9483018F73E82EDE
:1025F000F12C0E948301672D1FD1E60102C0CC0F90
:10260000DD1F9A95E2F70E94830165E015D19601DE
:1026100002C0220F331F9A95E2F7C20FD31F0E9408
:10262000830190E0BE0128D1C80FD91FC739D10559
:1026300014F0C6E9D0E08C2F0E94DF04C70199DABC
:102640008E0133E0159507953A95E1F7011101C028
:1026500001E010E0C7018DDAC01BD10BD7FF02C02B
:10266000C0E0D0E08C2F0E94DF040E9483018370C1
:1026700039F4C7017EDACE01959587950E94DF0473
:10268000C230D1053CF70E948301662DD5D0E6010A
:1026900002C0CC0FDD1F9A95E2F70E94830190E003
:1026A000BE01D6D0C80FD91F80E0A5C0C0912B01B4
:1026B000CC0FC73908F0C6E9D4E08C2F0E94DF04A4
:1026C00085E090E056DA80912B010E94DF0481E4DE
:1026D00090E04FDAD15089F780ED92E04ADA80E05D
:1026E0000E94DF0492CE3AE087389307E9F488EE3F
:1026F00093E03FDA8091DC01869586959CDA909193
:10270000DC019370892F880F9695890F94DA809158
:102710001701882381F0B092C601A092C5011092E2
:10272000C4011092C30171CEE7E0853B9E0731F4EE
:102730008091DA0180DA88EE93E060C0F7E08C38AF
:102740009F07B9F48091C00181115FCE80910A0189
:102750000E94DF0484E690E00CDA80E00E94DF044F
:1027600080912C0190E068EE73E055D08456910979
:1027700045C08455974049F480E073DA81E071DA0E
:1027800080E06FDA80ED97E039C0809121018823E5
:10279000B9F18091A701882399F12091BD01309171
:1027A000A80123130AC0822F0E94DF041092A70100
:1027B0008091A9018093BC0128CE6091A6012317C6
:1027C00060F4832F821B38D0811101C081E0820F19
:1027D0000E94DF048AE090E011C0862F90E06EE155
:1027E00070E019D06091A901631B70E045D0EB0146
:1027F00021968FEF820F0E94DF04CE01BAD905CE59
:1028000086B78F7986BF86B7806186BF889586B781
:102810008F7E86BFFACD0024552704C0080E591FAD
:10282000880F991F009729F076956795B8F3710581
:10283000B9F7802D952F0895991B79E004C0991F51
:10284000961708F0961B881F7A95C9F7809508950A
:10285000AA1BBB1B51E107C0AA1FBB1FA617B707C6
:1028600010F0A61BB70B881F991F5A95A9F78095E2
:102870009095BC01CD01089597FB072E16F40094A6
:1028800006D077FD08D0E4DF07FC05D03EF4909534
:1028900081959F4F0895709561957F4F0895E199B7
:1028A000FECF1FBA8EBBE09A99278DB30895262FCD
:1028B000E199FECF1FBA8EBBE09A81500DB202168D
:1028C00039F01CBA2DBB0FB6F894E29AE19A0FBE0C
:0628D0000895F894FFCF0B
:1028D600080E180101010004820146020001010AE6
:1028E6000A82828201070501000000000001000043
:1028F60000010400000000000029433202072D00F9
:1029060018390400781E98010504030E01110114FC
:1029160001020100000000000000010000000000AC
:10292600000000010000740184028C0394049C05DD
:10293600A406B007FF070C023902F5010A02F801E6
:102946000A02FB010A02FE010A0201020A0204024D
:062956000A0207020A025A
:00000001FF
