:1000000025C1000040C100000C945A113CC1000001
:100010003AC100000C944B1136C1000034C10000FD
:1000200032C100000C9469112EC100002CC10000E7
:100030002AC1000028C100000C940D1124C1000049
:1000400022C1000020C100001EC100001CC1000030
:100050001AC1000018C1000016C1000014C1000040
:1000600012C1000010C100000EC100000CC1000050
:10007000303331352E323032332D31322D30332B77
:1000800038000001050414101115000000000000E4
:100090000000000000000000000000000000000060
:1000A0000000000000000000000000000000000050
:1000B0000000000000000000000000000000000040
:1000C0000000000000000000000000000000000030
:1000D0000000000000000000000000000000000020
:1000E0000000000000000000000000000000000010
:1000F0000000000000000000000000000000000000
:1001000000000000000000000000000000000000EF
:10011000000000000000000000000000000000FFE0
:1001200000000100020003000400050006000700B3
:1001300009000A000C000E0011001300160019003F
:100140001D002100250029002E00330039003F004A
:1001500046004D0055005D00670070007B00860082
:1001600092009F00AC00BB00CB00DB00ED00000163
:10017000140129013F01570170018A01A601C40140
:10018000E301040227024B0271029A02C402F10247
:100190001F0350038403BA03F2032D046B04AB0462
:1001A000EF0435057F05CB051B066F06C606210744
:1001B0007F07E1074708B208200993090B0A860A5E
:1001C000070B8D0B170CA70C3C0DD60D760E1C0FD4
:1001D000C80F79103111EF11B412801352142B157E
:1001E0000C16F416E317DA18D919E01AF01B081DDB
:1001F000291E521F8520C12107235624AF2513270E
:100200008128F9297D2B0B2DA52E4B30FC31B933DC
:10021000833559373C392C3B293D343F4D4174439C
:10022000AA45EE47414AA44C164F98512A54CD5640
:100230008159455C1C5F0362FD640A68296B5B6E33
:10024000A171FA746778E97B807F000011241FBEDA
:10025000CFEFD4E0DEBFCDBF11E0A0E0B1E0E6EC2F
:10026000F9E202C005900D92A638B107D9F722E055
:10027000A6E8B1E001C01D92A132B207E1F70E94E9
:100280009A110C94E114BCCEF89498ED9FBD83BFF5
:1002900078940895482F9B01EAEEF1E080E090E029
:1002A0005081552331F00196339680319105C1F785
:1002B0000AC063E070E00E944814FC01E651FE4F62
:1002C00040833283218308950F931F93CF93DF934D
:1002D000D091EA01DD2351F10091EB011091EC0185
:1002E000C091C701C150C7FD0DC0EC2FEE0FFF0B31
:1002F000E853FE4F0190F081E02DB8018D2F099554
:100300008111F0CFEAEEF1E08381808384819581D1
:1003100092838183339682E0E731F807A9F7109240
:1003200017021092190210921802D2CFDF91CF91CA
:100330001F910F910895BC0180911C02ABCF1092C8
:100340001C0210921B0210921A0281E08093B701E6
:1003500008950F931F93CF93C82F08EA17E0CC237B
:1003600049F082E091DFC8010197F1F780E08CDF6E
:10037000C150F5CFCF911F910F91089585E084B9B9
:10038000E1E6F0E080818160808388E082B91092AC
:10039000E6011092E7018EEE83B908958FB182FBDA
:1003A000882780F991E089278093C0010895E09122
:1003B0000601F09107013196FB70F460F09307019C
:1003C000E09306018091BA018B5A8093BA01E491BF
:1003D0008091BA018E0F08950F931F93CF93DF93EF
:1003E00000D01F92CDB7DEB7209137013091380190
:1003F0004091390129833A834B83FE01319640E0D5
:1004000050E090E061E070E0B1919A01220F331F5B
:100410008C0102C0159507952A95E2F79801237083
:1004200061F02130D1F4A0B39B0101C0220FBA9535
:10043000EAF7322F30953A2318C0A0B39B0101C0D0
:10044000220FBA95EAF720953A2F322330BB32B308
:10045000322332BB31B323230EC0A0B39B0101C0B2
:10046000220FBA95EAF73A2F322B30BB32B3322B38
:1004700032BB31B3232B21BB4F5F5F4F433051055C
:1004800019F60F900F900F90DF91CF911F910F9160
:100490000895811182E0A0CF81118AE09DCF811162
:1004A00088E09ACF811188E297CF811180E294CFC2
:1004B000811182E291CF81118AE28ECF81E008958D
:1004C000CF93DF9300D000D000D0CDB7DEB79091AE
:1004D0000C012091D8013091D901285B3A4009F4F0
:1004E00092E0843019F46093180121C06623F9F07A
:1004F000823019F427E9261B622F26E0EAE3F1E0B7
:10050000DE01119601900D922A95E1F7E82FF0E0B7
:100510003197EE0FFF1F21E030E02C0F3D1FE20F5F
:10052000F31F0190F081E02DE90FF11D6083269605
:100530000FB6F894DEBF0FBECDBFDF91CF91089507
:10054000BF92CF92DF92EF92FF920F931F93CF93C0
:10055000DF93EC0140910C0190911701992311F068
:10056000E2E001C0E42FF0E0E45FFE4F228120933F
:100570000901858180930801E92FF0E0E45FFE4FD7
:100580003185622F70E0442349F0313039F49B010A
:10059000280F311DC9019595879538C0C617D70713
:1005A000A4F1682F70E06C177D0784F1411102C03F
:1005B0008C2F2CC0821B032F10E001501109E82E54
:1005C000F12CC701B8010E9492146093B4016695A2
:1005D000E62FF0E0822FC12CD12CB12CB316B1F054
:1005E000C601B8010E947E14822F860FCE0CDF1C3C
:1005F000AE01481B510957FF03C051954195510960
:10060000E417F5071CF4B394E9CF822FDF91CF9163
:100610001F910F91FF90EF90DF90CF90BF900895C2
:10062000ECE0F1E0868580930A018389808B8093DA
:10063000BE0108958091B001882351F09091BD01D1
:100640009093B3018093AF011092AE011092AD016F
:1006500008950F931F93CF939091DC012FEF290FF3
:10066000233710F480E09AC0E82FEF702091B10199
:10067000211125C0C82FC295CF702091320130E0E2
:1006800043E0220F331F4A95E1F762177307C0F466
:100690008091B601482F50E0421753078CF488230D
:1006A00079F021E08091BC018F3008F420E081E0F6
:1006B000C23009F080E0822BC1E0C80F36C0C2E032
:1006C000E73088F1E730A9F400918B0110E00F5F6B
:1006D0001F4F6DDE65E00E9472149801290F311DD5
:1006E000C90166E070E00E94921480938B01FC01C6
:1006F0003AC0E830D1F48091BF01882311F02FE097
:1007000001C023E030E062237323672B51F4809112
:100710008B0190E0019666E070E00E949214809355
:100720008B01E0918B01F0E01EC08091BF01882316
:1007300081F080E0E82FF0E0ED5AFE4F2081921723
:1007400010F08E5FF7CF3197E081F0E0EE57FF4F6A
:100750000CC0CB019695879563E070E00E947E14F3
:10076000FC01EE0FFF1FED57FF4FE491C33071F412
:1007700080918A0190E0019663E170E00E947E140E
:1007800080938A01DC01A05CBE4FCC91CC2321F088
:10079000C13019F0EE0F01C0E0E08E2FCF911F9114
:1007A0000F911ACE81E00895823019F460933201DE
:1007B0000895611160932D010895662389F08130B9
:1007C00061F48091DA0190912F01891B681B60937D
:1007D0002F0182E080930B0103C0635E60932E01C2
:1007E00080912E01873418F086E480932E010895BD
:1007F000609333010895E82FF0E0E45FFE4F67A3B4
:1008000008957FEF780F40911D0150911E016623DE
:1008100059F021E030E002C0220F331F7A95E2F751
:10082000CA01822B932B0AC081E090E002C0880F9E
:10083000991F7A95E2F780958423952390931E0162
:1008400080931D010895CF93DF938CE091E0909306
:10085000B9018093B801F894C0E0D0E0E091B8010C
:10086000F091B901EC0FFD1F60812196CE010E942D
:10087000CF14CB32D10591F765EA80E090E00E9479
:10088000CF147894DF91CF910895CF93C82F8091A2
:10089000BF01811101C0A0DDC11115C08AB78F77DA
:1008A0008ABF1092200210921F0210926B001092C9
:1008B0006A0010926D0010926C0010926F001092FE
:1008C0006E008F980FC0E091BE01F0E0EE0FFF1FA9
:1008D000EE0FFF1FEB59FE4F0190F081E02D8FEFDF
:1008E0008C0F09958091BD01C8138093BC01C09302
:1008F000BD01C093BB01C23010F482E005C0CB3013
:1009000010F481E001C080E0CF91BECCCF93C091C4
:10091000BD0189E18C0F873908F080E0B6DF82E005
:1009200018DD8C2FCF91B1CFCF93C091BD0180E066
:10093000ACDF83E00EDD8C2FCF91A7CF8093B50184
:100940009091BD01981718F4282F291B02C0292F58
:10095000281B3091A701311106C0309121013323AA
:1009600069F0223058F08093A80184E08093A601BA
:1009700081E08093A7019093A901089586CFCF933A
:10098000DF939091BE01981759F0C82FD091BD0107
:1009900080E07BDFC093BE018D2FDF91CF9175CFBB
:1009A000DF91CF91089590E02091BD0130E021507A
:1009B00031098217930789F1FC01EE0FFF1FE05EFA
:1009C000FE4F25913491FC01E657FF4F84913093FF
:1009D000200220931F02220F232F221F330B319559
:1009E00020931E02332730936B0020936A00282F38
:1009F00030E030936D0020936C009AB790689ABFF6
:100A00009091BD01911104C010926F0010926E0080
:100A1000882311F08F9808958F9A0895843938F5B6
:100A2000E82FF0E0EE0FFF1FE05EFE4F459154917E
:100A300020911F0230912002932F969580E0241779
:100A4000350718F42F5F3F4F05C04217530710F4C6
:100A5000215031098F5F981790F73093200220932F
:100A60001F0281E04217530719F080E0089581E0EA
:100A700008951092E80180B191B12091BA01829558
:100A8000869586958370990F990F890F820F8093B1
:100A9000BA018091DD01882309F432C11092DD0191
:100AA0008091E6019091BF01992329F01F9810923F
:100AB000E9011092E601811153C080910B01882356
:100AC00029F08091E2019091E3011AC08091BF0169
:100AD0002091DE013091DF018823B9F08091E2019D
:100AE0009091E301A3E096958795AA95E1F7820F8F
:100AF000931FB3E036952795BA95E1F7821B930BC8
:100B00009093DF018093DE0101C0C90120912D0186
:100B10002750220F67E471E00E947E14260F209375
:100B2000DC018091A401882311F0815007C0243793
:100B300038F460E070E084E0ADDB85E08093A401F0
:100B40008091BF018111D3C088E082B98BE084B964
:100B500081E08093E6011092E7018EEE83B9C7C071
:100B6000813009F0C4C080910B01882341F080914D
:100B7000E4019091E5019093E1018093E00160919F
:100B8000E0017091E1016054734380E090E024E65D
:100B900030E040E050E00E94591429E931E040E0A3
:100BA00050E00E94A514205C3B4B60912F01A901ED
:100BB000E6E056954795EA95E1F7062E000C770B8F
:100BC000CB0183519140840F951F9093DB0180935B
:100BD000DA01F5E036952795FA95E1F780910B015A
:100BE000811128C080919301E82FF0E0EE0FFF1FE4
:100BF000EC56FE4F40815181D901A41BB50BAD01CC
:100C0000318320838F5F87708093930180912E01C1
:100C100090E08D5E9E4F861B970B880F991F281BB7
:100C2000390BCD01880F991F880F991F280F391F85
:100C300083E010C0E4E9F1E021933193B1E0E43ABC
:100C4000FB07D1F7CFCF2115310511F02F5F3F4FB3
:100C5000815031F012161306B4F721503109F8CF44
:100C600012161306E4F457FD39C08091920118164C
:100C70000CF1220F331FB9016350710977FF02C0D5
:100C80006F5F7F4F759567951616170614F061E034
:100C900070E088E1861B8093920185E026C02C3F9E
:100CA0008FEF3807DCF457FF19C08091920187FF5E
:100CB00005C08450821B8093920118C084EE821B71
:100CC000809392018091DC01863780F06CEF7FEF9A
:100CD000621B730B7595679586E007C08091DC01F8
:100CE000853720F060E070E087E0D4DA47DB809160
:100CF0000B01882329F080910B01815080930B0117
:100D00000895813019F410921A010895823019F46F
:100D100060931B010895833019F4609319010895BD
:100D2000843019F460930D010895853011F46093B7
:100D300021010895CF93C0911701C1114FC0883090
:100D400039F41092B0011092AE011092AD0147C07B
:100D5000813B81F48091B0018150833008F03EC026
:100D600083E08093B0018093AF011092AE011092A6
:100D7000AD0134C0853BB1F4CB016EE370E00E945D
:100D80007E14892B61F58091B0018A3F40F58B5F1D
:100D90008093B0018093AF011092AE011092AD012B
:100DA000B5DD1DC08130D1F48091AD019091AE01CF
:100DB000019688382EE0920728F49093AE01809334
:100DC000AD010DC01092AE011092AD018091B00145
:100DD000882329F081508093B00101C0C1E08C2F9D
:100DE000CF910895FF920F931F93CF93DF938C01C0
:100DF000EB01F42E8091D8019091D901892B31F02B
:100E0000E091D801F091D90189E009951093D901B9
:100E10000093D801012B39F0E091D801F091D9016C
:100E2000BE018F2D099581E08093B701DF91CF91AD
:100E30001F910F91FF900895CF93DF93E091C70129
:100E4000EE2359F0E150E093C701F0E0EE0FFF1FF1
:100E5000E853FE4FC081D18102C0C0E0D0E0E091F4
:100E6000C701EE2341F0F0E0EE0FFF1FEA53FE4F03
:100E70008081918102C080E090E04AE060E070E013
:100E8000B1DFCE01DF91CF910895883029F410921F
:100E9000A50110928C0115C0813001F590918C0153
:100EA000911107C06032710570F180938C0147DAAF
:100EB0002AC0913089F46B3B710528F082E0809361
:100EC0008C0180E01FC061157105E9F06270862F0A
:100ED000880F880F8E5E16C0AFDF15C0813811F005
:100EE000813E89F491E090938C01813E21F48091C0
:100EF000A501865F03C08091A5018F5F8093A50146
:100F00001EDA8BE4C2DC80E008959C019091C70159
:100F1000983088F4E92FF0E0EE0FFF1FE853FE4F02
:100F2000318320839F5F9093C70148E0C9015ADF56
:100F30008091C70108958FEF08950F931F93CF936A
:100F4000DF93EC018B0178DFB801CE01DF91CF9107
:100F50001F910F91DACF813C29F460E070E087E2C5
:100F60009CE006C0823C39F460E070E08AED9AE0D3
:100F7000E4DF80E0089581E00895843011F58091E8
:100F8000D8019091D9012EE08E39920729F469E1B8
:100F900070E086E298E013C08652984061F4909128
:100FA000BD01923040F0892F869596959695890FD0
:100FB000C5DC80E0089560E070E087E29CE0BDDF82
:100FC000F8CF81E00895813C29F460E070E087E289
:100FD0009CE006C0823C31F460E070E08BEA97E070
:100FE000ACDF16C0813B49F4CB016EE370E00E9498
:100FF0007E14892B69F48ADC0BC0813E59F4CB0145
:101000006EE370E00E947E146F5F60932C011BDC26
:1010100080E0089581E00895813C29F460E070E06B
:1010200087E29CE006C0823C31F460E070E083EE31
:1010300097E083DF07C0873B39F460E070E084EC21
:101040009AE063DF80E0089581E00895BF92CF9237
:10105000DF92EF92FF920F931F93CF93DF93182F9E
:10106000EB0180911C018093BE01D0900901F090AA
:10107000080180910C01882319F0B090B40102C0DE
:10108000BB24B394C0900D01809117018111C090D1
:101090001801CC2051F081E0C81621F080910A019E
:1010A0008F1518F0F6E9EF2E01C0EF2C0091B0017A
:1010B000BE01812F3FDE8091B001882339F00111FC
:1010C0000CC09091BD019093B30107C0002329F09B
:1010D00060E070E087E29CE036C0912F9D7F983001
:1010E000D9F41092AC011A3019F4C0910A01D0E081
:1010F0008D2D90E08C179D0738F48F2D90E0C81748
:10110000D90710F4C0930A01CE011ADA17DC81E086
:101110008093050100E0B6C1113CD1F2123C59F4B4
:101120008091BD018E1510F48E2D02C080910A01B0
:1011300005DC80DAEFCF143C41F480E0A6DB60E010
:1011400070E08DE39BE0F9DEE5CF9FE4910F9230F4
:1011500008F05AC080910C01882341F0CE0168E16B
:1011600070E00E947E14892B31F0D4CF609114017D
:1011700070E0CE01F6CF0091A7010111CBCF2091F5
:10118000BD01209761F4123B11F48FEF05C02F15BC
:10119000E0F7D21608F181E0809305011DC0E091CF
:1011A0001401F0E0CF0166E371E00E9448148C174F
:1011B0009D0710F42F1548F7CF016CE672E00E94EE
:1011C00048148C179D0740F4D21630F09FDB60E086
:1011D00070E08DE39BE0B1DEC091BD01809105011F
:1011E0006B2D70E0082E000C990B0E9448148C0F98
:1011F000911DA6D980930A01C81719F0F81201C0F1
:1012000093DB80910A01FFC09FE1910F923020F49F
:101210008091050181957CCF113009F086C0A99796
:1012200011F410930501882379F10091B30110E0C6
:1012300090E0B8010E944814EC01E091AF01F0E0A9
:10124000BF010E949214262FCE01801B910BBF017B
:101250000E949214322F361B8091AD019091AE0105
:101260006EE370E00E947E14832F90E00E94481489
:101270006CE370E00E947E14261B622F09F461E08B
:101280006093BB016093B501C091BB012091BD018A
:101290008C2F90E0821B910960918F0170919001D9
:1012A0006F5F7F4F7093900160938F01009709F4F7
:1012B00031CF97FF05C02D3830F040E450E005C035
:1012C00040E052E002C040E051E05695479597FD5E
:1012D0000196959587950097C1F74617570708F02F
:1012E00019CFC21710F4CFEF03C02C1710F4C1E0D0
:1012F000C20FE091BE01F0E0EE0FFF1FEE0FFF1FE7
:10130000EB59FE4F0280F381E02D8FEF8C0F099592
:10131000882331F0D091BB018C2FB7DAD093BB0179
:101320001092900110928F01F5CE1530A1F48091AA
:10133000BD01833308F4EECE90E08C1B9D0B82330D
:10134000910534F08739910564F186E990E029C070
:1013500082E390E026C01630B1F49091BD018091F7
:10136000B501981708F0D6CEC90FD11D90E08C17A3
:101370009D0734F0C233D10524F4C2E3D0E001C0AC
:10138000EC018C2F0EC0173079F49091BB01809145
:10139000BD01891710F48F5F04C0981708F0BACE0A
:1013A00081508093BB01B6CE00911701011169C035
:1013B000133C19F0163C51F517C060911D01709156
:1013C0001E0180E090E020E0AB01082E02C056959F
:1013D00047950A94E2F74170240F019688309105F1
:1013E00099F7223008F04DC081E090910C019111E5
:1013F00080E080930C0127DA97DA8091BD0190E0BC
:101400009FD880930A019ADA15D93CC0133B49F45E
:10141000CD2B09F07FCECC2011F086E9E82E8E2D61
:1014200004C0133E21F480910A0188DA2BC0153CD8
:1014300061F48091BD0180930A0180E026DA60E0CA
:1014400070E084E490E179DD1DC0173B29F460E091
:1014500070E084EB9AE013C01A3C59F48091BD010E
:1014600080931A018091BE0180931F01ECD94EDA5E
:1014700009C01A3B31F460E070E08CEB9AE045DD86
:1014800001C001E0802FDF91CF911F910F91FF905C
:10149000EF90DF90CF90BF9008950F931F93CF935D
:1014A0008B01C42F883091F48091BE0180938E010E
:1014B00010928D0180E0E9D98091C00181114FC067
:1014C00080918D018F5F80938D0133C0982F907F25
:1014D000903B21F580918D014817E8F081508830CC
:1014E00040F49091B201992321F09091BE018913AB
:1014F00046DAC8016DE570E00E947E14069749F453
:1015000080918D018F5F80938D01C81740F188E332
:1015100003C082E101C080E0B8D921C0903E79F4D7
:1015200080918D018823A1F0481790F080918E0161
:1015300026DA60E070E085E497E0E7DC10C08A30EE
:1015400049F46091A50180918D01F90109957BD93C
:1015500073DC05C0893019F480918E0110DA80E0C7
:10156000CF911F910F91089520E632E043E095CF8F
:1015700020E632E044E091CF21E836E045E08DCF2F
:1015800024ED33E042E089CF2DED33E042E085CF1A
:1015900028EF33E041E081CF2BEF33E043E07DCF14
:1015A00091E09093B20121E034E048E076DF1092C0
:1015B000B2010895CF93C0911701C11123C0813C9E
:1015C00029F460E070E087E29CE006C0823C31F4E0
:1015D00060E070E08CE098E0B0DC15C0833C51F432
:1015E0008091200190E001968770992780932001D7
:1015F0002AD909C0873B31F460E070E080EC9AE0C2
:1016000084DC01C0C1E08C2FCF910895CF93833C3F
:1016100021F54091BE0160911D0170911E01842F42
:1016200098E0282F30E02F5F3F4F27703327822F1D
:10163000FB0102C0F695E7952A95E2F7E0FF0AC0A4
:101640004817B9F09CD98091BE0180931C01FBD84A
:10165000C0E010C0915029F7F3CFC0911701C1111C
:1016600008C0893B31F460E070E080ED9AE04DDC29
:1016700001C0C1E08C2FCF9108950F931F93CF939A
:10168000DF93C82F8B01873B19F480E0FED87FC021
:1016900080798039B1F420910E0190910F018C2F47
:1016A0008F70813021F4822F921748F407C0809107
:1016B0001A01811104C0822F291708F4892FE5D857
:1016C0000FC0803811F480E0E0D8C83049F410929F
:1016D000B60160E070E0809131010E94290357C09B
:1016E000C13039F40931110508F496C0C093BF0127
:1016F00019C0C330E9F48091B6018F3F19F08F5FB4
:101700008093B60180911A01882361F080911B01BA
:1017100090E062EC71E00E9448140817190710F07D
:101720000E941003B801809131010E94290374C006
:10173000C33C31F4EBD860E070E087E29CE014C079
:10174000C43C21F460910A0170E00CC0C43B31F448
:10175000EBD810921C0261E070E004C0C53C31F48B
:1017600066E970E086E298E0E8DB56C0C33B79F4B6
:10177000C8016EE370E00E947E14892B41F460E0A2
:1017800070E083ECDF91CF911F910F913FCFD0910B
:101790001701D11143C0C73CA1F490913101892FA9
:1017A00082958F708F5F83708295807F9F70892B69
:1017B0008093310160E070E00E94290344D8A6D8EC
:1017C0002EC0C73BD9F481E08093B101C8018F736B
:1017D0009927892B69F490913101892F8F708F5F40
:1017E000292F207F6BE00E947214922B909331017D
:1017F000B801809131010E94290311C0C73E21F434
:101800001092B10120D80BC0CA3B41F460E070E0F7
:1018100088EC9AE07ADB03C0D0E001C0D1E08D2FE4
:10182000DF91CF911F910F910895909121019923FC
:1018300069F08093A80188E08093A60181E08093FD
:10184000A7018091BD018093A90108951EC80F933F
:101850001F93CF938B018830A1F480E0E6DF809165
:10186000A701082B1092B60180911C018093BE0144
:101870001092B001012B09F059C081E08093BF01A3
:1018800055C0813059F46931710508F44FC0C091D9
:10189000A701C1114BC08093BF0108C1833039F546
:1018A0008091B6018F3F19F08F5F8093B6018091D0
:1018B0001A01882359F080911B0190E062EC71E0DD
:1018C000E7D70817190710F00E941003B80180919C
:1018D00030010E94290380913301882339F190E07F
:1018E00062EC71E0D5D78017910700F554C0813BB9
:1018F00099F481E090E00E94A00297DF80911901A5
:10190000811114C080910C01811103C008311105AF
:1019100068F061E070E02AC0813ED9F3813841F47B
:1019200080910A0190E00E94A0027FDFC0E0BEC06B
:10193000813C21F460910A0170E018C0823B81F47F
:101940001092B60180910D01909117019111809133
:101950001801811103C086E990E0E5CF86E9E5CF63
:10196000823E59F0823C29F466E970E086E298E014
:101970000CC0833921F41092A70180E0D6CF833CBC
:1019800031F460E070E08AED9AE0D7DACFCF843CA2
:1019900039F40E94860460E070E08DE39BE0F5CFAF
:1019A0008D3B41F4F89488ED8FBD88E880BF789432
:1019B000A895FFCF8F3C29F460E070E082ED93E0C2
:1019C000E4CFC09117018A3B89F4672B79F4CC23CB
:1019D00039F00E948604109217010E942304A6CFBA
:1019E00060E070E088EB9AE090DA60C0C1115DC001
:1019F000833B29F460E070E08EE99EE054C0873CB0
:101A0000B1F490913001892F82958F708F5F837030
:101A10008295807F9F70892B8093300160E070E019
:101A20000E9429030E9423040E9486043FC0873B32
:101A3000D1F481E08093B101C8018F739927892B7C
:101A400061F490913001892F8F708F5F292F207F53
:101A50006BE048D7922B90933001B8018091300110
:101A60000E94290323C0873E19F41092B10107C0D8
:101A70008A3C41F40E94860481E0809317010E9411
:101A8000230414C0853C39F40E94860460E070E0B1
:101A900084E490E108C0863C41F40E94860460E042
:101AA00070E08CE890E149DA01C0C1E08C2FCF9161
:101AB0001F910F9108950F931F93CF931092C2011E
:101AC00080911A0290911B029C012F5F3F4F882743
:101AD0009078822B932B90931B0280931A02C091D3
:101AE000C0010E94CE01C81731F11092BF0180934E
:101AF000C00190911C02882359F0892F80699F7042
:101B00009F3009F08F5F80931C0280E090E00DC051
:101B1000892F8F7E95FD02C0806801C0806C809304
:101B20001C0280911A0290911B020E949B0110924C
:101B30001B0210921A0200911A0210911B0280914E
:101B4000BF018823B1F0B80183E00E944A010E94DE
:101B500064010134110528F00F701127012B09F0E1
:101B600049C01092910181E08093E9010E94BE0179
:101B700032C0C0911C028C2F807F803B19F460E042
:101B800070E001C0B80181E00E944A01C4FF13C0A7
:101B9000C5FF02C0C8010CC008311105E0F0109269
:101BA0001B0210921A02C062C0931C0280E090E0F7
:101BB0000E949B0110C0CC2371F0C5FD0AC0023108
:101BC000110548F0C064C0931C0280E090E00E94C0
:101BD0009B010E949F0180919101811105C08EEEB1
:101BE00083B981E08093DD01809191018F5F8F71D6
:101BF00080939101CF911F910F9108958091E801F9
:101C000081110E9439058091C201811154CF08953C
:101C1000EF92FF920F931F93CF93DF93EC0104EAAF
:101C200016E089EAE82EFF24F3942097D9F08091FA
:101C3000B701811119C08091BD01823028F482E082
:101C40000E944401C70104C080E00E944401C80111
:101C50000197F1F780E00E944401D0DF0E94640107
:101C60002197E3CF81E001C080E0DF91CF911F9108
:101C70000F91FF90EF9008950F931F93CF93DF93F1
:101C8000C82F882311F006EA02C00AE0C1E0D09113
:101C9000BE0110E0809120010E94BF0489E10E94F2
:101CA0004504D093BE01C801B3DF809120010E949A
:101CB000BF0480E00E944504D093BE018AEF90E00B
:101CC000A7DFC15039F78D2F0E94BF048AE992E047
:101CD000DF91CF911F910F919BCFCF93DF9364E65C
:101CE00001D6282F892F6AE0FDD5EC01222341F08F
:101CF000822FC2DF8C2FC0DF8D2FDF91CF91BCCF21
:101D0000C111F8CFF9CFCF93DF93D82FC3E08091E3
:101D10000A010E94450488EC90E07ADFDD2319F087
:101D200080E991E075DF80E00E94450488EC90E056
:101D30006FDFC15061F7DF91CF910895FF920F934C
:101D40001F93CF93DF93D82F8B01C091AA0181E01D
:101D50008093AC01C43009F0E7C0F090B0018D2F42
:101D60000E949A06FF2051F08091B001811106C0B7
:101D700060E070E087E29CE0E0D8D6C0D83021F483
:101D800081E080930301D2C0D23C19F41092B001DB
:101D9000E0C0D13BC1F490910201012B49F49E3681
:101DA00010F08FEF03C0923018F481E080930301AC
:101DB00080910301890F11F481E048C18F3608F446
:101DC00045C18EE643C1D13E31F480910301819536
:101DD000809303010FC1D23B61F481E08093030142
:101DE00080910201823008F40DC18150809302017C
:101DF00009C1D13009F0B1C00932110511F4D093F5
:101E0000030190918901892F880F97FD809590E0BB
:101E100067E070E03DD5292F80918801682F660F1B
:101E200087FD60958091010170E090E031D5290F28
:101E300080918701682F660F87FD60958091000172
:101E400070E090E025D5920F6091020170E0690F7B
:101E5000711D8091B001813091F48091AD0190911C
:101E6000AE0125E0969587952A95E1F724E730E0C5
:101E7000A901481B590BCA010BD5B9013FD5862FC3
:101E80000E94450400FD08C00E94D7018170909116
:101E90008901890F80938901909188018091860141
:101EA000890F809388010E94D70165E21BD580913C
:101EB0008701980F909387010E94D7018F7331F4A7
:101EC0000E94D7016DE00ED590938601C09101016B
:101ED000CC2339F00E94D7018F7319F4C150C093FD
:101EE00001010E94D701811108C00E94D7016BE057
:101EF000F9D49093010110928801C0910001C33080
:101F000038F00E94D7018F7119F4C150C0930001BD
:101F10000E94D7018F7709F0A5C00E94D70166E023
:101F2000E1D4909300019EC0D83041F48091220109
:101F30008093AA0181E0809304018AC0D13C39F4E6
:101F400060E070E087E29CE00E949D0781C0D23C87
:101F500031F48C2F90E0019617C0D13C89F3D33C2B
:101F600071F48091BE018F5F87700E94BF04EC2FD7
:101F7000F0E0E45FFE4F8091BE01878B56C0D43CF9
:101F800059F48C2F90E0059666E070E0CBD48093F6
:101F900022018093AA0149C0D13B51F5C23090F48F
:101FA00000FD56C0EC2FF0E0E45FFE4F858D909170
:101FB0000401891B883020F08F3F99F58EEF31C0E6
:101FC00088E02FC0C53009F043C090912B0180916B
:101FD0000401890F823010F482E003C0893708F0D1
:101FE00088E780932B0180912B010E94450430C02B
:101FF000D13E31F48091040181958093040115C094
:10200000D23B89F481E080930401C23018F500FDD1
:102010001FC0EC2FF0E0E45FFE4F858D8F3FC1F0D5
:102020008F5F858F15C0D23E19F40E94230410C023
:10203000D53C41F460E070E084E490E10E949D07AB
:1020400080E0D3CFD13071F081E018C080930201DD
:1020500080E014C0C530E1F780912B01833018F285
:102060008150BFCF0932110519F481E0809304013A
:102070008091BA01080F0093BA01EACFDF91CF91A6
:102080001F910F91FF9008950F931F93CF93DF93AC
:10209000D82F8B01883031F48091AC01882311F066
:1020A00088E04CDE8D2F8079803961F481E0809367
:1020B000AB01C091AC01C1110CC080910A010E941A
:1020C000450424C0803839F41092AB0180E00E94AE
:1020D0004504C0E01BC0D130C1F4C091AB01CC239A
:1020E00059F08091AC018823A1F3B80181E0DF9120
:1020F000CF911F910F9122CE80E00E94EC01073317
:10210000114038F3D093BF0101C0C1E08C2FDF91A3
:10211000CF911F910F910895FF920F931F93CF932B
:10212000DF93D82F8B01F0900A018079803951F527
:10213000ED2FEF70E43020F01092AB01C0E036C01C
:1021400091E09093AB01F0E0E45FFE4F87A12FEFA9
:10215000280F263948F480930A011092AC0180912F
:102160001C018093BE010CC09093AC018739D0F064
:1021700090E08759910966E070E0D4D38093AA017A
:10218000C0E00BC0803841F41092AB0180E00E94A7
:10219000450481E08093B701C1E08091AB018823C1
:1021A00029F001C0C0E0B8018D2F6EDFF0920A0166
:1021B000D83021F4B80188E060DA28C0D13039F491
:1021C0008091AB01811120C0B80181E004C0D330FF
:1021D00041F4B80183E0DF91CF911F910F91FF90FF
:1021E0004CCAD63C49F40E94860460E070E087E265
:1021F0009CE00E949D0708C0D73B41F460E070E07E
:102200008CEC9AE00E94850780E001C08C2FDF9162
:10221000CF911F910F91FF9008951F920F920FB6CB
:102220000F9211242F933F938F939F93AF93BF935C
:10223000EF93FF938091E7018823E9F0E091E601B5
:1022400020B131B1F0E0EE0FFF1FDF01AE51BE4F04
:102250002D933C93E252FE4F808191818217930728
:1022600008F401962817390708F4019791838083B1
:1022700081E08093E80181E08093E701FF91EF9195
:10228000BF91AF919F918F913F912F910F900FBE72
:102290000F901F9018951F920F920FB60F92112456
:1022A0008F9381E08093C2018F910F900FBE0F90AA
:1022B0001F9018951F920F920FB60F9211248F93B3
:1022C00081E08093C1018F910F900FBE0F901F90FE
:1022D00018951F920F920FB60F9211242F933F93D0
:1022E0008F939F9380911E0290E090936B00809358
:1022F0006A0020911F0230912002922F9F778091D7
:102300001D02890F220F232F221F330B3195982F87
:10231000991F9927991F290F20931E028F77809369
:102320001D029F918F913F912F910F900FBE0F90A3
:102330001F901895F89485B7877F85BF88ED90E04A
:102340000FB6F894A8958FBD90B7977F90BF0FBE3A
:1023500088E08CB988EF80BB82EA8093720081E1CB
:10236000809371008FEF90E09093690080936800F4
:1023700084E082BB87BD8CB788608CBFA89580E461
:1023800080BF0E94BE01789481E00E94A90160E0B4
:1023900070E08DEB97E00E9485071092B7010E94D4
:1023A00086040E94CE01811114C08CE091E09093CC
:1023B000B9018093B801F89480E090E0E8D2853AC2
:1023C00009F040C00091B8011091B901C1E0D0E01E
:1023D00030C0C0E08C2F0E94450483E190E018DCFF
:1023E0008C2F86950E94450483E190E011DC0E94C9
:1023F000CE01882399F0CF5FC03461F765E181E0B9
:102400000E94DD030E942304C6E98C2F0E9445042C
:1024100084E090E0FDDBC150C1F7C7CFCC2309F4C5
:10242000C4CF8C2F0E9445048DE090E0F1DBC150B9
:10243000F5CFCE01ACD2F80181938F012196CC3239
:10244000D105B9F7789480911A0181110E94100387
:1024500060E070E086E09BE00E94850761E070E04C
:1024600087E29CE00E94850743E4442E52E0B52EAB
:1024700060E4A62E7724739477E0672EEDE05E2E5D
:10248000F7E2CF2EFCE0DF2E0E9464018091C501AF
:102490009091C601009751F06091C3017091C40101
:1024A0000E949D071092C6011092C5018091BF0144
:1024B000882309F448C080E00E944504A89540BEE6
:1024C0001F980E94CE018111FCCF0E949F018CB702
:1024D00088608CBF1092E8011092C2011092C10175
:1024E0008091BF01882331F18091E901882321F097
:1024F00086B78F79806203C086B78F79806486BF84
:1025000086B7806186BF889586B78F7E86BF8091AB
:10251000C10181111092BF018091E801882321F04F
:102520007092DD010E9439058091C2018823C1F2B9
:10253000C2DAD6CFB0920B018CB7877F8CBF0E94D6
:10254000BE01A895A0BE5ADB1092B7018091D801B8
:102550009091D901F3E0823D9F0719F5C0E7D0E0E3
:10256000FE0184918053803110F486DB11C010E0AD
:10257000812F81708295880F807E0E94450480E1C2
:1025800090E046DB1F5F193199F78AE992E040DB62
:102590008CE291E03DDB2196F0E0C138DF0701F7E6
:1025A000F7C02EE08E39920799F0E0E184349E075F
:1025B00029F0F0E18C389F0709F0D2C02091AC01DE
:1025C000213009F0CDC02091AB01222309F4C8C00D
:1025D000C091AA01EC2FF0E0E45FFE4F8789809361
:1025E000BE01C230D1F030F0C330B9F1C53009F4CA
:1025F0009AC04ACFD58D86E90E944504C11103C017
:1026000081E090E003C08D2F869590E001DB80E0B3
:102610000E9445048D2F90E02EC1D0910A01C0E0A8
:10262000C11102C081E003C0C53019F485E00E94E9
:10263000BF048D2F0E94450481E290E0E9DA80E03A
:102640000E94450482E490E0E3DACF5FCA3041F7AC
:1026500080911C018093BE0117CF0E94D7018F7318
:10266000E82EF12C0E94D701662D3CD101E010E04C
:10267000480102C0880C991C9A95E2F70E94D70184
:1026800065E030D1E80102C0CC0FDD1F9A95E2F77A
:102690008C0E9D1E0E94D70190E0B40143D1E4014D
:1026A000C80FD91FC739D10514F0C6E9D0E08C2F67
:1026B0000E944504C701ACDA8E0133E015950795F9
:1026C0003A95E1F7011101C001E010E0C701A0DA7D
:1026D000C01BD10BD7FF02C0C0E0D0E08C2F0E94FE
:1026E00045040E94D701837039F4C70191DACE0105
:1026F000959587950E944504C230D1053CF70E940C
:10270000D701652DEFD0C1E0D0E002C0CC0FDD1FB6
:102710009A95E2F70E94D70190E0BE01EFD0C80F72
:10272000D91F80E0A5C0C0912B01CC0FC73908F09C
:10273000C6E9D4E08C2F0E94450485E090E068DA79
:1027400080912B010E94450481E490E061DAD15030
:1027500089F780ED92E05CDA80E00E94450494CE37
:102760002AE08A3D9207E9F488EE93E051DA8091FD
:10277000DC0186958695B1DA9091DC019370892F02
:10278000880F9695890FA9DA80911701882381F027
:10279000D092C601C092C5011092C4011092C3012B
:1027A00073CEE8E08C309E0731F48091DA0195DA3F
:1027B00088EE93E060C0F7E0833E9F07B9F4809114
:1027C000C001811161CE80910A010E94450484E616
:1027D00090E01EDA80E00E94450480912C0190E098
:1027E00068EE73E055D08456910945C08B5A9740E6
:1027F00049F480E088DA81E086DA80E084DA80EDEE
:1028000097E039C0809121018823B9F18091A70117
:10281000882399F12091BD013091A80123130AC0AA
:10282000822F0E9445041092A7018091A9018093F4
:10283000BC012ACE6091A601231760F4832F821B6E
:1028400051D0811101C081E0820F0E9445048AE0CD
:1028500090E011C0862F90E06EE170E019D0609199
:10286000A901631B70E05ED0EB0121968FEF820F10
:102870000E944504CE01CCD907CE86B78F7986BF9A
:1028800086B7806186BF889586B78F7E86BFFCCD70
:102890000024552704C0080E591F880F991F009760
:1028A00029F076956795B8F37105B9F7802D952FC6
:1028B0000895EE27FF27AA27BB2708C0A20FB31F42
:1028C000E41FF51F220F331F441F551F9695879550
:1028D0007795679598F37040A9F7009799F7BD0130
:1028E000CF010895991B79E004C0991F961708F04D
:1028F000961B881F7A95C9F780950895AA1BBB1B64
:1029000051E107C0AA1FBB1FA617B70710F0A61BEF
:10291000B70B881F991F5A95A9F780959095BC0110
:10292000CD01089597FB072E16F4009406D077FD8D
:1029300008D0E4DF07FC05D03EF4909581959F4FC9
:102940000895709561957F4F0895A1E21A2EAA1BF4
:10295000BB1BFD010DC0AA1FBB1FEE1FFF1FA2174F
:10296000B307E407F50720F0A21BB30BE40BF50B4C
:10297000661F771F881F991F1A9469F760957095D5
:10298000809590959B01AC01BD01CF010895E1991F
:10299000FECF1FBA8EBBE09A99278DB30895262FDC
:1029A000E199FECF1FBA8EBBE09A81500DB202169C
:1029B00039F01CBA2DBB0FB6F894E29AE19A0FBE1B
:0629C0000895F894FFCF1A
:1029C600060B180101010004950138020002010AF4
:1029D6000A95957801070501000000000001000036
:1029E6000001040000000000002943320207320003
:1029F60019390400781E980504030E01110114010B
:102A060002010000000000000001000000000000BC
:102A16000000010000740184028C0394049C05A448
:102A260006B007FF07D3040E0549025E024C025E9C
:102A3600024F025E0252025E0255025E0258025EBA
:062A4600025B025E0200CB
:00000001FF
